{
  "_format": "hh-sol-artifact-1",
  "contractName": "Circle",
  "sourceName": "sol/base/Circle.sol",
  "abi": [
    {
      "inputs": [
        {
          "internalType": "address",
          "name": "from",
          "type": "address"
        },
        {
          "internalType": "uint256",
          "name": "amount",
          "type": "uint256"
        }
      ],
      "name": "burn",
      "outputs": [],
      "stateMutability": "nonpayable",
      "type": "function"
    },
    {
      "inputs": [
        {
          "internalType": "address",
          "name": "to",
          "type": "address"
        },
        {
          "internalType": "uint256",
          "name": "amount",
          "type": "uint256"
        }
      ],
      "name": "mint",
      "outputs": [],
      "stateMutability": "nonpayable",
      "type": "function"
    }
  ],
  "bytecode": "0x608080604052346013576089908160188239f35b5f80fdfe608060405260043610156010575f80fd5b5f3560e01c806340c10f1914602c57639dc29fac14602c575f80fd5b34604f576040366003190112604f576004356001600160a01b0381168103604f57005b5f80fdfea264697066735822122020faf94a0cfdbfa8466b2076a1e576425d734be810692f06c4a33cf7abadedaa64736f6c634300081c0033",
  "linkReferences": {},
  "deployedLinkReferences": {}
}