{
  "_format": "hh-sol-artifact-1",
  "contractName": "Circle",
  "sourceName": "sol/base/Circle.sol",
  "abi": [
    {
      "inputs": [
        {
          "internalType": "address",
          "name": "from",
          "type": "address"
        },
        {
          "internalType": "uint256",
          "name": "amount",
          "type": "uint256"
        }
      ],
      "name": "burn",
      "outputs": [],
      "stateMutability": "nonpayable",
      "type": "function"
    },
    {
      "inputs": [
        {
          "internalType": "address",
          "name": "to",
          "type": "address"
        },
        {
          "internalType": "uint256",
          "name": "amount",
          "type": "uint256"
        }
      ],
      "name": "mint",
      "outputs": [],
      "stateMutability": "nonpayable",
      "type": "function"
    }
  ],
  "bytecode": "0x6080604052348015600e575f5ffd5b5060ae80601a5f395ff3fe6080604052348015600e575f5ffd5b50600436106030575f3560e01c806340c10f191460345780639dc29fac146034575b5f5ffd5b6043603f3660046045565b5050565b005b5f5f604083850312156055575f5ffd5b82356001600160a01b0381168114606a575f5ffd5b94602093909301359350505056fea26469706673582212204e55198713e0d45c93f1d7f7632dcb2b4a58f502ddcd772d0f0f56c3925ec9a664736f6c634300081c0033",
  "linkReferences": {},
  "deployedLinkReferences": {}
}