{
  "_format": "hh-sol-artifact-1",
  "contractName": "CustomMintPolicy",
  "sourceName": "sol/implementations/CustomMintPolicy.sol",
  "abi": [
    {
      "inputs": [
        {
          "internalType": "address",
          "name": "_eureTokenAddress",
          "type": "address"
        }
      ],
      "stateMutability": "nonpayable",
      "type": "constructor"
    },
    {
      "anonymous": false,
      "inputs": [
        {
          "indexed": true,
          "internalType": "address",
          "name": "member",
          "type": "address"
        },
        {
          "indexed": false,
          "internalType": "enum CustomMintPolicy.MemberStatus",
          "name": "status",
          "type": "uint8"
        }
      ],
      "name": "MemberStatusChanged",
      "type": "event"
    },
    {
      "inputs": [
        {
          "internalType": "address",
          "name": "",
          "type": "address"
        },
        {
          "internalType": "address",
          "name": "",
          "type": "address"
        },
        {
          "internalType": "uint256",
          "name": "",
          "type": "uint256"
        },
        {
          "internalType": "bytes",
          "name": "",
          "type": "bytes"
        }
      ],
      "name": "beforeBurnPolicy",
      "outputs": [
        {
          "internalType": "bool",
          "name": "",
          "type": "bool"
        }
      ],
      "stateMutability": "nonpayable",
      "type": "function"
    },
    {
      "inputs": [
        {
          "internalType": "address",
          "name": "_minter",
          "type": "address"
        },
        {
          "internalType": "address",
          "name": "_group",
          "type": "address"
        },
        {
          "internalType": "uint256[]",
          "name": "_collateral",
          "type": "uint256[]"
        },
        {
          "internalType": "uint256[]",
          "name": "_amounts",
          "type": "uint256[]"
        },
        {
          "internalType": "bytes",
          "name": "_data",
          "type": "bytes"
        }
      ],
      "name": "beforeMintPolicy",
      "outputs": [
        {
          "internalType": "bool",
          "name": "",
          "type": "bool"
        }
      ],
      "stateMutability": "nonpayable",
      "type": "function"
    },
    {
      "inputs": [
        {
          "internalType": "address",
          "name": "",
          "type": "address"
        },
        {
          "internalType": "uint256",
          "name": "",
          "type": "uint256"
        }
      ],
      "name": "contributorHistory",
      "outputs": [
        {
          "internalType": "address",
          "name": "group",
          "type": "address"
        },
        {
          "internalType": "uint256",
          "name": "blockTimestamp",
          "type": "uint256"
        },
        {
          "internalType": "uint256",
          "name": "amount",
          "type": "uint256"
        }
      ],
      "stateMutability": "view",
      "type": "function"
    },
    {
      "inputs": [],
      "name": "eureToken",
      "outputs": [
        {
          "internalType": "contract IERC20",
          "name": "",
          "type": "address"
        }
      ],
      "stateMutability": "view",
      "type": "function"
    },
    {
      "inputs": [
        {
          "internalType": "address",
          "name": "_minter",
          "type": "address"
        }
      ],
      "name": "getContributorHistory",
      "outputs": [
        {
          "components": [
            {
              "internalType": "address",
              "name": "group",
              "type": "address"
            },
            {
              "internalType": "uint256",
              "name": "blockTimestamp",
              "type": "uint256"
            },
            {
              "internalType": "uint256",
              "name": "amount",
              "type": "uint256"
            }
          ],
          "internalType": "struct CustomMintPolicy.MintInfo[]",
          "name": "",
          "type": "tuple[]"
        }
      ],
      "stateMutability": "view",
      "type": "function"
    },
    {
      "inputs": [],
      "name": "getCurrentRecipient",
      "outputs": [
        {
          "internalType": "address",
          "name": "",
          "type": "address"
        }
      ],
      "stateMutability": "view",
      "type": "function"
    },
    {
      "inputs": [
        {
          "internalType": "address",
          "name": "_member",
          "type": "address"
        }
      ],
      "name": "getMemberStatus",
      "outputs": [
        {
          "internalType": "enum CustomMintPolicy.MemberStatus",
          "name": "",
          "type": "uint8"
        }
      ],
      "stateMutability": "view",
      "type": "function"
    },
    {
      "inputs": [],
      "name": "getRotationSchedule",
      "outputs": [
        {
          "components": [
            {
              "internalType": "address",
              "name": "contributor",
              "type": "address"
            },
            {
              "internalType": "uint256",
              "name": "firstMintTime",
              "type": "uint256"
            },
            {
              "internalType": "uint256",
              "name": "lastPaymentTime",
              "type": "uint256"
            }
          ],
          "internalType": "struct CustomMintPolicy.RotationInfo[]",
          "name": "",
          "type": "tuple[]"
        }
      ],
      "stateMutability": "view",
      "type": "function"
    },
    {
      "inputs": [],
      "name": "getUniqueContributorCount",
      "outputs": [
        {
          "internalType": "uint256",
          "name": "",
          "type": "uint256"
        }
      ],
      "stateMutability": "view",
      "type": "function"
    },
    {
      "inputs": [
        {
          "internalType": "address",
          "name": "_contributor",
          "type": "address"
        }
      ],
      "name": "isContributor",
      "outputs": [
        {
          "internalType": "bool",
          "name": "",
          "type": "bool"
        }
      ],
      "stateMutability": "view",
      "type": "function"
    },
    {
      "inputs": [],
      "name": "rotateSchedule",
      "outputs": [
        {
          "internalType": "bool",
          "name": "",
          "type": "bool"
        }
      ],
      "stateMutability": "nonpayable",
      "type": "function"
    },
    {
      "inputs": [
        {
          "internalType": "uint256",
          "name": "",
          "type": "uint256"
        }
      ],
      "name": "rotationSchedule",
      "outputs": [
        {
          "internalType": "address",
          "name": "contributor",
          "type": "address"
        },
        {
          "internalType": "uint256",
          "name": "firstMintTime",
          "type": "uint256"
        },
        {
          "internalType": "uint256",
          "name": "lastPaymentTime",
          "type": "uint256"
        }
      ],
      "stateMutability": "view",
      "type": "function"
    }
  ],
  "bytecode": "0x60a034606f57601f610cfa38819003918201601f19168301916001600160401b03831184841017607357808492602094604052833981010312606f57516001600160a01b03811690819003606f57608052604051610c72908161008882396080518181816102b601526108dd0152f35b5f80fd5b634e487b7160e01b5f52604160045260245ffdfe60806040526004361015610011575f80fd5b5f5f3560e01c8063194e36f5146109495780631d0d35f51461090c57806326a149b7146108c85780633117f41b146108ab5780636f4442bd146107b857806375000d63146106d057806377d5e059146105e6578063862038be14610595578063b703825914610190578063b9a350f514610146578063dde8535f146100fd5763f97bd9031461009e575f80fd5b346100fa5760203660031901126100fa576004356002548110156100f8576100c590610a55565b5080546001820154600290920154604080516001600160a01b039093168352602083019390935291810191909152606090f35b505b80fd5b50346100fa5760203660031901126100fa5761011f61011a610984565b610bab565b6040516004821015610132576020918152f35b634e487b7160e01b5f52602160045260245ffd5b50346100fa5760403660031901126100fa57610160610984565b6001600160a01b031681526020819052604081208054602435919082101561018c576100c59250610a71565b8280fd5b50346100fa5760a03660031901126100fa576101aa610984565b6101b261099a565b9060443567ffffffffffffffff81116104e4576101d39036906004016109de565b505060643567ffffffffffffffff81116104e4576101f59036906004016109de565b505060843567ffffffffffffffff81116104e4576102179036906004016109b0565b801561058357816020918101031261057f5735915b829160018060a01b031692838552600160205260ff6040862054161561054e575b50604051636e6e5d9d60e11b81526001600160a01b039190911691602082600481865afa9182156105435785926104fb575b50604051916323b872dd60e01b835284600484015260018060a01b0316602483015260448201526020816064818760018060a01b037f0000000000000000000000000000000000000000000000000000000000000000165af19081156104f05784916104b1575b5015610475578183526003602052426040842055818352600460205260408320600160ff19825416179055817f0331ecc2d085c8493cec7cd826480dc4d3a30cc1e3a572f67d1bcb701d57f711602060405160018152a281835282602052604083206040519161035583610ad6565b825242602083015260016040830152805490600160401b821015610461578161038791600161038d9594018155610a71565b90610b59565b8082526001602052604082205460ff1661041657808252600160205260408220600160ff19825416179055604051906103c582610ad6565b815242602082015242604082015260025491600160401b83101561040257506103878260016103f79401600255610a55565b602060405160018152f35b634e487b7160e01b81526041600452602490fd5b905b60025481101561045a578161042c82610a55565b50546001600160a01b03161461044457600101610418565b61044e9150610a55565b506002429101556103f7565b50506103f7565b634e487b7160e01b85526041600452602485fd5b60405162461bcd60e51b815260206004820152601460248201527311555491481d1c985b9cd9995c8819985a5b195960621b6044820152606490fd5b90506020813d6020116104e8575b816104cc60209383610b06565b810103126104e4575180151581036104e4575f6102e6565b8380fd5b3d91506104bf565b6040513d86823e3d90fd5b9091506020813d60201161053b575b8161051760209383610b06565b8101031261053757516001600160a01b038116810361053757905f61027f565b8480fd5b3d915061050a565b6040513d87823e3d90fd5b8091925060011b908082046002149015171561056b57905f61024d565b634e487b7160e01b84526011600452602484fd5b5f80fd5b505068056bc75e2d631000009161022c565b50346100fa5760803660031901126100fa576105af610984565b506105b861099a565b5060643567ffffffffffffffff81116100f8576105d99036906004016109b0565b5050602060405160018152f35b50346100fa57806003193601126100fa5760025461060381610b93565b6106106040519182610b06565b818152600283526020810191837f405787fa12a823e0f2b7631cc41b3ba8828b3321ca811111fa75cd3aa3bb5ace845b8383106106b257868587604051928392602084019060208552518091526040840192915b818110610672575050500390f35b9193509160206060826106a460019488516040809160018060a01b038151168452602081015160208501520151910152565b019401910191849392610664565b600360206001926106c285610b28565b815201920192019190610640565b50346100fa5760203660031901126100fa576001600160a01b036106f2610984565b1681528060205260408120805461070881610b93565b906107166040519283610b06565b80825260208201809385526020852085915b83831061079a57868587604051928392602084019060208552518091526040840192915b81811061075a575050500390f35b91935091602060608261078c60019488516040809160018060a01b038151168452602081015160208501520151910152565b01940191019184939261074c565b600360206001926107aa85610b28565b815201920192019190610728565b3461057f575f36600319011261057f576107d56002541515610a8a565b6107e66107e0610a0f565b50610b28565b5f5b6002545f19810190811161087b5781101561088f576001810180821161087b5761081190610a55565b509061081c81610a55565b61086857826001938203610833575b5050016107e8565b805482546001600160a01b03191660a086901b869003919091161782558381015482850155600290810154910155838061082b565b634e487b7160e01b5f525f60045260245ffd5b634e487b7160e01b5f52601160045260245ffd5b506002545f1981019190821161087b576103876103f792610a55565b3461057f575f36600319011261057f576020600254604051908152f35b3461057f575f36600319011261057f576040517f00000000000000000000000000000000000000000000000000000000000000006001600160a01b03168152602090f35b3461057f57602036600319011261057f576001600160a01b0361092d610984565b165f526001602052602060ff60405f2054166040519015158152f35b3461057f575f36600319011261057f576109666002541515610a8a565b6020610970610a0f565b50546040516001600160a01b039091168152f35b600435906001600160a01b038216820361057f57565b602435906001600160a01b038216820361057f57565b9181601f8401121561057f5782359167ffffffffffffffff831161057f576020838186019501011161057f57565b9181601f8401121561057f5782359167ffffffffffffffff831161057f576020808501948460051b01011161057f57565b60025415610a415760025f9081527f405787fa12a823e0f2b7631cc41b3ba8828b3321ca811111fa75cd3aa3bb5ace91565b634e487b7160e01b5f52603260045260245ffd5b600254811015610a415760025f52600360205f20910201905f90565b8054821015610a41575f52600360205f20910201905f90565b15610a9157565b60405162461bcd60e51b815260206004820152601b60248201527f4e6f20636f6e7472696275746f727320696e20726f746174696f6e00000000006044820152606490fd5b6060810190811067ffffffffffffffff821117610af257604052565b634e487b7160e01b5f52604160045260245ffd5b90601f8019910116810190811067ffffffffffffffff821117610af257604052565b90604051610b3581610ad6565b82546001600160a01b03168152600183015460208201526002909201546040830152565b919061086857805182546001600160a01b0319166001600160a01b0391909116178255602081015160018301556040015160029190910155565b67ffffffffffffffff8111610af25760051b60200190565b6001600160a01b03165f8181526001602052604090205460ff1615610c3757805f52600460205260ff60405f20541660048110156101325760018103610c3257505f52600360205260405f20548015610c2b575b420342811161087b5762278d008111610c185750600190565b624f1a0010610c2657600290565b600390565b5042610bff565b905090565b505f9056fea26469706673582212204ba8fd6e20d678b6aedcf8e60a41c4d1f613acdca86a7bfa3086bc43506b4fe764736f6c634300081c0033",
  "linkReferences": {},
  "deployedLinkReferences": {}
}