{"sol/implementations/CustomMintPolicy.sol":{"CustomMintPolicy":{"abi":[{"inputs":[{"internalType":"address","name":"_eureTokenAddress","type":"address"}],"stateMutability":"nonpayable","type":"constructor"},{"anonymous":false,"inputs":[{"indexed":true,"internalType":"address","name":"member","type":"address"},{"indexed":false,"internalType":"enum CustomMintPolicy.MemberStatus","name":"status","type":"uint8"}],"name":"MemberStatusChanged","type":"event"},{"inputs":[{"internalType":"address","name":"","type":"address"},{"internalType":"address","name":"","type":"address"},{"internalType":"uint256","name":"","type":"uint256"},{"internalType":"bytes","name":"","type":"bytes"}],"name":"beforeBurnPolicy","outputs":[{"internalType":"bool","name":"","type":"bool"}],"stateMutability":"nonpayable","type":"function"},{"inputs":[{"internalType":"address","name":"_minter","type":"address"},{"internalType":"address","name":"_group","type":"address"},{"internalType":"uint256[]","name":"_collateral","type":"uint256[]"},{"internalType":"uint256[]","name":"_amounts","type":"uint256[]"},{"internalType":"bytes","name":"_data","type":"bytes"}],"name":"beforeMintPolicy","outputs":[{"internalType":"bool","name":"","type":"bool"}],"stateMutability":"nonpayable","type":"function"},{"inputs":[{"internalType":"address","name":"","type":"address"},{"internalType":"uint256","name":"","type":"uint256"}],"name":"contributorHistory","outputs":[{"internalType":"address","name":"group","type":"address"},{"internalType":"uint256","name":"blockTimestamp","type":"uint256"},{"internalType":"uint256","name":"amount","type":"uint256"}],"stateMutability":"view","type":"function"},{"inputs":[],"name":"eureToken","outputs":[{"internalType":"contract IERC20","name":"","type":"address"}],"stateMutability":"view","type":"function"},{"inputs":[{"internalType":"address","name":"_minter","type":"address"}],"name":"getContributorHistory","outputs":[{"components":[{"internalType":"address","name":"group","type":"address"},{"internalType":"uint256","name":"blockTimestamp","type":"uint256"},{"internalType":"uint256","name":"amount","type":"uint256"}],"internalType":"struct CustomMintPolicy.MintInfo[]","name":"","type":"tuple[]"}],"stateMutability":"view","type":"function"},{"inputs":[],"name":"getCurrentRecipient","outputs":[{"internalType":"address","name":"","type":"address"}],"stateMutability":"view","type":"function"},{"inputs":[{"internalType":"address","name":"_member","type":"address"}],"name":"getMemberStatus","outputs":[{"internalType":"enum CustomMintPolicy.MemberStatus","name":"","type":"uint8"}],"stateMutability":"view","type":"function"},{"inputs":[],"name":"getRotationSchedule","outputs":[{"components":[{"internalType":"address","name":"contributor","type":"address"},{"internalType":"uint256","name":"firstMintTime","type":"uint256"},{"internalType":"uint256","name":"lastPaymentTime","type":"uint256"}],"internalType":"struct CustomMintPolicy.RotationInfo[]","name":"","type":"tuple[]"}],"stateMutability":"view","type":"function"},{"inputs":[],"name":"getUniqueContributorCount","outputs":[{"internalType":"uint256","name":"","type":"uint256"}],"stateMutability":"view","type":"function"},{"inputs":[{"internalType":"address","name":"_contributor","type":"address"}],"name":"isContributor","outputs":[{"internalType":"bool","name":"","type":"bool"}],"stateMutability":"view","type":"function"},{"inputs":[],"name":"rotateSchedule","outputs":[{"internalType":"bool","name":"","type":"bool"}],"stateMutability":"nonpayable","type":"function"},{"inputs":[{"internalType":"uint256","name":"","type":"uint256"}],"name":"rotationSchedule","outputs":[{"internalType":"address","name":"contributor","type":"address"},{"internalType":"uint256","name":"firstMintTime","type":"uint256"},{"internalType":"uint256","name":"lastPaymentTime","type":"uint256"}],"stateMutability":"view","type":"function"}],"evm":{"bytecode":{"linkReferences":{},"object":"60a034606f57601f610cfa38819003918201601f19168301916001600160401b03831184841017607357808492602094604052833981010312606f57516001600160a01b03811690819003606f57608052604051610c72908161008882396080518181816102b601526108dd0152f35b5f80fd5b634e487b7160e01b5f52604160045260245ffdfe60806040526004361015610011575f80fd5b5f5f3560e01c8063194e36f5146109495780631d0d35f51461090c57806326a149b7146108c85780633117f41b146108ab5780636f4442bd146107b857806375000d63146106d057806377d5e059146105e6578063862038be14610595578063b703825914610190578063b9a350f514610146578063dde8535f146100fd5763f97bd9031461009e575f80fd5b346100fa5760203660031901126100fa576004356002548110156100f8576100c590610a55565b5080546001820154600290920154604080516001600160a01b039093168352602083019390935291810191909152606090f35b505b80fd5b50346100fa5760203660031901126100fa5761011f61011a610984565b610bab565b6040516004821015610132576020918152f35b634e487b7160e01b5f52602160045260245ffd5b50346100fa5760403660031901126100fa57610160610984565b6001600160a01b031681526020819052604081208054602435919082101561018c576100c59250610a71565b8280fd5b50346100fa5760a03660031901126100fa576101aa610984565b6101b261099a565b9060443567ffffffffffffffff81116104e4576101d39036906004016109de565b505060643567ffffffffffffffff81116104e4576101f59036906004016109de565b505060843567ffffffffffffffff81116104e4576102179036906004016109b0565b801561058357816020918101031261057f5735915b829160018060a01b031692838552600160205260ff6040862054161561054e575b50604051636e6e5d9d60e11b81526001600160a01b039190911691602082600481865afa9182156105435785926104fb575b50604051916323b872dd60e01b835284600484015260018060a01b0316602483015260448201526020816064818760018060a01b037f0000000000000000000000000000000000000000000000000000000000000000165af19081156104f05784916104b1575b5015610475578183526003602052426040842055818352600460205260408320600160ff19825416179055817f0331ecc2d085c8493cec7cd826480dc4d3a30cc1e3a572f67d1bcb701d57f711602060405160018152a281835282602052604083206040519161035583610ad6565b825242602083015260016040830152805490600160401b821015610461578161038791600161038d9594018155610a71565b90610b59565b8082526001602052604082205460ff1661041657808252600160205260408220600160ff19825416179055604051906103c582610ad6565b815242602082015242604082015260025491600160401b83101561040257506103878260016103f79401600255610a55565b602060405160018152f35b634e487b7160e01b81526041600452602490fd5b905b60025481101561045a578161042c82610a55565b50546001600160a01b03161461044457600101610418565b61044e9150610a55565b506002429101556103f7565b50506103f7565b634e487b7160e01b85526041600452602485fd5b60405162461bcd60e51b815260206004820152601460248201527311555491481d1c985b9cd9995c8819985a5b195960621b6044820152606490fd5b90506020813d6020116104e8575b816104cc60209383610b06565b810103126104e4575180151581036104e4575f6102e6565b8380fd5b3d91506104bf565b6040513d86823e3d90fd5b9091506020813d60201161053b575b8161051760209383610b06565b8101031261053757516001600160a01b038116810361053757905f61027f565b8480fd5b3d915061050a565b6040513d87823e3d90fd5b8091925060011b908082046002149015171561056b57905f61024d565b634e487b7160e01b84526011600452602484fd5b5f80fd5b505068056bc75e2d631000009161022c565b50346100fa5760803660031901126100fa576105af610984565b506105b861099a565b5060643567ffffffffffffffff81116100f8576105d99036906004016109b0565b5050602060405160018152f35b50346100fa57806003193601126100fa5760025461060381610b93565b6106106040519182610b06565b818152600283526020810191837f405787fa12a823e0f2b7631cc41b3ba8828b3321ca811111fa75cd3aa3bb5ace845b8383106106b257868587604051928392602084019060208552518091526040840192915b818110610672575050500390f35b9193509160206060826106a460019488516040809160018060a01b038151168452602081015160208501520151910152565b019401910191849392610664565b600360206001926106c285610b28565b815201920192019190610640565b50346100fa5760203660031901126100fa576001600160a01b036106f2610984565b1681528060205260408120805461070881610b93565b906107166040519283610b06565b80825260208201809385526020852085915b83831061079a57868587604051928392602084019060208552518091526040840192915b81811061075a575050500390f35b91935091602060608261078c60019488516040809160018060a01b038151168452602081015160208501520151910152565b01940191019184939261074c565b600360206001926107aa85610b28565b815201920192019190610728565b3461057f575f36600319011261057f576107d56002541515610a8a565b6107e66107e0610a0f565b50610b28565b5f5b6002545f19810190811161087b5781101561088f576001810180821161087b5761081190610a55565b509061081c81610a55565b61086857826001938203610833575b5050016107e8565b805482546001600160a01b03191660a086901b869003919091161782558381015482850155600290810154910155838061082b565b634e487b7160e01b5f525f60045260245ffd5b634e487b7160e01b5f52601160045260245ffd5b506002545f1981019190821161087b576103876103f792610a55565b3461057f575f36600319011261057f576020600254604051908152f35b3461057f575f36600319011261057f576040517f00000000000000000000000000000000000000000000000000000000000000006001600160a01b03168152602090f35b3461057f57602036600319011261057f576001600160a01b0361092d610984565b165f526001602052602060ff60405f2054166040519015158152f35b3461057f575f36600319011261057f576109666002541515610a8a565b6020610970610a0f565b50546040516001600160a01b039091168152f35b600435906001600160a01b038216820361057f57565b602435906001600160a01b038216820361057f57565b9181601f8401121561057f5782359167ffffffffffffffff831161057f576020838186019501011161057f57565b9181601f8401121561057f5782359167ffffffffffffffff831161057f576020808501948460051b01011161057f57565b60025415610a415760025f9081527f405787fa12a823e0f2b7631cc41b3ba8828b3321ca811111fa75cd3aa3bb5ace91565b634e487b7160e01b5f52603260045260245ffd5b600254811015610a415760025f52600360205f20910201905f90565b8054821015610a41575f52600360205f20910201905f90565b15610a9157565b60405162461bcd60e51b815260206004820152601b60248201527f4e6f20636f6e7472696275746f727320696e20726f746174696f6e00000000006044820152606490fd5b6060810190811067ffffffffffffffff821117610af257604052565b634e487b7160e01b5f52604160045260245ffd5b90601f8019910116810190811067ffffffffffffffff821117610af257604052565b90604051610b3581610ad6565b82546001600160a01b03168152600183015460208201526002909201546040830152565b919061086857805182546001600160a01b0319166001600160a01b0391909116178255602081015160018301556040015160029190910155565b67ffffffffffffffff8111610af25760051b60200190565b6001600160a01b03165f8181526001602052604090205460ff1615610c3757805f52600460205260ff60405f20541660048110156101325760018103610c3257505f52600360205260405f20548015610c2b575b420342811161087b5762278d008111610c185750600190565b624f1a0010610c2657600290565b600390565b5042610bff565b905090565b505f9056fea26469706673582212204ba8fd6e20d678b6aedcf8e60a41c4d1f613acdca86a7bfa3086bc43506b4fe764736f6c634300081c0033","opcodes":"PUSH1 0xA0 CALLVALUE PUSH1 0x6F JUMPI PUSH1 0x1F PUSH2 0xCFA CODESIZE DUP2 SWAP1 SUB SWAP2 DUP3 ADD PUSH1 0x1F NOT AND DUP4 ADD SWAP2 PUSH1 0x1 PUSH1 0x1 PUSH1 0x40 SHL SUB DUP4 GT DUP5 DUP5 LT OR PUSH1 0x73 JUMPI DUP1 DUP5 SWAP3 PUSH1 0x20 SWAP5 PUSH1 0x40 MSTORE DUP4 CODECOPY DUP2 ADD SUB SLT PUSH1 0x6F JUMPI MLOAD PUSH1 0x1 PUSH1 0x1 PUSH1 0xA0 SHL SUB DUP2 AND SWAP1 DUP2 SWAP1 SUB PUSH1 0x6F JUMPI PUSH1 0x80 MSTORE PUSH1 0x40 MLOAD PUSH2 0xC72 SWAP1 DUP2 PUSH2 0x88 DUP3 CODECOPY PUSH1 0x80 MLOAD DUP2 DUP2 DUP2 PUSH2 0x2B6 ADD MSTORE PUSH2 0x8DD ADD MSTORE RETURN JUMPDEST PUSH0 DUP1 REVERT JUMPDEST PUSH4 0x4E487B71 PUSH1 0xE0 SHL PUSH0 MSTORE PUSH1 0x41 PUSH1 0x4 MSTORE PUSH1 0x24 PUSH0 REVERT INVALID PUSH1 0x80 PUSH1 0x40 MSTORE PUSH1 0x4 CALLDATASIZE LT ISZERO PUSH2 0x11 JUMPI PUSH0 DUP1 REVERT JUMPDEST PUSH0 PUSH0 CALLDATALOAD PUSH1 0xE0 SHR DUP1 PUSH4 0x194E36F5 EQ PUSH2 0x949 JUMPI DUP1 PUSH4 0x1D0D35F5 EQ PUSH2 0x90C JUMPI DUP1 PUSH4 0x26A149B7 EQ PUSH2 0x8C8 JUMPI DUP1 PUSH4 0x3117F41B EQ PUSH2 0x8AB JUMPI DUP1 PUSH4 0x6F4442BD EQ PUSH2 0x7B8 JUMPI DUP1 PUSH4 0x75000D63 EQ PUSH2 0x6D0 JUMPI DUP1 PUSH4 0x77D5E059 EQ PUSH2 0x5E6 JUMPI DUP1 PUSH4 0x862038BE EQ PUSH2 0x595 JUMPI DUP1 PUSH4 0xB7038259 EQ PUSH2 0x190 JUMPI DUP1 PUSH4 0xB9A350F5 EQ PUSH2 0x146 JUMPI DUP1 PUSH4 0xDDE8535F EQ PUSH2 0xFD JUMPI PUSH4 0xF97BD903 EQ PUSH2 0x9E JUMPI PUSH0 DUP1 REVERT JUMPDEST CALLVALUE PUSH2 0xFA JUMPI PUSH1 0x20 CALLDATASIZE PUSH1 0x3 NOT ADD SLT PUSH2 0xFA JUMPI PUSH1 0x4 CALLDATALOAD PUSH1 0x2 SLOAD DUP2 LT ISZERO PUSH2 0xF8 JUMPI PUSH2 0xC5 SWAP1 PUSH2 0xA55 JUMP JUMPDEST POP DUP1 SLOAD PUSH1 0x1 DUP3 ADD SLOAD PUSH1 0x2 SWAP1 SWAP3 ADD SLOAD PUSH1 0x40 DUP1 MLOAD PUSH1 0x1 PUSH1 0x1 PUSH1 0xA0 SHL SUB SWAP1 SWAP4 AND DUP4 MSTORE PUSH1 0x20 DUP4 ADD SWAP4 SWAP1 SWAP4 MSTORE SWAP2 DUP2 ADD SWAP2 SWAP1 SWAP2 MSTORE PUSH1 0x60 SWAP1 RETURN JUMPDEST POP JUMPDEST DUP1 REVERT JUMPDEST POP CALLVALUE PUSH2 0xFA JUMPI PUSH1 0x20 CALLDATASIZE PUSH1 0x3 NOT ADD SLT PUSH2 0xFA JUMPI PUSH2 0x11F PUSH2 0x11A PUSH2 0x984 JUMP JUMPDEST PUSH2 0xBAB JUMP JUMPDEST PUSH1 0x40 MLOAD PUSH1 0x4 DUP3 LT ISZERO PUSH2 0x132 JUMPI PUSH1 0x20 SWAP2 DUP2 MSTORE RETURN JUMPDEST PUSH4 0x4E487B71 PUSH1 0xE0 SHL PUSH0 MSTORE PUSH1 0x21 PUSH1 0x4 MSTORE PUSH1 0x24 PUSH0 REVERT JUMPDEST POP CALLVALUE PUSH2 0xFA JUMPI PUSH1 0x40 CALLDATASIZE PUSH1 0x3 NOT ADD SLT PUSH2 0xFA JUMPI PUSH2 0x160 PUSH2 0x984 JUMP JUMPDEST PUSH1 0x1 PUSH1 0x1 PUSH1 0xA0 SHL SUB AND DUP2 MSTORE PUSH1 0x20 DUP2 SWAP1 MSTORE PUSH1 0x40 DUP2 KECCAK256 DUP1 SLOAD PUSH1 0x24 CALLDATALOAD SWAP2 SWAP1 DUP3 LT ISZERO PUSH2 0x18C JUMPI PUSH2 0xC5 SWAP3 POP PUSH2 0xA71 JUMP JUMPDEST DUP3 DUP1 REVERT JUMPDEST POP CALLVALUE PUSH2 0xFA JUMPI PUSH1 0xA0 CALLDATASIZE PUSH1 0x3 NOT ADD SLT PUSH2 0xFA JUMPI PUSH2 0x1AA PUSH2 0x984 JUMP JUMPDEST PUSH2 0x1B2 PUSH2 0x99A JUMP JUMPDEST SWAP1 PUSH1 0x44 CALLDATALOAD PUSH8 0xFFFFFFFFFFFFFFFF DUP2 GT PUSH2 0x4E4 JUMPI PUSH2 0x1D3 SWAP1 CALLDATASIZE SWAP1 PUSH1 0x4 ADD PUSH2 0x9DE JUMP JUMPDEST POP POP PUSH1 0x64 CALLDATALOAD PUSH8 0xFFFFFFFFFFFFFFFF DUP2 GT PUSH2 0x4E4 JUMPI PUSH2 0x1F5 SWAP1 CALLDATASIZE SWAP1 PUSH1 0x4 ADD PUSH2 0x9DE JUMP JUMPDEST POP POP PUSH1 0x84 CALLDATALOAD PUSH8 0xFFFFFFFFFFFFFFFF DUP2 GT PUSH2 0x4E4 JUMPI PUSH2 0x217 SWAP1 CALLDATASIZE SWAP1 PUSH1 0x4 ADD PUSH2 0x9B0 JUMP JUMPDEST DUP1 ISZERO PUSH2 0x583 JUMPI DUP2 PUSH1 0x20 SWAP2 DUP2 ADD SUB SLT PUSH2 0x57F JUMPI CALLDATALOAD SWAP2 JUMPDEST DUP3 SWAP2 PUSH1 0x1 DUP1 PUSH1 0xA0 SHL SUB AND SWAP3 DUP4 DUP6 MSTORE PUSH1 0x1 PUSH1 0x20 MSTORE PUSH1 0xFF PUSH1 0x40 DUP7 KECCAK256 SLOAD AND ISZERO PUSH2 0x54E JUMPI JUMPDEST POP PUSH1 0x40 MLOAD PUSH4 0x6E6E5D9D PUSH1 0xE1 SHL DUP2 MSTORE PUSH1 0x1 PUSH1 0x1 PUSH1 0xA0 SHL SUB SWAP2 SWAP1 SWAP2 AND SWAP2 PUSH1 0x20 DUP3 PUSH1 0x4 DUP2 DUP7 GAS STATICCALL SWAP2 DUP3 ISZERO PUSH2 0x543 JUMPI DUP6 SWAP3 PUSH2 0x4FB JUMPI JUMPDEST POP PUSH1 0x40 MLOAD SWAP2 PUSH4 0x23B872DD PUSH1 0xE0 SHL DUP4 MSTORE DUP5 PUSH1 0x4 DUP5 ADD MSTORE PUSH1 0x1 DUP1 PUSH1 0xA0 SHL SUB AND PUSH1 0x24 DUP4 ADD MSTORE PUSH1 0x44 DUP3 ADD MSTORE PUSH1 0x20 DUP2 PUSH1 0x64 DUP2 DUP8 PUSH1 0x1 DUP1 PUSH1 0xA0 SHL SUB PUSH32 0x0 AND GAS CALL SWAP1 DUP2 ISZERO PUSH2 0x4F0 JUMPI DUP5 SWAP2 PUSH2 0x4B1 JUMPI JUMPDEST POP ISZERO PUSH2 0x475 JUMPI DUP2 DUP4 MSTORE PUSH1 0x3 PUSH1 0x20 MSTORE TIMESTAMP PUSH1 0x40 DUP5 KECCAK256 SSTORE DUP2 DUP4 MSTORE PUSH1 0x4 PUSH1 0x20 MSTORE PUSH1 0x40 DUP4 KECCAK256 PUSH1 0x1 PUSH1 0xFF NOT DUP3 SLOAD AND OR SWAP1 SSTORE DUP2 PUSH32 0x331ECC2D085C8493CEC7CD826480DC4D3A30CC1E3A572F67D1BCB701D57F711 PUSH1 0x20 PUSH1 0x40 MLOAD PUSH1 0x1 DUP2 MSTORE LOG2 DUP2 DUP4 MSTORE DUP3 PUSH1 0x20 MSTORE PUSH1 0x40 DUP4 KECCAK256 PUSH1 0x40 MLOAD SWAP2 PUSH2 0x355 DUP4 PUSH2 0xAD6 JUMP JUMPDEST DUP3 MSTORE TIMESTAMP PUSH1 0x20 DUP4 ADD MSTORE PUSH1 0x1 PUSH1 0x40 DUP4 ADD MSTORE DUP1 SLOAD SWAP1 PUSH1 0x1 PUSH1 0x40 SHL DUP3 LT ISZERO PUSH2 0x461 JUMPI DUP2 PUSH2 0x387 SWAP2 PUSH1 0x1 PUSH2 0x38D SWAP6 SWAP5 ADD DUP2 SSTORE PUSH2 0xA71 JUMP JUMPDEST SWAP1 PUSH2 0xB59 JUMP JUMPDEST DUP1 DUP3 MSTORE PUSH1 0x1 PUSH1 0x20 MSTORE PUSH1 0x40 DUP3 KECCAK256 SLOAD PUSH1 0xFF AND PUSH2 0x416 JUMPI DUP1 DUP3 MSTORE PUSH1 0x1 PUSH1 0x20 MSTORE PUSH1 0x40 DUP3 KECCAK256 PUSH1 0x1 PUSH1 0xFF NOT DUP3 SLOAD AND OR SWAP1 SSTORE PUSH1 0x40 MLOAD SWAP1 PUSH2 0x3C5 DUP3 PUSH2 0xAD6 JUMP JUMPDEST DUP2 MSTORE TIMESTAMP PUSH1 0x20 DUP3 ADD MSTORE TIMESTAMP PUSH1 0x40 DUP3 ADD MSTORE PUSH1 0x2 SLOAD SWAP2 PUSH1 0x1 PUSH1 0x40 SHL DUP4 LT ISZERO PUSH2 0x402 JUMPI POP PUSH2 0x387 DUP3 PUSH1 0x1 PUSH2 0x3F7 SWAP5 ADD PUSH1 0x2 SSTORE PUSH2 0xA55 JUMP JUMPDEST PUSH1 0x20 PUSH1 0x40 MLOAD PUSH1 0x1 DUP2 MSTORE RETURN JUMPDEST PUSH4 0x4E487B71 PUSH1 0xE0 SHL DUP2 MSTORE PUSH1 0x41 PUSH1 0x4 MSTORE PUSH1 0x24 SWAP1 REVERT JUMPDEST SWAP1 JUMPDEST PUSH1 0x2 SLOAD DUP2 LT ISZERO PUSH2 0x45A JUMPI DUP2 PUSH2 0x42C DUP3 PUSH2 0xA55 JUMP JUMPDEST POP SLOAD PUSH1 0x1 PUSH1 0x1 PUSH1 0xA0 SHL SUB AND EQ PUSH2 0x444 JUMPI PUSH1 0x1 ADD PUSH2 0x418 JUMP JUMPDEST PUSH2 0x44E SWAP2 POP PUSH2 0xA55 JUMP JUMPDEST POP PUSH1 0x2 TIMESTAMP SWAP2 ADD SSTORE PUSH2 0x3F7 JUMP JUMPDEST POP POP PUSH2 0x3F7 JUMP JUMPDEST PUSH4 0x4E487B71 PUSH1 0xE0 SHL DUP6 MSTORE PUSH1 0x41 PUSH1 0x4 MSTORE PUSH1 0x24 DUP6 REVERT JUMPDEST PUSH1 0x40 MLOAD PUSH3 0x461BCD PUSH1 0xE5 SHL DUP2 MSTORE PUSH1 0x20 PUSH1 0x4 DUP3 ADD MSTORE PUSH1 0x14 PUSH1 0x24 DUP3 ADD MSTORE PUSH20 0x11555491481D1C985B9CD9995C8819985A5B1959 PUSH1 0x62 SHL PUSH1 0x44 DUP3 ADD MSTORE PUSH1 0x64 SWAP1 REVERT JUMPDEST SWAP1 POP PUSH1 0x20 DUP2 RETURNDATASIZE PUSH1 0x20 GT PUSH2 0x4E8 JUMPI JUMPDEST DUP2 PUSH2 0x4CC PUSH1 0x20 SWAP4 DUP4 PUSH2 0xB06 JUMP JUMPDEST DUP2 ADD SUB SLT PUSH2 0x4E4 JUMPI MLOAD DUP1 ISZERO ISZERO DUP2 SUB PUSH2 0x4E4 JUMPI PUSH0 PUSH2 0x2E6 JUMP JUMPDEST DUP4 DUP1 REVERT JUMPDEST RETURNDATASIZE SWAP2 POP PUSH2 0x4BF JUMP JUMPDEST PUSH1 0x40 MLOAD RETURNDATASIZE DUP7 DUP3 RETURNDATACOPY RETURNDATASIZE SWAP1 REVERT JUMPDEST SWAP1 SWAP2 POP PUSH1 0x20 DUP2 RETURNDATASIZE PUSH1 0x20 GT PUSH2 0x53B JUMPI JUMPDEST DUP2 PUSH2 0x517 PUSH1 0x20 SWAP4 DUP4 PUSH2 0xB06 JUMP JUMPDEST DUP2 ADD SUB SLT PUSH2 0x537 JUMPI MLOAD PUSH1 0x1 PUSH1 0x1 PUSH1 0xA0 SHL SUB DUP2 AND DUP2 SUB PUSH2 0x537 JUMPI SWAP1 PUSH0 PUSH2 0x27F JUMP JUMPDEST DUP5 DUP1 REVERT JUMPDEST RETURNDATASIZE SWAP2 POP PUSH2 0x50A JUMP JUMPDEST PUSH1 0x40 MLOAD RETURNDATASIZE DUP8 DUP3 RETURNDATACOPY RETURNDATASIZE SWAP1 REVERT JUMPDEST DUP1 SWAP2 SWAP3 POP PUSH1 0x1 SHL SWAP1 DUP1 DUP3 DIV PUSH1 0x2 EQ SWAP1 ISZERO OR ISZERO PUSH2 0x56B JUMPI SWAP1 PUSH0 PUSH2 0x24D JUMP JUMPDEST PUSH4 0x4E487B71 PUSH1 0xE0 SHL DUP5 MSTORE PUSH1 0x11 PUSH1 0x4 MSTORE PUSH1 0x24 DUP5 REVERT JUMPDEST PUSH0 DUP1 REVERT JUMPDEST POP POP PUSH9 0x56BC75E2D63100000 SWAP2 PUSH2 0x22C JUMP JUMPDEST POP CALLVALUE PUSH2 0xFA JUMPI PUSH1 0x80 CALLDATASIZE PUSH1 0x3 NOT ADD SLT PUSH2 0xFA JUMPI PUSH2 0x5AF PUSH2 0x984 JUMP JUMPDEST POP PUSH2 0x5B8 PUSH2 0x99A JUMP JUMPDEST POP PUSH1 0x64 CALLDATALOAD PUSH8 0xFFFFFFFFFFFFFFFF DUP2 GT PUSH2 0xF8 JUMPI PUSH2 0x5D9 SWAP1 CALLDATASIZE SWAP1 PUSH1 0x4 ADD PUSH2 0x9B0 JUMP JUMPDEST POP POP PUSH1 0x20 PUSH1 0x40 MLOAD PUSH1 0x1 DUP2 MSTORE RETURN JUMPDEST POP CALLVALUE PUSH2 0xFA JUMPI DUP1 PUSH1 0x3 NOT CALLDATASIZE ADD SLT PUSH2 0xFA JUMPI PUSH1 0x2 SLOAD PUSH2 0x603 DUP2 PUSH2 0xB93 JUMP JUMPDEST PUSH2 0x610 PUSH1 0x40 MLOAD SWAP2 DUP3 PUSH2 0xB06 JUMP JUMPDEST DUP2 DUP2 MSTORE PUSH1 0x2 DUP4 MSTORE PUSH1 0x20 DUP2 ADD SWAP2 DUP4 PUSH32 0x405787FA12A823E0F2B7631CC41B3BA8828B3321CA811111FA75CD3AA3BB5ACE DUP5 JUMPDEST DUP4 DUP4 LT PUSH2 0x6B2 JUMPI DUP7 DUP6 DUP8 PUSH1 0x40 MLOAD SWAP3 DUP4 SWAP3 PUSH1 0x20 DUP5 ADD SWAP1 PUSH1 0x20 DUP6 MSTORE MLOAD DUP1 SWAP2 MSTORE PUSH1 0x40 DUP5 ADD SWAP3 SWAP2 JUMPDEST DUP2 DUP2 LT PUSH2 0x672 JUMPI POP POP POP SUB SWAP1 RETURN JUMPDEST SWAP2 SWAP4 POP SWAP2 PUSH1 0x20 PUSH1 0x60 DUP3 PUSH2 0x6A4 PUSH1 0x1 SWAP5 DUP9 MLOAD PUSH1 0x40 DUP1 SWAP2 PUSH1 0x1 DUP1 PUSH1 0xA0 SHL SUB DUP2 MLOAD AND DUP5 MSTORE PUSH1 0x20 DUP2 ADD MLOAD PUSH1 0x20 DUP6 ADD MSTORE ADD MLOAD SWAP2 ADD MSTORE JUMP JUMPDEST ADD SWAP5 ADD SWAP2 ADD SWAP2 DUP5 SWAP4 SWAP3 PUSH2 0x664 JUMP JUMPDEST PUSH1 0x3 PUSH1 0x20 PUSH1 0x1 SWAP3 PUSH2 0x6C2 DUP6 PUSH2 0xB28 JUMP JUMPDEST DUP2 MSTORE ADD SWAP3 ADD SWAP3 ADD SWAP2 SWAP1 PUSH2 0x640 JUMP JUMPDEST POP CALLVALUE PUSH2 0xFA JUMPI PUSH1 0x20 CALLDATASIZE PUSH1 0x3 NOT ADD SLT PUSH2 0xFA JUMPI PUSH1 0x1 PUSH1 0x1 PUSH1 0xA0 SHL SUB PUSH2 0x6F2 PUSH2 0x984 JUMP JUMPDEST AND DUP2 MSTORE DUP1 PUSH1 0x20 MSTORE PUSH1 0x40 DUP2 KECCAK256 DUP1 SLOAD PUSH2 0x708 DUP2 PUSH2 0xB93 JUMP JUMPDEST SWAP1 PUSH2 0x716 PUSH1 0x40 MLOAD SWAP3 DUP4 PUSH2 0xB06 JUMP JUMPDEST DUP1 DUP3 MSTORE PUSH1 0x20 DUP3 ADD DUP1 SWAP4 DUP6 MSTORE PUSH1 0x20 DUP6 KECCAK256 DUP6 SWAP2 JUMPDEST DUP4 DUP4 LT PUSH2 0x79A JUMPI DUP7 DUP6 DUP8 PUSH1 0x40 MLOAD SWAP3 DUP4 SWAP3 PUSH1 0x20 DUP5 ADD SWAP1 PUSH1 0x20 DUP6 MSTORE MLOAD DUP1 SWAP2 MSTORE PUSH1 0x40 DUP5 ADD SWAP3 SWAP2 JUMPDEST DUP2 DUP2 LT PUSH2 0x75A JUMPI POP POP POP SUB SWAP1 RETURN JUMPDEST SWAP2 SWAP4 POP SWAP2 PUSH1 0x20 PUSH1 0x60 DUP3 PUSH2 0x78C PUSH1 0x1 SWAP5 DUP9 MLOAD PUSH1 0x40 DUP1 SWAP2 PUSH1 0x1 DUP1 PUSH1 0xA0 SHL SUB DUP2 MLOAD AND DUP5 MSTORE PUSH1 0x20 DUP2 ADD MLOAD PUSH1 0x20 DUP6 ADD MSTORE ADD MLOAD SWAP2 ADD MSTORE JUMP JUMPDEST ADD SWAP5 ADD SWAP2 ADD SWAP2 DUP5 SWAP4 SWAP3 PUSH2 0x74C JUMP JUMPDEST PUSH1 0x3 PUSH1 0x20 PUSH1 0x1 SWAP3 PUSH2 0x7AA DUP6 PUSH2 0xB28 JUMP JUMPDEST DUP2 MSTORE ADD SWAP3 ADD SWAP3 ADD SWAP2 SWAP1 PUSH2 0x728 JUMP JUMPDEST CALLVALUE PUSH2 0x57F JUMPI PUSH0 CALLDATASIZE PUSH1 0x3 NOT ADD SLT PUSH2 0x57F JUMPI PUSH2 0x7D5 PUSH1 0x2 SLOAD ISZERO ISZERO PUSH2 0xA8A JUMP JUMPDEST PUSH2 0x7E6 PUSH2 0x7E0 PUSH2 0xA0F JUMP JUMPDEST POP PUSH2 0xB28 JUMP JUMPDEST PUSH0 JUMPDEST PUSH1 0x2 SLOAD PUSH0 NOT DUP2 ADD SWAP1 DUP2 GT PUSH2 0x87B JUMPI DUP2 LT ISZERO PUSH2 0x88F JUMPI PUSH1 0x1 DUP2 ADD DUP1 DUP3 GT PUSH2 0x87B JUMPI PUSH2 0x811 SWAP1 PUSH2 0xA55 JUMP JUMPDEST POP SWAP1 PUSH2 0x81C DUP2 PUSH2 0xA55 JUMP JUMPDEST PUSH2 0x868 JUMPI DUP3 PUSH1 0x1 SWAP4 DUP3 SUB PUSH2 0x833 JUMPI JUMPDEST POP POP ADD PUSH2 0x7E8 JUMP JUMPDEST DUP1 SLOAD DUP3 SLOAD PUSH1 0x1 PUSH1 0x1 PUSH1 0xA0 SHL SUB NOT AND PUSH1 0xA0 DUP7 SWAP1 SHL DUP7 SWAP1 SUB SWAP2 SWAP1 SWAP2 AND OR DUP3 SSTORE DUP4 DUP2 ADD SLOAD DUP3 DUP6 ADD SSTORE PUSH1 0x2 SWAP1 DUP2 ADD SLOAD SWAP2 ADD SSTORE DUP4 DUP1 PUSH2 0x82B JUMP JUMPDEST PUSH4 0x4E487B71 PUSH1 0xE0 SHL PUSH0 MSTORE PUSH0 PUSH1 0x4 MSTORE PUSH1 0x24 PUSH0 REVERT JUMPDEST PUSH4 0x4E487B71 PUSH1 0xE0 SHL PUSH0 MSTORE PUSH1 0x11 PUSH1 0x4 MSTORE PUSH1 0x24 PUSH0 REVERT JUMPDEST POP PUSH1 0x2 SLOAD PUSH0 NOT DUP2 ADD SWAP2 SWAP1 DUP3 GT PUSH2 0x87B JUMPI PUSH2 0x387 PUSH2 0x3F7 SWAP3 PUSH2 0xA55 JUMP JUMPDEST CALLVALUE PUSH2 0x57F JUMPI PUSH0 CALLDATASIZE PUSH1 0x3 NOT ADD SLT PUSH2 0x57F JUMPI PUSH1 0x20 PUSH1 0x2 SLOAD PUSH1 0x40 MLOAD SWAP1 DUP2 MSTORE RETURN JUMPDEST CALLVALUE PUSH2 0x57F JUMPI PUSH0 CALLDATASIZE PUSH1 0x3 NOT ADD SLT PUSH2 0x57F JUMPI PUSH1 0x40 MLOAD PUSH32 0x0 PUSH1 0x1 PUSH1 0x1 PUSH1 0xA0 SHL SUB AND DUP2 MSTORE PUSH1 0x20 SWAP1 RETURN JUMPDEST CALLVALUE PUSH2 0x57F JUMPI PUSH1 0x20 CALLDATASIZE PUSH1 0x3 NOT ADD SLT PUSH2 0x57F JUMPI PUSH1 0x1 PUSH1 0x1 PUSH1 0xA0 SHL SUB PUSH2 0x92D PUSH2 0x984 JUMP JUMPDEST AND PUSH0 MSTORE PUSH1 0x1 PUSH1 0x20 MSTORE PUSH1 0x20 PUSH1 0xFF PUSH1 0x40 PUSH0 KECCAK256 SLOAD AND PUSH1 0x40 MLOAD SWAP1 ISZERO ISZERO DUP2 MSTORE RETURN JUMPDEST CALLVALUE PUSH2 0x57F JUMPI PUSH0 CALLDATASIZE PUSH1 0x3 NOT ADD SLT PUSH2 0x57F JUMPI PUSH2 0x966 PUSH1 0x2 SLOAD ISZERO ISZERO PUSH2 0xA8A JUMP JUMPDEST PUSH1 0x20 PUSH2 0x970 PUSH2 0xA0F JUMP JUMPDEST POP SLOAD PUSH1 0x40 MLOAD PUSH1 0x1 PUSH1 0x1 PUSH1 0xA0 SHL SUB SWAP1 SWAP2 AND DUP2 MSTORE RETURN JUMPDEST PUSH1 0x4 CALLDATALOAD SWAP1 PUSH1 0x1 PUSH1 0x1 PUSH1 0xA0 SHL SUB DUP3 AND DUP3 SUB PUSH2 0x57F JUMPI JUMP JUMPDEST PUSH1 0x24 CALLDATALOAD SWAP1 PUSH1 0x1 PUSH1 0x1 PUSH1 0xA0 SHL SUB DUP3 AND DUP3 SUB PUSH2 0x57F JUMPI JUMP JUMPDEST SWAP2 DUP2 PUSH1 0x1F DUP5 ADD SLT ISZERO PUSH2 0x57F JUMPI DUP3 CALLDATALOAD SWAP2 PUSH8 0xFFFFFFFFFFFFFFFF DUP4 GT PUSH2 0x57F JUMPI PUSH1 0x20 DUP4 DUP2 DUP7 ADD SWAP6 ADD ADD GT PUSH2 0x57F JUMPI JUMP JUMPDEST SWAP2 DUP2 PUSH1 0x1F DUP5 ADD SLT ISZERO PUSH2 0x57F JUMPI DUP3 CALLDATALOAD SWAP2 PUSH8 0xFFFFFFFFFFFFFFFF DUP4 GT PUSH2 0x57F JUMPI PUSH1 0x20 DUP1 DUP6 ADD SWAP5 DUP5 PUSH1 0x5 SHL ADD ADD GT PUSH2 0x57F JUMPI JUMP JUMPDEST PUSH1 0x2 SLOAD ISZERO PUSH2 0xA41 JUMPI PUSH1 0x2 PUSH0 SWAP1 DUP2 MSTORE PUSH32 0x405787FA12A823E0F2B7631CC41B3BA8828B3321CA811111FA75CD3AA3BB5ACE SWAP2 JUMP JUMPDEST PUSH4 0x4E487B71 PUSH1 0xE0 SHL PUSH0 MSTORE PUSH1 0x32 PUSH1 0x4 MSTORE PUSH1 0x24 PUSH0 REVERT JUMPDEST PUSH1 0x2 SLOAD DUP2 LT ISZERO PUSH2 0xA41 JUMPI PUSH1 0x2 PUSH0 MSTORE PUSH1 0x3 PUSH1 0x20 PUSH0 KECCAK256 SWAP2 MUL ADD SWAP1 PUSH0 SWAP1 JUMP JUMPDEST DUP1 SLOAD DUP3 LT ISZERO PUSH2 0xA41 JUMPI PUSH0 MSTORE PUSH1 0x3 PUSH1 0x20 PUSH0 KECCAK256 SWAP2 MUL ADD SWAP1 PUSH0 SWAP1 JUMP JUMPDEST ISZERO PUSH2 0xA91 JUMPI JUMP JUMPDEST PUSH1 0x40 MLOAD PUSH3 0x461BCD PUSH1 0xE5 SHL DUP2 MSTORE PUSH1 0x20 PUSH1 0x4 DUP3 ADD MSTORE PUSH1 0x1B PUSH1 0x24 DUP3 ADD MSTORE PUSH32 0x4E6F20636F6E7472696275746F727320696E20726F746174696F6E0000000000 PUSH1 0x44 DUP3 ADD MSTORE PUSH1 0x64 SWAP1 REVERT JUMPDEST PUSH1 0x60 DUP2 ADD SWAP1 DUP2 LT PUSH8 0xFFFFFFFFFFFFFFFF DUP3 GT OR PUSH2 0xAF2 JUMPI PUSH1 0x40 MSTORE JUMP JUMPDEST PUSH4 0x4E487B71 PUSH1 0xE0 SHL PUSH0 MSTORE PUSH1 0x41 PUSH1 0x4 MSTORE PUSH1 0x24 PUSH0 REVERT JUMPDEST SWAP1 PUSH1 0x1F DUP1 NOT SWAP2 ADD AND DUP2 ADD SWAP1 DUP2 LT PUSH8 0xFFFFFFFFFFFFFFFF DUP3 GT OR PUSH2 0xAF2 JUMPI PUSH1 0x40 MSTORE JUMP JUMPDEST SWAP1 PUSH1 0x40 MLOAD PUSH2 0xB35 DUP2 PUSH2 0xAD6 JUMP JUMPDEST DUP3 SLOAD PUSH1 0x1 PUSH1 0x1 PUSH1 0xA0 SHL SUB AND DUP2 MSTORE PUSH1 0x1 DUP4 ADD SLOAD PUSH1 0x20 DUP3 ADD MSTORE PUSH1 0x2 SWAP1 SWAP3 ADD SLOAD PUSH1 0x40 DUP4 ADD MSTORE JUMP JUMPDEST SWAP2 SWAP1 PUSH2 0x868 JUMPI DUP1 MLOAD DUP3 SLOAD PUSH1 0x1 PUSH1 0x1 PUSH1 0xA0 SHL SUB NOT AND PUSH1 0x1 PUSH1 0x1 PUSH1 0xA0 SHL SUB SWAP2 SWAP1 SWAP2 AND OR DUP3 SSTORE PUSH1 0x20 DUP2 ADD MLOAD PUSH1 0x1 DUP4 ADD SSTORE PUSH1 0x40 ADD MLOAD PUSH1 0x2 SWAP2 SWAP1 SWAP2 ADD SSTORE JUMP JUMPDEST PUSH8 0xFFFFFFFFFFFFFFFF DUP2 GT PUSH2 0xAF2 JUMPI PUSH1 0x5 SHL PUSH1 0x20 ADD SWAP1 JUMP JUMPDEST PUSH1 0x1 PUSH1 0x1 PUSH1 0xA0 SHL SUB AND PUSH0 DUP2 DUP2 MSTORE PUSH1 0x1 PUSH1 0x20 MSTORE PUSH1 0x40 SWAP1 KECCAK256 SLOAD PUSH1 0xFF AND ISZERO PUSH2 0xC37 JUMPI DUP1 PUSH0 MSTORE PUSH1 0x4 PUSH1 0x20 MSTORE PUSH1 0xFF PUSH1 0x40 PUSH0 KECCAK256 SLOAD AND PUSH1 0x4 DUP2 LT ISZERO PUSH2 0x132 JUMPI PUSH1 0x1 DUP2 SUB PUSH2 0xC32 JUMPI POP PUSH0 MSTORE PUSH1 0x3 PUSH1 0x20 MSTORE PUSH1 0x40 PUSH0 KECCAK256 SLOAD DUP1 ISZERO PUSH2 0xC2B JUMPI JUMPDEST TIMESTAMP SUB TIMESTAMP DUP2 GT PUSH2 0x87B JUMPI PUSH3 0x278D00 DUP2 GT PUSH2 0xC18 JUMPI POP PUSH1 0x1 SWAP1 JUMP JUMPDEST PUSH3 0x4F1A00 LT PUSH2 0xC26 JUMPI PUSH1 0x2 SWAP1 JUMP JUMPDEST PUSH1 0x3 SWAP1 JUMP JUMPDEST POP TIMESTAMP PUSH2 0xBFF JUMP JUMPDEST SWAP1 POP SWAP1 JUMP JUMPDEST POP PUSH0 SWAP1 JUMP INVALID LOG2 PUSH5 0x6970667358 0x22 SLT KECCAK256 0x4B 0xA8 REVERT PUSH15 0x20D678B6AEDCF8E60A41C4D1F613AC 0xDC 0xA8 PUSH11 0x7BFA3086BC43506B4FE764 PUSH20 0x6F6C634300081C00330000000000000000000000 "},"methodIdentifiers":{"beforeBurnPolicy(address,address,uint256,bytes)":"862038be","beforeMintPolicy(address,address,uint256[],uint256[],bytes)":"b7038259","contributorHistory(address,uint256)":"b9a350f5","eureToken()":"26a149b7","getContributorHistory(address)":"75000d63","getCurrentRecipient()":"194e36f5","getMemberStatus(address)":"dde8535f","getRotationSchedule()":"77d5e059","getUniqueContributorCount()":"3117f41b","isContributor(address)":"1d0d35f5","rotateSchedule()":"6f4442bd","rotationSchedule(uint256)":"f97bd903"}}}}}