{"sol/base-group/BaseMintPolicy.sol":{"BaseMintPolicy":{"abi":[{"inputs":[{"internalType":"address","name":"","type":"address"},{"internalType":"address","name":"","type":"address"},{"internalType":"uint256","name":"","type":"uint256"},{"internalType":"bytes","name":"","type":"bytes"}],"name":"beforeBurnPolicy","outputs":[{"internalType":"bool","name":"","type":"bool"}],"stateMutability":"nonpayable","type":"function"},{"inputs":[{"internalType":"address","name":"","type":"address"},{"internalType":"address","name":"","type":"address"},{"internalType":"uint256[]","name":"","type":"uint256[]"},{"internalType":"uint256[]","name":"","type":"uint256[]"},{"internalType":"bytes","name":"","type":"bytes"}],"name":"beforeMintPolicy","outputs":[{"internalType":"bool","name":"","type":"bool"}],"stateMutability":"nonpayable","type":"function"}],"evm":{"bytecode":{"linkReferences":{},"object":"608080604052346015576101d9908161001a8239f35b5f80fdfe6080806040526004361015610012575f80fd5b5f3560e01c908163862038be146100ca575063b703825914610032575f80fd5b346100c65760a03660031901126100c65761004b610118565b5061005461012e565b5060443567ffffffffffffffff81116100c657610075903690600401610172565b505060643567ffffffffffffffff81116100c657610097903690600401610172565b505060843567ffffffffffffffff81116100c6576100b9903690600401610144565b5050602060405160018152f35b5f80fd5b346100c65760803660031901126100c6576100e3610118565b506100ec61012e565b506064359067ffffffffffffffff82116100c6576101106020923690600401610144565b505060018152f35b600435906001600160a01b03821682036100c657565b602435906001600160a01b03821682036100c657565b9181601f840112156100c65782359167ffffffffffffffff83116100c657602083818601950101116100c657565b9181601f840112156100c65782359167ffffffffffffffff83116100c6576020808501948460051b0101116100c65756fea2646970667358221220f6c9534af54b14d8afa60c244b9bc8370ebd30bf049f1a4f987e153def1746ab64736f6c634300081c0033","opcodes":"PUSH1 0x80 DUP1 PUSH1 0x40 MSTORE CALLVALUE PUSH1 0x15 JUMPI PUSH2 0x1D9 SWAP1 DUP2 PUSH2 0x1A DUP3 CODECOPY RETURN JUMPDEST PUSH0 DUP1 REVERT INVALID PUSH1 0x80 DUP1 PUSH1 0x40 MSTORE PUSH1 0x4 CALLDATASIZE LT ISZERO PUSH2 0x12 JUMPI PUSH0 DUP1 REVERT JUMPDEST PUSH0 CALLDATALOAD PUSH1 0xE0 SHR SWAP1 DUP2 PUSH4 0x862038BE EQ PUSH2 0xCA JUMPI POP PUSH4 0xB7038259 EQ PUSH2 0x32 JUMPI PUSH0 DUP1 REVERT JUMPDEST CALLVALUE PUSH2 0xC6 JUMPI PUSH1 0xA0 CALLDATASIZE PUSH1 0x3 NOT ADD SLT PUSH2 0xC6 JUMPI PUSH2 0x4B PUSH2 0x118 JUMP JUMPDEST POP PUSH2 0x54 PUSH2 0x12E JUMP JUMPDEST POP PUSH1 0x44 CALLDATALOAD PUSH8 0xFFFFFFFFFFFFFFFF DUP2 GT PUSH2 0xC6 JUMPI PUSH2 0x75 SWAP1 CALLDATASIZE SWAP1 PUSH1 0x4 ADD PUSH2 0x172 JUMP JUMPDEST POP POP PUSH1 0x64 CALLDATALOAD PUSH8 0xFFFFFFFFFFFFFFFF DUP2 GT PUSH2 0xC6 JUMPI PUSH2 0x97 SWAP1 CALLDATASIZE SWAP1 PUSH1 0x4 ADD PUSH2 0x172 JUMP JUMPDEST POP POP PUSH1 0x84 CALLDATALOAD PUSH8 0xFFFFFFFFFFFFFFFF DUP2 GT PUSH2 0xC6 JUMPI PUSH2 0xB9 SWAP1 CALLDATASIZE SWAP1 PUSH1 0x4 ADD PUSH2 0x144 JUMP JUMPDEST POP POP PUSH1 0x20 PUSH1 0x40 MLOAD PUSH1 0x1 DUP2 MSTORE RETURN JUMPDEST PUSH0 DUP1 REVERT JUMPDEST CALLVALUE PUSH2 0xC6 JUMPI PUSH1 0x80 CALLDATASIZE PUSH1 0x3 NOT ADD SLT PUSH2 0xC6 JUMPI PUSH2 0xE3 PUSH2 0x118 JUMP JUMPDEST POP PUSH2 0xEC PUSH2 0x12E JUMP JUMPDEST POP PUSH1 0x64 CALLDATALOAD SWAP1 PUSH8 0xFFFFFFFFFFFFFFFF DUP3 GT PUSH2 0xC6 JUMPI PUSH2 0x110 PUSH1 0x20 SWAP3 CALLDATASIZE SWAP1 PUSH1 0x4 ADD PUSH2 0x144 JUMP JUMPDEST POP POP PUSH1 0x1 DUP2 MSTORE RETURN JUMPDEST PUSH1 0x4 CALLDATALOAD SWAP1 PUSH1 0x1 PUSH1 0x1 PUSH1 0xA0 SHL SUB DUP3 AND DUP3 SUB PUSH2 0xC6 JUMPI JUMP JUMPDEST PUSH1 0x24 CALLDATALOAD SWAP1 PUSH1 0x1 PUSH1 0x1 PUSH1 0xA0 SHL SUB DUP3 AND DUP3 SUB PUSH2 0xC6 JUMPI JUMP JUMPDEST SWAP2 DUP2 PUSH1 0x1F DUP5 ADD SLT ISZERO PUSH2 0xC6 JUMPI DUP3 CALLDATALOAD SWAP2 PUSH8 0xFFFFFFFFFFFFFFFF DUP4 GT PUSH2 0xC6 JUMPI PUSH1 0x20 DUP4 DUP2 DUP7 ADD SWAP6 ADD ADD GT PUSH2 0xC6 JUMPI JUMP JUMPDEST SWAP2 DUP2 PUSH1 0x1F DUP5 ADD SLT ISZERO PUSH2 0xC6 JUMPI DUP3 CALLDATALOAD SWAP2 PUSH8 0xFFFFFFFFFFFFFFFF DUP4 GT PUSH2 0xC6 JUMPI PUSH1 0x20 DUP1 DUP6 ADD SWAP5 DUP5 PUSH1 0x5 SHL ADD ADD GT PUSH2 0xC6 JUMPI JUMP INVALID LOG2 PUSH5 0x6970667358 0x22 SLT KECCAK256 0xF6 0xC9 MSTORE8 BLOBBASEFEE CREATE2 0x4B EQ 0xD8 0xAF 0xA6 0xC 0x24 0x4B SWAP12 0xC8 CALLDATACOPY 0xE 0xBD ADDRESS 0xBF DIV SWAP16 BYTE 0x4F SWAP9 PUSH31 0x153DEF1746AB64736F6C634300081C00330000000000000000000000000000 "},"methodIdentifiers":{"beforeBurnPolicy(address,address,uint256,bytes)":"862038be","beforeMintPolicy(address,address,uint256[],uint256[],bytes)":"b7038259"}}}}}