{"sol/base/Circle.sol":{"Circle":{"abi":[{"inputs":[{"internalType":"address","name":"from","type":"address"},{"internalType":"uint256","name":"amount","type":"uint256"}],"name":"burn","outputs":[],"stateMutability":"nonpayable","type":"function"},{"inputs":[{"internalType":"address","name":"to","type":"address"},{"internalType":"uint256","name":"amount","type":"uint256"}],"name":"mint","outputs":[],"stateMutability":"nonpayable","type":"function"}],"evm":{"bytecode":{"linkReferences":{},"object":"608080604052346013576089908160188239f35b5f80fdfe608060405260043610156010575f80fd5b5f3560e01c806340c10f1914602c57639dc29fac14602c575f80fd5b34604f576040366003190112604f576004356001600160a01b0381168103604f57005b5f80fdfea264697066735822122020faf94a0cfdbfa8466b2076a1e576425d734be810692f06c4a33cf7abadedaa64736f6c634300081c0033","opcodes":"PUSH1 0x80 DUP1 PUSH1 0x40 MSTORE CALLVALUE PUSH1 0x13 JUMPI PUSH1 0x89 SWAP1 DUP2 PUSH1 0x18 DUP3 CODECOPY RETURN JUMPDEST PUSH0 DUP1 REVERT INVALID PUSH1 0x80 PUSH1 0x40 MSTORE PUSH1 0x4 CALLDATASIZE LT ISZERO PUSH1 0x10 JUMPI PUSH0 DUP1 REVERT JUMPDEST PUSH0 CALLDATALOAD PUSH1 0xE0 SHR DUP1 PUSH4 0x40C10F19 EQ PUSH1 0x2C JUMPI PUSH4 0x9DC29FAC EQ PUSH1 0x2C JUMPI PUSH0 DUP1 REVERT JUMPDEST CALLVALUE PUSH1 0x4F JUMPI PUSH1 0x40 CALLDATASIZE PUSH1 0x3 NOT ADD SLT PUSH1 0x4F JUMPI PUSH1 0x4 CALLDATALOAD PUSH1 0x1 PUSH1 0x1 PUSH1 0xA0 SHL SUB DUP2 AND DUP2 SUB PUSH1 0x4F JUMPI STOP JUMPDEST PUSH0 DUP1 REVERT INVALID LOG2 PUSH5 0x6970667358 0x22 SLT KECCAK256 KECCAK256 STATICCALL 0xF9 BLOBBASEFEE 0xC REVERT 0xBF 0xA8 CHAINID PUSH12 0x2076A1E576425D734BE81069 0x2F MOD 0xC4 LOG3 EXTCODECOPY 0xF7 0xAB 0xAD 0xED 0xAA PUSH5 0x736F6C6343 STOP ADDMOD SHR STOP CALLER "},"methodIdentifiers":{"burn(address,uint256)":"9dc29fac","mint(address,uint256)":"40c10f19"}}}}}