{"sol/implementations/TFGroupFactory.sol":{"TFGroupFactory":{"abi":[{"inputs":[],"name":"MaxNameLength19","type":"error"},{"anonymous":false,"inputs":[{"indexed":true,"internalType":"address","name":"group","type":"address"},{"indexed":true,"internalType":"address","name":"owner","type":"address"},{"indexed":true,"internalType":"address","name":"mintHandler","type":"address"},{"indexed":false,"internalType":"address","name":"treasury","type":"address"}],"name":"BaseGroupCreated","type":"event"},{"inputs":[{"internalType":"address","name":"_owner","type":"address"},{"internalType":"address","name":"_service","type":"address"},{"internalType":"address","name":"_feeCollection","type":"address"},{"internalType":"address","name":"_customMintPolicy","type":"address"},{"internalType":"address[]","name":"_initialConditions","type":"address[]"},{"internalType":"string","name":"_name","type":"string"},{"internalType":"string","name":"_symbol","type":"string"},{"internalType":"bytes32","name":"_metadataDigest","type":"bytes32"},{"internalType":"address","name":"eureToken","type":"address"},{"internalType":"address","name":"mintPolicy","type":"address"},{"internalType":"uint96","name":"contributionAmount","type":"uint96"},{"internalType":"uint8","name":"payOutDay","type":"uint8"},{"internalType":"address","name":"stableCoinTokenAddress","type":"address"}],"name":"createTrustFund","outputs":[{"internalType":"address","name":"group","type":"address"},{"internalType":"address","name":"mintHandler","type":"address"},{"internalType":"address","name":"treasury","type":"address"}],"stateMutability":"nonpayable","type":"function"},{"inputs":[{"internalType":"address","name":"group","type":"address"}],"name":"deployedByFactory","outputs":[{"internalType":"bool","name":"deployed","type":"bool"}],"stateMutability":"view","type":"function"}],"evm":{"bytecode":{"linkReferences":{},"object":"60808060405234601557614468908161001a8239f35b5f80fdfe6080806040526004361015610012575f80fd5b5f3560e01c908163cbedba1614610072575063de87aeeb14610032575f80fd5b3461006e57602036600319011261006e576001600160a01b0361005361046a565b165f525f602052602060ff60405f2054166040519015158152f35b5f80fd5b3461006e576101a036600319011261006e5761008c61046a565b906024356001600160a01b038116919082900361006e576044356001600160a01b038116939084900361006e576064356001600160a01b038116929083900361006e576084359467ffffffffffffffff861161006e573660238701121561006e5785600401359567ffffffffffffffff8711610428578660051b966101146020890185610480565b83526020830190602482988201019036821161006e57602401915b81831061044a5750505060a43567ffffffffffffffff811161006e576101599036906004016104a2565b9260c43567ffffffffffffffff811161006e5761017a9036906004016104a2565b610104356001600160a01b03811695919086900361006e57610124356001600160a01b038116919082900361006e5761014435926bffffffffffffffffffffffff841680940361006e57610164359460ff861680960361006e57610184356001600160a01b038116989089900361006e57601383511161043c576040519a613f1698898d01998d8b1067ffffffffffffffff8c11176104285761051d8e396101a08a019360018060a01b03169d8e8b5260208b015260408a015260608901526101a06080890152518091526101c087019b905f5b8181106104095750505085949392916102778c61028593610180998d9e9f0360a08a01526104f8565b9086820360c08801526104f8565b9660e43560e0860152610100850152610120840152610140830152610160820152015203905ff080156103bc57604051630c6d511360e11b81526001600160a01b039190911690602081600481855afa9081156103bc575f916103c7575b50604051636e6e5d9d60e11b81526001600160a01b03919091169290602081600481865afa9081156103bc575f91610378575b50928060609460018060a01b031692845f525f60205260405f20600160ff19825416179055847fee2d13e80f5f1abdc1590049ea7b859791ca98f79c1aa0b19ae0647c9bb81a966020604051878152a460405192835260208301526040820152f35b90506020813d6020116103b4575b8161039360209383610480565b8101031261006e5751926001600160a01b038416840361006e579283610316565b3d9150610386565b6040513d5f823e3d90fd5b90506020813d602011610401575b816103e260209383610480565b8101031261006e57516001600160a01b038116810361006e57836102e3565b3d91506103d5565b82516001600160a01b03168e5260209d8e019d9092019160010161024e565b634e487b7160e01b5f52604160045260245ffd5b6272a29d60e71b5f5260045ffd5b82356001600160a01b038116810361006e5781526020928301920161012f565b600435906001600160a01b038216820361006e57565b90601f8019910116810190811067ffffffffffffffff82111761042857604052565b81601f8201121561006e5780359067ffffffffffffffff821161042857604051926104d7601f8401601f191660200185610480565b8284526020838301011161006e57815f926020809301838601378301015290565b805180835260209291819084018484015e5f828201840152601f01601f191601019056fe61016080604052346106b0575f90613f16803803809161001f8285610734565b83398101906101a0818303126106b05761003881610757565b9061004560208201610757565b61005160408301610757565b61005d60608401610757565b60808401519095906001600160401b0381116106b05784019681601f890112156106b0578751976001600160401b0389116106b4578860051b604051996100a7602083018c610734565b8a526020808b0191830101918483116106b057602001905b82821061071c5750505060a08501516001600160401b0381116106b057826100e891870161076b565b60c086015190926001600160401b0382116106b05761010891870161076b565b9160e086015161011b6101008801610757565b936101296101208901610757565b610140890151979096906001600160601b03891689036106b0576101608a01519960ff8b1690818c036106b0576101806101639101610757565b9b6001600160a01b031690811561070e578015159081610702575b50156106c8575f80546001600160a01b031916821781557f4ffd725fc4a22075e9ec71c59edf9c38cdeb588a91b24fc5b61388c5be41282b9080a2600180546001600160a01b0319166001600160a01b039290921691821790557f0176c74b9bca78214099248dd4e675a4be45c1f7417e269f78ef97e96ece2a515f80a2600280546001600160a01b0319166001600160a01b039290921691821790557f166c82f2c4cd6d3546d8aa18fe78e4b4e6a1baa30de276480b10d2a4faa95a285f80a25f5b8b5181101561027157600581901b8c01602001516001919061026b906001600160a01b0316610810565b01610241565b506040518a90610a8a8082016001600160401b038111838210176106b457829161201e833973c12c1e50abb450d6205ea2c3fa861b3b834d13e8815273a27566fd89162cc3d40cb59c87aaaa49b85f3474602082015230604082015260a060608201528560806102e460a084018a6107c0565b92015203905ff080156106a5578060805273c12c1e50abb450d6205ea2c3fa861b3b834d13e83b156106b057604051634df62b9360e11b81526001600160a01b0392831660048201529116602482015260a06044820152905f90829081906103659061035360a48401896107c0565b838103600319016064850152906107c0565b85608483015203818373c12c1e50abb450d6205ea2c3fa861b3b834d13e85af180156106a557610690575b5073a27566fd89162cc3d40cb59c87aaaa49b85f34743b1561068c5760405163414e07ef60e11b8152839081816004818373a27566fd89162cc3d40cb59c87aaaa49b85f34746203d090f1610677575b50506040516395b645b160e01b8152306004820152602481018490529060208260448187735f99a795dd2743c36d63511f0d4bc667e6d3cdb55af191821561066c57849261062c575b506040516395b645b160e01b8152306004820152600160248201529260208460448188735f99a795dd2743c36d63511f0d4bc667e6d3cdb55af19384156106215785946105e1575b506040519361146e80860194906001600160401b038611878710176105cd579260c0926104ff9288979695612aa8893973c12c1e50abb450d6205ea2c3fa861b3b834d13e8875273a27566fd89162cc3d40cb59c87aaaa49b85f347460208801523060408801526001600160a01b03908116606088015216608086015260e060a086018190528501906107c0565b920152039082f09081156105c1575060a0526001600160a01b03908116610120529081166101405260c09190915260e091909152166101005260405161176790816108b7823960805181818161024e0152610c5b015260a051818181610cba01528181610f45015261157f015260c0518181816101a4015261076f015260e0518181816101e2015281816106ad015261117f0152610100518181816104bd01526107a601526101205181610e7401526101405181818161065d01526107070152f35b604051903d90823e3d90fd5b634e487b7160e01b88526041600452602488fd5b9093506020813d602011610619575b816105fd60209383610734565b810103126106155761060e90610757565b928a610471565b8480fd5b3d91506105f0565b6040513d87823e3d90fd5b9091506020813d602011610664575b8161064860209383610734565b810103126106605761065990610757565b9089610429565b8380fd5b3d915061063b565b6040513d86823e3d90fd5b8161068191610734565b61068c5782896103e0565b8280fd5b61069d9193505f90610734565b5f9188610390565b6040513d5f823e3d90fd5b5f80fd5b634e487b7160e01b5f52604160045260245ffd5b60405162461bcd60e51b8152602060048201526012602482015271496e76616c6964207061796f75742064617960701b6044820152606490fd5b601f915011155f61017e565b628c613160e41b5f5260045ffd5b6020809161072984610757565b8152019101906100bf565b601f909101601f19168101906001600160401b038211908210176106b457604052565b51906001600160a01b03821682036106b057565b81601f820112156106b0578051906001600160401b0382116106b4576040519261079f601f8401601f191660200185610734565b828452602083830101116106b057815f9260208093018386015e8301015290565b805180835260209291819084018484015e5f828201840152601f01601f1916010190565b6003548110156107fc5760035f5260205f2001905f90565b634e487b7160e01b5f52603260045260245ffd5b6001600160a01b031680156108b357600354600a8110156108a4575f5b8181106108765750680100000000000000008110156106b45780600161085692016003556107e4565b81546001600160a01b0360039290921b91821b191692901b919091179055565b82610880826107e4565b905460039190911b1c6001600160a01b03161461089f5760010161082d565b505050565b6329ba6e8d60e11b5f5260045ffd5b5056fe60806040526004361015610011575f80fd5b5f5f3560e01c80630720cb1914610fdf57806313af403514610f7457806318daa22614610f305780631f5be2e714610ea357806326a149b714610e5f5780632bfed37514610de25780633786df5e14610d635780633857d9d714610bd65780634141f954146109d25780634585e33b1461068c57806363be9f0c146106475780636e04ff0d146105f257806375dcebc7146105a057806383c2b7f5146105715780638da5cb5b1461054a578063a05c26161461051b578063a4c52b86146104ec578063bb69e2ba146104a7578063bf8bdac114610417578063c45ea8cd14610389578063c5a5688c146102e0578063ce2b87b7146102c2578063d598d4c914610299578063d9b7f3ee1461027d578063dcdcbb3a14610238578063de5101af14610206578063e3f826fb146101c8578063ed9c543e146101845763edbcfdf214610159575f80fd5b346101815780600319360112610181576002546040516001600160a01b039091168152602090f35b80fd5b503461018157806003193601126101815760206040516001600160601b037f0000000000000000000000000000000000000000000000000000000000000000168152f35b5034610181578060031936011261018157602060405160ff7f0000000000000000000000000000000000000000000000000000000000000000168152f35b5034610181576020366003190112610181576060610225600435611231565b9060405192835260208301526040820152f35b50346101815780600319360112610181576040517f00000000000000000000000000000000000000000000000000000000000000006001600160a01b03168152602090f35b50346101815780600319360112610181576020604051600a8152f35b50346101815780600319360112610181576001546040516001600160a01b039091168152602090f35b50346101815780600319360112610181576020600654604051908152f35b50346101815760203660031901126101815780546001600160a01b0316330361037a5773a27566fd89162cc3d40cb59c87aaaa49b85f34743b1561018157806040516331695a2360e21b8152600435600482015281816024818373a27566fd89162cc3d40cb59c87aaaa49b85f34745af1801561036f5761035e5750f35b81610368916110ba565b6101815780f35b6040513d84823e3d90fd5b635fc483c560e01b8152600490fd5b503461018157806003193601126101815760405180916020600454928381520191600482527f8a35acfbc15ff81a39ae7d344fd709f28e8600b4aa8c65c6b64bfe7fe36bd19b915b8181106103f8576103f4856103e8818703826110ba565b60405191829182611078565b0390f35b82546001600160a01b03168452602090930192600192830192016103d1565b503461018157602036600319011261018157610431611062565b81546001600160a01b03163303610498576001600160a01b0316801561048a57600180546001600160a01b031916821790557f0176c74b9bca78214099248dd4e675a4be45c1f7417e269f78ef97e96ece2a518280a280f35b628c613160e41b8252600482fd5b635fc483c560e01b8252600482fd5b50346101815780600319360112610181576040517f00000000000000000000000000000000000000000000000000000000000000006001600160a01b03168152602090f35b5034610181578060031936011261018157602060405173c12c1e50abb450d6205ea2c3fa861b3b834d13e88152f35b5034610181578060031936011261018157602060405173a27566fd89162cc3d40cb59c87aaaa49b85f34748152f35b5034610181578060031936011261018157546040516001600160a01b039091168152602090f35b50346101815780600319360112610181576020604051735f99a795dd2743c36d63511f0d4bc667e6d3cdb58152f35b5034610181576040366003190112610181576105ba611062565b6105c26110f0565b82549091906001600160a01b031633036105e357906105e09161150a565b80f35b635fc483c560e01b8352600483fd5b503461018157606060209161060636611106565b505061061061116f565b939091604051948593151584526040838501528051928391826040870152018585015e828201840152601f01601f19168101030190f35b50346101815780600319360112610181576040517f00000000000000000000000000000000000000000000000000000000000000006001600160a01b03168152602090f35b50346101815761069b36611106565b50506106a642611231565b91505060ff7f00000000000000000000000000000000000000000000000000000000000000001603610998576106dd600654611231565b50906106e842611231565b509114918261098e575b50506109495760405163194e36f560e01b81527f00000000000000000000000000000000000000000000000000000000000000006001600160a01b031690602081600481855afa90811561093e5783916108f8575b506040519063a9059cbb60e01b825260018060a01b0316918260048301526001600160601b037f000000000000000000000000000000000000000000000000000000000000000016918260248201526020816044818860018060a01b037f0000000000000000000000000000000000000000000000000000000000000000165af19081156108ed5785916108ce575b50156108bf5760208491600460405180948193636f4442bd60e01b83525af19081156108b4578491610885575b50156108405760407f5306cd5c1fd578475b0797de95f693e723b7bbf516236b27419b74bf999ef02891426006558151908152426020820152a280f35b60405162461bcd60e51b815260206004820152601860248201527f5363686564756c6520726f746174696f6e206661696c656400000000000000006044820152606490fd5b6108a7915060203d6020116108ad575b61089f81836110ba565b810190611157565b5f610803565b503d610895565b6040513d86823e3d90fd5b630ec6ac4160e21b8452600484fd5b6108e7915060203d6020116108ad5761089f81836110ba565b5f6107d6565b6040513d87823e3d90fd5b90506020813d602011610936575b81610913602093836110ba565b8101031261093257516001600160a01b0381168103610932575f610747565b8280fd5b3d9150610906565b6040513d85823e3d90fd5b60405162461bcd60e51b815260206004820152601c60248201527f416c7265616479207472696767657265642074686973206d6f6e7468000000006044820152606490fd5b1490505f806106f2565b60405162461bcd60e51b81526020600482015260126024820152714e6f7420746865207061796f75742064617960701b6044820152606490fd5b50346101815760403660031901126101815760043567ffffffffffffffff8111610bd25736602382011215610bd25780600401359067ffffffffffffffff8211610bbe578160051b9060405192610a2c60208401856110ba565b83526024602084019282010190368211610bba57602401915b818310610b9657505050610a576110f0565b82546001600160a01b031633141580610b81575b610b7257426001600160601b038216101592805b8351811015610b6e57600581901b8401602001516001600160a01b03168515610ae657610aab8161167f565b9015610ac5575090610abf8460019361150a565b01610a7f565b63f35a9bb360e01b84526004919091526001600160a01b0316602452604482fd5b6040516306713e2360e41b8152306004820152602481018290526020816044818773c12c1e50abb450d6205ea2c3fa861b3b834d13e85af19081156108b457600193929186918691610b50575b50610b40575b5050610abf565b610b499161150a565b5f84610b39565b610b68915060203d81116108ad5761089f81836110ba565b5f610b33565b5080f35b630f14274360e41b8352600483fd5b506001546001600160a01b0316331415610a6b565b82356001600160a01b0381168103610bb657815260209283019201610a45565b8580fd5b8480fd5b634e487b7160e01b83526041600452602483fd5b5080fd5b5034610d50576020366003190112610d50575f5460043591906001600160a01b03163303610d545773a27566fd89162cc3d40cb59c87aaaa49b85f34743b15610d5057604051633857d9d760e01b8152600481018390525f816024818373a27566fd89162cc3d40cb59c87aaaa49b85f34745af18015610d4557610d32575b509081907f00000000000000000000000000000000000000000000000000000000000000006001600160a01b0316803b15610d1657828091602460405180948193633857d9d760e01b83528760048401525af190811561093e578391610d1a575b50507f00000000000000000000000000000000000000000000000000000000000000006001600160a01b031690813b15610d16578291602483926040519485938492633857d9d760e01b845260048401525af1801561036f5761035e5750f35b5050fd5b81610d24916110ba565b610d2f57815f610cb6565b50fd5b610d3e91505f906110ba565b5f5f610c55565b6040513d5f823e3d90fd5b5f80fd5b635fc483c560e01b5f5260045ffd5b34610d50576020366003190112610d5057610d7c611062565b5f546001600160a01b03163303610d54576001600160a01b03168015610dd457600280546001600160a01b031916821790557f166c82f2c4cd6d3546d8aa18fe78e4b4e6a1baa30de276480b10d2a4faa95a285f80a2005b628c613160e41b5f5260045ffd5b34610d50575f366003190112610d505760405180602060035491828152019060035f527fc2575a0e9e593c00f959f8c92f12db2869c3395a3b0502d05e2516446f71f85b905f5b818110610e40576103f4856103e8818703826110ba565b82546001600160a01b0316845260209093019260019283019201610e29565b34610d50575f366003190112610d50576040517f00000000000000000000000000000000000000000000000000000000000000006001600160a01b03168152602090f35b34610d50576040366003190112610d5057610ebc611062565b6024359081151591828103610d50575f546001600160a01b03163303610d54577f020147d45cea39f58d5e0ac88491218987fe0a4ceafbf0a47796542ac9446b6a9160209115610f2257610f0f81611478565b6040519384526001600160a01b031692a2005b610f2b81611382565b610f0f565b34610d50575f366003190112610d50576040517f00000000000000000000000000000000000000000000000000000000000000006001600160a01b03168152602090f35b34610d50576020366003190112610d5057610f8d611062565b5f54906001600160a01b0382163303610d545760018060a01b031680916001600160601b0360a01b16175f557f4ffd725fc4a22075e9ec71c59edf9c38cdeb588a91b24fc5b61388c5be41282b5f80a2005b34610d50576020366003190112610d5057600435600354811015610d5057611008602091611021565b905460405160039290921b1c6001600160a01b03168152f35b6003548110156110395760035f5260205f2001905f90565b634e487b7160e01b5f52603260045260245ffd5b8054821015611039575f5260205f2001905f90565b600435906001600160a01b0382168203610d5057565b60206040818301928281528451809452019201905f5b81811061109b5750505090565b82516001600160a01b031684526020938401939092019160010161108e565b90601f8019910116810190811067ffffffffffffffff8211176110dc57604052565b634e487b7160e01b5f52604160045260245ffd5b602435906001600160601b0382168203610d5057565b906020600319830112610d505760043567ffffffffffffffff8111610d505782602382011215610d505780600401359267ffffffffffffffff8411610d505760248483010111610d50576024019190565b90816020910312610d5057518015158103610d505790565b61117842611231565b91505060ff7f000000000000000000000000000000000000000000000000000000000000000016036111e2576111af600654611231565b50906111ba42611231565b50911491826111f9575b50506111e257604051906111d96020836110ba565b5f825260019190565b604051906111f16020836110ba565b5f82525f9190565b1490505f806111c4565b9190820180921161121057565b634e487b7160e01b5f52601160045260245ffd5b9190820391821161121057565b620151809004620afa6c81018091116112105762023ab181049062023ab182029082159183810462023ab1148317156112105761126d91611224565b9161016d61129c6112906112856105b4870487611224565b618eac870490611203565b62023ab0860490611224565b04916101908202918204610190141715611210576112ba9082611203565b918161016d0261016d81048303611210578260646112e26112ea936112f09660021c90611203565b910490611224565b90611224565b80600502600581048203611210576002810180911161121057609990049081609902906099820483036112105760028201809211611210576005611335920490611224565b600181018091116112105790600a811015611370576003810180911161121057915b6002831161136d57600181018091116112105792565b92565b60081981019081116112105791611357565b6001600160a01b03168015611475576003545f5b8181106113a257505050565b826113ac82611021565b905460039190911b1c6001600160a01b0316146113cb57600101611396565b5f198201925090821161121057818103611423575b5050600354801561140f575f19016113f781611021565b81546001600160a01b03600392831b1b191690915555565b634e487b7160e01b5f52603160045260245ffd5b61144a61143261146e93611021565b905460039190911b1c6001600160a01b031691611021565b81546001600160a01b0393841660039290921b91821b9390911b1916919091179055565b5f806113e0565b50565b6001600160a01b03811680156115065760035490600a8210156114f7575f5b8281106114c85750505060035490600160401b8210156110dc5761144a8260016114c69401600355600361104d565b565b816114d282611021565b905460039190911b1c6001600160a01b0316146114f157600101611497565b50505050565b6329ba6e8d60e11b5f5260045ffd5b5050565b9073c12c1e50abb450d6205ea2c3fa861b3b834d13e83b15610d50576040516375dcebc760e01b81526001600160a01b03831660048201526001600160601b03821660248201525f919082816044818373c12c1e50abb450d6205ea2c3fa861b3b834d13e85af18015610d455761166a575b507f00000000000000000000000000000000000000000000000000000000000000006001600160a01b031690813b156109325760405163c878fe9560e01b81526001600160a01b03851660048201526001600160601b039190911660248201529082908290604490829084905af1801561036f57908291611655575b50506001600160a01b038216808252600560205260408220549092901561161e57505050565b600454600160401b811015610bbe576040929161144a8260016116469401600455600461104d565b60045492815260056020522055565b8161165f916110ba565b61018157805f6115f8565b6116779192505f906110ba565b5f905f61157c565b600354905f5b828110611696575050506001905f90565b5f60206116a283611021565b905460405163cf3838e160e01b81526001600160a01b03878116600483015290948593602493859360039290921b1c165af1908115610d45575f91611713575b50156116f057600101611685565b90506116fc9150611021565b90545f9260039290921b1c6001600160a01b031690565b61172b915060203d81116108ad5761089f81836110ba565b5f6116e256fea2646970667358221220b099dc2c234a931b520ecbc86a4349d9aa3c021342b8992517f861c62d0c0d2164736f6c634300081c003360e08060405234610279575f610a8a803803809161001d8286610291565b843982019160a08184031261027957610035816102b4565b92610042602083016102b4565b9361004f604084016102b4565b60608401519095906001600160401b03811161027957840183601f82011215610279578051946001600160401b03861161027d576040519561009b601f8201601f191660200188610291565b808752602087019560208285010111610279576020815f928260809601895e8801015201519160018060a01b031660805260018060a01b031660a0528460c05261011360096020604051809582820197518091895e8101682d747265617375727960b81b838201520301601619810185520183610291565b6080516001600160a01b0316803b15610279575f9283606460405180978196829563bfde380d60e01b8452604060048501525180928160448601528585015e82820184018590526024830152601f01601f191681010301925af1801561026e5761025b575b50608051909182916001600160a01b0316803b15610257576040516375dcebc760e01b81526001600160a01b0390921660048301526001600160601b0360248301529091908290604490829084905af1801561024c57610234575b6040516107c190816102c9823960805181818160bc0152818161022b01528181610292015281816105a9015261067a015260a0518181816102d70152610366015260c051818181610173015281816103360152818161057f015261069f0152f35b61023f828092610291565b61024957806101d3565b80fd5b6040513d84823e3d90fd5b5050fd5b61026791505f90610291565b5f5f610178565b6040513d5f823e3d90fd5b5f80fd5b634e487b7160e01b5f52604160045260245ffd5b601f909101601f19168101906001600160401b0382119082101761027d57604052565b51906001600160a01b03821682036102795756fe6080806040526004361015610012575f80fd5b5f905f3560e01c90816301ffc9a7146103ef575080633857d9d71461032257806344df8e7014610306578063a05c2616146102c1578063a4c52b861461027c578063bc197c81146101a2578063e532b61d1461015d5763f23a6e6114610076575f80fd5b3461015a5760a036600319011261015a5761008f610442565b50610098610458565b5060843567ffffffffffffffff8111610158576100b990369060040161050d565b507f00000000000000000000000000000000000000000000000000000000000000006001600160a01b03163303610149576040516100f860408261046e565b600181526020808201903682378151156101355761011b92506044359052610670565b610123610563565b60405163f23a6e6160e01b8152602090f35b634e487b7160e01b83526032600452602483fd5b63058a7c7360e31b8152600490fd5b505b80fd5b503461015a578060031936011261015a576040517f00000000000000000000000000000000000000000000000000000000000000006001600160a01b03168152602090f35b503461015a5760a036600319011261015a576101bc610442565b506101c5610458565b5060443567ffffffffffffffff8111610158576101e69036906004016104a4565b9060643567ffffffffffffffff8111610158576102079036906004016104a4565b5060843567ffffffffffffffff81116101585761022890369060040161050d565b507f00000000000000000000000000000000000000000000000000000000000000006001600160a01b031633036101495761026282610670565b61026a610563565b60405163bc197c8160e01b8152602090f35b503461015a578060031936011261015a576040517f00000000000000000000000000000000000000000000000000000000000000006001600160a01b03168152602090f35b503461015a578060031936011261015a576040517f00000000000000000000000000000000000000000000000000000000000000006001600160a01b03168152602090f35b503461015a578060031936011261015a5761031f610563565b80f35b50346103dc5760203660031901126103dc577f00000000000000000000000000000000000000000000000000000000000000006001600160a01b031633036103e0577f00000000000000000000000000000000000000000000000000000000000000006001600160a01b0316803b156103dc575f8091602460405180948193633857d9d760e01b835260043560048401525af180156103d1576103c3575080f35b6103cf91505f9061046e565b005b6040513d5f823e3d90fd5b5f80fd5b636346b2b760e01b5f5260045ffd5b346103dc5760203660031901126103dc576004359063ffffffff60e01b82168092036103dc57602091630271189760e51b8114908115610431575b5015158152f35b6301ffc9a760e01b1490508361042a565b600435906001600160a01b03821682036103dc57565b602435906001600160a01b03821682036103dc57565b90601f8019910116810190811067ffffffffffffffff82111761049057604052565b634e487b7160e01b5f52604160045260245ffd5b9080601f830112156103dc5781359167ffffffffffffffff8311610490578260051b9060208201936104d9604051958661046e565b84526020808501928201019283116103dc57602001905b8282106104fd5750505090565b81358152602091820191016104f0565b81601f820112156103dc5780359067ffffffffffffffff82116104905760405192610542601f8401601f19166020018561046e565b828452602083830101116103dc57815f926020809301838601378301015290565b604051627eeac760e11b81523060048201526001600160a01b037f00000000000000000000000000000000000000000000000000000000000000008116602483018190527f000000000000000000000000000000000000000000000000000000000000000090911691602081604481865afa9081156103d1575f9161063e575b50806105ee57505050565b823b156103dc5760845f928360405195869485936380a5a37160e01b855260048501526024840152606060448401528160648401525af180156103d1576106325750565b5f61063c9161046e565b565b90506020813d602011610668575b816106596020938361046e565b810103126103dc57515f6105e3565b3d915061064c565b6001600160a01b037f0000000000000000000000000000000000000000000000000000000000000000811691907f0000000000000000000000000000000000000000000000000000000000000000165f5b8251811015610785578251811015610771576020600582901b84018101516040516306713e2360e41b8152600481018590526001600160a01b03909116602482015290816044815f895af19081156103d1575f91610737575b5015610728576001016106c1565b631c74bb5760e11b5f5260045ffd5b90506020813d8211610769575b816107516020938361046e565b810103126103dc575180151581036103dc575f61071a565b3d9150610744565b634e487b7160e01b5f52603260045260245ffd5b5050505056fea26469706673582212200108daefbe6af0f7d71f139c2e5eb8415ac16e2bca330e23b3034593731c5b5f64736f6c634300081c003361014080604052346102755761146e803803809161001d828561028d565b8339810160e08282031261027557610034826102b0565b610040602084016102b0565b61004c604085016102b0565b610058606086016102b0565b90610065608087016102b0565b60a08701519093906001600160401b03811161027557870186601f82011215610275578051976001600160401b03891161027957604051986100b1601f8201601f19166020018b61028d565b808a5260208a019860208285010111610275576020815f928260c096018c5e8b01015201516001600160a01b0395861660805290851660a05260c0829052931660e052610100526101205260405192516020848101949361013e92600d92918691908190895e81016c16b6b4b73a16b430b7323632b960991b83820152030160121981018552018361028d565b6080516001600160a01b0316803b15610275575f9283606460405180978196829563bfde380d60e01b8452604060048501525180928160448601528585015e82820184018590526024830152601f01601f191681010301925af1801561026a5761025a575b6040516111a990816102c5823960805181818161031c015281816105be015281816107060152818161076201528181610b3101528181610c3a0152610de9015260a0518181816101c601526102d8015260c0518181816101960152818161058e015281816106410152818161086c01528181610b7d0152610da3015260e05181818161025c01528181610c880152610f720152610100518181816102940152610d1c0152610120518181816106850152610f4a0152f35b5f6102649161028d565b5f6101a3565b6040513d5f823e3d90fd5b5f80fd5b634e487b7160e01b5f52604160045260245ffd5b601f909101601f19168101906001600160401b0382119082101761027957604052565b51906001600160a01b03821682036102755756fe60806040526004361015610011575f80fd5b5f3560e01c806301ffc9a7146100e4578063033f7354146100df5780633857d9d7146100da5780634dd9c0b5146100d55780636604495e146100d0578063a05c2616146100cb578063a4c52b86146100c6578063a855a717146100c1578063bc197c81146100bc578063c878fe95146100b7578063e532b61d146100b2578063f07108a0146100ad5763f23a6e61146100a8575f80fd5b6106b4565b610670565b61062c565b610554565b61049c565b61034b565b610307565b6102c3565b61027f565b610245565b610182565b610148565b3461013a57602036600319011261013a5760043563ffffffff60e01b811680910361013a57602090630271189760e51b8114908115610129575b506040519015158152f35b6301ffc9a760e01b1490505f61011e565b5f80fd5b5f91031261013a57565b3461013a575f36600319011261013a5760206040517ff3f5858942140fd2894eeb8b74cd0ed72d24fc6675d352a2884b1be2f32256fe8152f35b3461013a575f602036600319011261013a577f00000000000000000000000000000000000000000000000000000000000000006001600160a01b03163303610236577f00000000000000000000000000000000000000000000000000000000000000006001600160a01b0316803b1561013a575f8091602460405180948193633857d9d760e01b835260043560048401525af1801561023157610223575080f35b61022f91505f906103aa565b005b610750565b636346b2b760e01b5f5260045ffd5b3461013a575f36600319011261013a5760206040517f00000000000000000000000000000000000000000000000000000000000000008152f35b3461013a575f36600319011261013a576040517f00000000000000000000000000000000000000000000000000000000000000006001600160a01b03168152602090f35b3461013a575f36600319011261013a576040517f00000000000000000000000000000000000000000000000000000000000000006001600160a01b03168152602090f35b3461013a575f36600319011261013a576040517f00000000000000000000000000000000000000000000000000000000000000006001600160a01b03168152602090f35b3461013a575f36600319011261013a5760206040517f9d28938b56c0e8aae8dd05e12461cbabf8f699236c3fd7c54c7d3bb9fb443ed28152f35b6001600160a01b0381160361013a57565b634e487b7160e01b5f52604160045260245ffd5b90601f8019910116810190811067ffffffffffffffff8211176103cc57604052565b610396565b67ffffffffffffffff81116103cc5760051b60200190565b9080601f8301121561013a578135610400816103d1565b9261040e60405194856103aa565b81845260208085019260051b82010192831161013a57602001905b8282106104365750505090565b8135815260209182019101610429565b81601f8201121561013a5780359067ffffffffffffffff82116103cc576040519261047b601f8401601f1916602001856103aa565b8284526020838301011161013a57815f926020809301838601378301015290565b3461013a5760a036600319011261013a576004356104b981610385565b602435906104c682610385565b60443567ffffffffffffffff811161013a576104e69036906004016103e9565b9060643567ffffffffffffffff811161013a576105079036906004016103e9565b6084359267ffffffffffffffff841161013a576105509461052f610535953690600401610446565b9361075b565b6040516001600160e01b031990911681529081906020820190565b0390f35b3461013a575f604036600319011261013a5760043561057281610385565b602435906bffffffffffffffffffffffff821680920361013a577f00000000000000000000000000000000000000000000000000000000000000006001600160a01b03163303610236577f00000000000000000000000000000000000000000000000000000000000000006001600160a01b031691823b1561013a576040516375dcebc760e01b81526001600160a01b0390921660048301526024820152905f908290604490829084905af1801561023157610223575080f35b3461013a575f36600319011261013a576040517f00000000000000000000000000000000000000000000000000000000000000006001600160a01b03168152602090f35b3461013a575f36600319011261013a576040517f00000000000000000000000000000000000000000000000000000000000000006001600160a01b03168152602090f35b3461013a5760a036600319011261013a576106d0600435610385565b6024356106dc81610385565b6044359060643560843567ffffffffffffffff811161013a57610703903690600401610446565b907f00000000000000000000000000000000000000000000000000000000000000006001600160a01b03163303610741576105509361053593610ae1565b63058a7c7360e31b5f5260045ffd5b6040513d5f823e3d90fd5b50909390927f00000000000000000000000000000000000000000000000000000000000000006001600160a01b031692909133849003610741576001600160a01b038516156108c95785518251036108c95785515f96959493906107be906108fa565b935f5b8751811015610837578061082c6108136108076107fa846107f48e9f9d9e9c9d6107ed6001998e610952565b519061097a565b9b610952565b516001600160a01b031690565b6001600160a01b031690565b61081d838b610952565b6001600160a01b039091169052565b0196959497966107c1565b509295506108489196819495610f98565b803b1561013a57610894935f809460405196879586948593636cb498e560e01b85527f0000000000000000000000000000000000000000000000000000000000000000600486016109b0565b03925af18015610231576108af575b5063bc197c8160e01b90565b806108bd5f6108c3936103aa565b8061013e565b5f6108a3565b63cac5bffb60e01b5f5260045ffd5b604080519091906108e983826103aa565b6001815291601f1901366020840137565b90610904826103d1565b61091160405191826103aa565b8281528092610922601f19916103d1565b0190602036910137565b634e487b7160e01b5f52603260045260245ffd5b80511561094d5760200190565b61092c565b805182101561094d5760209160051b010190565b634e487b7160e01b5f52601160045260245ffd5b9190820180921161098757565b610966565b805180835260209291819084018484015e5f828201840152601f01601f1916010190565b6001600160a01b03909116815260806020808301829052835191830182905260a0830196959301905f5b818110610a325750505080850360408201526020808451968781520193015f955b808710610a1a575050610a17939450606081840391015261098c565b90565b909360208060019287518152019501960195906109fb565b82516001600160a01b03168852602097880197909201916001016109da565b9081602091031261013a575190565b5f1981019190821161098757565b9190820391821161098757565b9081602091031261013a5751610a1781610385565b9081602091031261013a5751801515810361013a5790565b6001600160a01b039182168152911660208201526040810191909152606081019190915260a060808201819052610a179291019061098c565b9092906001600160a01b03811615610bd4578183610afe92610f98565b610b066108d8565b91610b25610b126108d8565b946001600160a01b031661081d85610940565b610b2e84610940565b527f00000000000000000000000000000000000000000000000000000000000000006001600160a01b0316803b1561013a57610ba5935f809460405196879586948593636cb498e560e01b85527f0000000000000000000000000000000000000000000000000000000000000000600486016109b0565b03925af1801561023157610bc0575b5063f23a6e6160e01b90565b806108bd5f610bce936103aa565b5f610bb4565b505f5160206111345f395f51905f525c925f5160206111545f395f51905f525c927f6136adcd727e05279d0beb0b97407672abc1607384d66aec4a65a09daa5bba685c9291849182149081610f6e575b50156108c957610c326110ca565b84610d0f57507f00000000000000000000000000000000000000000000000000000000000000006001600160a01b0316803b1561013a57604051637921219560e11b8152915f918391829084908290610cb2908a7f00000000000000000000000000000000000000000000000000000000000000008b3060048701610aa8565b03925af1801561023157610cfb575b505b6001600160a01b03167f4442af9fc0f6466cea71a55e8cae87ef09853f682dc82b362e4c8981944afa395f80a463f23a6e6160e01b90565b806108bd5f610d09936103aa565b5f610cc1565b92505060018303610f48577f00000000000000000000000000000000000000000000000000000000000000005b6040516370a0823160e01b81523060048201526001600160a01b039190911692602082602481875afa918215610231575f92610f22575b506020610de491610d8c610d8688610a60565b60ff1690565b604051632aaf5a5560e21b81526001600160a01b037f0000000000000000000000000000000000000000000000000000000000000000166004820152602481019290925260ff16604482015291829081906064820190565b03815f7f00000000000000000000000000000000000000000000000000000000000000006001600160a01b03165af1801561023157610ef5575b506040516370a0823160e01b815230600482015290602082602481875afa801561023157610e53925f91610ec6575b50610a6e565b60405163a9059cbb60e01b81526001600160a01b0383166004820152602481018290529092602090829060449082905f905af1801561023157610e97575b50610cc3565b610eb89060203d602011610ebf575b610eb081836103aa565b810190610a90565b505f610e91565b503d610ea6565b610ee8915060203d602011610eee575b610ee081836103aa565b810190610a51565b5f610e4d565b503d610ed6565b610f169060203d602011610f1b575b610f0e81836103aa565b810190610a7b565b610e1e565b503d610f04565b610de4919250610f40602091823d8411610eee57610ee081836103aa565b929150610d73565b7f0000000000000000000000000000000000000000000000000000000000000000610d3c565b90507f0000000000000000000000000000000000000000000000000000000000000000145f610c24565b5f9282156110bb575f5160206111545f395f51905f525c15610fc35763a896a06560e01b5f5260045ffd5b825f5160206111545f395f51905f525d817f6136adcd727e05279d0beb0b97407672abc1607384d66aec4a65a09daa5bba685d601f815111611030575b506001600160a01b03167fa4466aa34ad627877204336e07a065a4da68fb136d84533a7b17290b86154de95f80a4565b60200151807ff3f5858942140fd2894eeb8b74cd0ed72d24fc6675d352a2884b1be2f32256fe146110a1577f9d28938b56c0e8aae8dd05e12461cbabf8f699236c3fd7c54c7d3bb9fb443ed214611088575b5f611000565b60029250825f5160206111345f395f51905f525d611082565b5060019250825f5160206111345f395f51905f525d611082565b633402a16360e01b5f5260045ffd5b5f5f5160206111545f395f51905f525d5f7f6136adcd727e05279d0beb0b97407672abc1607384d66aec4a65a09daa5bba685d5f5f5160206111345f395f51905f525d7f1992ef760e9f09c8c806016548a62b7fd11268379c371a730a1a06d621f002dc5f80a156fecda71533cdfa11dcfe861dbfa38b956c85d855f8e75c6728c650ac844f4fd47efb747a744f99e39f75c6fc4a40ae1e72605f4d4a2aa65e5e3d29e889d7f5061ba2646970667358221220f2ccffc9f1e2c35709776c152951330582b65687874b48d1c8e0c93988dddf3864736f6c634300081c0033a2646970667358221220037adb3b3d73b975451d78b6c0b4adb7a62d611e36bab040d122665597a9cc6364736f6c634300081c0033","opcodes":"PUSH1 0x80 DUP1 PUSH1 0x40 MSTORE CALLVALUE PUSH1 0x15 JUMPI PUSH2 0x4468 SWAP1 DUP2 PUSH2 0x1A DUP3 CODECOPY RETURN JUMPDEST PUSH0 DUP1 REVERT INVALID PUSH1 0x80 DUP1 PUSH1 0x40 MSTORE PUSH1 0x4 CALLDATASIZE LT ISZERO PUSH2 0x12 JUMPI PUSH0 DUP1 REVERT JUMPDEST PUSH0 CALLDATALOAD PUSH1 0xE0 SHR SWAP1 DUP2 PUSH4 0xCBEDBA16 EQ PUSH2 0x72 JUMPI POP PUSH4 0xDE87AEEB EQ PUSH2 0x32 JUMPI PUSH0 DUP1 REVERT JUMPDEST CALLVALUE PUSH2 0x6E JUMPI PUSH1 0x20 CALLDATASIZE PUSH1 0x3 NOT ADD SLT PUSH2 0x6E JUMPI PUSH1 0x1 PUSH1 0x1 PUSH1 0xA0 SHL SUB PUSH2 0x53 PUSH2 0x46A JUMP JUMPDEST AND PUSH0 MSTORE PUSH0 PUSH1 0x20 MSTORE PUSH1 0x20 PUSH1 0xFF PUSH1 0x40 PUSH0 KECCAK256 SLOAD AND PUSH1 0x40 MLOAD SWAP1 ISZERO ISZERO DUP2 MSTORE RETURN JUMPDEST PUSH0 DUP1 REVERT JUMPDEST CALLVALUE PUSH2 0x6E JUMPI PUSH2 0x1A0 CALLDATASIZE PUSH1 0x3 NOT ADD SLT PUSH2 0x6E JUMPI PUSH2 0x8C PUSH2 0x46A JUMP JUMPDEST SWAP1 PUSH1 0x24 CALLDATALOAD PUSH1 0x1 PUSH1 0x1 PUSH1 0xA0 SHL SUB DUP2 AND SWAP2 SWAP1 DUP3 SWAP1 SUB PUSH2 0x6E JUMPI PUSH1 0x44 CALLDATALOAD PUSH1 0x1 PUSH1 0x1 PUSH1 0xA0 SHL SUB DUP2 AND SWAP4 SWAP1 DUP5 SWAP1 SUB PUSH2 0x6E JUMPI PUSH1 0x64 CALLDATALOAD PUSH1 0x1 PUSH1 0x1 PUSH1 0xA0 SHL SUB DUP2 AND SWAP3 SWAP1 DUP4 SWAP1 SUB PUSH2 0x6E JUMPI PUSH1 0x84 CALLDATALOAD SWAP5 PUSH8 0xFFFFFFFFFFFFFFFF DUP7 GT PUSH2 0x6E JUMPI CALLDATASIZE PUSH1 0x23 DUP8 ADD SLT ISZERO PUSH2 0x6E JUMPI DUP6 PUSH1 0x4 ADD CALLDATALOAD SWAP6 PUSH8 0xFFFFFFFFFFFFFFFF DUP8 GT PUSH2 0x428 JUMPI DUP7 PUSH1 0x5 SHL SWAP7 PUSH2 0x114 PUSH1 0x20 DUP10 ADD DUP6 PUSH2 0x480 JUMP JUMPDEST DUP4 MSTORE PUSH1 0x20 DUP4 ADD SWAP1 PUSH1 0x24 DUP3 SWAP9 DUP3 ADD ADD SWAP1 CALLDATASIZE DUP3 GT PUSH2 0x6E JUMPI PUSH1 0x24 ADD SWAP2 JUMPDEST DUP2 DUP4 LT PUSH2 0x44A JUMPI POP POP POP PUSH1 0xA4 CALLDATALOAD PUSH8 0xFFFFFFFFFFFFFFFF DUP2 GT PUSH2 0x6E JUMPI PUSH2 0x159 SWAP1 CALLDATASIZE SWAP1 PUSH1 0x4 ADD PUSH2 0x4A2 JUMP JUMPDEST SWAP3 PUSH1 0xC4 CALLDATALOAD PUSH8 0xFFFFFFFFFFFFFFFF DUP2 GT PUSH2 0x6E JUMPI PUSH2 0x17A SWAP1 CALLDATASIZE SWAP1 PUSH1 0x4 ADD PUSH2 0x4A2 JUMP JUMPDEST PUSH2 0x104 CALLDATALOAD PUSH1 0x1 PUSH1 0x1 PUSH1 0xA0 SHL SUB DUP2 AND SWAP6 SWAP2 SWAP1 DUP7 SWAP1 SUB PUSH2 0x6E JUMPI PUSH2 0x124 CALLDATALOAD PUSH1 0x1 PUSH1 0x1 PUSH1 0xA0 SHL SUB DUP2 AND SWAP2 SWAP1 DUP3 SWAP1 SUB PUSH2 0x6E JUMPI PUSH2 0x144 CALLDATALOAD SWAP3 PUSH12 0xFFFFFFFFFFFFFFFFFFFFFFFF DUP5 AND DUP1 SWAP5 SUB PUSH2 0x6E JUMPI PUSH2 0x164 CALLDATALOAD SWAP5 PUSH1 0xFF DUP7 AND DUP1 SWAP7 SUB PUSH2 0x6E JUMPI PUSH2 0x184 CALLDATALOAD PUSH1 0x1 PUSH1 0x1 PUSH1 0xA0 SHL SUB DUP2 AND SWAP9 SWAP1 DUP10 SWAP1 SUB PUSH2 0x6E JUMPI PUSH1 0x13 DUP4 MLOAD GT PUSH2 0x43C JUMPI PUSH1 0x40 MLOAD SWAP11 PUSH2 0x3F16 SWAP9 DUP10 DUP14 ADD SWAP10 DUP14 DUP12 LT PUSH8 0xFFFFFFFFFFFFFFFF DUP13 GT OR PUSH2 0x428 JUMPI PUSH2 0x51D DUP15 CODECOPY PUSH2 0x1A0 DUP11 ADD SWAP4 PUSH1 0x1 DUP1 PUSH1 0xA0 SHL SUB AND SWAP14 DUP15 DUP12 MSTORE PUSH1 0x20 DUP12 ADD MSTORE PUSH1 0x40 DUP11 ADD MSTORE PUSH1 0x60 DUP10 ADD MSTORE PUSH2 0x1A0 PUSH1 0x80 DUP10 ADD MSTORE MLOAD DUP1 SWAP2 MSTORE PUSH2 0x1C0 DUP8 ADD SWAP12 SWAP1 PUSH0 JUMPDEST DUP2 DUP2 LT PUSH2 0x409 JUMPI POP POP POP DUP6 SWAP5 SWAP4 SWAP3 SWAP2 PUSH2 0x277 DUP13 PUSH2 0x285 SWAP4 PUSH2 0x180 SWAP10 DUP14 SWAP15 SWAP16 SUB PUSH1 0xA0 DUP11 ADD MSTORE PUSH2 0x4F8 JUMP JUMPDEST SWAP1 DUP7 DUP3 SUB PUSH1 0xC0 DUP9 ADD MSTORE PUSH2 0x4F8 JUMP JUMPDEST SWAP7 PUSH1 0xE4 CALLDATALOAD PUSH1 0xE0 DUP7 ADD MSTORE PUSH2 0x100 DUP6 ADD MSTORE PUSH2 0x120 DUP5 ADD MSTORE PUSH2 0x140 DUP4 ADD MSTORE PUSH2 0x160 DUP3 ADD MSTORE ADD MSTORE SUB SWAP1 PUSH0 CREATE DUP1 ISZERO PUSH2 0x3BC JUMPI PUSH1 0x40 MLOAD PUSH4 0xC6D5113 PUSH1 0xE1 SHL DUP2 MSTORE PUSH1 0x1 PUSH1 0x1 PUSH1 0xA0 SHL SUB SWAP2 SWAP1 SWAP2 AND SWAP1 PUSH1 0x20 DUP2 PUSH1 0x4 DUP2 DUP6 GAS STATICCALL SWAP1 DUP2 ISZERO PUSH2 0x3BC JUMPI PUSH0 SWAP2 PUSH2 0x3C7 JUMPI JUMPDEST POP PUSH1 0x40 MLOAD PUSH4 0x6E6E5D9D PUSH1 0xE1 SHL DUP2 MSTORE PUSH1 0x1 PUSH1 0x1 PUSH1 0xA0 SHL SUB SWAP2 SWAP1 SWAP2 AND SWAP3 SWAP1 PUSH1 0x20 DUP2 PUSH1 0x4 DUP2 DUP7 GAS STATICCALL SWAP1 DUP2 ISZERO PUSH2 0x3BC JUMPI PUSH0 SWAP2 PUSH2 0x378 JUMPI JUMPDEST POP SWAP3 DUP1 PUSH1 0x60 SWAP5 PUSH1 0x1 DUP1 PUSH1 0xA0 SHL SUB AND SWAP3 DUP5 PUSH0 MSTORE PUSH0 PUSH1 0x20 MSTORE PUSH1 0x40 PUSH0 KECCAK256 PUSH1 0x1 PUSH1 0xFF NOT DUP3 SLOAD AND OR SWAP1 SSTORE DUP5 PUSH32 0xEE2D13E80F5F1ABDC1590049EA7B859791CA98F79C1AA0B19AE0647C9BB81A96 PUSH1 0x20 PUSH1 0x40 MLOAD DUP8 DUP2 MSTORE LOG4 PUSH1 0x40 MLOAD SWAP3 DUP4 MSTORE PUSH1 0x20 DUP4 ADD MSTORE PUSH1 0x40 DUP3 ADD MSTORE RETURN JUMPDEST SWAP1 POP PUSH1 0x20 DUP2 RETURNDATASIZE PUSH1 0x20 GT PUSH2 0x3B4 JUMPI JUMPDEST DUP2 PUSH2 0x393 PUSH1 0x20 SWAP4 DUP4 PUSH2 0x480 JUMP JUMPDEST DUP2 ADD SUB SLT PUSH2 0x6E JUMPI MLOAD SWAP3 PUSH1 0x1 PUSH1 0x1 PUSH1 0xA0 SHL SUB DUP5 AND DUP5 SUB PUSH2 0x6E JUMPI SWAP3 DUP4 PUSH2 0x316 JUMP JUMPDEST RETURNDATASIZE SWAP2 POP PUSH2 0x386 JUMP JUMPDEST PUSH1 0x40 MLOAD RETURNDATASIZE PUSH0 DUP3 RETURNDATACOPY RETURNDATASIZE SWAP1 REVERT JUMPDEST SWAP1 POP PUSH1 0x20 DUP2 RETURNDATASIZE PUSH1 0x20 GT PUSH2 0x401 JUMPI JUMPDEST DUP2 PUSH2 0x3E2 PUSH1 0x20 SWAP4 DUP4 PUSH2 0x480 JUMP JUMPDEST DUP2 ADD SUB SLT PUSH2 0x6E JUMPI MLOAD PUSH1 0x1 PUSH1 0x1 PUSH1 0xA0 SHL SUB DUP2 AND DUP2 SUB PUSH2 0x6E JUMPI DUP4 PUSH2 0x2E3 JUMP JUMPDEST RETURNDATASIZE SWAP2 POP PUSH2 0x3D5 JUMP JUMPDEST DUP3 MLOAD PUSH1 0x1 PUSH1 0x1 PUSH1 0xA0 SHL SUB AND DUP15 MSTORE PUSH1 0x20 SWAP14 DUP15 ADD SWAP14 SWAP1 SWAP3 ADD SWAP2 PUSH1 0x1 ADD PUSH2 0x24E JUMP JUMPDEST PUSH4 0x4E487B71 PUSH1 0xE0 SHL PUSH0 MSTORE PUSH1 0x41 PUSH1 0x4 MSTORE PUSH1 0x24 PUSH0 REVERT JUMPDEST PUSH3 0x72A29D PUSH1 0xE7 SHL PUSH0 MSTORE PUSH1 0x4 PUSH0 REVERT JUMPDEST DUP3 CALLDATALOAD PUSH1 0x1 PUSH1 0x1 PUSH1 0xA0 SHL SUB DUP2 AND DUP2 SUB PUSH2 0x6E JUMPI DUP2 MSTORE PUSH1 0x20 SWAP3 DUP4 ADD SWAP3 ADD PUSH2 0x12F JUMP JUMPDEST PUSH1 0x4 CALLDATALOAD SWAP1 PUSH1 0x1 PUSH1 0x1 PUSH1 0xA0 SHL SUB DUP3 AND DUP3 SUB PUSH2 0x6E JUMPI JUMP JUMPDEST SWAP1 PUSH1 0x1F DUP1 NOT SWAP2 ADD AND DUP2 ADD SWAP1 DUP2 LT PUSH8 0xFFFFFFFFFFFFFFFF DUP3 GT OR PUSH2 0x428 JUMPI PUSH1 0x40 MSTORE JUMP JUMPDEST DUP2 PUSH1 0x1F DUP3 ADD SLT ISZERO PUSH2 0x6E JUMPI DUP1 CALLDATALOAD SWAP1 PUSH8 0xFFFFFFFFFFFFFFFF DUP3 GT PUSH2 0x428 JUMPI PUSH1 0x40 MLOAD SWAP3 PUSH2 0x4D7 PUSH1 0x1F DUP5 ADD PUSH1 0x1F NOT AND PUSH1 0x20 ADD DUP6 PUSH2 0x480 JUMP JUMPDEST DUP3 DUP5 MSTORE PUSH1 0x20 DUP4 DUP4 ADD ADD GT PUSH2 0x6E JUMPI DUP2 PUSH0 SWAP3 PUSH1 0x20 DUP1 SWAP4 ADD DUP4 DUP7 ADD CALLDATACOPY DUP4 ADD ADD MSTORE SWAP1 JUMP JUMPDEST DUP1 MLOAD DUP1 DUP4 MSTORE PUSH1 0x20 SWAP3 SWAP2 DUP2 SWAP1 DUP5 ADD DUP5 DUP5 ADD MCOPY PUSH0 DUP3 DUP3 ADD DUP5 ADD MSTORE PUSH1 0x1F ADD PUSH1 0x1F NOT AND ADD ADD SWAP1 JUMP INVALID PUSH2 0x160 DUP1 PUSH1 0x40 MSTORE CALLVALUE PUSH2 0x6B0 JUMPI PUSH0 SWAP1 PUSH2 0x3F16 DUP1 CODESIZE SUB DUP1 SWAP2 PUSH2 0x1F DUP3 DUP6 PUSH2 0x734 JUMP JUMPDEST DUP4 CODECOPY DUP2 ADD SWAP1 PUSH2 0x1A0 DUP2 DUP4 SUB SLT PUSH2 0x6B0 JUMPI PUSH2 0x38 DUP2 PUSH2 0x757 JUMP JUMPDEST SWAP1 PUSH2 0x45 PUSH1 0x20 DUP3 ADD PUSH2 0x757 JUMP JUMPDEST PUSH2 0x51 PUSH1 0x40 DUP4 ADD PUSH2 0x757 JUMP JUMPDEST PUSH2 0x5D PUSH1 0x60 DUP5 ADD PUSH2 0x757 JUMP JUMPDEST PUSH1 0x80 DUP5 ADD MLOAD SWAP1 SWAP6 SWAP1 PUSH1 0x1 PUSH1 0x1 PUSH1 0x40 SHL SUB DUP2 GT PUSH2 0x6B0 JUMPI DUP5 ADD SWAP7 DUP2 PUSH1 0x1F DUP10 ADD SLT ISZERO PUSH2 0x6B0 JUMPI DUP8 MLOAD SWAP8 PUSH1 0x1 PUSH1 0x1 PUSH1 0x40 SHL SUB DUP10 GT PUSH2 0x6B4 JUMPI DUP9 PUSH1 0x5 SHL PUSH1 0x40 MLOAD SWAP10 PUSH2 0xA7 PUSH1 0x20 DUP4 ADD DUP13 PUSH2 0x734 JUMP JUMPDEST DUP11 MSTORE PUSH1 0x20 DUP1 DUP12 ADD SWAP2 DUP4 ADD ADD SWAP2 DUP5 DUP4 GT PUSH2 0x6B0 JUMPI PUSH1 0x20 ADD SWAP1 JUMPDEST DUP3 DUP3 LT PUSH2 0x71C JUMPI POP POP POP PUSH1 0xA0 DUP6 ADD MLOAD PUSH1 0x1 PUSH1 0x1 PUSH1 0x40 SHL SUB DUP2 GT PUSH2 0x6B0 JUMPI DUP3 PUSH2 0xE8 SWAP2 DUP8 ADD PUSH2 0x76B JUMP JUMPDEST PUSH1 0xC0 DUP7 ADD MLOAD SWAP1 SWAP3 PUSH1 0x1 PUSH1 0x1 PUSH1 0x40 SHL SUB DUP3 GT PUSH2 0x6B0 JUMPI PUSH2 0x108 SWAP2 DUP8 ADD PUSH2 0x76B JUMP JUMPDEST SWAP2 PUSH1 0xE0 DUP7 ADD MLOAD PUSH2 0x11B PUSH2 0x100 DUP9 ADD PUSH2 0x757 JUMP JUMPDEST SWAP4 PUSH2 0x129 PUSH2 0x120 DUP10 ADD PUSH2 0x757 JUMP JUMPDEST PUSH2 0x140 DUP10 ADD MLOAD SWAP8 SWAP1 SWAP7 SWAP1 PUSH1 0x1 PUSH1 0x1 PUSH1 0x60 SHL SUB DUP10 AND DUP10 SUB PUSH2 0x6B0 JUMPI PUSH2 0x160 DUP11 ADD MLOAD SWAP10 PUSH1 0xFF DUP12 AND SWAP1 DUP2 DUP13 SUB PUSH2 0x6B0 JUMPI PUSH2 0x180 PUSH2 0x163 SWAP2 ADD PUSH2 0x757 JUMP JUMPDEST SWAP12 PUSH1 0x1 PUSH1 0x1 PUSH1 0xA0 SHL SUB AND SWAP1 DUP2 ISZERO PUSH2 0x70E JUMPI DUP1 ISZERO ISZERO SWAP1 DUP2 PUSH2 0x702 JUMPI JUMPDEST POP ISZERO PUSH2 0x6C8 JUMPI PUSH0 DUP1 SLOAD PUSH1 0x1 PUSH1 0x1 PUSH1 0xA0 SHL SUB NOT AND DUP3 OR DUP2 SSTORE PUSH32 0x4FFD725FC4A22075E9EC71C59EDF9C38CDEB588A91B24FC5B61388C5BE41282B SWAP1 DUP1 LOG2 PUSH1 0x1 DUP1 SLOAD PUSH1 0x1 PUSH1 0x1 PUSH1 0xA0 SHL SUB NOT AND PUSH1 0x1 PUSH1 0x1 PUSH1 0xA0 SHL SUB SWAP3 SWAP1 SWAP3 AND SWAP2 DUP3 OR SWAP1 SSTORE PUSH32 0x176C74B9BCA78214099248DD4E675A4BE45C1F7417E269F78EF97E96ECE2A51 PUSH0 DUP1 LOG2 PUSH1 0x2 DUP1 SLOAD PUSH1 0x1 PUSH1 0x1 PUSH1 0xA0 SHL SUB NOT AND PUSH1 0x1 PUSH1 0x1 PUSH1 0xA0 SHL SUB SWAP3 SWAP1 SWAP3 AND SWAP2 DUP3 OR SWAP1 SSTORE PUSH32 0x166C82F2C4CD6D3546D8AA18FE78E4B4E6A1BAA30DE276480B10D2A4FAA95A28 PUSH0 DUP1 LOG2 PUSH0 JUMPDEST DUP12 MLOAD DUP2 LT ISZERO PUSH2 0x271 JUMPI PUSH1 0x5 DUP2 SWAP1 SHL DUP13 ADD PUSH1 0x20 ADD MLOAD PUSH1 0x1 SWAP2 SWAP1 PUSH2 0x26B SWAP1 PUSH1 0x1 PUSH1 0x1 PUSH1 0xA0 SHL SUB AND PUSH2 0x810 JUMP JUMPDEST ADD PUSH2 0x241 JUMP JUMPDEST POP PUSH1 0x40 MLOAD DUP11 SWAP1 PUSH2 0xA8A DUP1 DUP3 ADD PUSH1 0x1 PUSH1 0x1 PUSH1 0x40 SHL SUB DUP2 GT DUP4 DUP3 LT OR PUSH2 0x6B4 JUMPI DUP3 SWAP2 PUSH2 0x201E DUP4 CODECOPY PUSH20 0xC12C1E50ABB450D6205EA2C3FA861B3B834D13E8 DUP2 MSTORE PUSH20 0xA27566FD89162CC3D40CB59C87AAAA49B85F3474 PUSH1 0x20 DUP3 ADD MSTORE ADDRESS PUSH1 0x40 DUP3 ADD MSTORE PUSH1 0xA0 PUSH1 0x60 DUP3 ADD MSTORE DUP6 PUSH1 0x80 PUSH2 0x2E4 PUSH1 0xA0 DUP5 ADD DUP11 PUSH2 0x7C0 JUMP JUMPDEST SWAP3 ADD MSTORE SUB SWAP1 PUSH0 CREATE DUP1 ISZERO PUSH2 0x6A5 JUMPI DUP1 PUSH1 0x80 MSTORE PUSH20 0xC12C1E50ABB450D6205EA2C3FA861B3B834D13E8 EXTCODESIZE ISZERO PUSH2 0x6B0 JUMPI PUSH1 0x40 MLOAD PUSH4 0x4DF62B93 PUSH1 0xE1 SHL DUP2 MSTORE PUSH1 0x1 PUSH1 0x1 PUSH1 0xA0 SHL SUB SWAP3 DUP4 AND PUSH1 0x4 DUP3 ADD MSTORE SWAP2 AND PUSH1 0x24 DUP3 ADD MSTORE PUSH1 0xA0 PUSH1 0x44 DUP3 ADD MSTORE SWAP1 PUSH0 SWAP1 DUP3 SWAP1 DUP2 SWAP1 PUSH2 0x365 SWAP1 PUSH2 0x353 PUSH1 0xA4 DUP5 ADD DUP10 PUSH2 0x7C0 JUMP JUMPDEST DUP4 DUP2 SUB PUSH1 0x3 NOT ADD PUSH1 0x64 DUP6 ADD MSTORE SWAP1 PUSH2 0x7C0 JUMP JUMPDEST DUP6 PUSH1 0x84 DUP4 ADD MSTORE SUB DUP2 DUP4 PUSH20 0xC12C1E50ABB450D6205EA2C3FA861B3B834D13E8 GAS CALL DUP1 ISZERO PUSH2 0x6A5 JUMPI PUSH2 0x690 JUMPI JUMPDEST POP PUSH20 0xA27566FD89162CC3D40CB59C87AAAA49B85F3474 EXTCODESIZE ISZERO PUSH2 0x68C JUMPI PUSH1 0x40 MLOAD PUSH4 0x414E07EF PUSH1 0xE1 SHL DUP2 MSTORE DUP4 SWAP1 DUP2 DUP2 PUSH1 0x4 DUP2 DUP4 PUSH20 0xA27566FD89162CC3D40CB59C87AAAA49B85F3474 PUSH3 0x3D090 CALL PUSH2 0x677 JUMPI JUMPDEST POP POP PUSH1 0x40 MLOAD PUSH4 0x95B645B1 PUSH1 0xE0 SHL DUP2 MSTORE ADDRESS PUSH1 0x4 DUP3 ADD MSTORE PUSH1 0x24 DUP2 ADD DUP5 SWAP1 MSTORE SWAP1 PUSH1 0x20 DUP3 PUSH1 0x44 DUP2 DUP8 PUSH20 0x5F99A795DD2743C36D63511F0D4BC667E6D3CDB5 GAS CALL SWAP2 DUP3 ISZERO PUSH2 0x66C JUMPI DUP5 SWAP3 PUSH2 0x62C JUMPI JUMPDEST POP PUSH1 0x40 MLOAD PUSH4 0x95B645B1 PUSH1 0xE0 SHL DUP2 MSTORE ADDRESS PUSH1 0x4 DUP3 ADD MSTORE PUSH1 0x1 PUSH1 0x24 DUP3 ADD MSTORE SWAP3 PUSH1 0x20 DUP5 PUSH1 0x44 DUP2 DUP9 PUSH20 0x5F99A795DD2743C36D63511F0D4BC667E6D3CDB5 GAS CALL SWAP4 DUP5 ISZERO PUSH2 0x621 JUMPI DUP6 SWAP5 PUSH2 0x5E1 JUMPI JUMPDEST POP PUSH1 0x40 MLOAD SWAP4 PUSH2 0x146E DUP1 DUP7 ADD SWAP5 SWAP1 PUSH1 0x1 PUSH1 0x1 PUSH1 0x40 SHL SUB DUP7 GT DUP8 DUP8 LT OR PUSH2 0x5CD JUMPI SWAP3 PUSH1 0xC0 SWAP3 PUSH2 0x4FF SWAP3 DUP9 SWAP8 SWAP7 SWAP6 PUSH2 0x2AA8 DUP10 CODECOPY PUSH20 0xC12C1E50ABB450D6205EA2C3FA861B3B834D13E8 DUP8 MSTORE PUSH20 0xA27566FD89162CC3D40CB59C87AAAA49B85F3474 PUSH1 0x20 DUP9 ADD MSTORE ADDRESS PUSH1 0x40 DUP9 ADD MSTORE PUSH1 0x1 PUSH1 0x1 PUSH1 0xA0 SHL SUB SWAP1 DUP2 AND PUSH1 0x60 DUP9 ADD MSTORE AND PUSH1 0x80 DUP7 ADD MSTORE PUSH1 0xE0 PUSH1 0xA0 DUP7 ADD DUP2 SWAP1 MSTORE DUP6 ADD SWAP1 PUSH2 0x7C0 JUMP JUMPDEST SWAP3 ADD MSTORE SUB SWAP1 DUP3 CREATE SWAP1 DUP2 ISZERO PUSH2 0x5C1 JUMPI POP PUSH1 0xA0 MSTORE PUSH1 0x1 PUSH1 0x1 PUSH1 0xA0 SHL SUB SWAP1 DUP2 AND PUSH2 0x120 MSTORE SWAP1 DUP2 AND PUSH2 0x140 MSTORE PUSH1 0xC0 SWAP2 SWAP1 SWAP2 MSTORE PUSH1 0xE0 SWAP2 SWAP1 SWAP2 MSTORE AND PUSH2 0x100 MSTORE PUSH1 0x40 MLOAD PUSH2 0x1767 SWAP1 DUP2 PUSH2 0x8B7 DUP3 CODECOPY PUSH1 0x80 MLOAD DUP2 DUP2 DUP2 PUSH2 0x24E ADD MSTORE PUSH2 0xC5B ADD MSTORE PUSH1 0xA0 MLOAD DUP2 DUP2 DUP2 PUSH2 0xCBA ADD MSTORE DUP2 DUP2 PUSH2 0xF45 ADD MSTORE PUSH2 0x157F ADD MSTORE PUSH1 0xC0 MLOAD DUP2 DUP2 DUP2 PUSH2 0x1A4 ADD MSTORE PUSH2 0x76F ADD MSTORE PUSH1 0xE0 MLOAD DUP2 DUP2 DUP2 PUSH2 0x1E2 ADD MSTORE DUP2 DUP2 PUSH2 0x6AD ADD MSTORE PUSH2 0x117F ADD MSTORE PUSH2 0x100 MLOAD DUP2 DUP2 DUP2 PUSH2 0x4BD ADD MSTORE PUSH2 0x7A6 ADD MSTORE PUSH2 0x120 MLOAD DUP2 PUSH2 0xE74 ADD MSTORE PUSH2 0x140 MLOAD DUP2 DUP2 DUP2 PUSH2 0x65D ADD MSTORE PUSH2 0x707 ADD MSTORE RETURN JUMPDEST PUSH1 0x40 MLOAD SWAP1 RETURNDATASIZE SWAP1 DUP3 RETURNDATACOPY RETURNDATASIZE SWAP1 REVERT JUMPDEST PUSH4 0x4E487B71 PUSH1 0xE0 SHL DUP9 MSTORE PUSH1 0x41 PUSH1 0x4 MSTORE PUSH1 0x24 DUP9 REVERT JUMPDEST SWAP1 SWAP4 POP PUSH1 0x20 DUP2 RETURNDATASIZE PUSH1 0x20 GT PUSH2 0x619 JUMPI JUMPDEST DUP2 PUSH2 0x5FD PUSH1 0x20 SWAP4 DUP4 PUSH2 0x734 JUMP JUMPDEST DUP2 ADD SUB SLT PUSH2 0x615 JUMPI PUSH2 0x60E SWAP1 PUSH2 0x757 JUMP JUMPDEST SWAP3 DUP11 PUSH2 0x471 JUMP JUMPDEST DUP5 DUP1 REVERT JUMPDEST RETURNDATASIZE SWAP2 POP PUSH2 0x5F0 JUMP JUMPDEST PUSH1 0x40 MLOAD RETURNDATASIZE DUP8 DUP3 RETURNDATACOPY RETURNDATASIZE SWAP1 REVERT JUMPDEST SWAP1 SWAP2 POP PUSH1 0x20 DUP2 RETURNDATASIZE PUSH1 0x20 GT PUSH2 0x664 JUMPI JUMPDEST DUP2 PUSH2 0x648 PUSH1 0x20 SWAP4 DUP4 PUSH2 0x734 JUMP JUMPDEST DUP2 ADD SUB SLT PUSH2 0x660 JUMPI PUSH2 0x659 SWAP1 PUSH2 0x757 JUMP JUMPDEST SWAP1 DUP10 PUSH2 0x429 JUMP JUMPDEST DUP4 DUP1 REVERT JUMPDEST RETURNDATASIZE SWAP2 POP PUSH2 0x63B JUMP JUMPDEST PUSH1 0x40 MLOAD RETURNDATASIZE DUP7 DUP3 RETURNDATACOPY RETURNDATASIZE SWAP1 REVERT JUMPDEST DUP2 PUSH2 0x681 SWAP2 PUSH2 0x734 JUMP JUMPDEST PUSH2 0x68C JUMPI DUP3 DUP10 PUSH2 0x3E0 JUMP JUMPDEST DUP3 DUP1 REVERT JUMPDEST PUSH2 0x69D SWAP2 SWAP4 POP PUSH0 SWAP1 PUSH2 0x734 JUMP JUMPDEST PUSH0 SWAP2 DUP9 PUSH2 0x390 JUMP JUMPDEST PUSH1 0x40 MLOAD RETURNDATASIZE PUSH0 DUP3 RETURNDATACOPY RETURNDATASIZE SWAP1 REVERT JUMPDEST PUSH0 DUP1 REVERT JUMPDEST PUSH4 0x4E487B71 PUSH1 0xE0 SHL PUSH0 MSTORE PUSH1 0x41 PUSH1 0x4 MSTORE PUSH1 0x24 PUSH0 REVERT JUMPDEST PUSH1 0x40 MLOAD PUSH3 0x461BCD PUSH1 0xE5 SHL DUP2 MSTORE PUSH1 0x20 PUSH1 0x4 DUP3 ADD MSTORE PUSH1 0x12 PUSH1 0x24 DUP3 ADD MSTORE PUSH18 0x496E76616C6964207061796F757420646179 PUSH1 0x70 SHL PUSH1 0x44 DUP3 ADD MSTORE PUSH1 0x64 SWAP1 REVERT JUMPDEST PUSH1 0x1F SWAP2 POP GT ISZERO PUSH0 PUSH2 0x17E JUMP JUMPDEST PUSH3 0x8C6131 PUSH1 0xE4 SHL PUSH0 MSTORE PUSH1 0x4 PUSH0 REVERT JUMPDEST PUSH1 0x20 DUP1 SWAP2 PUSH2 0x729 DUP5 PUSH2 0x757 JUMP JUMPDEST DUP2 MSTORE ADD SWAP2 ADD SWAP1 PUSH2 0xBF JUMP JUMPDEST PUSH1 0x1F SWAP1 SWAP2 ADD PUSH1 0x1F NOT AND DUP2 ADD SWAP1 PUSH1 0x1 PUSH1 0x1 PUSH1 0x40 SHL SUB DUP3 GT SWAP1 DUP3 LT OR PUSH2 0x6B4 JUMPI PUSH1 0x40 MSTORE JUMP JUMPDEST MLOAD SWAP1 PUSH1 0x1 PUSH1 0x1 PUSH1 0xA0 SHL SUB DUP3 AND DUP3 SUB PUSH2 0x6B0 JUMPI JUMP JUMPDEST DUP2 PUSH1 0x1F DUP3 ADD SLT ISZERO PUSH2 0x6B0 JUMPI DUP1 MLOAD SWAP1 PUSH1 0x1 PUSH1 0x1 PUSH1 0x40 SHL SUB DUP3 GT PUSH2 0x6B4 JUMPI PUSH1 0x40 MLOAD SWAP3 PUSH2 0x79F PUSH1 0x1F DUP5 ADD PUSH1 0x1F NOT AND PUSH1 0x20 ADD DUP6 PUSH2 0x734 JUMP JUMPDEST DUP3 DUP5 MSTORE PUSH1 0x20 DUP4 DUP4 ADD ADD GT PUSH2 0x6B0 JUMPI DUP2 PUSH0 SWAP3 PUSH1 0x20 DUP1 SWAP4 ADD DUP4 DUP7 ADD MCOPY DUP4 ADD ADD MSTORE SWAP1 JUMP JUMPDEST DUP1 MLOAD DUP1 DUP4 MSTORE PUSH1 0x20 SWAP3 SWAP2 DUP2 SWAP1 DUP5 ADD DUP5 DUP5 ADD MCOPY PUSH0 DUP3 DUP3 ADD DUP5 ADD MSTORE PUSH1 0x1F ADD PUSH1 0x1F NOT AND ADD ADD SWAP1 JUMP JUMPDEST PUSH1 0x3 SLOAD DUP2 LT ISZERO PUSH2 0x7FC JUMPI PUSH1 0x3 PUSH0 MSTORE PUSH1 0x20 PUSH0 KECCAK256 ADD SWAP1 PUSH0 SWAP1 JUMP JUMPDEST PUSH4 0x4E487B71 PUSH1 0xE0 SHL PUSH0 MSTORE PUSH1 0x32 PUSH1 0x4 MSTORE PUSH1 0x24 PUSH0 REVERT JUMPDEST PUSH1 0x1 PUSH1 0x1 PUSH1 0xA0 SHL SUB AND DUP1 ISZERO PUSH2 0x8B3 JUMPI PUSH1 0x3 SLOAD PUSH1 0xA DUP2 LT ISZERO PUSH2 0x8A4 JUMPI PUSH0 JUMPDEST DUP2 DUP2 LT PUSH2 0x876 JUMPI POP PUSH9 0x10000000000000000 DUP2 LT ISZERO PUSH2 0x6B4 JUMPI DUP1 PUSH1 0x1 PUSH2 0x856 SWAP3 ADD PUSH1 0x3 SSTORE PUSH2 0x7E4 JUMP JUMPDEST DUP2 SLOAD PUSH1 0x1 PUSH1 0x1 PUSH1 0xA0 SHL SUB PUSH1 0x3 SWAP3 SWAP1 SWAP3 SHL SWAP2 DUP3 SHL NOT AND SWAP3 SWAP1 SHL SWAP2 SWAP1 SWAP2 OR SWAP1 SSTORE JUMP JUMPDEST DUP3 PUSH2 0x880 DUP3 PUSH2 0x7E4 JUMP JUMPDEST SWAP1 SLOAD PUSH1 0x3 SWAP2 SWAP1 SWAP2 SHL SHR PUSH1 0x1 PUSH1 0x1 PUSH1 0xA0 SHL SUB AND EQ PUSH2 0x89F JUMPI PUSH1 0x1 ADD PUSH2 0x82D JUMP JUMPDEST POP POP POP JUMP JUMPDEST PUSH4 0x29BA6E8D PUSH1 0xE1 SHL PUSH0 MSTORE PUSH1 0x4 PUSH0 REVERT JUMPDEST POP JUMP INVALID PUSH1 0x80 PUSH1 0x40 MSTORE PUSH1 0x4 CALLDATASIZE LT ISZERO PUSH2 0x11 JUMPI PUSH0 DUP1 REVERT JUMPDEST PUSH0 PUSH0 CALLDATALOAD PUSH1 0xE0 SHR DUP1 PUSH4 0x720CB19 EQ PUSH2 0xFDF JUMPI DUP1 PUSH4 0x13AF4035 EQ PUSH2 0xF74 JUMPI DUP1 PUSH4 0x18DAA226 EQ PUSH2 0xF30 JUMPI DUP1 PUSH4 0x1F5BE2E7 EQ PUSH2 0xEA3 JUMPI DUP1 PUSH4 0x26A149B7 EQ PUSH2 0xE5F JUMPI DUP1 PUSH4 0x2BFED375 EQ PUSH2 0xDE2 JUMPI DUP1 PUSH4 0x3786DF5E EQ PUSH2 0xD63 JUMPI DUP1 PUSH4 0x3857D9D7 EQ PUSH2 0xBD6 JUMPI DUP1 PUSH4 0x4141F954 EQ PUSH2 0x9D2 JUMPI DUP1 PUSH4 0x4585E33B EQ PUSH2 0x68C JUMPI DUP1 PUSH4 0x63BE9F0C EQ PUSH2 0x647 JUMPI DUP1 PUSH4 0x6E04FF0D EQ PUSH2 0x5F2 JUMPI DUP1 PUSH4 0x75DCEBC7 EQ PUSH2 0x5A0 JUMPI DUP1 PUSH4 0x83C2B7F5 EQ PUSH2 0x571 JUMPI DUP1 PUSH4 0x8DA5CB5B EQ PUSH2 0x54A JUMPI DUP1 PUSH4 0xA05C2616 EQ PUSH2 0x51B JUMPI DUP1 PUSH4 0xA4C52B86 EQ PUSH2 0x4EC JUMPI DUP1 PUSH4 0xBB69E2BA EQ PUSH2 0x4A7 JUMPI DUP1 PUSH4 0xBF8BDAC1 EQ PUSH2 0x417 JUMPI DUP1 PUSH4 0xC45EA8CD EQ PUSH2 0x389 JUMPI DUP1 PUSH4 0xC5A5688C EQ PUSH2 0x2E0 JUMPI DUP1 PUSH4 0xCE2B87B7 EQ PUSH2 0x2C2 JUMPI DUP1 PUSH4 0xD598D4C9 EQ PUSH2 0x299 JUMPI DUP1 PUSH4 0xD9B7F3EE EQ PUSH2 0x27D JUMPI DUP1 PUSH4 0xDCDCBB3A EQ PUSH2 0x238 JUMPI DUP1 PUSH4 0xDE5101AF EQ PUSH2 0x206 JUMPI DUP1 PUSH4 0xE3F826FB EQ PUSH2 0x1C8 JUMPI DUP1 PUSH4 0xED9C543E EQ PUSH2 0x184 JUMPI PUSH4 0xEDBCFDF2 EQ PUSH2 0x159 JUMPI PUSH0 DUP1 REVERT JUMPDEST CALLVALUE PUSH2 0x181 JUMPI DUP1 PUSH1 0x3 NOT CALLDATASIZE ADD SLT PUSH2 0x181 JUMPI PUSH1 0x2 SLOAD PUSH1 0x40 MLOAD PUSH1 0x1 PUSH1 0x1 PUSH1 0xA0 SHL SUB SWAP1 SWAP2 AND DUP2 MSTORE PUSH1 0x20 SWAP1 RETURN JUMPDEST DUP1 REVERT JUMPDEST POP CALLVALUE PUSH2 0x181 JUMPI DUP1 PUSH1 0x3 NOT CALLDATASIZE ADD SLT PUSH2 0x181 JUMPI PUSH1 0x20 PUSH1 0x40 MLOAD PUSH1 0x1 PUSH1 0x1 PUSH1 0x60 SHL SUB PUSH32 0x0 AND DUP2 MSTORE RETURN JUMPDEST POP CALLVALUE PUSH2 0x181 JUMPI DUP1 PUSH1 0x3 NOT CALLDATASIZE ADD SLT PUSH2 0x181 JUMPI PUSH1 0x20 PUSH1 0x40 MLOAD PUSH1 0xFF PUSH32 0x0 AND DUP2 MSTORE RETURN JUMPDEST POP CALLVALUE PUSH2 0x181 JUMPI PUSH1 0x20 CALLDATASIZE PUSH1 0x3 NOT ADD SLT PUSH2 0x181 JUMPI PUSH1 0x60 PUSH2 0x225 PUSH1 0x4 CALLDATALOAD PUSH2 0x1231 JUMP JUMPDEST SWAP1 PUSH1 0x40 MLOAD SWAP3 DUP4 MSTORE PUSH1 0x20 DUP4 ADD MSTORE PUSH1 0x40 DUP3 ADD MSTORE RETURN JUMPDEST POP CALLVALUE PUSH2 0x181 JUMPI DUP1 PUSH1 0x3 NOT CALLDATASIZE ADD SLT PUSH2 0x181 JUMPI PUSH1 0x40 MLOAD PUSH32 0x0 PUSH1 0x1 PUSH1 0x1 PUSH1 0xA0 SHL SUB AND DUP2 MSTORE PUSH1 0x20 SWAP1 RETURN JUMPDEST POP CALLVALUE PUSH2 0x181 JUMPI DUP1 PUSH1 0x3 NOT CALLDATASIZE ADD SLT PUSH2 0x181 JUMPI PUSH1 0x20 PUSH1 0x40 MLOAD PUSH1 0xA DUP2 MSTORE RETURN JUMPDEST POP CALLVALUE PUSH2 0x181 JUMPI DUP1 PUSH1 0x3 NOT CALLDATASIZE ADD SLT PUSH2 0x181 JUMPI PUSH1 0x1 SLOAD PUSH1 0x40 MLOAD PUSH1 0x1 PUSH1 0x1 PUSH1 0xA0 SHL SUB SWAP1 SWAP2 AND DUP2 MSTORE PUSH1 0x20 SWAP1 RETURN JUMPDEST POP CALLVALUE PUSH2 0x181 JUMPI DUP1 PUSH1 0x3 NOT CALLDATASIZE ADD SLT PUSH2 0x181 JUMPI PUSH1 0x20 PUSH1 0x6 SLOAD PUSH1 0x40 MLOAD SWAP1 DUP2 MSTORE RETURN JUMPDEST POP CALLVALUE PUSH2 0x181 JUMPI PUSH1 0x20 CALLDATASIZE PUSH1 0x3 NOT ADD SLT PUSH2 0x181 JUMPI DUP1 SLOAD PUSH1 0x1 PUSH1 0x1 PUSH1 0xA0 SHL SUB AND CALLER SUB PUSH2 0x37A JUMPI PUSH20 0xA27566FD89162CC3D40CB59C87AAAA49B85F3474 EXTCODESIZE ISZERO PUSH2 0x181 JUMPI DUP1 PUSH1 0x40 MLOAD PUSH4 0x31695A23 PUSH1 0xE2 SHL DUP2 MSTORE PUSH1 0x4 CALLDATALOAD PUSH1 0x4 DUP3 ADD MSTORE DUP2 DUP2 PUSH1 0x24 DUP2 DUP4 PUSH20 0xA27566FD89162CC3D40CB59C87AAAA49B85F3474 GAS CALL DUP1 ISZERO PUSH2 0x36F JUMPI PUSH2 0x35E JUMPI POP RETURN JUMPDEST DUP2 PUSH2 0x368 SWAP2 PUSH2 0x10BA JUMP JUMPDEST PUSH2 0x181 JUMPI DUP1 RETURN JUMPDEST PUSH1 0x40 MLOAD RETURNDATASIZE DUP5 DUP3 RETURNDATACOPY RETURNDATASIZE SWAP1 REVERT JUMPDEST PUSH4 0x5FC483C5 PUSH1 0xE0 SHL DUP2 MSTORE PUSH1 0x4 SWAP1 REVERT JUMPDEST POP CALLVALUE PUSH2 0x181 JUMPI DUP1 PUSH1 0x3 NOT CALLDATASIZE ADD SLT PUSH2 0x181 JUMPI PUSH1 0x40 MLOAD DUP1 SWAP2 PUSH1 0x20 PUSH1 0x4 SLOAD SWAP3 DUP4 DUP2 MSTORE ADD SWAP2 PUSH1 0x4 DUP3 MSTORE PUSH32 0x8A35ACFBC15FF81A39AE7D344FD709F28E8600B4AA8C65C6B64BFE7FE36BD19B SWAP2 JUMPDEST DUP2 DUP2 LT PUSH2 0x3F8 JUMPI PUSH2 0x3F4 DUP6 PUSH2 0x3E8 DUP2 DUP8 SUB DUP3 PUSH2 0x10BA JUMP JUMPDEST PUSH1 0x40 MLOAD SWAP2 DUP3 SWAP2 DUP3 PUSH2 0x1078 JUMP JUMPDEST SUB SWAP1 RETURN JUMPDEST DUP3 SLOAD PUSH1 0x1 PUSH1 0x1 PUSH1 0xA0 SHL SUB AND DUP5 MSTORE PUSH1 0x20 SWAP1 SWAP4 ADD SWAP3 PUSH1 0x1 SWAP3 DUP4 ADD SWAP3 ADD PUSH2 0x3D1 JUMP JUMPDEST POP CALLVALUE PUSH2 0x181 JUMPI PUSH1 0x20 CALLDATASIZE PUSH1 0x3 NOT ADD SLT PUSH2 0x181 JUMPI PUSH2 0x431 PUSH2 0x1062 JUMP JUMPDEST DUP2 SLOAD PUSH1 0x1 PUSH1 0x1 PUSH1 0xA0 SHL SUB AND CALLER SUB PUSH2 0x498 JUMPI PUSH1 0x1 PUSH1 0x1 PUSH1 0xA0 SHL SUB AND DUP1 ISZERO PUSH2 0x48A JUMPI PUSH1 0x1 DUP1 SLOAD PUSH1 0x1 PUSH1 0x1 PUSH1 0xA0 SHL SUB NOT AND DUP3 OR SWAP1 SSTORE PUSH32 0x176C74B9BCA78214099248DD4E675A4BE45C1F7417E269F78EF97E96ECE2A51 DUP3 DUP1 LOG2 DUP1 RETURN JUMPDEST PUSH3 0x8C6131 PUSH1 0xE4 SHL DUP3 MSTORE PUSH1 0x4 DUP3 REVERT JUMPDEST PUSH4 0x5FC483C5 PUSH1 0xE0 SHL DUP3 MSTORE PUSH1 0x4 DUP3 REVERT JUMPDEST POP CALLVALUE PUSH2 0x181 JUMPI DUP1 PUSH1 0x3 NOT CALLDATASIZE ADD SLT PUSH2 0x181 JUMPI PUSH1 0x40 MLOAD PUSH32 0x0 PUSH1 0x1 PUSH1 0x1 PUSH1 0xA0 SHL SUB AND DUP2 MSTORE PUSH1 0x20 SWAP1 RETURN JUMPDEST POP CALLVALUE PUSH2 0x181 JUMPI DUP1 PUSH1 0x3 NOT CALLDATASIZE ADD SLT PUSH2 0x181 JUMPI PUSH1 0x20 PUSH1 0x40 MLOAD PUSH20 0xC12C1E50ABB450D6205EA2C3FA861B3B834D13E8 DUP2 MSTORE RETURN JUMPDEST POP CALLVALUE PUSH2 0x181 JUMPI DUP1 PUSH1 0x3 NOT CALLDATASIZE ADD SLT PUSH2 0x181 JUMPI PUSH1 0x20 PUSH1 0x40 MLOAD PUSH20 0xA27566FD89162CC3D40CB59C87AAAA49B85F3474 DUP2 MSTORE RETURN JUMPDEST POP CALLVALUE PUSH2 0x181 JUMPI DUP1 PUSH1 0x3 NOT CALLDATASIZE ADD SLT PUSH2 0x181 JUMPI SLOAD PUSH1 0x40 MLOAD PUSH1 0x1 PUSH1 0x1 PUSH1 0xA0 SHL SUB SWAP1 SWAP2 AND DUP2 MSTORE PUSH1 0x20 SWAP1 RETURN JUMPDEST POP CALLVALUE PUSH2 0x181 JUMPI DUP1 PUSH1 0x3 NOT CALLDATASIZE ADD SLT PUSH2 0x181 JUMPI PUSH1 0x20 PUSH1 0x40 MLOAD PUSH20 0x5F99A795DD2743C36D63511F0D4BC667E6D3CDB5 DUP2 MSTORE RETURN JUMPDEST POP CALLVALUE PUSH2 0x181 JUMPI PUSH1 0x40 CALLDATASIZE PUSH1 0x3 NOT ADD SLT PUSH2 0x181 JUMPI PUSH2 0x5BA PUSH2 0x1062 JUMP JUMPDEST PUSH2 0x5C2 PUSH2 0x10F0 JUMP JUMPDEST DUP3 SLOAD SWAP1 SWAP2 SWAP1 PUSH1 0x1 PUSH1 0x1 PUSH1 0xA0 SHL SUB AND CALLER SUB PUSH2 0x5E3 JUMPI SWAP1 PUSH2 0x5E0 SWAP2 PUSH2 0x150A JUMP JUMPDEST DUP1 RETURN JUMPDEST PUSH4 0x5FC483C5 PUSH1 0xE0 SHL DUP4 MSTORE PUSH1 0x4 DUP4 REVERT JUMPDEST POP CALLVALUE PUSH2 0x181 JUMPI PUSH1 0x60 PUSH1 0x20 SWAP2 PUSH2 0x606 CALLDATASIZE PUSH2 0x1106 JUMP JUMPDEST POP POP PUSH2 0x610 PUSH2 0x116F JUMP JUMPDEST SWAP4 SWAP1 SWAP2 PUSH1 0x40 MLOAD SWAP5 DUP6 SWAP4 ISZERO ISZERO DUP5 MSTORE PUSH1 0x40 DUP4 DUP6 ADD MSTORE DUP1 MLOAD SWAP3 DUP4 SWAP2 DUP3 PUSH1 0x40 DUP8 ADD MSTORE ADD DUP6 DUP6 ADD MCOPY DUP3 DUP3 ADD DUP5 ADD MSTORE PUSH1 0x1F ADD PUSH1 0x1F NOT AND DUP2 ADD SUB ADD SWAP1 RETURN JUMPDEST POP CALLVALUE PUSH2 0x181 JUMPI DUP1 PUSH1 0x3 NOT CALLDATASIZE ADD SLT PUSH2 0x181 JUMPI PUSH1 0x40 MLOAD PUSH32 0x0 PUSH1 0x1 PUSH1 0x1 PUSH1 0xA0 SHL SUB AND DUP2 MSTORE PUSH1 0x20 SWAP1 RETURN JUMPDEST POP CALLVALUE PUSH2 0x181 JUMPI PUSH2 0x69B CALLDATASIZE PUSH2 0x1106 JUMP JUMPDEST POP POP PUSH2 0x6A6 TIMESTAMP PUSH2 0x1231 JUMP JUMPDEST SWAP2 POP POP PUSH1 0xFF PUSH32 0x0 AND SUB PUSH2 0x998 JUMPI PUSH2 0x6DD PUSH1 0x6 SLOAD PUSH2 0x1231 JUMP JUMPDEST POP SWAP1 PUSH2 0x6E8 TIMESTAMP PUSH2 0x1231 JUMP JUMPDEST POP SWAP2 EQ SWAP2 DUP3 PUSH2 0x98E JUMPI JUMPDEST POP POP PUSH2 0x949 JUMPI PUSH1 0x40 MLOAD PUSH4 0x194E36F5 PUSH1 0xE0 SHL DUP2 MSTORE PUSH32 0x0 PUSH1 0x1 PUSH1 0x1 PUSH1 0xA0 SHL SUB AND SWAP1 PUSH1 0x20 DUP2 PUSH1 0x4 DUP2 DUP6 GAS STATICCALL SWAP1 DUP2 ISZERO PUSH2 0x93E JUMPI DUP4 SWAP2 PUSH2 0x8F8 JUMPI JUMPDEST POP PUSH1 0x40 MLOAD SWAP1 PUSH4 0xA9059CBB PUSH1 0xE0 SHL DUP3 MSTORE PUSH1 0x1 DUP1 PUSH1 0xA0 SHL SUB AND SWAP2 DUP3 PUSH1 0x4 DUP4 ADD MSTORE PUSH1 0x1 PUSH1 0x1 PUSH1 0x60 SHL SUB PUSH32 0x0 AND SWAP2 DUP3 PUSH1 0x24 DUP3 ADD MSTORE PUSH1 0x20 DUP2 PUSH1 0x44 DUP2 DUP9 PUSH1 0x1 DUP1 PUSH1 0xA0 SHL SUB PUSH32 0x0 AND GAS CALL SWAP1 DUP2 ISZERO PUSH2 0x8ED JUMPI DUP6 SWAP2 PUSH2 0x8CE JUMPI JUMPDEST POP ISZERO PUSH2 0x8BF JUMPI PUSH1 0x20 DUP5 SWAP2 PUSH1 0x4 PUSH1 0x40 MLOAD DUP1 SWAP5 DUP2 SWAP4 PUSH4 0x6F4442BD PUSH1 0xE0 SHL DUP4 MSTORE GAS CALL SWAP1 DUP2 ISZERO PUSH2 0x8B4 JUMPI DUP5 SWAP2 PUSH2 0x885 JUMPI JUMPDEST POP ISZERO PUSH2 0x840 JUMPI PUSH1 0x40 PUSH32 0x5306CD5C1FD578475B0797DE95F693E723B7BBF516236B27419B74BF999EF028 SWAP2 TIMESTAMP PUSH1 0x6 SSTORE DUP2 MLOAD SWAP1 DUP2 MSTORE TIMESTAMP PUSH1 0x20 DUP3 ADD MSTORE LOG2 DUP1 RETURN JUMPDEST PUSH1 0x40 MLOAD PUSH3 0x461BCD PUSH1 0xE5 SHL DUP2 MSTORE PUSH1 0x20 PUSH1 0x4 DUP3 ADD MSTORE PUSH1 0x18 PUSH1 0x24 DUP3 ADD MSTORE PUSH32 0x5363686564756C6520726F746174696F6E206661696C65640000000000000000 PUSH1 0x44 DUP3 ADD MSTORE PUSH1 0x64 SWAP1 REVERT JUMPDEST PUSH2 0x8A7 SWAP2 POP PUSH1 0x20 RETURNDATASIZE PUSH1 0x20 GT PUSH2 0x8AD JUMPI JUMPDEST PUSH2 0x89F DUP2 DUP4 PUSH2 0x10BA JUMP JUMPDEST DUP2 ADD SWAP1 PUSH2 0x1157 JUMP JUMPDEST PUSH0 PUSH2 0x803 JUMP JUMPDEST POP RETURNDATASIZE PUSH2 0x895 JUMP JUMPDEST PUSH1 0x40 MLOAD RETURNDATASIZE DUP7 DUP3 RETURNDATACOPY RETURNDATASIZE SWAP1 REVERT JUMPDEST PUSH4 0xEC6AC41 PUSH1 0xE2 SHL DUP5 MSTORE PUSH1 0x4 DUP5 REVERT JUMPDEST PUSH2 0x8E7 SWAP2 POP PUSH1 0x20 RETURNDATASIZE PUSH1 0x20 GT PUSH2 0x8AD JUMPI PUSH2 0x89F DUP2 DUP4 PUSH2 0x10BA JUMP JUMPDEST PUSH0 PUSH2 0x7D6 JUMP JUMPDEST PUSH1 0x40 MLOAD RETURNDATASIZE DUP8 DUP3 RETURNDATACOPY RETURNDATASIZE SWAP1 REVERT JUMPDEST SWAP1 POP PUSH1 0x20 DUP2 RETURNDATASIZE PUSH1 0x20 GT PUSH2 0x936 JUMPI JUMPDEST DUP2 PUSH2 0x913 PUSH1 0x20 SWAP4 DUP4 PUSH2 0x10BA JUMP JUMPDEST DUP2 ADD SUB SLT PUSH2 0x932 JUMPI MLOAD PUSH1 0x1 PUSH1 0x1 PUSH1 0xA0 SHL SUB DUP2 AND DUP2 SUB PUSH2 0x932 JUMPI PUSH0 PUSH2 0x747 JUMP JUMPDEST DUP3 DUP1 REVERT JUMPDEST RETURNDATASIZE SWAP2 POP PUSH2 0x906 JUMP JUMPDEST PUSH1 0x40 MLOAD RETURNDATASIZE DUP6 DUP3 RETURNDATACOPY RETURNDATASIZE SWAP1 REVERT JUMPDEST PUSH1 0x40 MLOAD PUSH3 0x461BCD PUSH1 0xE5 SHL DUP2 MSTORE PUSH1 0x20 PUSH1 0x4 DUP3 ADD MSTORE PUSH1 0x1C PUSH1 0x24 DUP3 ADD MSTORE PUSH32 0x416C7265616479207472696767657265642074686973206D6F6E746800000000 PUSH1 0x44 DUP3 ADD MSTORE PUSH1 0x64 SWAP1 REVERT JUMPDEST EQ SWAP1 POP PUSH0 DUP1 PUSH2 0x6F2 JUMP JUMPDEST PUSH1 0x40 MLOAD PUSH3 0x461BCD PUSH1 0xE5 SHL DUP2 MSTORE PUSH1 0x20 PUSH1 0x4 DUP3 ADD MSTORE PUSH1 0x12 PUSH1 0x24 DUP3 ADD MSTORE PUSH18 0x4E6F7420746865207061796F757420646179 PUSH1 0x70 SHL PUSH1 0x44 DUP3 ADD MSTORE PUSH1 0x64 SWAP1 REVERT JUMPDEST POP CALLVALUE PUSH2 0x181 JUMPI PUSH1 0x40 CALLDATASIZE PUSH1 0x3 NOT ADD SLT PUSH2 0x181 JUMPI PUSH1 0x4 CALLDATALOAD PUSH8 0xFFFFFFFFFFFFFFFF DUP2 GT PUSH2 0xBD2 JUMPI CALLDATASIZE PUSH1 0x23 DUP3 ADD SLT ISZERO PUSH2 0xBD2 JUMPI DUP1 PUSH1 0x4 ADD CALLDATALOAD SWAP1 PUSH8 0xFFFFFFFFFFFFFFFF DUP3 GT PUSH2 0xBBE JUMPI DUP2 PUSH1 0x5 SHL SWAP1 PUSH1 0x40 MLOAD SWAP3 PUSH2 0xA2C PUSH1 0x20 DUP5 ADD DUP6 PUSH2 0x10BA JUMP JUMPDEST DUP4 MSTORE PUSH1 0x24 PUSH1 0x20 DUP5 ADD SWAP3 DUP3 ADD ADD SWAP1 CALLDATASIZE DUP3 GT PUSH2 0xBBA JUMPI PUSH1 0x24 ADD SWAP2 JUMPDEST DUP2 DUP4 LT PUSH2 0xB96 JUMPI POP POP POP PUSH2 0xA57 PUSH2 0x10F0 JUMP JUMPDEST DUP3 SLOAD PUSH1 0x1 PUSH1 0x1 PUSH1 0xA0 SHL SUB AND CALLER EQ ISZERO DUP1 PUSH2 0xB81 JUMPI JUMPDEST PUSH2 0xB72 JUMPI TIMESTAMP PUSH1 0x1 PUSH1 0x1 PUSH1 0x60 SHL SUB DUP3 AND LT ISZERO SWAP3 DUP1 JUMPDEST DUP4 MLOAD DUP2 LT ISZERO PUSH2 0xB6E JUMPI PUSH1 0x5 DUP2 SWAP1 SHL DUP5 ADD PUSH1 0x20 ADD MLOAD PUSH1 0x1 PUSH1 0x1 PUSH1 0xA0 SHL SUB AND DUP6 ISZERO PUSH2 0xAE6 JUMPI PUSH2 0xAAB DUP2 PUSH2 0x167F JUMP JUMPDEST SWAP1 ISZERO PUSH2 0xAC5 JUMPI POP SWAP1 PUSH2 0xABF DUP5 PUSH1 0x1 SWAP4 PUSH2 0x150A JUMP JUMPDEST ADD PUSH2 0xA7F JUMP JUMPDEST PUSH4 0xF35A9BB3 PUSH1 0xE0 SHL DUP5 MSTORE PUSH1 0x4 SWAP2 SWAP1 SWAP2 MSTORE PUSH1 0x1 PUSH1 0x1 PUSH1 0xA0 SHL SUB AND PUSH1 0x24 MSTORE PUSH1 0x44 DUP3 REVERT JUMPDEST PUSH1 0x40 MLOAD PUSH4 0x6713E23 PUSH1 0xE4 SHL DUP2 MSTORE ADDRESS PUSH1 0x4 DUP3 ADD MSTORE PUSH1 0x24 DUP2 ADD DUP3 SWAP1 MSTORE PUSH1 0x20 DUP2 PUSH1 0x44 DUP2 DUP8 PUSH20 0xC12C1E50ABB450D6205EA2C3FA861B3B834D13E8 GAS CALL SWAP1 DUP2 ISZERO PUSH2 0x8B4 JUMPI PUSH1 0x1 SWAP4 SWAP3 SWAP2 DUP7 SWAP2 DUP7 SWAP2 PUSH2 0xB50 JUMPI JUMPDEST POP PUSH2 0xB40 JUMPI JUMPDEST POP POP PUSH2 0xABF JUMP JUMPDEST PUSH2 0xB49 SWAP2 PUSH2 0x150A JUMP JUMPDEST PUSH0 DUP5 PUSH2 0xB39 JUMP JUMPDEST PUSH2 0xB68 SWAP2 POP PUSH1 0x20 RETURNDATASIZE DUP2 GT PUSH2 0x8AD JUMPI PUSH2 0x89F DUP2 DUP4 PUSH2 0x10BA JUMP JUMPDEST PUSH0 PUSH2 0xB33 JUMP JUMPDEST POP DUP1 RETURN JUMPDEST PUSH4 0xF142743 PUSH1 0xE4 SHL DUP4 MSTORE PUSH1 0x4 DUP4 REVERT JUMPDEST POP PUSH1 0x1 SLOAD PUSH1 0x1 PUSH1 0x1 PUSH1 0xA0 SHL SUB AND CALLER EQ ISZERO PUSH2 0xA6B JUMP JUMPDEST DUP3 CALLDATALOAD PUSH1 0x1 PUSH1 0x1 PUSH1 0xA0 SHL SUB DUP2 AND DUP2 SUB PUSH2 0xBB6 JUMPI DUP2 MSTORE PUSH1 0x20 SWAP3 DUP4 ADD SWAP3 ADD PUSH2 0xA45 JUMP JUMPDEST DUP6 DUP1 REVERT JUMPDEST DUP5 DUP1 REVERT JUMPDEST PUSH4 0x4E487B71 PUSH1 0xE0 SHL DUP4 MSTORE PUSH1 0x41 PUSH1 0x4 MSTORE PUSH1 0x24 DUP4 REVERT JUMPDEST POP DUP1 REVERT JUMPDEST POP CALLVALUE PUSH2 0xD50 JUMPI PUSH1 0x20 CALLDATASIZE PUSH1 0x3 NOT ADD SLT PUSH2 0xD50 JUMPI PUSH0 SLOAD PUSH1 0x4 CALLDATALOAD SWAP2 SWAP1 PUSH1 0x1 PUSH1 0x1 PUSH1 0xA0 SHL SUB AND CALLER SUB PUSH2 0xD54 JUMPI PUSH20 0xA27566FD89162CC3D40CB59C87AAAA49B85F3474 EXTCODESIZE ISZERO PUSH2 0xD50 JUMPI PUSH1 0x40 MLOAD PUSH4 0x3857D9D7 PUSH1 0xE0 SHL DUP2 MSTORE PUSH1 0x4 DUP2 ADD DUP4 SWAP1 MSTORE PUSH0 DUP2 PUSH1 0x24 DUP2 DUP4 PUSH20 0xA27566FD89162CC3D40CB59C87AAAA49B85F3474 GAS CALL DUP1 ISZERO PUSH2 0xD45 JUMPI PUSH2 0xD32 JUMPI JUMPDEST POP SWAP1 DUP2 SWAP1 PUSH32 0x0 PUSH1 0x1 PUSH1 0x1 PUSH1 0xA0 SHL SUB AND DUP1 EXTCODESIZE ISZERO PUSH2 0xD16 JUMPI DUP3 DUP1 SWAP2 PUSH1 0x24 PUSH1 0x40 MLOAD DUP1 SWAP5 DUP2 SWAP4 PUSH4 0x3857D9D7 PUSH1 0xE0 SHL DUP4 MSTORE DUP8 PUSH1 0x4 DUP5 ADD MSTORE GAS CALL SWAP1 DUP2 ISZERO PUSH2 0x93E JUMPI DUP4 SWAP2 PUSH2 0xD1A JUMPI JUMPDEST POP POP PUSH32 0x0 PUSH1 0x1 PUSH1 0x1 PUSH1 0xA0 SHL SUB AND SWAP1 DUP2 EXTCODESIZE ISZERO PUSH2 0xD16 JUMPI DUP3 SWAP2 PUSH1 0x24 DUP4 SWAP3 PUSH1 0x40 MLOAD SWAP5 DUP6 SWAP4 DUP5 SWAP3 PUSH4 0x3857D9D7 PUSH1 0xE0 SHL DUP5 MSTORE PUSH1 0x4 DUP5 ADD MSTORE GAS CALL DUP1 ISZERO PUSH2 0x36F JUMPI PUSH2 0x35E JUMPI POP RETURN JUMPDEST POP POP REVERT JUMPDEST DUP2 PUSH2 0xD24 SWAP2 PUSH2 0x10BA JUMP JUMPDEST PUSH2 0xD2F JUMPI DUP2 PUSH0 PUSH2 0xCB6 JUMP JUMPDEST POP REVERT JUMPDEST PUSH2 0xD3E SWAP2 POP PUSH0 SWAP1 PUSH2 0x10BA JUMP JUMPDEST PUSH0 PUSH0 PUSH2 0xC55 JUMP JUMPDEST PUSH1 0x40 MLOAD RETURNDATASIZE PUSH0 DUP3 RETURNDATACOPY RETURNDATASIZE SWAP1 REVERT JUMPDEST PUSH0 DUP1 REVERT JUMPDEST PUSH4 0x5FC483C5 PUSH1 0xE0 SHL PUSH0 MSTORE PUSH1 0x4 PUSH0 REVERT JUMPDEST CALLVALUE PUSH2 0xD50 JUMPI PUSH1 0x20 CALLDATASIZE PUSH1 0x3 NOT ADD SLT PUSH2 0xD50 JUMPI PUSH2 0xD7C PUSH2 0x1062 JUMP JUMPDEST PUSH0 SLOAD PUSH1 0x1 PUSH1 0x1 PUSH1 0xA0 SHL SUB AND CALLER SUB PUSH2 0xD54 JUMPI PUSH1 0x1 PUSH1 0x1 PUSH1 0xA0 SHL SUB AND DUP1 ISZERO PUSH2 0xDD4 JUMPI PUSH1 0x2 DUP1 SLOAD PUSH1 0x1 PUSH1 0x1 PUSH1 0xA0 SHL SUB NOT AND DUP3 OR SWAP1 SSTORE PUSH32 0x166C82F2C4CD6D3546D8AA18FE78E4B4E6A1BAA30DE276480B10D2A4FAA95A28 PUSH0 DUP1 LOG2 STOP JUMPDEST PUSH3 0x8C6131 PUSH1 0xE4 SHL PUSH0 MSTORE PUSH1 0x4 PUSH0 REVERT JUMPDEST CALLVALUE PUSH2 0xD50 JUMPI PUSH0 CALLDATASIZE PUSH1 0x3 NOT ADD SLT PUSH2 0xD50 JUMPI PUSH1 0x40 MLOAD DUP1 PUSH1 0x20 PUSH1 0x3 SLOAD SWAP2 DUP3 DUP2 MSTORE ADD SWAP1 PUSH1 0x3 PUSH0 MSTORE PUSH32 0xC2575A0E9E593C00F959F8C92F12DB2869C3395A3B0502D05E2516446F71F85B SWAP1 PUSH0 JUMPDEST DUP2 DUP2 LT PUSH2 0xE40 JUMPI PUSH2 0x3F4 DUP6 PUSH2 0x3E8 DUP2 DUP8 SUB DUP3 PUSH2 0x10BA JUMP JUMPDEST DUP3 SLOAD PUSH1 0x1 PUSH1 0x1 PUSH1 0xA0 SHL SUB AND DUP5 MSTORE PUSH1 0x20 SWAP1 SWAP4 ADD SWAP3 PUSH1 0x1 SWAP3 DUP4 ADD SWAP3 ADD PUSH2 0xE29 JUMP JUMPDEST CALLVALUE PUSH2 0xD50 JUMPI PUSH0 CALLDATASIZE PUSH1 0x3 NOT ADD SLT PUSH2 0xD50 JUMPI PUSH1 0x40 MLOAD PUSH32 0x0 PUSH1 0x1 PUSH1 0x1 PUSH1 0xA0 SHL SUB AND DUP2 MSTORE PUSH1 0x20 SWAP1 RETURN JUMPDEST CALLVALUE PUSH2 0xD50 JUMPI PUSH1 0x40 CALLDATASIZE PUSH1 0x3 NOT ADD SLT PUSH2 0xD50 JUMPI PUSH2 0xEBC PUSH2 0x1062 JUMP JUMPDEST PUSH1 0x24 CALLDATALOAD SWAP1 DUP2 ISZERO ISZERO SWAP2 DUP3 DUP2 SUB PUSH2 0xD50 JUMPI PUSH0 SLOAD PUSH1 0x1 PUSH1 0x1 PUSH1 0xA0 SHL SUB AND CALLER SUB PUSH2 0xD54 JUMPI PUSH32 0x20147D45CEA39F58D5E0AC88491218987FE0A4CEAFBF0A47796542AC9446B6A SWAP2 PUSH1 0x20 SWAP2 ISZERO PUSH2 0xF22 JUMPI PUSH2 0xF0F DUP2 PUSH2 0x1478 JUMP JUMPDEST PUSH1 0x40 MLOAD SWAP4 DUP5 MSTORE PUSH1 0x1 PUSH1 0x1 PUSH1 0xA0 SHL SUB AND SWAP3 LOG2 STOP JUMPDEST PUSH2 0xF2B DUP2 PUSH2 0x1382 JUMP JUMPDEST PUSH2 0xF0F JUMP JUMPDEST CALLVALUE PUSH2 0xD50 JUMPI PUSH0 CALLDATASIZE PUSH1 0x3 NOT ADD SLT PUSH2 0xD50 JUMPI PUSH1 0x40 MLOAD PUSH32 0x0 PUSH1 0x1 PUSH1 0x1 PUSH1 0xA0 SHL SUB AND DUP2 MSTORE PUSH1 0x20 SWAP1 RETURN JUMPDEST CALLVALUE PUSH2 0xD50 JUMPI PUSH1 0x20 CALLDATASIZE PUSH1 0x3 NOT ADD SLT PUSH2 0xD50 JUMPI PUSH2 0xF8D PUSH2 0x1062 JUMP JUMPDEST PUSH0 SLOAD SWAP1 PUSH1 0x1 PUSH1 0x1 PUSH1 0xA0 SHL SUB DUP3 AND CALLER SUB PUSH2 0xD54 JUMPI PUSH1 0x1 DUP1 PUSH1 0xA0 SHL SUB AND DUP1 SWAP2 PUSH1 0x1 PUSH1 0x1 PUSH1 0x60 SHL SUB PUSH1 0xA0 SHL AND OR PUSH0 SSTORE PUSH32 0x4FFD725FC4A22075E9EC71C59EDF9C38CDEB588A91B24FC5B61388C5BE41282B PUSH0 DUP1 LOG2 STOP JUMPDEST CALLVALUE PUSH2 0xD50 JUMPI PUSH1 0x20 CALLDATASIZE PUSH1 0x3 NOT ADD SLT PUSH2 0xD50 JUMPI PUSH1 0x4 CALLDATALOAD PUSH1 0x3 SLOAD DUP2 LT ISZERO PUSH2 0xD50 JUMPI PUSH2 0x1008 PUSH1 0x20 SWAP2 PUSH2 0x1021 JUMP JUMPDEST SWAP1 SLOAD PUSH1 0x40 MLOAD PUSH1 0x3 SWAP3 SWAP1 SWAP3 SHL SHR PUSH1 0x1 PUSH1 0x1 PUSH1 0xA0 SHL SUB AND DUP2 MSTORE RETURN JUMPDEST PUSH1 0x3 SLOAD DUP2 LT ISZERO PUSH2 0x1039 JUMPI PUSH1 0x3 PUSH0 MSTORE PUSH1 0x20 PUSH0 KECCAK256 ADD SWAP1 PUSH0 SWAP1 JUMP JUMPDEST PUSH4 0x4E487B71 PUSH1 0xE0 SHL PUSH0 MSTORE PUSH1 0x32 PUSH1 0x4 MSTORE PUSH1 0x24 PUSH0 REVERT JUMPDEST DUP1 SLOAD DUP3 LT ISZERO PUSH2 0x1039 JUMPI PUSH0 MSTORE PUSH1 0x20 PUSH0 KECCAK256 ADD SWAP1 PUSH0 SWAP1 JUMP JUMPDEST PUSH1 0x4 CALLDATALOAD SWAP1 PUSH1 0x1 PUSH1 0x1 PUSH1 0xA0 SHL SUB DUP3 AND DUP3 SUB PUSH2 0xD50 JUMPI JUMP JUMPDEST PUSH1 0x20 PUSH1 0x40 DUP2 DUP4 ADD SWAP3 DUP3 DUP2 MSTORE DUP5 MLOAD DUP1 SWAP5 MSTORE ADD SWAP3 ADD SWAP1 PUSH0 JUMPDEST DUP2 DUP2 LT PUSH2 0x109B JUMPI POP POP POP SWAP1 JUMP JUMPDEST DUP3 MLOAD PUSH1 0x1 PUSH1 0x1 PUSH1 0xA0 SHL SUB AND DUP5 MSTORE PUSH1 0x20 SWAP4 DUP5 ADD SWAP4 SWAP1 SWAP3 ADD SWAP2 PUSH1 0x1 ADD PUSH2 0x108E JUMP JUMPDEST SWAP1 PUSH1 0x1F DUP1 NOT SWAP2 ADD AND DUP2 ADD SWAP1 DUP2 LT PUSH8 0xFFFFFFFFFFFFFFFF DUP3 GT OR PUSH2 0x10DC JUMPI PUSH1 0x40 MSTORE JUMP JUMPDEST PUSH4 0x4E487B71 PUSH1 0xE0 SHL PUSH0 MSTORE PUSH1 0x41 PUSH1 0x4 MSTORE PUSH1 0x24 PUSH0 REVERT JUMPDEST PUSH1 0x24 CALLDATALOAD SWAP1 PUSH1 0x1 PUSH1 0x1 PUSH1 0x60 SHL SUB DUP3 AND DUP3 SUB PUSH2 0xD50 JUMPI JUMP JUMPDEST SWAP1 PUSH1 0x20 PUSH1 0x3 NOT DUP4 ADD SLT PUSH2 0xD50 JUMPI PUSH1 0x4 CALLDATALOAD PUSH8 0xFFFFFFFFFFFFFFFF DUP2 GT PUSH2 0xD50 JUMPI DUP3 PUSH1 0x23 DUP3 ADD SLT ISZERO PUSH2 0xD50 JUMPI DUP1 PUSH1 0x4 ADD CALLDATALOAD SWAP3 PUSH8 0xFFFFFFFFFFFFFFFF DUP5 GT PUSH2 0xD50 JUMPI PUSH1 0x24 DUP5 DUP4 ADD ADD GT PUSH2 0xD50 JUMPI PUSH1 0x24 ADD SWAP2 SWAP1 JUMP JUMPDEST SWAP1 DUP2 PUSH1 0x20 SWAP2 SUB SLT PUSH2 0xD50 JUMPI MLOAD DUP1 ISZERO ISZERO DUP2 SUB PUSH2 0xD50 JUMPI SWAP1 JUMP JUMPDEST PUSH2 0x1178 TIMESTAMP PUSH2 0x1231 JUMP JUMPDEST SWAP2 POP POP PUSH1 0xFF PUSH32 0x0 AND SUB PUSH2 0x11E2 JUMPI PUSH2 0x11AF PUSH1 0x6 SLOAD PUSH2 0x1231 JUMP JUMPDEST POP SWAP1 PUSH2 0x11BA TIMESTAMP PUSH2 0x1231 JUMP JUMPDEST POP SWAP2 EQ SWAP2 DUP3 PUSH2 0x11F9 JUMPI JUMPDEST POP POP PUSH2 0x11E2 JUMPI PUSH1 0x40 MLOAD SWAP1 PUSH2 0x11D9 PUSH1 0x20 DUP4 PUSH2 0x10BA JUMP JUMPDEST PUSH0 DUP3 MSTORE PUSH1 0x1 SWAP2 SWAP1 JUMP JUMPDEST PUSH1 0x40 MLOAD SWAP1 PUSH2 0x11F1 PUSH1 0x20 DUP4 PUSH2 0x10BA JUMP JUMPDEST PUSH0 DUP3 MSTORE PUSH0 SWAP2 SWAP1 JUMP JUMPDEST EQ SWAP1 POP PUSH0 DUP1 PUSH2 0x11C4 JUMP JUMPDEST SWAP2 SWAP1 DUP3 ADD DUP1 SWAP3 GT PUSH2 0x1210 JUMPI JUMP JUMPDEST PUSH4 0x4E487B71 PUSH1 0xE0 SHL PUSH0 MSTORE PUSH1 0x11 PUSH1 0x4 MSTORE PUSH1 0x24 PUSH0 REVERT JUMPDEST SWAP2 SWAP1 DUP3 SUB SWAP2 DUP3 GT PUSH2 0x1210 JUMPI JUMP JUMPDEST PUSH3 0x15180 SWAP1 DIV PUSH3 0xAFA6C DUP2 ADD DUP1 SWAP2 GT PUSH2 0x1210 JUMPI PUSH3 0x23AB1 DUP2 DIV SWAP1 PUSH3 0x23AB1 DUP3 MUL SWAP1 DUP3 ISZERO SWAP2 DUP4 DUP2 DIV PUSH3 0x23AB1 EQ DUP4 OR ISZERO PUSH2 0x1210 JUMPI PUSH2 0x126D SWAP2 PUSH2 0x1224 JUMP JUMPDEST SWAP2 PUSH2 0x16D PUSH2 0x129C PUSH2 0x1290 PUSH2 0x1285 PUSH2 0x5B4 DUP8 DIV DUP8 PUSH2 0x1224 JUMP JUMPDEST PUSH2 0x8EAC DUP8 DIV SWAP1 PUSH2 0x1203 JUMP JUMPDEST PUSH3 0x23AB0 DUP7 DIV SWAP1 PUSH2 0x1224 JUMP JUMPDEST DIV SWAP2 PUSH2 0x190 DUP3 MUL SWAP2 DUP3 DIV PUSH2 0x190 EQ OR ISZERO PUSH2 0x1210 JUMPI PUSH2 0x12BA SWAP1 DUP3 PUSH2 0x1203 JUMP JUMPDEST SWAP2 DUP2 PUSH2 0x16D MUL PUSH2 0x16D DUP2 DIV DUP4 SUB PUSH2 0x1210 JUMPI DUP3 PUSH1 0x64 PUSH2 0x12E2 PUSH2 0x12EA SWAP4 PUSH2 0x12F0 SWAP7 PUSH1 0x2 SHR SWAP1 PUSH2 0x1203 JUMP JUMPDEST SWAP2 DIV SWAP1 PUSH2 0x1224 JUMP JUMPDEST SWAP1 PUSH2 0x1224 JUMP JUMPDEST DUP1 PUSH1 0x5 MUL PUSH1 0x5 DUP2 DIV DUP3 SUB PUSH2 0x1210 JUMPI PUSH1 0x2 DUP2 ADD DUP1 SWAP2 GT PUSH2 0x1210 JUMPI PUSH1 0x99 SWAP1 DIV SWAP1 DUP2 PUSH1 0x99 MUL SWAP1 PUSH1 0x99 DUP3 DIV DUP4 SUB PUSH2 0x1210 JUMPI PUSH1 0x2 DUP3 ADD DUP1 SWAP3 GT PUSH2 0x1210 JUMPI PUSH1 0x5 PUSH2 0x1335 SWAP3 DIV SWAP1 PUSH2 0x1224 JUMP JUMPDEST PUSH1 0x1 DUP2 ADD DUP1 SWAP2 GT PUSH2 0x1210 JUMPI SWAP1 PUSH1 0xA DUP2 LT ISZERO PUSH2 0x1370 JUMPI PUSH1 0x3 DUP2 ADD DUP1 SWAP2 GT PUSH2 0x1210 JUMPI SWAP2 JUMPDEST PUSH1 0x2 DUP4 GT PUSH2 0x136D JUMPI PUSH1 0x1 DUP2 ADD DUP1 SWAP2 GT PUSH2 0x1210 JUMPI SWAP3 JUMP JUMPDEST SWAP3 JUMP JUMPDEST PUSH1 0x8 NOT DUP2 ADD SWAP1 DUP2 GT PUSH2 0x1210 JUMPI SWAP2 PUSH2 0x1357 JUMP JUMPDEST PUSH1 0x1 PUSH1 0x1 PUSH1 0xA0 SHL SUB AND DUP1 ISZERO PUSH2 0x1475 JUMPI PUSH1 0x3 SLOAD PUSH0 JUMPDEST DUP2 DUP2 LT PUSH2 0x13A2 JUMPI POP POP POP JUMP JUMPDEST DUP3 PUSH2 0x13AC DUP3 PUSH2 0x1021 JUMP JUMPDEST SWAP1 SLOAD PUSH1 0x3 SWAP2 SWAP1 SWAP2 SHL SHR PUSH1 0x1 PUSH1 0x1 PUSH1 0xA0 SHL SUB AND EQ PUSH2 0x13CB JUMPI PUSH1 0x1 ADD PUSH2 0x1396 JUMP JUMPDEST PUSH0 NOT DUP3 ADD SWAP3 POP SWAP1 DUP3 GT PUSH2 0x1210 JUMPI DUP2 DUP2 SUB PUSH2 0x1423 JUMPI JUMPDEST POP POP PUSH1 0x3 SLOAD DUP1 ISZERO PUSH2 0x140F JUMPI PUSH0 NOT ADD PUSH2 0x13F7 DUP2 PUSH2 0x1021 JUMP JUMPDEST DUP2 SLOAD PUSH1 0x1 PUSH1 0x1 PUSH1 0xA0 SHL SUB PUSH1 0x3 SWAP3 DUP4 SHL SHL NOT AND SWAP1 SWAP2 SSTORE SSTORE JUMP JUMPDEST PUSH4 0x4E487B71 PUSH1 0xE0 SHL PUSH0 MSTORE PUSH1 0x31 PUSH1 0x4 MSTORE PUSH1 0x24 PUSH0 REVERT JUMPDEST PUSH2 0x144A PUSH2 0x1432 PUSH2 0x146E SWAP4 PUSH2 0x1021 JUMP JUMPDEST SWAP1 SLOAD PUSH1 0x3 SWAP2 SWAP1 SWAP2 SHL SHR PUSH1 0x1 PUSH1 0x1 PUSH1 0xA0 SHL SUB AND SWAP2 PUSH2 0x1021 JUMP JUMPDEST DUP2 SLOAD PUSH1 0x1 PUSH1 0x1 PUSH1 0xA0 SHL SUB SWAP4 DUP5 AND PUSH1 0x3 SWAP3 SWAP1 SWAP3 SHL SWAP2 DUP3 SHL SWAP4 SWAP1 SWAP2 SHL NOT AND SWAP2 SWAP1 SWAP2 OR SWAP1 SSTORE JUMP JUMPDEST PUSH0 DUP1 PUSH2 0x13E0 JUMP JUMPDEST POP JUMP JUMPDEST PUSH1 0x1 PUSH1 0x1 PUSH1 0xA0 SHL SUB DUP2 AND DUP1 ISZERO PUSH2 0x1506 JUMPI PUSH1 0x3 SLOAD SWAP1 PUSH1 0xA DUP3 LT ISZERO PUSH2 0x14F7 JUMPI PUSH0 JUMPDEST DUP3 DUP2 LT PUSH2 0x14C8 JUMPI POP POP POP PUSH1 0x3 SLOAD SWAP1 PUSH1 0x1 PUSH1 0x40 SHL DUP3 LT ISZERO PUSH2 0x10DC JUMPI PUSH2 0x144A DUP3 PUSH1 0x1 PUSH2 0x14C6 SWAP5 ADD PUSH1 0x3 SSTORE PUSH1 0x3 PUSH2 0x104D JUMP JUMPDEST JUMP JUMPDEST DUP2 PUSH2 0x14D2 DUP3 PUSH2 0x1021 JUMP JUMPDEST SWAP1 SLOAD PUSH1 0x3 SWAP2 SWAP1 SWAP2 SHL SHR PUSH1 0x1 PUSH1 0x1 PUSH1 0xA0 SHL SUB AND EQ PUSH2 0x14F1 JUMPI PUSH1 0x1 ADD PUSH2 0x1497 JUMP JUMPDEST POP POP POP POP JUMP JUMPDEST PUSH4 0x29BA6E8D PUSH1 0xE1 SHL PUSH0 MSTORE PUSH1 0x4 PUSH0 REVERT JUMPDEST POP POP JUMP JUMPDEST SWAP1 PUSH20 0xC12C1E50ABB450D6205EA2C3FA861B3B834D13E8 EXTCODESIZE ISZERO PUSH2 0xD50 JUMPI PUSH1 0x40 MLOAD PUSH4 0x75DCEBC7 PUSH1 0xE0 SHL DUP2 MSTORE PUSH1 0x1 PUSH1 0x1 PUSH1 0xA0 SHL SUB DUP4 AND PUSH1 0x4 DUP3 ADD MSTORE PUSH1 0x1 PUSH1 0x1 PUSH1 0x60 SHL SUB DUP3 AND PUSH1 0x24 DUP3 ADD MSTORE PUSH0 SWAP2 SWAP1 DUP3 DUP2 PUSH1 0x44 DUP2 DUP4 PUSH20 0xC12C1E50ABB450D6205EA2C3FA861B3B834D13E8 GAS CALL DUP1 ISZERO PUSH2 0xD45 JUMPI PUSH2 0x166A JUMPI JUMPDEST POP PUSH32 0x0 PUSH1 0x1 PUSH1 0x1 PUSH1 0xA0 SHL SUB AND SWAP1 DUP2 EXTCODESIZE ISZERO PUSH2 0x932 JUMPI PUSH1 0x40 MLOAD PUSH4 0xC878FE95 PUSH1 0xE0 SHL DUP2 MSTORE PUSH1 0x1 PUSH1 0x1 PUSH1 0xA0 SHL SUB DUP6 AND PUSH1 0x4 DUP3 ADD MSTORE PUSH1 0x1 PUSH1 0x1 PUSH1 0x60 SHL SUB SWAP2 SWAP1 SWAP2 AND PUSH1 0x24 DUP3 ADD MSTORE SWAP1 DUP3 SWAP1 DUP3 SWAP1 PUSH1 0x44 SWAP1 DUP3 SWAP1 DUP5 SWAP1 GAS CALL DUP1 ISZERO PUSH2 0x36F JUMPI SWAP1 DUP3 SWAP2 PUSH2 0x1655 JUMPI JUMPDEST POP POP PUSH1 0x1 PUSH1 0x1 PUSH1 0xA0 SHL SUB DUP3 AND DUP1 DUP3 MSTORE PUSH1 0x5 PUSH1 0x20 MSTORE PUSH1 0x40 DUP3 KECCAK256 SLOAD SWAP1 SWAP3 SWAP1 ISZERO PUSH2 0x161E JUMPI POP POP POP JUMP JUMPDEST PUSH1 0x4 SLOAD PUSH1 0x1 PUSH1 0x40 SHL DUP2 LT ISZERO PUSH2 0xBBE JUMPI PUSH1 0x40 SWAP3 SWAP2 PUSH2 0x144A DUP3 PUSH1 0x1 PUSH2 0x1646 SWAP5 ADD PUSH1 0x4 SSTORE PUSH1 0x4 PUSH2 0x104D JUMP JUMPDEST PUSH1 0x4 SLOAD SWAP3 DUP2 MSTORE PUSH1 0x5 PUSH1 0x20 MSTORE KECCAK256 SSTORE JUMP JUMPDEST DUP2 PUSH2 0x165F SWAP2 PUSH2 0x10BA JUMP JUMPDEST PUSH2 0x181 JUMPI DUP1 PUSH0 PUSH2 0x15F8 JUMP JUMPDEST PUSH2 0x1677 SWAP2 SWAP3 POP PUSH0 SWAP1 PUSH2 0x10BA JUMP JUMPDEST PUSH0 SWAP1 PUSH0 PUSH2 0x157C JUMP JUMPDEST PUSH1 0x3 SLOAD SWAP1 PUSH0 JUMPDEST DUP3 DUP2 LT PUSH2 0x1696 JUMPI POP POP POP PUSH1 0x1 SWAP1 PUSH0 SWAP1 JUMP JUMPDEST PUSH0 PUSH1 0x20 PUSH2 0x16A2 DUP4 PUSH2 0x1021 JUMP JUMPDEST SWAP1 SLOAD PUSH1 0x40 MLOAD PUSH4 0xCF3838E1 PUSH1 0xE0 SHL DUP2 MSTORE PUSH1 0x1 PUSH1 0x1 PUSH1 0xA0 SHL SUB DUP8 DUP2 AND PUSH1 0x4 DUP4 ADD MSTORE SWAP1 SWAP5 DUP6 SWAP4 PUSH1 0x24 SWAP4 DUP6 SWAP4 PUSH1 0x3 SWAP3 SWAP1 SWAP3 SHL SHR AND GAS CALL SWAP1 DUP2 ISZERO PUSH2 0xD45 JUMPI PUSH0 SWAP2 PUSH2 0x1713 JUMPI JUMPDEST POP ISZERO PUSH2 0x16F0 JUMPI PUSH1 0x1 ADD PUSH2 0x1685 JUMP JUMPDEST SWAP1 POP PUSH2 0x16FC SWAP2 POP PUSH2 0x1021 JUMP JUMPDEST SWAP1 SLOAD PUSH0 SWAP3 PUSH1 0x3 SWAP3 SWAP1 SWAP3 SHL SHR PUSH1 0x1 PUSH1 0x1 PUSH1 0xA0 SHL SUB AND SWAP1 JUMP JUMPDEST PUSH2 0x172B SWAP2 POP PUSH1 0x20 RETURNDATASIZE DUP2 GT PUSH2 0x8AD JUMPI PUSH2 0x89F DUP2 DUP4 PUSH2 0x10BA JUMP JUMPDEST PUSH0 PUSH2 0x16E2 JUMP INVALID LOG2 PUSH5 0x6970667358 0x22 SLT KECCAK256 0xB0 SWAP10 0xDC 0x2C 0x23 BLOBBASEFEE SWAP4 SHL MSTORE 0xE 0xCB 0xC8 PUSH11 0x4349D9AA3C021342B89925 OR 0xF8 PUSH2 0xC62D 0xC 0xD 0x21 PUSH5 0x736F6C6343 STOP ADDMOD SHR STOP CALLER PUSH1 0xE0 DUP1 PUSH1 0x40 MSTORE CALLVALUE PUSH2 0x279 JUMPI PUSH0 PUSH2 0xA8A DUP1 CODESIZE SUB DUP1 SWAP2 PUSH2 0x1D DUP3 DUP7 PUSH2 0x291 JUMP JUMPDEST DUP5 CODECOPY DUP3 ADD SWAP2 PUSH1 0xA0 DUP2 DUP5 SUB SLT PUSH2 0x279 JUMPI PUSH2 0x35 DUP2 PUSH2 0x2B4 JUMP JUMPDEST SWAP3 PUSH2 0x42 PUSH1 0x20 DUP4 ADD PUSH2 0x2B4 JUMP JUMPDEST SWAP4 PUSH2 0x4F PUSH1 0x40 DUP5 ADD PUSH2 0x2B4 JUMP JUMPDEST PUSH1 0x60 DUP5 ADD MLOAD SWAP1 SWAP6 SWAP1 PUSH1 0x1 PUSH1 0x1 PUSH1 0x40 SHL SUB DUP2 GT PUSH2 0x279 JUMPI DUP5 ADD DUP4 PUSH1 0x1F DUP3 ADD SLT ISZERO PUSH2 0x279 JUMPI DUP1 MLOAD SWAP5 PUSH1 0x1 PUSH1 0x1 PUSH1 0x40 SHL SUB DUP7 GT PUSH2 0x27D JUMPI PUSH1 0x40 MLOAD SWAP6 PUSH2 0x9B PUSH1 0x1F DUP3 ADD PUSH1 0x1F NOT AND PUSH1 0x20 ADD DUP9 PUSH2 0x291 JUMP JUMPDEST DUP1 DUP8 MSTORE PUSH1 0x20 DUP8 ADD SWAP6 PUSH1 0x20 DUP3 DUP6 ADD ADD GT PUSH2 0x279 JUMPI PUSH1 0x20 DUP2 PUSH0 SWAP3 DUP3 PUSH1 0x80 SWAP7 ADD DUP10 MCOPY DUP9 ADD ADD MSTORE ADD MLOAD SWAP2 PUSH1 0x1 DUP1 PUSH1 0xA0 SHL SUB AND PUSH1 0x80 MSTORE PUSH1 0x1 DUP1 PUSH1 0xA0 SHL SUB AND PUSH1 0xA0 MSTORE DUP5 PUSH1 0xC0 MSTORE PUSH2 0x113 PUSH1 0x9 PUSH1 0x20 PUSH1 0x40 MLOAD DUP1 SWAP6 DUP3 DUP3 ADD SWAP8 MLOAD DUP1 SWAP2 DUP10 MCOPY DUP2 ADD PUSH9 0x2D7472656173757279 PUSH1 0xB8 SHL DUP4 DUP3 ADD MSTORE SUB ADD PUSH1 0x16 NOT DUP2 ADD DUP6 MSTORE ADD DUP4 PUSH2 0x291 JUMP JUMPDEST PUSH1 0x80 MLOAD PUSH1 0x1 PUSH1 0x1 PUSH1 0xA0 SHL SUB AND DUP1 EXTCODESIZE ISZERO PUSH2 0x279 JUMPI PUSH0 SWAP3 DUP4 PUSH1 0x64 PUSH1 0x40 MLOAD DUP1 SWAP8 DUP2 SWAP7 DUP3 SWAP6 PUSH4 0xBFDE380D PUSH1 0xE0 SHL DUP5 MSTORE PUSH1 0x40 PUSH1 0x4 DUP6 ADD MSTORE MLOAD DUP1 SWAP3 DUP2 PUSH1 0x44 DUP7 ADD MSTORE DUP6 DUP6 ADD MCOPY DUP3 DUP3 ADD DUP5 ADD DUP6 SWAP1 MSTORE PUSH1 0x24 DUP4 ADD MSTORE PUSH1 0x1F ADD PUSH1 0x1F NOT AND DUP2 ADD SUB ADD SWAP3 GAS CALL DUP1 ISZERO PUSH2 0x26E JUMPI PUSH2 0x25B JUMPI JUMPDEST POP PUSH1 0x80 MLOAD SWAP1 SWAP2 DUP3 SWAP2 PUSH1 0x1 PUSH1 0x1 PUSH1 0xA0 SHL SUB AND DUP1 EXTCODESIZE ISZERO PUSH2 0x257 JUMPI PUSH1 0x40 MLOAD PUSH4 0x75DCEBC7 PUSH1 0xE0 SHL DUP2 MSTORE PUSH1 0x1 PUSH1 0x1 PUSH1 0xA0 SHL SUB SWAP1 SWAP3 AND PUSH1 0x4 DUP4 ADD MSTORE PUSH1 0x1 PUSH1 0x1 PUSH1 0x60 SHL SUB PUSH1 0x24 DUP4 ADD MSTORE SWAP1 SWAP2 SWAP1 DUP3 SWAP1 PUSH1 0x44 SWAP1 DUP3 SWAP1 DUP5 SWAP1 GAS CALL DUP1 ISZERO PUSH2 0x24C JUMPI PUSH2 0x234 JUMPI JUMPDEST PUSH1 0x40 MLOAD PUSH2 0x7C1 SWAP1 DUP2 PUSH2 0x2C9 DUP3 CODECOPY PUSH1 0x80 MLOAD DUP2 DUP2 DUP2 PUSH1 0xBC ADD MSTORE DUP2 DUP2 PUSH2 0x22B ADD MSTORE DUP2 DUP2 PUSH2 0x292 ADD MSTORE DUP2 DUP2 PUSH2 0x5A9 ADD MSTORE PUSH2 0x67A ADD MSTORE PUSH1 0xA0 MLOAD DUP2 DUP2 DUP2 PUSH2 0x2D7 ADD MSTORE PUSH2 0x366 ADD MSTORE PUSH1 0xC0 MLOAD DUP2 DUP2 DUP2 PUSH2 0x173 ADD MSTORE DUP2 DUP2 PUSH2 0x336 ADD MSTORE DUP2 DUP2 PUSH2 0x57F ADD MSTORE PUSH2 0x69F ADD MSTORE RETURN JUMPDEST PUSH2 0x23F DUP3 DUP1 SWAP3 PUSH2 0x291 JUMP JUMPDEST PUSH2 0x249 JUMPI DUP1 PUSH2 0x1D3 JUMP JUMPDEST DUP1 REVERT JUMPDEST PUSH1 0x40 MLOAD RETURNDATASIZE DUP5 DUP3 RETURNDATACOPY RETURNDATASIZE SWAP1 REVERT JUMPDEST POP POP REVERT JUMPDEST PUSH2 0x267 SWAP2 POP PUSH0 SWAP1 PUSH2 0x291 JUMP JUMPDEST PUSH0 PUSH0 PUSH2 0x178 JUMP JUMPDEST PUSH1 0x40 MLOAD RETURNDATASIZE PUSH0 DUP3 RETURNDATACOPY RETURNDATASIZE SWAP1 REVERT JUMPDEST PUSH0 DUP1 REVERT JUMPDEST PUSH4 0x4E487B71 PUSH1 0xE0 SHL PUSH0 MSTORE PUSH1 0x41 PUSH1 0x4 MSTORE PUSH1 0x24 PUSH0 REVERT JUMPDEST PUSH1 0x1F SWAP1 SWAP2 ADD PUSH1 0x1F NOT AND DUP2 ADD SWAP1 PUSH1 0x1 PUSH1 0x1 PUSH1 0x40 SHL SUB DUP3 GT SWAP1 DUP3 LT OR PUSH2 0x27D JUMPI PUSH1 0x40 MSTORE JUMP JUMPDEST MLOAD SWAP1 PUSH1 0x1 PUSH1 0x1 PUSH1 0xA0 SHL SUB DUP3 AND DUP3 SUB PUSH2 0x279 JUMPI JUMP INVALID PUSH1 0x80 DUP1 PUSH1 0x40 MSTORE PUSH1 0x4 CALLDATASIZE LT ISZERO PUSH2 0x12 JUMPI PUSH0 DUP1 REVERT JUMPDEST PUSH0 SWAP1 PUSH0 CALLDATALOAD PUSH1 0xE0 SHR SWAP1 DUP2 PUSH4 0x1FFC9A7 EQ PUSH2 0x3EF JUMPI POP DUP1 PUSH4 0x3857D9D7 EQ PUSH2 0x322 JUMPI DUP1 PUSH4 0x44DF8E70 EQ PUSH2 0x306 JUMPI DUP1 PUSH4 0xA05C2616 EQ PUSH2 0x2C1 JUMPI DUP1 PUSH4 0xA4C52B86 EQ PUSH2 0x27C JUMPI DUP1 PUSH4 0xBC197C81 EQ PUSH2 0x1A2 JUMPI DUP1 PUSH4 0xE532B61D EQ PUSH2 0x15D JUMPI PUSH4 0xF23A6E61 EQ PUSH2 0x76 JUMPI PUSH0 DUP1 REVERT JUMPDEST CALLVALUE PUSH2 0x15A JUMPI PUSH1 0xA0 CALLDATASIZE PUSH1 0x3 NOT ADD SLT PUSH2 0x15A JUMPI PUSH2 0x8F PUSH2 0x442 JUMP JUMPDEST POP PUSH2 0x98 PUSH2 0x458 JUMP JUMPDEST POP PUSH1 0x84 CALLDATALOAD PUSH8 0xFFFFFFFFFFFFFFFF DUP2 GT PUSH2 0x158 JUMPI PUSH2 0xB9 SWAP1 CALLDATASIZE SWAP1 PUSH1 0x4 ADD PUSH2 0x50D JUMP JUMPDEST POP PUSH32 0x0 PUSH1 0x1 PUSH1 0x1 PUSH1 0xA0 SHL SUB AND CALLER SUB PUSH2 0x149 JUMPI PUSH1 0x40 MLOAD PUSH2 0xF8 PUSH1 0x40 DUP3 PUSH2 0x46E JUMP JUMPDEST PUSH1 0x1 DUP2 MSTORE PUSH1 0x20 DUP1 DUP3 ADD SWAP1 CALLDATASIZE DUP3 CALLDATACOPY DUP2 MLOAD ISZERO PUSH2 0x135 JUMPI PUSH2 0x11B SWAP3 POP PUSH1 0x44 CALLDATALOAD SWAP1 MSTORE PUSH2 0x670 JUMP JUMPDEST PUSH2 0x123 PUSH2 0x563 JUMP JUMPDEST PUSH1 0x40 MLOAD PUSH4 0xF23A6E61 PUSH1 0xE0 SHL DUP2 MSTORE PUSH1 0x20 SWAP1 RETURN JUMPDEST PUSH4 0x4E487B71 PUSH1 0xE0 SHL DUP4 MSTORE PUSH1 0x32 PUSH1 0x4 MSTORE PUSH1 0x24 DUP4 REVERT JUMPDEST PUSH4 0x58A7C73 PUSH1 0xE3 SHL DUP2 MSTORE PUSH1 0x4 SWAP1 REVERT JUMPDEST POP JUMPDEST DUP1 REVERT JUMPDEST POP CALLVALUE PUSH2 0x15A JUMPI DUP1 PUSH1 0x3 NOT CALLDATASIZE ADD SLT PUSH2 0x15A JUMPI PUSH1 0x40 MLOAD PUSH32 0x0 PUSH1 0x1 PUSH1 0x1 PUSH1 0xA0 SHL SUB AND DUP2 MSTORE PUSH1 0x20 SWAP1 RETURN JUMPDEST POP CALLVALUE PUSH2 0x15A JUMPI PUSH1 0xA0 CALLDATASIZE PUSH1 0x3 NOT ADD SLT PUSH2 0x15A JUMPI PUSH2 0x1BC PUSH2 0x442 JUMP JUMPDEST POP PUSH2 0x1C5 PUSH2 0x458 JUMP JUMPDEST POP PUSH1 0x44 CALLDATALOAD PUSH8 0xFFFFFFFFFFFFFFFF DUP2 GT PUSH2 0x158 JUMPI PUSH2 0x1E6 SWAP1 CALLDATASIZE SWAP1 PUSH1 0x4 ADD PUSH2 0x4A4 JUMP JUMPDEST SWAP1 PUSH1 0x64 CALLDATALOAD PUSH8 0xFFFFFFFFFFFFFFFF DUP2 GT PUSH2 0x158 JUMPI PUSH2 0x207 SWAP1 CALLDATASIZE SWAP1 PUSH1 0x4 ADD PUSH2 0x4A4 JUMP JUMPDEST POP PUSH1 0x84 CALLDATALOAD PUSH8 0xFFFFFFFFFFFFFFFF DUP2 GT PUSH2 0x158 JUMPI PUSH2 0x228 SWAP1 CALLDATASIZE SWAP1 PUSH1 0x4 ADD PUSH2 0x50D JUMP JUMPDEST POP PUSH32 0x0 PUSH1 0x1 PUSH1 0x1 PUSH1 0xA0 SHL SUB AND CALLER SUB PUSH2 0x149 JUMPI PUSH2 0x262 DUP3 PUSH2 0x670 JUMP JUMPDEST PUSH2 0x26A PUSH2 0x563 JUMP JUMPDEST PUSH1 0x40 MLOAD PUSH4 0xBC197C81 PUSH1 0xE0 SHL DUP2 MSTORE PUSH1 0x20 SWAP1 RETURN JUMPDEST POP CALLVALUE PUSH2 0x15A JUMPI DUP1 PUSH1 0x3 NOT CALLDATASIZE ADD SLT PUSH2 0x15A JUMPI PUSH1 0x40 MLOAD PUSH32 0x0 PUSH1 0x1 PUSH1 0x1 PUSH1 0xA0 SHL SUB AND DUP2 MSTORE PUSH1 0x20 SWAP1 RETURN JUMPDEST POP CALLVALUE PUSH2 0x15A JUMPI DUP1 PUSH1 0x3 NOT CALLDATASIZE ADD SLT PUSH2 0x15A JUMPI PUSH1 0x40 MLOAD PUSH32 0x0 PUSH1 0x1 PUSH1 0x1 PUSH1 0xA0 SHL SUB AND DUP2 MSTORE PUSH1 0x20 SWAP1 RETURN JUMPDEST POP CALLVALUE PUSH2 0x15A JUMPI DUP1 PUSH1 0x3 NOT CALLDATASIZE ADD SLT PUSH2 0x15A JUMPI PUSH2 0x31F PUSH2 0x563 JUMP JUMPDEST DUP1 RETURN JUMPDEST POP CALLVALUE PUSH2 0x3DC JUMPI PUSH1 0x20 CALLDATASIZE PUSH1 0x3 NOT ADD SLT PUSH2 0x3DC JUMPI PUSH32 0x0 PUSH1 0x1 PUSH1 0x1 PUSH1 0xA0 SHL SUB AND CALLER SUB PUSH2 0x3E0 JUMPI PUSH32 0x0 PUSH1 0x1 PUSH1 0x1 PUSH1 0xA0 SHL SUB AND DUP1 EXTCODESIZE ISZERO PUSH2 0x3DC JUMPI PUSH0 DUP1 SWAP2 PUSH1 0x24 PUSH1 0x40 MLOAD DUP1 SWAP5 DUP2 SWAP4 PUSH4 0x3857D9D7 PUSH1 0xE0 SHL DUP4 MSTORE PUSH1 0x4 CALLDATALOAD PUSH1 0x4 DUP5 ADD MSTORE GAS CALL DUP1 ISZERO PUSH2 0x3D1 JUMPI PUSH2 0x3C3 JUMPI POP DUP1 RETURN JUMPDEST PUSH2 0x3CF SWAP2 POP PUSH0 SWAP1 PUSH2 0x46E JUMP JUMPDEST STOP JUMPDEST PUSH1 0x40 MLOAD RETURNDATASIZE PUSH0 DUP3 RETURNDATACOPY RETURNDATASIZE SWAP1 REVERT JUMPDEST PUSH0 DUP1 REVERT JUMPDEST PUSH4 0x6346B2B7 PUSH1 0xE0 SHL PUSH0 MSTORE PUSH1 0x4 PUSH0 REVERT JUMPDEST CALLVALUE PUSH2 0x3DC JUMPI PUSH1 0x20 CALLDATASIZE PUSH1 0x3 NOT ADD SLT PUSH2 0x3DC JUMPI PUSH1 0x4 CALLDATALOAD SWAP1 PUSH4 0xFFFFFFFF PUSH1 0xE0 SHL DUP3 AND DUP1 SWAP3 SUB PUSH2 0x3DC JUMPI PUSH1 0x20 SWAP2 PUSH4 0x2711897 PUSH1 0xE5 SHL DUP2 EQ SWAP1 DUP2 ISZERO PUSH2 0x431 JUMPI JUMPDEST POP ISZERO ISZERO DUP2 MSTORE RETURN JUMPDEST PUSH4 0x1FFC9A7 PUSH1 0xE0 SHL EQ SWAP1 POP DUP4 PUSH2 0x42A JUMP JUMPDEST PUSH1 0x4 CALLDATALOAD SWAP1 PUSH1 0x1 PUSH1 0x1 PUSH1 0xA0 SHL SUB DUP3 AND DUP3 SUB PUSH2 0x3DC JUMPI JUMP JUMPDEST PUSH1 0x24 CALLDATALOAD SWAP1 PUSH1 0x1 PUSH1 0x1 PUSH1 0xA0 SHL SUB DUP3 AND DUP3 SUB PUSH2 0x3DC JUMPI JUMP JUMPDEST SWAP1 PUSH1 0x1F DUP1 NOT SWAP2 ADD AND DUP2 ADD SWAP1 DUP2 LT PUSH8 0xFFFFFFFFFFFFFFFF DUP3 GT OR PUSH2 0x490 JUMPI PUSH1 0x40 MSTORE JUMP JUMPDEST PUSH4 0x4E487B71 PUSH1 0xE0 SHL PUSH0 MSTORE PUSH1 0x41 PUSH1 0x4 MSTORE PUSH1 0x24 PUSH0 REVERT JUMPDEST SWAP1 DUP1 PUSH1 0x1F DUP4 ADD SLT ISZERO PUSH2 0x3DC JUMPI DUP2 CALLDATALOAD SWAP2 PUSH8 0xFFFFFFFFFFFFFFFF DUP4 GT PUSH2 0x490 JUMPI DUP3 PUSH1 0x5 SHL SWAP1 PUSH1 0x20 DUP3 ADD SWAP4 PUSH2 0x4D9 PUSH1 0x40 MLOAD SWAP6 DUP7 PUSH2 0x46E JUMP JUMPDEST DUP5 MSTORE PUSH1 0x20 DUP1 DUP6 ADD SWAP3 DUP3 ADD ADD SWAP3 DUP4 GT PUSH2 0x3DC JUMPI PUSH1 0x20 ADD SWAP1 JUMPDEST DUP3 DUP3 LT PUSH2 0x4FD JUMPI POP POP POP SWAP1 JUMP JUMPDEST DUP2 CALLDATALOAD DUP2 MSTORE PUSH1 0x20 SWAP2 DUP3 ADD SWAP2 ADD PUSH2 0x4F0 JUMP JUMPDEST DUP2 PUSH1 0x1F DUP3 ADD SLT ISZERO PUSH2 0x3DC JUMPI DUP1 CALLDATALOAD SWAP1 PUSH8 0xFFFFFFFFFFFFFFFF DUP3 GT PUSH2 0x490 JUMPI PUSH1 0x40 MLOAD SWAP3 PUSH2 0x542 PUSH1 0x1F DUP5 ADD PUSH1 0x1F NOT AND PUSH1 0x20 ADD DUP6 PUSH2 0x46E JUMP JUMPDEST DUP3 DUP5 MSTORE PUSH1 0x20 DUP4 DUP4 ADD ADD GT PUSH2 0x3DC JUMPI DUP2 PUSH0 SWAP3 PUSH1 0x20 DUP1 SWAP4 ADD DUP4 DUP7 ADD CALLDATACOPY DUP4 ADD ADD MSTORE SWAP1 JUMP JUMPDEST PUSH1 0x40 MLOAD PUSH3 0x7EEAC7 PUSH1 0xE1 SHL DUP2 MSTORE ADDRESS PUSH1 0x4 DUP3 ADD MSTORE PUSH1 0x1 PUSH1 0x1 PUSH1 0xA0 SHL SUB PUSH32 0x0 DUP2 AND PUSH1 0x24 DUP4 ADD DUP2 SWAP1 MSTORE PUSH32 0x0 SWAP1 SWAP2 AND SWAP2 PUSH1 0x20 DUP2 PUSH1 0x44 DUP2 DUP7 GAS STATICCALL SWAP1 DUP2 ISZERO PUSH2 0x3D1 JUMPI PUSH0 SWAP2 PUSH2 0x63E JUMPI JUMPDEST POP DUP1 PUSH2 0x5EE JUMPI POP POP POP JUMP JUMPDEST DUP3 EXTCODESIZE ISZERO PUSH2 0x3DC JUMPI PUSH1 0x84 PUSH0 SWAP3 DUP4 PUSH1 0x40 MLOAD SWAP6 DUP7 SWAP5 DUP6 SWAP4 PUSH4 0x80A5A371 PUSH1 0xE0 SHL DUP6 MSTORE PUSH1 0x4 DUP6 ADD MSTORE PUSH1 0x24 DUP5 ADD MSTORE PUSH1 0x60 PUSH1 0x44 DUP5 ADD MSTORE DUP2 PUSH1 0x64 DUP5 ADD MSTORE GAS CALL DUP1 ISZERO PUSH2 0x3D1 JUMPI PUSH2 0x632 JUMPI POP JUMP JUMPDEST PUSH0 PUSH2 0x63C SWAP2 PUSH2 0x46E JUMP JUMPDEST JUMP JUMPDEST SWAP1 POP PUSH1 0x20 DUP2 RETURNDATASIZE PUSH1 0x20 GT PUSH2 0x668 JUMPI JUMPDEST DUP2 PUSH2 0x659 PUSH1 0x20 SWAP4 DUP4 PUSH2 0x46E JUMP JUMPDEST DUP2 ADD SUB SLT PUSH2 0x3DC JUMPI MLOAD PUSH0 PUSH2 0x5E3 JUMP JUMPDEST RETURNDATASIZE SWAP2 POP PUSH2 0x64C JUMP JUMPDEST PUSH1 0x1 PUSH1 0x1 PUSH1 0xA0 SHL SUB PUSH32 0x0 DUP2 AND SWAP2 SWAP1 PUSH32 0x0 AND PUSH0 JUMPDEST DUP3 MLOAD DUP2 LT ISZERO PUSH2 0x785 JUMPI DUP3 MLOAD DUP2 LT ISZERO PUSH2 0x771 JUMPI PUSH1 0x20 PUSH1 0x5 DUP3 SWAP1 SHL DUP5 ADD DUP2 ADD MLOAD PUSH1 0x40 MLOAD PUSH4 0x6713E23 PUSH1 0xE4 SHL DUP2 MSTORE PUSH1 0x4 DUP2 ADD DUP6 SWAP1 MSTORE PUSH1 0x1 PUSH1 0x1 PUSH1 0xA0 SHL SUB SWAP1 SWAP2 AND PUSH1 0x24 DUP3 ADD MSTORE SWAP1 DUP2 PUSH1 0x44 DUP2 PUSH0 DUP10 GAS CALL SWAP1 DUP2 ISZERO PUSH2 0x3D1 JUMPI PUSH0 SWAP2 PUSH2 0x737 JUMPI JUMPDEST POP ISZERO PUSH2 0x728 JUMPI PUSH1 0x1 ADD PUSH2 0x6C1 JUMP JUMPDEST PUSH4 0x1C74BB57 PUSH1 0xE1 SHL PUSH0 MSTORE PUSH1 0x4 PUSH0 REVERT JUMPDEST SWAP1 POP PUSH1 0x20 DUP2 RETURNDATASIZE DUP3 GT PUSH2 0x769 JUMPI JUMPDEST DUP2 PUSH2 0x751 PUSH1 0x20 SWAP4 DUP4 PUSH2 0x46E JUMP JUMPDEST DUP2 ADD SUB SLT PUSH2 0x3DC JUMPI MLOAD DUP1 ISZERO ISZERO DUP2 SUB PUSH2 0x3DC JUMPI PUSH0 PUSH2 0x71A JUMP JUMPDEST RETURNDATASIZE SWAP2 POP PUSH2 0x744 JUMP JUMPDEST PUSH4 0x4E487B71 PUSH1 0xE0 SHL PUSH0 MSTORE PUSH1 0x32 PUSH1 0x4 MSTORE PUSH1 0x24 PUSH0 REVERT JUMPDEST POP POP POP POP JUMP INVALID LOG2 PUSH5 0x6970667358 0x22 SLT KECCAK256 ADD ADDMOD 0xDA 0xEF 0xBE PUSH11 0xF0F7D71F139C2E5EB8415A 0xC1 PUSH15 0x2BCA330E23B3034593731C5B5F6473 PUSH16 0x6C634300081C00336101408060405234 PUSH2 0x275 JUMPI PUSH2 0x146E DUP1 CODESIZE SUB DUP1 SWAP2 PUSH2 0x1D DUP3 DUP6 PUSH2 0x28D JUMP JUMPDEST DUP4 CODECOPY DUP2 ADD PUSH1 0xE0 DUP3 DUP3 SUB SLT PUSH2 0x275 JUMPI PUSH2 0x34 DUP3 PUSH2 0x2B0 JUMP JUMPDEST PUSH2 0x40 PUSH1 0x20 DUP5 ADD PUSH2 0x2B0 JUMP JUMPDEST PUSH2 0x4C PUSH1 0x40 DUP6 ADD PUSH2 0x2B0 JUMP JUMPDEST PUSH2 0x58 PUSH1 0x60 DUP7 ADD PUSH2 0x2B0 JUMP JUMPDEST SWAP1 PUSH2 0x65 PUSH1 0x80 DUP8 ADD PUSH2 0x2B0 JUMP JUMPDEST PUSH1 0xA0 DUP8 ADD MLOAD SWAP1 SWAP4 SWAP1 PUSH1 0x1 PUSH1 0x1 PUSH1 0x40 SHL SUB DUP2 GT PUSH2 0x275 JUMPI DUP8 ADD DUP7 PUSH1 0x1F DUP3 ADD SLT ISZERO PUSH2 0x275 JUMPI DUP1 MLOAD SWAP8 PUSH1 0x1 PUSH1 0x1 PUSH1 0x40 SHL SUB DUP10 GT PUSH2 0x279 JUMPI PUSH1 0x40 MLOAD SWAP9 PUSH2 0xB1 PUSH1 0x1F DUP3 ADD PUSH1 0x1F NOT AND PUSH1 0x20 ADD DUP12 PUSH2 0x28D JUMP JUMPDEST DUP1 DUP11 MSTORE PUSH1 0x20 DUP11 ADD SWAP9 PUSH1 0x20 DUP3 DUP6 ADD ADD GT PUSH2 0x275 JUMPI PUSH1 0x20 DUP2 PUSH0 SWAP3 DUP3 PUSH1 0xC0 SWAP7 ADD DUP13 MCOPY DUP12 ADD ADD MSTORE ADD MLOAD PUSH1 0x1 PUSH1 0x1 PUSH1 0xA0 SHL SUB SWAP6 DUP7 AND PUSH1 0x80 MSTORE SWAP1 DUP6 AND PUSH1 0xA0 MSTORE PUSH1 0xC0 DUP3 SWAP1 MSTORE SWAP4 AND PUSH1 0xE0 MSTORE PUSH2 0x100 MSTORE PUSH2 0x120 MSTORE PUSH1 0x40 MLOAD SWAP3 MLOAD PUSH1 0x20 DUP5 DUP2 ADD SWAP5 SWAP4 PUSH2 0x13E SWAP3 PUSH1 0xD SWAP3 SWAP2 DUP7 SWAP2 SWAP1 DUP2 SWAP1 DUP10 MCOPY DUP2 ADD PUSH13 0x16B6B4B73A16B430B7323632B9 PUSH1 0x99 SHL DUP4 DUP3 ADD MSTORE SUB ADD PUSH1 0x12 NOT DUP2 ADD DUP6 MSTORE ADD DUP4 PUSH2 0x28D JUMP JUMPDEST PUSH1 0x80 MLOAD PUSH1 0x1 PUSH1 0x1 PUSH1 0xA0 SHL SUB AND DUP1 EXTCODESIZE ISZERO PUSH2 0x275 JUMPI PUSH0 SWAP3 DUP4 PUSH1 0x64 PUSH1 0x40 MLOAD DUP1 SWAP8 DUP2 SWAP7 DUP3 SWAP6 PUSH4 0xBFDE380D PUSH1 0xE0 SHL DUP5 MSTORE PUSH1 0x40 PUSH1 0x4 DUP6 ADD MSTORE MLOAD DUP1 SWAP3 DUP2 PUSH1 0x44 DUP7 ADD MSTORE DUP6 DUP6 ADD MCOPY DUP3 DUP3 ADD DUP5 ADD DUP6 SWAP1 MSTORE PUSH1 0x24 DUP4 ADD MSTORE PUSH1 0x1F ADD PUSH1 0x1F NOT AND DUP2 ADD SUB ADD SWAP3 GAS CALL DUP1 ISZERO PUSH2 0x26A JUMPI PUSH2 0x25A JUMPI JUMPDEST PUSH1 0x40 MLOAD PUSH2 0x11A9 SWAP1 DUP2 PUSH2 0x2C5 DUP3 CODECOPY PUSH1 0x80 MLOAD DUP2 DUP2 DUP2 PUSH2 0x31C ADD MSTORE DUP2 DUP2 PUSH2 0x5BE ADD MSTORE DUP2 DUP2 PUSH2 0x706 ADD MSTORE DUP2 DUP2 PUSH2 0x762 ADD MSTORE DUP2 DUP2 PUSH2 0xB31 ADD MSTORE DUP2 DUP2 PUSH2 0xC3A ADD MSTORE PUSH2 0xDE9 ADD MSTORE PUSH1 0xA0 MLOAD DUP2 DUP2 DUP2 PUSH2 0x1C6 ADD MSTORE PUSH2 0x2D8 ADD MSTORE PUSH1 0xC0 MLOAD DUP2 DUP2 DUP2 PUSH2 0x196 ADD MSTORE DUP2 DUP2 PUSH2 0x58E ADD MSTORE DUP2 DUP2 PUSH2 0x641 ADD MSTORE DUP2 DUP2 PUSH2 0x86C ADD MSTORE DUP2 DUP2 PUSH2 0xB7D ADD MSTORE PUSH2 0xDA3 ADD MSTORE PUSH1 0xE0 MLOAD DUP2 DUP2 DUP2 PUSH2 0x25C ADD MSTORE DUP2 DUP2 PUSH2 0xC88 ADD MSTORE PUSH2 0xF72 ADD MSTORE PUSH2 0x100 MLOAD DUP2 DUP2 DUP2 PUSH2 0x294 ADD MSTORE PUSH2 0xD1C ADD MSTORE PUSH2 0x120 MLOAD DUP2 DUP2 DUP2 PUSH2 0x685 ADD MSTORE PUSH2 0xF4A ADD MSTORE RETURN JUMPDEST PUSH0 PUSH2 0x264 SWAP2 PUSH2 0x28D JUMP JUMPDEST PUSH0 PUSH2 0x1A3 JUMP JUMPDEST PUSH1 0x40 MLOAD RETURNDATASIZE PUSH0 DUP3 RETURNDATACOPY RETURNDATASIZE SWAP1 REVERT JUMPDEST PUSH0 DUP1 REVERT JUMPDEST PUSH4 0x4E487B71 PUSH1 0xE0 SHL PUSH0 MSTORE PUSH1 0x41 PUSH1 0x4 MSTORE PUSH1 0x24 PUSH0 REVERT JUMPDEST PUSH1 0x1F SWAP1 SWAP2 ADD PUSH1 0x1F NOT AND DUP2 ADD SWAP1 PUSH1 0x1 PUSH1 0x1 PUSH1 0x40 SHL SUB DUP3 GT SWAP1 DUP3 LT OR PUSH2 0x279 JUMPI PUSH1 0x40 MSTORE JUMP JUMPDEST MLOAD SWAP1 PUSH1 0x1 PUSH1 0x1 PUSH1 0xA0 SHL SUB DUP3 AND DUP3 SUB PUSH2 0x275 JUMPI JUMP INVALID PUSH1 0x80 PUSH1 0x40 MSTORE PUSH1 0x4 CALLDATASIZE LT ISZERO PUSH2 0x11 JUMPI PUSH0 DUP1 REVERT JUMPDEST PUSH0 CALLDATALOAD PUSH1 0xE0 SHR DUP1 PUSH4 0x1FFC9A7 EQ PUSH2 0xE4 JUMPI DUP1 PUSH4 0x33F7354 EQ PUSH2 0xDF JUMPI DUP1 PUSH4 0x3857D9D7 EQ PUSH2 0xDA JUMPI DUP1 PUSH4 0x4DD9C0B5 EQ PUSH2 0xD5 JUMPI DUP1 PUSH4 0x6604495E EQ PUSH2 0xD0 JUMPI DUP1 PUSH4 0xA05C2616 EQ PUSH2 0xCB JUMPI DUP1 PUSH4 0xA4C52B86 EQ PUSH2 0xC6 JUMPI DUP1 PUSH4 0xA855A717 EQ PUSH2 0xC1 JUMPI DUP1 PUSH4 0xBC197C81 EQ PUSH2 0xBC JUMPI DUP1 PUSH4 0xC878FE95 EQ PUSH2 0xB7 JUMPI DUP1 PUSH4 0xE532B61D EQ PUSH2 0xB2 JUMPI DUP1 PUSH4 0xF07108A0 EQ PUSH2 0xAD JUMPI PUSH4 0xF23A6E61 EQ PUSH2 0xA8 JUMPI PUSH0 DUP1 REVERT JUMPDEST PUSH2 0x6B4 JUMP JUMPDEST PUSH2 0x670 JUMP JUMPDEST PUSH2 0x62C JUMP JUMPDEST PUSH2 0x554 JUMP JUMPDEST PUSH2 0x49C JUMP JUMPDEST PUSH2 0x34B JUMP JUMPDEST PUSH2 0x307 JUMP JUMPDEST PUSH2 0x2C3 JUMP JUMPDEST PUSH2 0x27F JUMP JUMPDEST PUSH2 0x245 JUMP JUMPDEST PUSH2 0x182 JUMP JUMPDEST PUSH2 0x148 JUMP JUMPDEST CALLVALUE PUSH2 0x13A JUMPI PUSH1 0x20 CALLDATASIZE PUSH1 0x3 NOT ADD SLT PUSH2 0x13A JUMPI PUSH1 0x4 CALLDATALOAD PUSH4 0xFFFFFFFF PUSH1 0xE0 SHL DUP2 AND DUP1 SWAP2 SUB PUSH2 0x13A JUMPI PUSH1 0x20 SWAP1 PUSH4 0x2711897 PUSH1 0xE5 SHL DUP2 EQ SWAP1 DUP2 ISZERO PUSH2 0x129 JUMPI JUMPDEST POP PUSH1 0x40 MLOAD SWAP1 ISZERO ISZERO DUP2 MSTORE RETURN JUMPDEST PUSH4 0x1FFC9A7 PUSH1 0xE0 SHL EQ SWAP1 POP PUSH0 PUSH2 0x11E JUMP JUMPDEST PUSH0 DUP1 REVERT JUMPDEST PUSH0 SWAP2 SUB SLT PUSH2 0x13A JUMPI JUMP JUMPDEST CALLVALUE PUSH2 0x13A JUMPI PUSH0 CALLDATASIZE PUSH1 0x3 NOT ADD SLT PUSH2 0x13A JUMPI PUSH1 0x20 PUSH1 0x40 MLOAD PUSH32 0xF3F5858942140FD2894EEB8B74CD0ED72D24FC6675D352A2884B1BE2F32256FE DUP2 MSTORE RETURN JUMPDEST CALLVALUE PUSH2 0x13A JUMPI PUSH0 PUSH1 0x20 CALLDATASIZE PUSH1 0x3 NOT ADD SLT PUSH2 0x13A JUMPI PUSH32 0x0 PUSH1 0x1 PUSH1 0x1 PUSH1 0xA0 SHL SUB AND CALLER SUB PUSH2 0x236 JUMPI PUSH32 0x0 PUSH1 0x1 PUSH1 0x1 PUSH1 0xA0 SHL SUB AND DUP1 EXTCODESIZE ISZERO PUSH2 0x13A JUMPI PUSH0 DUP1 SWAP2 PUSH1 0x24 PUSH1 0x40 MLOAD DUP1 SWAP5 DUP2 SWAP4 PUSH4 0x3857D9D7 PUSH1 0xE0 SHL DUP4 MSTORE PUSH1 0x4 CALLDATALOAD PUSH1 0x4 DUP5 ADD MSTORE GAS CALL DUP1 ISZERO PUSH2 0x231 JUMPI PUSH2 0x223 JUMPI POP DUP1 RETURN JUMPDEST PUSH2 0x22F SWAP2 POP PUSH0 SWAP1 PUSH2 0x3AA JUMP JUMPDEST STOP JUMPDEST PUSH2 0x750 JUMP JUMPDEST PUSH4 0x6346B2B7 PUSH1 0xE0 SHL PUSH0 MSTORE PUSH1 0x4 PUSH0 REVERT JUMPDEST CALLVALUE PUSH2 0x13A JUMPI PUSH0 CALLDATASIZE PUSH1 0x3 NOT ADD SLT PUSH2 0x13A JUMPI PUSH1 0x20 PUSH1 0x40 MLOAD PUSH32 0x0 DUP2 MSTORE RETURN JUMPDEST CALLVALUE PUSH2 0x13A JUMPI PUSH0 CALLDATASIZE PUSH1 0x3 NOT ADD SLT PUSH2 0x13A JUMPI PUSH1 0x40 MLOAD PUSH32 0x0 PUSH1 0x1 PUSH1 0x1 PUSH1 0xA0 SHL SUB AND DUP2 MSTORE PUSH1 0x20 SWAP1 RETURN JUMPDEST CALLVALUE PUSH2 0x13A JUMPI PUSH0 CALLDATASIZE PUSH1 0x3 NOT ADD SLT PUSH2 0x13A JUMPI PUSH1 0x40 MLOAD PUSH32 0x0 PUSH1 0x1 PUSH1 0x1 PUSH1 0xA0 SHL SUB AND DUP2 MSTORE PUSH1 0x20 SWAP1 RETURN JUMPDEST CALLVALUE PUSH2 0x13A JUMPI PUSH0 CALLDATASIZE PUSH1 0x3 NOT ADD SLT PUSH2 0x13A JUMPI PUSH1 0x40 MLOAD PUSH32 0x0 PUSH1 0x1 PUSH1 0x1 PUSH1 0xA0 SHL SUB AND DUP2 MSTORE PUSH1 0x20 SWAP1 RETURN JUMPDEST CALLVALUE PUSH2 0x13A JUMPI PUSH0 CALLDATASIZE PUSH1 0x3 NOT ADD SLT PUSH2 0x13A JUMPI PUSH1 0x20 PUSH1 0x40 MLOAD PUSH32 0x9D28938B56C0E8AAE8DD05E12461CBABF8F699236C3FD7C54C7D3BB9FB443ED2 DUP2 MSTORE RETURN JUMPDEST PUSH1 0x1 PUSH1 0x1 PUSH1 0xA0 SHL SUB DUP2 AND SUB PUSH2 0x13A JUMPI JUMP JUMPDEST PUSH4 0x4E487B71 PUSH1 0xE0 SHL PUSH0 MSTORE PUSH1 0x41 PUSH1 0x4 MSTORE PUSH1 0x24 PUSH0 REVERT JUMPDEST SWAP1 PUSH1 0x1F DUP1 NOT SWAP2 ADD AND DUP2 ADD SWAP1 DUP2 LT PUSH8 0xFFFFFFFFFFFFFFFF DUP3 GT OR PUSH2 0x3CC JUMPI PUSH1 0x40 MSTORE JUMP JUMPDEST PUSH2 0x396 JUMP JUMPDEST PUSH8 0xFFFFFFFFFFFFFFFF DUP2 GT PUSH2 0x3CC JUMPI PUSH1 0x5 SHL PUSH1 0x20 ADD SWAP1 JUMP JUMPDEST SWAP1 DUP1 PUSH1 0x1F DUP4 ADD SLT ISZERO PUSH2 0x13A JUMPI DUP2 CALLDATALOAD PUSH2 0x400 DUP2 PUSH2 0x3D1 JUMP JUMPDEST SWAP3 PUSH2 0x40E PUSH1 0x40 MLOAD SWAP5 DUP6 PUSH2 0x3AA JUMP JUMPDEST DUP2 DUP5 MSTORE PUSH1 0x20 DUP1 DUP6 ADD SWAP3 PUSH1 0x5 SHL DUP3 ADD ADD SWAP3 DUP4 GT PUSH2 0x13A JUMPI PUSH1 0x20 ADD SWAP1 JUMPDEST DUP3 DUP3 LT PUSH2 0x436 JUMPI POP POP POP SWAP1 JUMP JUMPDEST DUP2 CALLDATALOAD DUP2 MSTORE PUSH1 0x20 SWAP2 DUP3 ADD SWAP2 ADD PUSH2 0x429 JUMP JUMPDEST DUP2 PUSH1 0x1F DUP3 ADD SLT ISZERO PUSH2 0x13A JUMPI DUP1 CALLDATALOAD SWAP1 PUSH8 0xFFFFFFFFFFFFFFFF DUP3 GT PUSH2 0x3CC JUMPI PUSH1 0x40 MLOAD SWAP3 PUSH2 0x47B PUSH1 0x1F DUP5 ADD PUSH1 0x1F NOT AND PUSH1 0x20 ADD DUP6 PUSH2 0x3AA JUMP JUMPDEST DUP3 DUP5 MSTORE PUSH1 0x20 DUP4 DUP4 ADD ADD GT PUSH2 0x13A JUMPI DUP2 PUSH0 SWAP3 PUSH1 0x20 DUP1 SWAP4 ADD DUP4 DUP7 ADD CALLDATACOPY DUP4 ADD ADD MSTORE SWAP1 JUMP JUMPDEST CALLVALUE PUSH2 0x13A JUMPI PUSH1 0xA0 CALLDATASIZE PUSH1 0x3 NOT ADD SLT PUSH2 0x13A JUMPI PUSH1 0x4 CALLDATALOAD PUSH2 0x4B9 DUP2 PUSH2 0x385 JUMP JUMPDEST PUSH1 0x24 CALLDATALOAD SWAP1 PUSH2 0x4C6 DUP3 PUSH2 0x385 JUMP JUMPDEST PUSH1 0x44 CALLDATALOAD PUSH8 0xFFFFFFFFFFFFFFFF DUP2 GT PUSH2 0x13A JUMPI PUSH2 0x4E6 SWAP1 CALLDATASIZE SWAP1 PUSH1 0x4 ADD PUSH2 0x3E9 JUMP JUMPDEST SWAP1 PUSH1 0x64 CALLDATALOAD PUSH8 0xFFFFFFFFFFFFFFFF DUP2 GT PUSH2 0x13A JUMPI PUSH2 0x507 SWAP1 CALLDATASIZE SWAP1 PUSH1 0x4 ADD PUSH2 0x3E9 JUMP JUMPDEST PUSH1 0x84 CALLDATALOAD SWAP3 PUSH8 0xFFFFFFFFFFFFFFFF DUP5 GT PUSH2 0x13A JUMPI PUSH2 0x550 SWAP5 PUSH2 0x52F PUSH2 0x535 SWAP6 CALLDATASIZE SWAP1 PUSH1 0x4 ADD PUSH2 0x446 JUMP JUMPDEST SWAP4 PUSH2 0x75B JUMP JUMPDEST PUSH1 0x40 MLOAD PUSH1 0x1 PUSH1 0x1 PUSH1 0xE0 SHL SUB NOT SWAP1 SWAP2 AND DUP2 MSTORE SWAP1 DUP2 SWAP1 PUSH1 0x20 DUP3 ADD SWAP1 JUMP JUMPDEST SUB SWAP1 RETURN JUMPDEST CALLVALUE PUSH2 0x13A JUMPI PUSH0 PUSH1 0x40 CALLDATASIZE PUSH1 0x3 NOT ADD SLT PUSH2 0x13A JUMPI PUSH1 0x4 CALLDATALOAD PUSH2 0x572 DUP2 PUSH2 0x385 JUMP JUMPDEST PUSH1 0x24 CALLDATALOAD SWAP1 PUSH12 0xFFFFFFFFFFFFFFFFFFFFFFFF DUP3 AND DUP1 SWAP3 SUB PUSH2 0x13A JUMPI PUSH32 0x0 PUSH1 0x1 PUSH1 0x1 PUSH1 0xA0 SHL SUB AND CALLER SUB PUSH2 0x236 JUMPI PUSH32 0x0 PUSH1 0x1 PUSH1 0x1 PUSH1 0xA0 SHL SUB AND SWAP2 DUP3 EXTCODESIZE ISZERO PUSH2 0x13A JUMPI PUSH1 0x40 MLOAD PUSH4 0x75DCEBC7 PUSH1 0xE0 SHL DUP2 MSTORE PUSH1 0x1 PUSH1 0x1 PUSH1 0xA0 SHL SUB SWAP1 SWAP3 AND PUSH1 0x4 DUP4 ADD MSTORE PUSH1 0x24 DUP3 ADD MSTORE SWAP1 PUSH0 SWAP1 DUP3 SWAP1 PUSH1 0x44 SWAP1 DUP3 SWAP1 DUP5 SWAP1 GAS CALL DUP1 ISZERO PUSH2 0x231 JUMPI PUSH2 0x223 JUMPI POP DUP1 RETURN JUMPDEST CALLVALUE PUSH2 0x13A JUMPI PUSH0 CALLDATASIZE PUSH1 0x3 NOT ADD SLT PUSH2 0x13A JUMPI PUSH1 0x40 MLOAD PUSH32 0x0 PUSH1 0x1 PUSH1 0x1 PUSH1 0xA0 SHL SUB AND DUP2 MSTORE PUSH1 0x20 SWAP1 RETURN JUMPDEST CALLVALUE PUSH2 0x13A JUMPI PUSH0 CALLDATASIZE PUSH1 0x3 NOT ADD SLT PUSH2 0x13A JUMPI PUSH1 0x40 MLOAD PUSH32 0x0 PUSH1 0x1 PUSH1 0x1 PUSH1 0xA0 SHL SUB AND DUP2 MSTORE PUSH1 0x20 SWAP1 RETURN JUMPDEST CALLVALUE PUSH2 0x13A JUMPI PUSH1 0xA0 CALLDATASIZE PUSH1 0x3 NOT ADD SLT PUSH2 0x13A JUMPI PUSH2 0x6D0 PUSH1 0x4 CALLDATALOAD PUSH2 0x385 JUMP JUMPDEST PUSH1 0x24 CALLDATALOAD PUSH2 0x6DC DUP2 PUSH2 0x385 JUMP JUMPDEST PUSH1 0x44 CALLDATALOAD SWAP1 PUSH1 0x64 CALLDATALOAD PUSH1 0x84 CALLDATALOAD PUSH8 0xFFFFFFFFFFFFFFFF DUP2 GT PUSH2 0x13A JUMPI PUSH2 0x703 SWAP1 CALLDATASIZE SWAP1 PUSH1 0x4 ADD PUSH2 0x446 JUMP JUMPDEST SWAP1 PUSH32 0x0 PUSH1 0x1 PUSH1 0x1 PUSH1 0xA0 SHL SUB AND CALLER SUB PUSH2 0x741 JUMPI PUSH2 0x550 SWAP4 PUSH2 0x535 SWAP4 PUSH2 0xAE1 JUMP JUMPDEST PUSH4 0x58A7C73 PUSH1 0xE3 SHL PUSH0 MSTORE PUSH1 0x4 PUSH0 REVERT JUMPDEST PUSH1 0x40 MLOAD RETURNDATASIZE PUSH0 DUP3 RETURNDATACOPY RETURNDATASIZE SWAP1 REVERT JUMPDEST POP SWAP1 SWAP4 SWAP1 SWAP3 PUSH32 0x0 PUSH1 0x1 PUSH1 0x1 PUSH1 0xA0 SHL SUB AND SWAP3 SWAP1 SWAP2 CALLER DUP5 SWAP1 SUB PUSH2 0x741 JUMPI PUSH1 0x1 PUSH1 0x1 PUSH1 0xA0 SHL SUB DUP6 AND ISZERO PUSH2 0x8C9 JUMPI DUP6 MLOAD DUP3 MLOAD SUB PUSH2 0x8C9 JUMPI DUP6 MLOAD PUSH0 SWAP7 SWAP6 SWAP5 SWAP4 SWAP1 PUSH2 0x7BE SWAP1 PUSH2 0x8FA JUMP JUMPDEST SWAP4 PUSH0 JUMPDEST DUP8 MLOAD DUP2 LT ISZERO PUSH2 0x837 JUMPI DUP1 PUSH2 0x82C PUSH2 0x813 PUSH2 0x807 PUSH2 0x7FA DUP5 PUSH2 0x7F4 DUP15 SWAP16 SWAP14 SWAP15 SWAP13 SWAP14 PUSH2 0x7ED PUSH1 0x1 SWAP10 DUP15 PUSH2 0x952 JUMP JUMPDEST MLOAD SWAP1 PUSH2 0x97A JUMP JUMPDEST SWAP12 PUSH2 0x952 JUMP JUMPDEST MLOAD PUSH1 0x1 PUSH1 0x1 PUSH1 0xA0 SHL SUB AND SWAP1 JUMP JUMPDEST PUSH1 0x1 PUSH1 0x1 PUSH1 0xA0 SHL SUB AND SWAP1 JUMP JUMPDEST PUSH2 0x81D DUP4 DUP12 PUSH2 0x952 JUMP JUMPDEST PUSH1 0x1 PUSH1 0x1 PUSH1 0xA0 SHL SUB SWAP1 SWAP2 AND SWAP1 MSTORE JUMP JUMPDEST ADD SWAP7 SWAP6 SWAP5 SWAP8 SWAP7 PUSH2 0x7C1 JUMP JUMPDEST POP SWAP3 SWAP6 POP PUSH2 0x848 SWAP2 SWAP7 DUP2 SWAP5 SWAP6 PUSH2 0xF98 JUMP JUMPDEST DUP1 EXTCODESIZE ISZERO PUSH2 0x13A JUMPI PUSH2 0x894 SWAP4 PUSH0 DUP1 SWAP5 PUSH1 0x40 MLOAD SWAP7 DUP8 SWAP6 DUP7 SWAP5 DUP6 SWAP4 PUSH4 0x6CB498E5 PUSH1 0xE0 SHL DUP6 MSTORE PUSH32 0x0 PUSH1 0x4 DUP7 ADD PUSH2 0x9B0 JUMP JUMPDEST SUB SWAP3 GAS CALL DUP1 ISZERO PUSH2 0x231 JUMPI PUSH2 0x8AF JUMPI JUMPDEST POP PUSH4 0xBC197C81 PUSH1 0xE0 SHL SWAP1 JUMP JUMPDEST DUP1 PUSH2 0x8BD PUSH0 PUSH2 0x8C3 SWAP4 PUSH2 0x3AA JUMP JUMPDEST DUP1 PUSH2 0x13E JUMP JUMPDEST PUSH0 PUSH2 0x8A3 JUMP JUMPDEST PUSH4 0xCAC5BFFB PUSH1 0xE0 SHL PUSH0 MSTORE PUSH1 0x4 PUSH0 REVERT JUMPDEST PUSH1 0x40 DUP1 MLOAD SWAP1 SWAP2 SWAP1 PUSH2 0x8E9 DUP4 DUP3 PUSH2 0x3AA JUMP JUMPDEST PUSH1 0x1 DUP2 MSTORE SWAP2 PUSH1 0x1F NOT ADD CALLDATASIZE PUSH1 0x20 DUP5 ADD CALLDATACOPY JUMP JUMPDEST SWAP1 PUSH2 0x904 DUP3 PUSH2 0x3D1 JUMP JUMPDEST PUSH2 0x911 PUSH1 0x40 MLOAD SWAP2 DUP3 PUSH2 0x3AA JUMP JUMPDEST DUP3 DUP2 MSTORE DUP1 SWAP3 PUSH2 0x922 PUSH1 0x1F NOT SWAP2 PUSH2 0x3D1 JUMP JUMPDEST ADD SWAP1 PUSH1 0x20 CALLDATASIZE SWAP2 ADD CALLDATACOPY JUMP JUMPDEST PUSH4 0x4E487B71 PUSH1 0xE0 SHL PUSH0 MSTORE PUSH1 0x32 PUSH1 0x4 MSTORE PUSH1 0x24 PUSH0 REVERT JUMPDEST DUP1 MLOAD ISZERO PUSH2 0x94D JUMPI PUSH1 0x20 ADD SWAP1 JUMP JUMPDEST PUSH2 0x92C JUMP JUMPDEST DUP1 MLOAD DUP3 LT ISZERO PUSH2 0x94D JUMPI PUSH1 0x20 SWAP2 PUSH1 0x5 SHL ADD ADD SWAP1 JUMP JUMPDEST PUSH4 0x4E487B71 PUSH1 0xE0 SHL PUSH0 MSTORE PUSH1 0x11 PUSH1 0x4 MSTORE PUSH1 0x24 PUSH0 REVERT JUMPDEST SWAP2 SWAP1 DUP3 ADD DUP1 SWAP3 GT PUSH2 0x987 JUMPI JUMP JUMPDEST PUSH2 0x966 JUMP JUMPDEST DUP1 MLOAD DUP1 DUP4 MSTORE PUSH1 0x20 SWAP3 SWAP2 DUP2 SWAP1 DUP5 ADD DUP5 DUP5 ADD MCOPY PUSH0 DUP3 DUP3 ADD DUP5 ADD MSTORE PUSH1 0x1F ADD PUSH1 0x1F NOT AND ADD ADD SWAP1 JUMP JUMPDEST PUSH1 0x1 PUSH1 0x1 PUSH1 0xA0 SHL SUB SWAP1 SWAP2 AND DUP2 MSTORE PUSH1 0x80 PUSH1 0x20 DUP1 DUP4 ADD DUP3 SWAP1 MSTORE DUP4 MLOAD SWAP2 DUP4 ADD DUP3 SWAP1 MSTORE PUSH1 0xA0 DUP4 ADD SWAP7 SWAP6 SWAP4 ADD SWAP1 PUSH0 JUMPDEST DUP2 DUP2 LT PUSH2 0xA32 JUMPI POP POP POP DUP1 DUP6 SUB PUSH1 0x40 DUP3 ADD MSTORE PUSH1 0x20 DUP1 DUP5 MLOAD SWAP7 DUP8 DUP2 MSTORE ADD SWAP4 ADD PUSH0 SWAP6 JUMPDEST DUP1 DUP8 LT PUSH2 0xA1A JUMPI POP POP PUSH2 0xA17 SWAP4 SWAP5 POP PUSH1 0x60 DUP2 DUP5 SUB SWAP2 ADD MSTORE PUSH2 0x98C JUMP JUMPDEST SWAP1 JUMP JUMPDEST SWAP1 SWAP4 PUSH1 0x20 DUP1 PUSH1 0x1 SWAP3 DUP8 MLOAD DUP2 MSTORE ADD SWAP6 ADD SWAP7 ADD SWAP6 SWAP1 PUSH2 0x9FB JUMP JUMPDEST DUP3 MLOAD PUSH1 0x1 PUSH1 0x1 PUSH1 0xA0 SHL SUB AND DUP9 MSTORE PUSH1 0x20 SWAP8 DUP9 ADD SWAP8 SWAP1 SWAP3 ADD SWAP2 PUSH1 0x1 ADD PUSH2 0x9DA JUMP JUMPDEST SWAP1 DUP2 PUSH1 0x20 SWAP2 SUB SLT PUSH2 0x13A JUMPI MLOAD SWAP1 JUMP JUMPDEST PUSH0 NOT DUP2 ADD SWAP2 SWAP1 DUP3 GT PUSH2 0x987 JUMPI JUMP JUMPDEST SWAP2 SWAP1 DUP3 SUB SWAP2 DUP3 GT PUSH2 0x987 JUMPI JUMP JUMPDEST SWAP1 DUP2 PUSH1 0x20 SWAP2 SUB SLT PUSH2 0x13A JUMPI MLOAD PUSH2 0xA17 DUP2 PUSH2 0x385 JUMP JUMPDEST SWAP1 DUP2 PUSH1 0x20 SWAP2 SUB SLT PUSH2 0x13A JUMPI MLOAD DUP1 ISZERO ISZERO DUP2 SUB PUSH2 0x13A JUMPI SWAP1 JUMP JUMPDEST PUSH1 0x1 PUSH1 0x1 PUSH1 0xA0 SHL SUB SWAP2 DUP3 AND DUP2 MSTORE SWAP2 AND PUSH1 0x20 DUP3 ADD MSTORE PUSH1 0x40 DUP2 ADD SWAP2 SWAP1 SWAP2 MSTORE PUSH1 0x60 DUP2 ADD SWAP2 SWAP1 SWAP2 MSTORE PUSH1 0xA0 PUSH1 0x80 DUP3 ADD DUP2 SWAP1 MSTORE PUSH2 0xA17 SWAP3 SWAP2 ADD SWAP1 PUSH2 0x98C JUMP JUMPDEST SWAP1 SWAP3 SWAP1 PUSH1 0x1 PUSH1 0x1 PUSH1 0xA0 SHL SUB DUP2 AND ISZERO PUSH2 0xBD4 JUMPI DUP2 DUP4 PUSH2 0xAFE SWAP3 PUSH2 0xF98 JUMP JUMPDEST PUSH2 0xB06 PUSH2 0x8D8 JUMP JUMPDEST SWAP2 PUSH2 0xB25 PUSH2 0xB12 PUSH2 0x8D8 JUMP JUMPDEST SWAP5 PUSH1 0x1 PUSH1 0x1 PUSH1 0xA0 SHL SUB AND PUSH2 0x81D DUP6 PUSH2 0x940 JUMP JUMPDEST PUSH2 0xB2E DUP5 PUSH2 0x940 JUMP JUMPDEST MSTORE PUSH32 0x0 PUSH1 0x1 PUSH1 0x1 PUSH1 0xA0 SHL SUB AND DUP1 EXTCODESIZE ISZERO PUSH2 0x13A JUMPI PUSH2 0xBA5 SWAP4 PUSH0 DUP1 SWAP5 PUSH1 0x40 MLOAD SWAP7 DUP8 SWAP6 DUP7 SWAP5 DUP6 SWAP4 PUSH4 0x6CB498E5 PUSH1 0xE0 SHL DUP6 MSTORE PUSH32 0x0 PUSH1 0x4 DUP7 ADD PUSH2 0x9B0 JUMP JUMPDEST SUB SWAP3 GAS CALL DUP1 ISZERO PUSH2 0x231 JUMPI PUSH2 0xBC0 JUMPI JUMPDEST POP PUSH4 0xF23A6E61 PUSH1 0xE0 SHL SWAP1 JUMP JUMPDEST DUP1 PUSH2 0x8BD PUSH0 PUSH2 0xBCE SWAP4 PUSH2 0x3AA JUMP JUMPDEST PUSH0 PUSH2 0xBB4 JUMP JUMPDEST POP PUSH0 MLOAD PUSH1 0x20 PUSH2 0x1134 PUSH0 CODECOPY PUSH0 MLOAD SWAP1 PUSH0 MSTORE TLOAD SWAP3 PUSH0 MLOAD PUSH1 0x20 PUSH2 0x1154 PUSH0 CODECOPY PUSH0 MLOAD SWAP1 PUSH0 MSTORE TLOAD SWAP3 PUSH32 0x6136ADCD727E05279D0BEB0B97407672ABC1607384D66AEC4A65A09DAA5BBA68 TLOAD SWAP3 SWAP2 DUP5 SWAP2 DUP3 EQ SWAP1 DUP2 PUSH2 0xF6E JUMPI JUMPDEST POP ISZERO PUSH2 0x8C9 JUMPI PUSH2 0xC32 PUSH2 0x10CA JUMP JUMPDEST DUP5 PUSH2 0xD0F JUMPI POP PUSH32 0x0 PUSH1 0x1 PUSH1 0x1 PUSH1 0xA0 SHL SUB AND DUP1 EXTCODESIZE ISZERO PUSH2 0x13A JUMPI PUSH1 0x40 MLOAD PUSH4 0x79212195 PUSH1 0xE1 SHL DUP2 MSTORE SWAP2 PUSH0 SWAP2 DUP4 SWAP2 DUP3 SWAP1 DUP5 SWAP1 DUP3 SWAP1 PUSH2 0xCB2 SWAP1 DUP11 PUSH32 0x0 DUP12 ADDRESS PUSH1 0x4 DUP8 ADD PUSH2 0xAA8 JUMP JUMPDEST SUB SWAP3 GAS CALL DUP1 ISZERO PUSH2 0x231 JUMPI PUSH2 0xCFB JUMPI JUMPDEST POP JUMPDEST PUSH1 0x1 PUSH1 0x1 PUSH1 0xA0 SHL SUB AND PUSH32 0x4442AF9FC0F6466CEA71A55E8CAE87EF09853F682DC82B362E4C8981944AFA39 PUSH0 DUP1 LOG4 PUSH4 0xF23A6E61 PUSH1 0xE0 SHL SWAP1 JUMP JUMPDEST DUP1 PUSH2 0x8BD PUSH0 PUSH2 0xD09 SWAP4 PUSH2 0x3AA JUMP JUMPDEST PUSH0 PUSH2 0xCC1 JUMP JUMPDEST SWAP3 POP POP PUSH1 0x1 DUP4 SUB PUSH2 0xF48 JUMPI PUSH32 0x0 JUMPDEST PUSH1 0x40 MLOAD PUSH4 0x70A08231 PUSH1 0xE0 SHL DUP2 MSTORE ADDRESS PUSH1 0x4 DUP3 ADD MSTORE PUSH1 0x1 PUSH1 0x1 PUSH1 0xA0 SHL SUB SWAP2 SWAP1 SWAP2 AND SWAP3 PUSH1 0x20 DUP3 PUSH1 0x24 DUP2 DUP8 GAS STATICCALL SWAP2 DUP3 ISZERO PUSH2 0x231 JUMPI PUSH0 SWAP3 PUSH2 0xF22 JUMPI JUMPDEST POP PUSH1 0x20 PUSH2 0xDE4 SWAP2 PUSH2 0xD8C PUSH2 0xD86 DUP9 PUSH2 0xA60 JUMP JUMPDEST PUSH1 0xFF AND SWAP1 JUMP JUMPDEST PUSH1 0x40 MLOAD PUSH4 0x2AAF5A55 PUSH1 0xE2 SHL DUP2 MSTORE PUSH1 0x1 PUSH1 0x1 PUSH1 0xA0 SHL SUB PUSH32 0x0 AND PUSH1 0x4 DUP3 ADD MSTORE PUSH1 0x24 DUP2 ADD SWAP3 SWAP1 SWAP3 MSTORE PUSH1 0xFF AND PUSH1 0x44 DUP3 ADD MSTORE SWAP2 DUP3 SWAP1 DUP2 SWAP1 PUSH1 0x64 DUP3 ADD SWAP1 JUMP JUMPDEST SUB DUP2 PUSH0 PUSH32 0x0 PUSH1 0x1 PUSH1 0x1 PUSH1 0xA0 SHL SUB AND GAS CALL DUP1 ISZERO PUSH2 0x231 JUMPI PUSH2 0xEF5 JUMPI JUMPDEST POP PUSH1 0x40 MLOAD PUSH4 0x70A08231 PUSH1 0xE0 SHL DUP2 MSTORE ADDRESS PUSH1 0x4 DUP3 ADD MSTORE SWAP1 PUSH1 0x20 DUP3 PUSH1 0x24 DUP2 DUP8 GAS STATICCALL DUP1 ISZERO PUSH2 0x231 JUMPI PUSH2 0xE53 SWAP3 PUSH0 SWAP2 PUSH2 0xEC6 JUMPI JUMPDEST POP PUSH2 0xA6E JUMP JUMPDEST PUSH1 0x40 MLOAD PUSH4 0xA9059CBB PUSH1 0xE0 SHL DUP2 MSTORE PUSH1 0x1 PUSH1 0x1 PUSH1 0xA0 SHL SUB DUP4 AND PUSH1 0x4 DUP3 ADD MSTORE PUSH1 0x24 DUP2 ADD DUP3 SWAP1 MSTORE SWAP1 SWAP3 PUSH1 0x20 SWAP1 DUP3 SWAP1 PUSH1 0x44 SWAP1 DUP3 SWAP1 PUSH0 SWAP1 GAS CALL DUP1 ISZERO PUSH2 0x231 JUMPI PUSH2 0xE97 JUMPI JUMPDEST POP PUSH2 0xCC3 JUMP JUMPDEST PUSH2 0xEB8 SWAP1 PUSH1 0x20 RETURNDATASIZE PUSH1 0x20 GT PUSH2 0xEBF JUMPI JUMPDEST PUSH2 0xEB0 DUP2 DUP4 PUSH2 0x3AA JUMP JUMPDEST DUP2 ADD SWAP1 PUSH2 0xA90 JUMP JUMPDEST POP PUSH0 PUSH2 0xE91 JUMP JUMPDEST POP RETURNDATASIZE PUSH2 0xEA6 JUMP JUMPDEST PUSH2 0xEE8 SWAP2 POP PUSH1 0x20 RETURNDATASIZE PUSH1 0x20 GT PUSH2 0xEEE JUMPI JUMPDEST PUSH2 0xEE0 DUP2 DUP4 PUSH2 0x3AA JUMP JUMPDEST DUP2 ADD SWAP1 PUSH2 0xA51 JUMP JUMPDEST PUSH0 PUSH2 0xE4D JUMP JUMPDEST POP RETURNDATASIZE PUSH2 0xED6 JUMP JUMPDEST PUSH2 0xF16 SWAP1 PUSH1 0x20 RETURNDATASIZE PUSH1 0x20 GT PUSH2 0xF1B JUMPI JUMPDEST PUSH2 0xF0E DUP2 DUP4 PUSH2 0x3AA JUMP JUMPDEST DUP2 ADD SWAP1 PUSH2 0xA7B JUMP JUMPDEST PUSH2 0xE1E JUMP JUMPDEST POP RETURNDATASIZE PUSH2 0xF04 JUMP JUMPDEST PUSH2 0xDE4 SWAP2 SWAP3 POP PUSH2 0xF40 PUSH1 0x20 SWAP2 DUP3 RETURNDATASIZE DUP5 GT PUSH2 0xEEE JUMPI PUSH2 0xEE0 DUP2 DUP4 PUSH2 0x3AA JUMP JUMPDEST SWAP3 SWAP2 POP PUSH2 0xD73 JUMP JUMPDEST PUSH32 0x0 PUSH2 0xD3C JUMP JUMPDEST SWAP1 POP PUSH32 0x0 EQ PUSH0 PUSH2 0xC24 JUMP JUMPDEST PUSH0 SWAP3 DUP3 ISZERO PUSH2 0x10BB JUMPI PUSH0 MLOAD PUSH1 0x20 PUSH2 0x1154 PUSH0 CODECOPY PUSH0 MLOAD SWAP1 PUSH0 MSTORE TLOAD ISZERO PUSH2 0xFC3 JUMPI PUSH4 0xA896A065 PUSH1 0xE0 SHL PUSH0 MSTORE PUSH1 0x4 PUSH0 REVERT JUMPDEST DUP3 PUSH0 MLOAD PUSH1 0x20 PUSH2 0x1154 PUSH0 CODECOPY PUSH0 MLOAD SWAP1 PUSH0 MSTORE TSTORE DUP2 PUSH32 0x6136ADCD727E05279D0BEB0B97407672ABC1607384D66AEC4A65A09DAA5BBA68 TSTORE PUSH1 0x1F DUP2 MLOAD GT PUSH2 0x1030 JUMPI JUMPDEST POP PUSH1 0x1 PUSH1 0x1 PUSH1 0xA0 SHL SUB AND PUSH32 0xA4466AA34AD627877204336E07A065A4DA68FB136D84533A7B17290B86154DE9 PUSH0 DUP1 LOG4 JUMP JUMPDEST PUSH1 0x20 ADD MLOAD DUP1 PUSH32 0xF3F5858942140FD2894EEB8B74CD0ED72D24FC6675D352A2884B1BE2F32256FE EQ PUSH2 0x10A1 JUMPI PUSH32 0x9D28938B56C0E8AAE8DD05E12461CBABF8F699236C3FD7C54C7D3BB9FB443ED2 EQ PUSH2 0x1088 JUMPI JUMPDEST PUSH0 PUSH2 0x1000 JUMP JUMPDEST PUSH1 0x2 SWAP3 POP DUP3 PUSH0 MLOAD PUSH1 0x20 PUSH2 0x1134 PUSH0 CODECOPY PUSH0 MLOAD SWAP1 PUSH0 MSTORE TSTORE PUSH2 0x1082 JUMP JUMPDEST POP PUSH1 0x1 SWAP3 POP DUP3 PUSH0 MLOAD PUSH1 0x20 PUSH2 0x1134 PUSH0 CODECOPY PUSH0 MLOAD SWAP1 PUSH0 MSTORE TSTORE PUSH2 0x1082 JUMP JUMPDEST PUSH4 0x3402A163 PUSH1 0xE0 SHL PUSH0 MSTORE PUSH1 0x4 PUSH0 REVERT JUMPDEST PUSH0 PUSH0 MLOAD PUSH1 0x20 PUSH2 0x1154 PUSH0 CODECOPY PUSH0 MLOAD SWAP1 PUSH0 MSTORE TSTORE PUSH0 PUSH32 0x6136ADCD727E05279D0BEB0B97407672ABC1607384D66AEC4A65A09DAA5BBA68 TSTORE PUSH0 PUSH0 MLOAD PUSH1 0x20 PUSH2 0x1134 PUSH0 CODECOPY PUSH0 MLOAD SWAP1 PUSH0 MSTORE TSTORE PUSH32 0x1992EF760E9F09C8C806016548A62B7FD11268379C371A730A1A06D621F002DC PUSH0 DUP1 LOG1 JUMP INVALID 0xCD 0xA7 ISZERO CALLER 0xCD STATICCALL GT 0xDC INVALID DUP7 SAR 0xBF LOG3 DUP12 SWAP6 PUSH13 0x85D855F8E75C6728C650AC844F 0x4F 0xD4 PUSH31 0xFB747A744F99E39F75C6FC4A40AE1E72605F4D4A2AA65E5E3D29E889D7F506 SHL LOG2 PUSH5 0x6970667358 0x22 SLT KECCAK256 CALLCODE 0xCC SELFDESTRUCT 0xC9 CALL 0xE2 0xC3 JUMPI MULMOD PUSH24 0x6C152951330582B65687874B48D1C8E0C93988DDDF386473 PUSH16 0x6C634300081C0033A264697066735822 SLT KECCAK256 SUB PUSH27 0xDB3B3D73B975451D78B6C0B4ADB7A62D611E36BAB040D122665597 0xA9 0xCC PUSH4 0x64736F6C PUSH4 0x4300081C STOP CALLER "},"methodIdentifiers":{"createTrustFund(address,address,address,address,address[],string,string,bytes32,address,address,uint96,uint8,address)":"cbedba16","deployedByFactory(address)":"de87aeeb"}}}}}