{"sol/implementations/TrustedByFour.sol":{"IsHumanAtLeastFourTrustsCondition":{"abi":[{"inputs":[{"components":[{"internalType":"contract IHub","name":"hub","type":"address"},{"internalType":"contract IStandardTreasury","name":"standardTreasury","type":"address"},{"internalType":"contract INameRegistryExtended","name":"nameRegistry","type":"address"},{"internalType":"contract IERC20Lift","name":"erc20Lift","type":"address"}],"internalType":"struct CirclesCoreAddresses.CirclesCore","name":"_circlesCore","type":"tuple"}],"stateMutability":"nonpayable","type":"constructor"},{"inputs":[],"name":"circlesCore","outputs":[{"internalType":"contract IHub","name":"hub","type":"address"},{"internalType":"contract IStandardTreasury","name":"standardTreasury","type":"address"},{"internalType":"contract INameRegistryExtended","name":"nameRegistry","type":"address"},{"internalType":"contract IERC20Lift","name":"erc20Lift","type":"address"}],"stateMutability":"view","type":"function"},{"inputs":[{"internalType":"address","name":"_avatar","type":"address"}],"name":"passesMembershipCondition","outputs":[{"internalType":"bool","name":"","type":"bool"}],"stateMutability":"nonpayable","type":"function"}],"evm":{"bytecode":{"linkReferences":{},"object":"60806040523461011a57604051601f61041e38819003918201601f19168301916001600160401b0383118484101761011e5780849260809460405283398101031261011a5760405190608082016001600160401b0381118382101761011e5760405280516001600160a01b0381169081810361011a57835260208201516001600160a01b038116919082810361011a57602085015260408301516001600160a01b0381169384820361011a576040860191909152606001516001600160a01b0381169485820361011a576060015260018060a01b03195f5416175f5560018060a01b0319600154161760015560018060a01b0319600254161760025560018060a01b031960035416176003556040516102eb90816101338239f35b5f80fd5b634e487b7160e01b5f52604160045260245ffdfe60806040526004361015610011575f80fd5b5f3560e01c8063cf3838e11461007e5763fafb27d71461002f575f80fd5b3461007a575f36600319011261007a575f54600154600254600354604080516001600160a01b0395861681529385166020850152918416918301919091529091166060820152608090f35b5f80fd5b3461007a57602036600319011261007a576004356001600160a01b038116810361007a576100ad6020916100ed565b6040519015158152f35b90601f8019910116810190811067ffffffffffffffff8211176100d957604052565b634e487b7160e01b5f52604160045260245ffd5b60405163c45ea8cd60e01b81525f81600481335afa9081156101f0575f9161020a575b506004815110610203575f905f5b81518110156101fb575f80546020600584901b85018101516040516306713e2360e41b81526001600160a01b039182166004820152888216602482015293919284926044928492165af19081156101f0575f916101b6575b50610184575b60010161011e565b915f1981146101a257600101916004831061017c5750505050600190565b634e487b7160e01b5f52601160045260245ffd5b90506020813d82116101e8575b816101d0602093836100b7565b8101031261007a5751801515810361007a575f610176565b3d91506101c3565b6040513d5f823e3d90fd5b505050505f90565b5050600190565b90503d805f833e61021b81836100b7565b81019060208183031261007a5780519067ffffffffffffffff821161007a570181601f8201121561007a5780519167ffffffffffffffff83116100d9578260051b916040519361026e60208501866100b7565b845260208085019382010191821161007a57602001915b818310610295575050505f610110565b82516001600160a01b038116810361007a5781526020928301920161028556fea264697066735822122097a17163cf7a39c036535a3ad3f612058d7ebff1cd8b5f16386a4c8ce86ad05064736f6c634300081c0033","opcodes":"PUSH1 0x80 PUSH1 0x40 MSTORE CALLVALUE PUSH2 0x11A JUMPI PUSH1 0x40 MLOAD PUSH1 0x1F PUSH2 0x41E CODESIZE DUP2 SWAP1 SUB SWAP2 DUP3 ADD PUSH1 0x1F NOT AND DUP4 ADD SWAP2 PUSH1 0x1 PUSH1 0x1 PUSH1 0x40 SHL SUB DUP4 GT DUP5 DUP5 LT OR PUSH2 0x11E JUMPI DUP1 DUP5 SWAP3 PUSH1 0x80 SWAP5 PUSH1 0x40 MSTORE DUP4 CODECOPY DUP2 ADD SUB SLT PUSH2 0x11A JUMPI PUSH1 0x40 MLOAD SWAP1 PUSH1 0x80 DUP3 ADD PUSH1 0x1 PUSH1 0x1 PUSH1 0x40 SHL SUB DUP2 GT DUP4 DUP3 LT OR PUSH2 0x11E JUMPI PUSH1 0x40 MSTORE DUP1 MLOAD PUSH1 0x1 PUSH1 0x1 PUSH1 0xA0 SHL SUB DUP2 AND SWAP1 DUP2 DUP2 SUB PUSH2 0x11A JUMPI DUP4 MSTORE PUSH1 0x20 DUP3 ADD MLOAD PUSH1 0x1 PUSH1 0x1 PUSH1 0xA0 SHL SUB DUP2 AND SWAP2 SWAP1 DUP3 DUP2 SUB PUSH2 0x11A JUMPI PUSH1 0x20 DUP6 ADD MSTORE PUSH1 0x40 DUP4 ADD MLOAD PUSH1 0x1 PUSH1 0x1 PUSH1 0xA0 SHL SUB DUP2 AND SWAP4 DUP5 DUP3 SUB PUSH2 0x11A JUMPI PUSH1 0x40 DUP7 ADD SWAP2 SWAP1 SWAP2 MSTORE PUSH1 0x60 ADD MLOAD PUSH1 0x1 PUSH1 0x1 PUSH1 0xA0 SHL SUB DUP2 AND SWAP5 DUP6 DUP3 SUB PUSH2 0x11A JUMPI PUSH1 0x60 ADD MSTORE PUSH1 0x1 DUP1 PUSH1 0xA0 SHL SUB NOT PUSH0 SLOAD AND OR PUSH0 SSTORE PUSH1 0x1 DUP1 PUSH1 0xA0 SHL SUB NOT PUSH1 0x1 SLOAD AND OR PUSH1 0x1 SSTORE PUSH1 0x1 DUP1 PUSH1 0xA0 SHL SUB NOT PUSH1 0x2 SLOAD AND OR PUSH1 0x2 SSTORE PUSH1 0x1 DUP1 PUSH1 0xA0 SHL SUB NOT PUSH1 0x3 SLOAD AND OR PUSH1 0x3 SSTORE PUSH1 0x40 MLOAD PUSH2 0x2EB SWAP1 DUP2 PUSH2 0x133 DUP3 CODECOPY RETURN JUMPDEST PUSH0 DUP1 REVERT JUMPDEST PUSH4 0x4E487B71 PUSH1 0xE0 SHL PUSH0 MSTORE PUSH1 0x41 PUSH1 0x4 MSTORE PUSH1 0x24 PUSH0 REVERT INVALID PUSH1 0x80 PUSH1 0x40 MSTORE PUSH1 0x4 CALLDATASIZE LT ISZERO PUSH2 0x11 JUMPI PUSH0 DUP1 REVERT JUMPDEST PUSH0 CALLDATALOAD PUSH1 0xE0 SHR DUP1 PUSH4 0xCF3838E1 EQ PUSH2 0x7E JUMPI PUSH4 0xFAFB27D7 EQ PUSH2 0x2F JUMPI PUSH0 DUP1 REVERT JUMPDEST CALLVALUE PUSH2 0x7A JUMPI PUSH0 CALLDATASIZE PUSH1 0x3 NOT ADD SLT PUSH2 0x7A JUMPI PUSH0 SLOAD PUSH1 0x1 SLOAD PUSH1 0x2 SLOAD PUSH1 0x3 SLOAD PUSH1 0x40 DUP1 MLOAD PUSH1 0x1 PUSH1 0x1 PUSH1 0xA0 SHL SUB SWAP6 DUP7 AND DUP2 MSTORE SWAP4 DUP6 AND PUSH1 0x20 DUP6 ADD MSTORE SWAP2 DUP5 AND SWAP2 DUP4 ADD SWAP2 SWAP1 SWAP2 MSTORE SWAP1 SWAP2 AND PUSH1 0x60 DUP3 ADD MSTORE PUSH1 0x80 SWAP1 RETURN JUMPDEST PUSH0 DUP1 REVERT JUMPDEST CALLVALUE PUSH2 0x7A JUMPI PUSH1 0x20 CALLDATASIZE PUSH1 0x3 NOT ADD SLT PUSH2 0x7A JUMPI PUSH1 0x4 CALLDATALOAD PUSH1 0x1 PUSH1 0x1 PUSH1 0xA0 SHL SUB DUP2 AND DUP2 SUB PUSH2 0x7A JUMPI PUSH2 0xAD PUSH1 0x20 SWAP2 PUSH2 0xED JUMP JUMPDEST PUSH1 0x40 MLOAD SWAP1 ISZERO ISZERO DUP2 MSTORE RETURN JUMPDEST SWAP1 PUSH1 0x1F DUP1 NOT SWAP2 ADD AND DUP2 ADD SWAP1 DUP2 LT PUSH8 0xFFFFFFFFFFFFFFFF DUP3 GT OR PUSH2 0xD9 JUMPI PUSH1 0x40 MSTORE JUMP JUMPDEST PUSH4 0x4E487B71 PUSH1 0xE0 SHL PUSH0 MSTORE PUSH1 0x41 PUSH1 0x4 MSTORE PUSH1 0x24 PUSH0 REVERT JUMPDEST PUSH1 0x40 MLOAD PUSH4 0xC45EA8CD PUSH1 0xE0 SHL DUP2 MSTORE PUSH0 DUP2 PUSH1 0x4 DUP2 CALLER GAS STATICCALL SWAP1 DUP2 ISZERO PUSH2 0x1F0 JUMPI PUSH0 SWAP2 PUSH2 0x20A JUMPI JUMPDEST POP PUSH1 0x4 DUP2 MLOAD LT PUSH2 0x203 JUMPI PUSH0 SWAP1 PUSH0 JUMPDEST DUP2 MLOAD DUP2 LT ISZERO PUSH2 0x1FB JUMPI PUSH0 DUP1 SLOAD PUSH1 0x20 PUSH1 0x5 DUP5 SWAP1 SHL DUP6 ADD DUP2 ADD MLOAD PUSH1 0x40 MLOAD PUSH4 0x6713E23 PUSH1 0xE4 SHL DUP2 MSTORE PUSH1 0x1 PUSH1 0x1 PUSH1 0xA0 SHL SUB SWAP2 DUP3 AND PUSH1 0x4 DUP3 ADD MSTORE DUP9 DUP3 AND PUSH1 0x24 DUP3 ADD MSTORE SWAP4 SWAP2 SWAP3 DUP5 SWAP3 PUSH1 0x44 SWAP3 DUP5 SWAP3 AND GAS CALL SWAP1 DUP2 ISZERO PUSH2 0x1F0 JUMPI PUSH0 SWAP2 PUSH2 0x1B6 JUMPI JUMPDEST POP PUSH2 0x184 JUMPI JUMPDEST PUSH1 0x1 ADD PUSH2 0x11E JUMP JUMPDEST SWAP2 PUSH0 NOT DUP2 EQ PUSH2 0x1A2 JUMPI PUSH1 0x1 ADD SWAP2 PUSH1 0x4 DUP4 LT PUSH2 0x17C JUMPI POP POP POP POP PUSH1 0x1 SWAP1 JUMP JUMPDEST PUSH4 0x4E487B71 PUSH1 0xE0 SHL PUSH0 MSTORE PUSH1 0x11 PUSH1 0x4 MSTORE PUSH1 0x24 PUSH0 REVERT JUMPDEST SWAP1 POP PUSH1 0x20 DUP2 RETURNDATASIZE DUP3 GT PUSH2 0x1E8 JUMPI JUMPDEST DUP2 PUSH2 0x1D0 PUSH1 0x20 SWAP4 DUP4 PUSH2 0xB7 JUMP JUMPDEST DUP2 ADD SUB SLT PUSH2 0x7A JUMPI MLOAD DUP1 ISZERO ISZERO DUP2 SUB PUSH2 0x7A JUMPI PUSH0 PUSH2 0x176 JUMP JUMPDEST RETURNDATASIZE SWAP2 POP PUSH2 0x1C3 JUMP JUMPDEST PUSH1 0x40 MLOAD RETURNDATASIZE PUSH0 DUP3 RETURNDATACOPY RETURNDATASIZE SWAP1 REVERT JUMPDEST POP POP POP POP PUSH0 SWAP1 JUMP JUMPDEST POP POP PUSH1 0x1 SWAP1 JUMP JUMPDEST SWAP1 POP RETURNDATASIZE DUP1 PUSH0 DUP4 RETURNDATACOPY PUSH2 0x21B DUP2 DUP4 PUSH2 0xB7 JUMP JUMPDEST DUP2 ADD SWAP1 PUSH1 0x20 DUP2 DUP4 SUB SLT PUSH2 0x7A JUMPI DUP1 MLOAD SWAP1 PUSH8 0xFFFFFFFFFFFFFFFF DUP3 GT PUSH2 0x7A JUMPI ADD DUP2 PUSH1 0x1F DUP3 ADD SLT ISZERO PUSH2 0x7A JUMPI DUP1 MLOAD SWAP2 PUSH8 0xFFFFFFFFFFFFFFFF DUP4 GT PUSH2 0xD9 JUMPI DUP3 PUSH1 0x5 SHL SWAP2 PUSH1 0x40 MLOAD SWAP4 PUSH2 0x26E PUSH1 0x20 DUP6 ADD DUP7 PUSH2 0xB7 JUMP JUMPDEST DUP5 MSTORE PUSH1 0x20 DUP1 DUP6 ADD SWAP4 DUP3 ADD ADD SWAP2 DUP3 GT PUSH2 0x7A JUMPI PUSH1 0x20 ADD SWAP2 JUMPDEST DUP2 DUP4 LT PUSH2 0x295 JUMPI POP POP POP PUSH0 PUSH2 0x110 JUMP JUMPDEST DUP3 MLOAD PUSH1 0x1 PUSH1 0x1 PUSH1 0xA0 SHL SUB DUP2 AND DUP2 SUB PUSH2 0x7A JUMPI DUP2 MSTORE PUSH1 0x20 SWAP3 DUP4 ADD SWAP3 ADD PUSH2 0x285 JUMP INVALID LOG2 PUSH5 0x6970667358 0x22 SLT KECCAK256 SWAP8 LOG1 PUSH18 0x63CF7A39C036535A3AD3F612058D7EBFF1CD DUP12 PUSH0 AND CODESIZE PUSH11 0x4C8CE86AD05064736F6C63 NUMBER STOP ADDMOD SHR STOP CALLER "},"methodIdentifiers":{"circlesCore()":"fafb27d7","passesMembershipCondition(address)":"cf3838e1"}}}}}