{"sol/base-group/BaseTreasury.sol":{"BaseTreasury":{"abi":[{"inputs":[{"internalType":"address","name":"_hub","type":"address"},{"internalType":"address","name":"_nameRegistry","type":"address"},{"internalType":"address","name":"_group","type":"address"},{"internalType":"string","name":"_groupName","type":"string"},{"internalType":"bytes32","name":"_metadataDigest","type":"bytes32"}],"stateMutability":"nonpayable","type":"constructor"},{"inputs":[],"name":"CollateralIsNotTrustedByGroup","type":"error"},{"inputs":[],"name":"OnlyGroup","type":"error"},{"inputs":[],"name":"OnlyHub","type":"error"},{"inputs":[],"name":"GROUP","outputs":[{"internalType":"address","name":"","type":"address"}],"stateMutability":"view","type":"function"},{"inputs":[],"name":"HUB","outputs":[{"internalType":"contract IHub","name":"","type":"address"}],"stateMutability":"view","type":"function"},{"inputs":[],"name":"NAME_REGISTRY","outputs":[{"internalType":"contract INameRegistry","name":"","type":"address"}],"stateMutability":"view","type":"function"},{"inputs":[],"name":"burn","outputs":[],"stateMutability":"nonpayable","type":"function"},{"inputs":[{"internalType":"address","name":"","type":"address"},{"internalType":"address","name":"","type":"address"},{"internalType":"uint256[]","name":"_ids","type":"uint256[]"},{"internalType":"uint256[]","name":"","type":"uint256[]"},{"internalType":"bytes","name":"","type":"bytes"}],"name":"onERC1155BatchReceived","outputs":[{"internalType":"bytes4","name":"","type":"bytes4"}],"stateMutability":"nonpayable","type":"function"},{"inputs":[{"internalType":"address","name":"","type":"address"},{"internalType":"address","name":"","type":"address"},{"internalType":"uint256","name":"_id","type":"uint256"},{"internalType":"uint256","name":"","type":"uint256"},{"internalType":"bytes","name":"","type":"bytes"}],"name":"onERC1155Received","outputs":[{"internalType":"bytes4","name":"","type":"bytes4"}],"stateMutability":"nonpayable","type":"function"},{"inputs":[{"internalType":"bytes4","name":"interfaceId","type":"bytes4"}],"name":"supportsInterface","outputs":[{"internalType":"bool","name":"","type":"bool"}],"stateMutability":"view","type":"function"},{"inputs":[{"internalType":"bytes32","name":"_metadataDigest","type":"bytes32"}],"name":"updateMetadataDigest","outputs":[],"stateMutability":"nonpayable","type":"function"}],"evm":{"bytecode":{"linkReferences":{},"object":"60e08060405234610279575f610a8a803803809161001d8286610291565b843982019160a08184031261027957610035816102b4565b92610042602083016102b4565b9361004f604084016102b4565b60608401519095906001600160401b03811161027957840183601f82011215610279578051946001600160401b03861161027d576040519561009b601f8201601f191660200188610291565b808752602087019560208285010111610279576020815f928260809601895e8801015201519160018060a01b031660805260018060a01b031660a0528460c05261011360096020604051809582820197518091895e8101682d747265617375727960b81b838201520301601619810185520183610291565b6080516001600160a01b0316803b15610279575f9283606460405180978196829563bfde380d60e01b8452604060048501525180928160448601528585015e82820184018590526024830152601f01601f191681010301925af1801561026e5761025b575b50608051909182916001600160a01b0316803b15610257576040516375dcebc760e01b81526001600160a01b0390921660048301526001600160601b0360248301529091908290604490829084905af1801561024c57610234575b6040516107c190816102c9823960805181818160bc0152818161022b01528181610292015281816105a9015261067a015260a0518181816102d70152610366015260c051818181610173015281816103360152818161057f015261069f0152f35b61023f828092610291565b61024957806101d3565b80fd5b6040513d84823e3d90fd5b5050fd5b61026791505f90610291565b5f5f610178565b6040513d5f823e3d90fd5b5f80fd5b634e487b7160e01b5f52604160045260245ffd5b601f909101601f19168101906001600160401b0382119082101761027d57604052565b51906001600160a01b03821682036102795756fe6080806040526004361015610012575f80fd5b5f905f3560e01c90816301ffc9a7146103ef575080633857d9d71461032257806344df8e7014610306578063a05c2616146102c1578063a4c52b861461027c578063bc197c81146101a2578063e532b61d1461015d5763f23a6e6114610076575f80fd5b3461015a5760a036600319011261015a5761008f610442565b50610098610458565b5060843567ffffffffffffffff8111610158576100b990369060040161050d565b507f00000000000000000000000000000000000000000000000000000000000000006001600160a01b03163303610149576040516100f860408261046e565b600181526020808201903682378151156101355761011b92506044359052610670565b610123610563565b60405163f23a6e6160e01b8152602090f35b634e487b7160e01b83526032600452602483fd5b63058a7c7360e31b8152600490fd5b505b80fd5b503461015a578060031936011261015a576040517f00000000000000000000000000000000000000000000000000000000000000006001600160a01b03168152602090f35b503461015a5760a036600319011261015a576101bc610442565b506101c5610458565b5060443567ffffffffffffffff8111610158576101e69036906004016104a4565b9060643567ffffffffffffffff8111610158576102079036906004016104a4565b5060843567ffffffffffffffff81116101585761022890369060040161050d565b507f00000000000000000000000000000000000000000000000000000000000000006001600160a01b031633036101495761026282610670565b61026a610563565b60405163bc197c8160e01b8152602090f35b503461015a578060031936011261015a576040517f00000000000000000000000000000000000000000000000000000000000000006001600160a01b03168152602090f35b503461015a578060031936011261015a576040517f00000000000000000000000000000000000000000000000000000000000000006001600160a01b03168152602090f35b503461015a578060031936011261015a5761031f610563565b80f35b50346103dc5760203660031901126103dc577f00000000000000000000000000000000000000000000000000000000000000006001600160a01b031633036103e0577f00000000000000000000000000000000000000000000000000000000000000006001600160a01b0316803b156103dc575f8091602460405180948193633857d9d760e01b835260043560048401525af180156103d1576103c3575080f35b6103cf91505f9061046e565b005b6040513d5f823e3d90fd5b5f80fd5b636346b2b760e01b5f5260045ffd5b346103dc5760203660031901126103dc576004359063ffffffff60e01b82168092036103dc57602091630271189760e51b8114908115610431575b5015158152f35b6301ffc9a760e01b1490508361042a565b600435906001600160a01b03821682036103dc57565b602435906001600160a01b03821682036103dc57565b90601f8019910116810190811067ffffffffffffffff82111761049057604052565b634e487b7160e01b5f52604160045260245ffd5b9080601f830112156103dc5781359167ffffffffffffffff8311610490578260051b9060208201936104d9604051958661046e565b84526020808501928201019283116103dc57602001905b8282106104fd5750505090565b81358152602091820191016104f0565b81601f820112156103dc5780359067ffffffffffffffff82116104905760405192610542601f8401601f19166020018561046e565b828452602083830101116103dc57815f926020809301838601378301015290565b604051627eeac760e11b81523060048201526001600160a01b037f00000000000000000000000000000000000000000000000000000000000000008116602483018190527f000000000000000000000000000000000000000000000000000000000000000090911691602081604481865afa9081156103d1575f9161063e575b50806105ee57505050565b823b156103dc5760845f928360405195869485936380a5a37160e01b855260048501526024840152606060448401528160648401525af180156103d1576106325750565b5f61063c9161046e565b565b90506020813d602011610668575b816106596020938361046e565b810103126103dc57515f6105e3565b3d915061064c565b6001600160a01b037f0000000000000000000000000000000000000000000000000000000000000000811691907f0000000000000000000000000000000000000000000000000000000000000000165f5b8251811015610785578251811015610771576020600582901b84018101516040516306713e2360e41b8152600481018590526001600160a01b03909116602482015290816044815f895af19081156103d1575f91610737575b5015610728576001016106c1565b631c74bb5760e11b5f5260045ffd5b90506020813d8211610769575b816107516020938361046e565b810103126103dc575180151581036103dc575f61071a565b3d9150610744565b634e487b7160e01b5f52603260045260245ffd5b5050505056fea26469706673582212200108daefbe6af0f7d71f139c2e5eb8415ac16e2bca330e23b3034593731c5b5f64736f6c634300081c0033","opcodes":"PUSH1 0xE0 DUP1 PUSH1 0x40 MSTORE CALLVALUE PUSH2 0x279 JUMPI PUSH0 PUSH2 0xA8A DUP1 CODESIZE SUB DUP1 SWAP2 PUSH2 0x1D DUP3 DUP7 PUSH2 0x291 JUMP JUMPDEST DUP5 CODECOPY DUP3 ADD SWAP2 PUSH1 0xA0 DUP2 DUP5 SUB SLT PUSH2 0x279 JUMPI PUSH2 0x35 DUP2 PUSH2 0x2B4 JUMP JUMPDEST SWAP3 PUSH2 0x42 PUSH1 0x20 DUP4 ADD PUSH2 0x2B4 JUMP JUMPDEST SWAP4 PUSH2 0x4F PUSH1 0x40 DUP5 ADD PUSH2 0x2B4 JUMP JUMPDEST PUSH1 0x60 DUP5 ADD MLOAD SWAP1 SWAP6 SWAP1 PUSH1 0x1 PUSH1 0x1 PUSH1 0x40 SHL SUB DUP2 GT PUSH2 0x279 JUMPI DUP5 ADD DUP4 PUSH1 0x1F DUP3 ADD SLT ISZERO PUSH2 0x279 JUMPI DUP1 MLOAD SWAP5 PUSH1 0x1 PUSH1 0x1 PUSH1 0x40 SHL SUB DUP7 GT PUSH2 0x27D JUMPI PUSH1 0x40 MLOAD SWAP6 PUSH2 0x9B PUSH1 0x1F DUP3 ADD PUSH1 0x1F NOT AND PUSH1 0x20 ADD DUP9 PUSH2 0x291 JUMP JUMPDEST DUP1 DUP8 MSTORE PUSH1 0x20 DUP8 ADD SWAP6 PUSH1 0x20 DUP3 DUP6 ADD ADD GT PUSH2 0x279 JUMPI PUSH1 0x20 DUP2 PUSH0 SWAP3 DUP3 PUSH1 0x80 SWAP7 ADD DUP10 MCOPY DUP9 ADD ADD MSTORE ADD MLOAD SWAP2 PUSH1 0x1 DUP1 PUSH1 0xA0 SHL SUB AND PUSH1 0x80 MSTORE PUSH1 0x1 DUP1 PUSH1 0xA0 SHL SUB AND PUSH1 0xA0 MSTORE DUP5 PUSH1 0xC0 MSTORE PUSH2 0x113 PUSH1 0x9 PUSH1 0x20 PUSH1 0x40 MLOAD DUP1 SWAP6 DUP3 DUP3 ADD SWAP8 MLOAD DUP1 SWAP2 DUP10 MCOPY DUP2 ADD PUSH9 0x2D7472656173757279 PUSH1 0xB8 SHL DUP4 DUP3 ADD MSTORE SUB ADD PUSH1 0x16 NOT DUP2 ADD DUP6 MSTORE ADD DUP4 PUSH2 0x291 JUMP JUMPDEST PUSH1 0x80 MLOAD PUSH1 0x1 PUSH1 0x1 PUSH1 0xA0 SHL SUB AND DUP1 EXTCODESIZE ISZERO PUSH2 0x279 JUMPI PUSH0 SWAP3 DUP4 PUSH1 0x64 PUSH1 0x40 MLOAD DUP1 SWAP8 DUP2 SWAP7 DUP3 SWAP6 PUSH4 0xBFDE380D PUSH1 0xE0 SHL DUP5 MSTORE PUSH1 0x40 PUSH1 0x4 DUP6 ADD MSTORE MLOAD DUP1 SWAP3 DUP2 PUSH1 0x44 DUP7 ADD MSTORE DUP6 DUP6 ADD MCOPY DUP3 DUP3 ADD DUP5 ADD DUP6 SWAP1 MSTORE PUSH1 0x24 DUP4 ADD MSTORE PUSH1 0x1F ADD PUSH1 0x1F NOT AND DUP2 ADD SUB ADD SWAP3 GAS CALL DUP1 ISZERO PUSH2 0x26E JUMPI PUSH2 0x25B JUMPI JUMPDEST POP PUSH1 0x80 MLOAD SWAP1 SWAP2 DUP3 SWAP2 PUSH1 0x1 PUSH1 0x1 PUSH1 0xA0 SHL SUB AND DUP1 EXTCODESIZE ISZERO PUSH2 0x257 JUMPI PUSH1 0x40 MLOAD PUSH4 0x75DCEBC7 PUSH1 0xE0 SHL DUP2 MSTORE PUSH1 0x1 PUSH1 0x1 PUSH1 0xA0 SHL SUB SWAP1 SWAP3 AND PUSH1 0x4 DUP4 ADD MSTORE PUSH1 0x1 PUSH1 0x1 PUSH1 0x60 SHL SUB PUSH1 0x24 DUP4 ADD MSTORE SWAP1 SWAP2 SWAP1 DUP3 SWAP1 PUSH1 0x44 SWAP1 DUP3 SWAP1 DUP5 SWAP1 GAS CALL DUP1 ISZERO PUSH2 0x24C JUMPI PUSH2 0x234 JUMPI JUMPDEST PUSH1 0x40 MLOAD PUSH2 0x7C1 SWAP1 DUP2 PUSH2 0x2C9 DUP3 CODECOPY PUSH1 0x80 MLOAD DUP2 DUP2 DUP2 PUSH1 0xBC ADD MSTORE DUP2 DUP2 PUSH2 0x22B ADD MSTORE DUP2 DUP2 PUSH2 0x292 ADD MSTORE DUP2 DUP2 PUSH2 0x5A9 ADD MSTORE PUSH2 0x67A ADD MSTORE PUSH1 0xA0 MLOAD DUP2 DUP2 DUP2 PUSH2 0x2D7 ADD MSTORE PUSH2 0x366 ADD MSTORE PUSH1 0xC0 MLOAD DUP2 DUP2 DUP2 PUSH2 0x173 ADD MSTORE DUP2 DUP2 PUSH2 0x336 ADD MSTORE DUP2 DUP2 PUSH2 0x57F ADD MSTORE PUSH2 0x69F ADD MSTORE RETURN JUMPDEST PUSH2 0x23F DUP3 DUP1 SWAP3 PUSH2 0x291 JUMP JUMPDEST PUSH2 0x249 JUMPI DUP1 PUSH2 0x1D3 JUMP JUMPDEST DUP1 REVERT JUMPDEST PUSH1 0x40 MLOAD RETURNDATASIZE DUP5 DUP3 RETURNDATACOPY RETURNDATASIZE SWAP1 REVERT JUMPDEST POP POP REVERT JUMPDEST PUSH2 0x267 SWAP2 POP PUSH0 SWAP1 PUSH2 0x291 JUMP JUMPDEST PUSH0 PUSH0 PUSH2 0x178 JUMP JUMPDEST PUSH1 0x40 MLOAD RETURNDATASIZE PUSH0 DUP3 RETURNDATACOPY RETURNDATASIZE SWAP1 REVERT JUMPDEST PUSH0 DUP1 REVERT JUMPDEST PUSH4 0x4E487B71 PUSH1 0xE0 SHL PUSH0 MSTORE PUSH1 0x41 PUSH1 0x4 MSTORE PUSH1 0x24 PUSH0 REVERT JUMPDEST PUSH1 0x1F SWAP1 SWAP2 ADD PUSH1 0x1F NOT AND DUP2 ADD SWAP1 PUSH1 0x1 PUSH1 0x1 PUSH1 0x40 SHL SUB DUP3 GT SWAP1 DUP3 LT OR PUSH2 0x27D JUMPI PUSH1 0x40 MSTORE JUMP JUMPDEST MLOAD SWAP1 PUSH1 0x1 PUSH1 0x1 PUSH1 0xA0 SHL SUB DUP3 AND DUP3 SUB PUSH2 0x279 JUMPI JUMP INVALID PUSH1 0x80 DUP1 PUSH1 0x40 MSTORE PUSH1 0x4 CALLDATASIZE LT ISZERO PUSH2 0x12 JUMPI PUSH0 DUP1 REVERT JUMPDEST PUSH0 SWAP1 PUSH0 CALLDATALOAD PUSH1 0xE0 SHR SWAP1 DUP2 PUSH4 0x1FFC9A7 EQ PUSH2 0x3EF JUMPI POP DUP1 PUSH4 0x3857D9D7 EQ PUSH2 0x322 JUMPI DUP1 PUSH4 0x44DF8E70 EQ PUSH2 0x306 JUMPI DUP1 PUSH4 0xA05C2616 EQ PUSH2 0x2C1 JUMPI DUP1 PUSH4 0xA4C52B86 EQ PUSH2 0x27C JUMPI DUP1 PUSH4 0xBC197C81 EQ PUSH2 0x1A2 JUMPI DUP1 PUSH4 0xE532B61D EQ PUSH2 0x15D JUMPI PUSH4 0xF23A6E61 EQ PUSH2 0x76 JUMPI PUSH0 DUP1 REVERT JUMPDEST CALLVALUE PUSH2 0x15A JUMPI PUSH1 0xA0 CALLDATASIZE PUSH1 0x3 NOT ADD SLT PUSH2 0x15A JUMPI PUSH2 0x8F PUSH2 0x442 JUMP JUMPDEST POP PUSH2 0x98 PUSH2 0x458 JUMP JUMPDEST POP PUSH1 0x84 CALLDATALOAD PUSH8 0xFFFFFFFFFFFFFFFF DUP2 GT PUSH2 0x158 JUMPI PUSH2 0xB9 SWAP1 CALLDATASIZE SWAP1 PUSH1 0x4 ADD PUSH2 0x50D JUMP JUMPDEST POP PUSH32 0x0 PUSH1 0x1 PUSH1 0x1 PUSH1 0xA0 SHL SUB AND CALLER SUB PUSH2 0x149 JUMPI PUSH1 0x40 MLOAD PUSH2 0xF8 PUSH1 0x40 DUP3 PUSH2 0x46E JUMP JUMPDEST PUSH1 0x1 DUP2 MSTORE PUSH1 0x20 DUP1 DUP3 ADD SWAP1 CALLDATASIZE DUP3 CALLDATACOPY DUP2 MLOAD ISZERO PUSH2 0x135 JUMPI PUSH2 0x11B SWAP3 POP PUSH1 0x44 CALLDATALOAD SWAP1 MSTORE PUSH2 0x670 JUMP JUMPDEST PUSH2 0x123 PUSH2 0x563 JUMP JUMPDEST PUSH1 0x40 MLOAD PUSH4 0xF23A6E61 PUSH1 0xE0 SHL DUP2 MSTORE PUSH1 0x20 SWAP1 RETURN JUMPDEST PUSH4 0x4E487B71 PUSH1 0xE0 SHL DUP4 MSTORE PUSH1 0x32 PUSH1 0x4 MSTORE PUSH1 0x24 DUP4 REVERT JUMPDEST PUSH4 0x58A7C73 PUSH1 0xE3 SHL DUP2 MSTORE PUSH1 0x4 SWAP1 REVERT JUMPDEST POP JUMPDEST DUP1 REVERT JUMPDEST POP CALLVALUE PUSH2 0x15A JUMPI DUP1 PUSH1 0x3 NOT CALLDATASIZE ADD SLT PUSH2 0x15A JUMPI PUSH1 0x40 MLOAD PUSH32 0x0 PUSH1 0x1 PUSH1 0x1 PUSH1 0xA0 SHL SUB AND DUP2 MSTORE PUSH1 0x20 SWAP1 RETURN JUMPDEST POP CALLVALUE PUSH2 0x15A JUMPI PUSH1 0xA0 CALLDATASIZE PUSH1 0x3 NOT ADD SLT PUSH2 0x15A JUMPI PUSH2 0x1BC PUSH2 0x442 JUMP JUMPDEST POP PUSH2 0x1C5 PUSH2 0x458 JUMP JUMPDEST POP PUSH1 0x44 CALLDATALOAD PUSH8 0xFFFFFFFFFFFFFFFF DUP2 GT PUSH2 0x158 JUMPI PUSH2 0x1E6 SWAP1 CALLDATASIZE SWAP1 PUSH1 0x4 ADD PUSH2 0x4A4 JUMP JUMPDEST SWAP1 PUSH1 0x64 CALLDATALOAD PUSH8 0xFFFFFFFFFFFFFFFF DUP2 GT PUSH2 0x158 JUMPI PUSH2 0x207 SWAP1 CALLDATASIZE SWAP1 PUSH1 0x4 ADD PUSH2 0x4A4 JUMP JUMPDEST POP PUSH1 0x84 CALLDATALOAD PUSH8 0xFFFFFFFFFFFFFFFF DUP2 GT PUSH2 0x158 JUMPI PUSH2 0x228 SWAP1 CALLDATASIZE SWAP1 PUSH1 0x4 ADD PUSH2 0x50D JUMP JUMPDEST POP PUSH32 0x0 PUSH1 0x1 PUSH1 0x1 PUSH1 0xA0 SHL SUB AND CALLER SUB PUSH2 0x149 JUMPI PUSH2 0x262 DUP3 PUSH2 0x670 JUMP JUMPDEST PUSH2 0x26A PUSH2 0x563 JUMP JUMPDEST PUSH1 0x40 MLOAD PUSH4 0xBC197C81 PUSH1 0xE0 SHL DUP2 MSTORE PUSH1 0x20 SWAP1 RETURN JUMPDEST POP CALLVALUE PUSH2 0x15A JUMPI DUP1 PUSH1 0x3 NOT CALLDATASIZE ADD SLT PUSH2 0x15A JUMPI PUSH1 0x40 MLOAD PUSH32 0x0 PUSH1 0x1 PUSH1 0x1 PUSH1 0xA0 SHL SUB AND DUP2 MSTORE PUSH1 0x20 SWAP1 RETURN JUMPDEST POP CALLVALUE PUSH2 0x15A JUMPI DUP1 PUSH1 0x3 NOT CALLDATASIZE ADD SLT PUSH2 0x15A JUMPI PUSH1 0x40 MLOAD PUSH32 0x0 PUSH1 0x1 PUSH1 0x1 PUSH1 0xA0 SHL SUB AND DUP2 MSTORE PUSH1 0x20 SWAP1 RETURN JUMPDEST POP CALLVALUE PUSH2 0x15A JUMPI DUP1 PUSH1 0x3 NOT CALLDATASIZE ADD SLT PUSH2 0x15A JUMPI PUSH2 0x31F PUSH2 0x563 JUMP JUMPDEST DUP1 RETURN JUMPDEST POP CALLVALUE PUSH2 0x3DC JUMPI PUSH1 0x20 CALLDATASIZE PUSH1 0x3 NOT ADD SLT PUSH2 0x3DC JUMPI PUSH32 0x0 PUSH1 0x1 PUSH1 0x1 PUSH1 0xA0 SHL SUB AND CALLER SUB PUSH2 0x3E0 JUMPI PUSH32 0x0 PUSH1 0x1 PUSH1 0x1 PUSH1 0xA0 SHL SUB AND DUP1 EXTCODESIZE ISZERO PUSH2 0x3DC JUMPI PUSH0 DUP1 SWAP2 PUSH1 0x24 PUSH1 0x40 MLOAD DUP1 SWAP5 DUP2 SWAP4 PUSH4 0x3857D9D7 PUSH1 0xE0 SHL DUP4 MSTORE PUSH1 0x4 CALLDATALOAD PUSH1 0x4 DUP5 ADD MSTORE GAS CALL DUP1 ISZERO PUSH2 0x3D1 JUMPI PUSH2 0x3C3 JUMPI POP DUP1 RETURN JUMPDEST PUSH2 0x3CF SWAP2 POP PUSH0 SWAP1 PUSH2 0x46E JUMP JUMPDEST STOP JUMPDEST PUSH1 0x40 MLOAD RETURNDATASIZE PUSH0 DUP3 RETURNDATACOPY RETURNDATASIZE SWAP1 REVERT JUMPDEST PUSH0 DUP1 REVERT JUMPDEST PUSH4 0x6346B2B7 PUSH1 0xE0 SHL PUSH0 MSTORE PUSH1 0x4 PUSH0 REVERT JUMPDEST CALLVALUE PUSH2 0x3DC JUMPI PUSH1 0x20 CALLDATASIZE PUSH1 0x3 NOT ADD SLT PUSH2 0x3DC JUMPI PUSH1 0x4 CALLDATALOAD SWAP1 PUSH4 0xFFFFFFFF PUSH1 0xE0 SHL DUP3 AND DUP1 SWAP3 SUB PUSH2 0x3DC JUMPI PUSH1 0x20 SWAP2 PUSH4 0x2711897 PUSH1 0xE5 SHL DUP2 EQ SWAP1 DUP2 ISZERO PUSH2 0x431 JUMPI JUMPDEST POP ISZERO ISZERO DUP2 MSTORE RETURN JUMPDEST PUSH4 0x1FFC9A7 PUSH1 0xE0 SHL EQ SWAP1 POP DUP4 PUSH2 0x42A JUMP JUMPDEST PUSH1 0x4 CALLDATALOAD SWAP1 PUSH1 0x1 PUSH1 0x1 PUSH1 0xA0 SHL SUB DUP3 AND DUP3 SUB PUSH2 0x3DC JUMPI JUMP JUMPDEST PUSH1 0x24 CALLDATALOAD SWAP1 PUSH1 0x1 PUSH1 0x1 PUSH1 0xA0 SHL SUB DUP3 AND DUP3 SUB PUSH2 0x3DC JUMPI JUMP JUMPDEST SWAP1 PUSH1 0x1F DUP1 NOT SWAP2 ADD AND DUP2 ADD SWAP1 DUP2 LT PUSH8 0xFFFFFFFFFFFFFFFF DUP3 GT OR PUSH2 0x490 JUMPI PUSH1 0x40 MSTORE JUMP JUMPDEST PUSH4 0x4E487B71 PUSH1 0xE0 SHL PUSH0 MSTORE PUSH1 0x41 PUSH1 0x4 MSTORE PUSH1 0x24 PUSH0 REVERT JUMPDEST SWAP1 DUP1 PUSH1 0x1F DUP4 ADD SLT ISZERO PUSH2 0x3DC JUMPI DUP2 CALLDATALOAD SWAP2 PUSH8 0xFFFFFFFFFFFFFFFF DUP4 GT PUSH2 0x490 JUMPI DUP3 PUSH1 0x5 SHL SWAP1 PUSH1 0x20 DUP3 ADD SWAP4 PUSH2 0x4D9 PUSH1 0x40 MLOAD SWAP6 DUP7 PUSH2 0x46E JUMP JUMPDEST DUP5 MSTORE PUSH1 0x20 DUP1 DUP6 ADD SWAP3 DUP3 ADD ADD SWAP3 DUP4 GT PUSH2 0x3DC JUMPI PUSH1 0x20 ADD SWAP1 JUMPDEST DUP3 DUP3 LT PUSH2 0x4FD JUMPI POP POP POP SWAP1 JUMP JUMPDEST DUP2 CALLDATALOAD DUP2 MSTORE PUSH1 0x20 SWAP2 DUP3 ADD SWAP2 ADD PUSH2 0x4F0 JUMP JUMPDEST DUP2 PUSH1 0x1F DUP3 ADD SLT ISZERO PUSH2 0x3DC JUMPI DUP1 CALLDATALOAD SWAP1 PUSH8 0xFFFFFFFFFFFFFFFF DUP3 GT PUSH2 0x490 JUMPI PUSH1 0x40 MLOAD SWAP3 PUSH2 0x542 PUSH1 0x1F DUP5 ADD PUSH1 0x1F NOT AND PUSH1 0x20 ADD DUP6 PUSH2 0x46E JUMP JUMPDEST DUP3 DUP5 MSTORE PUSH1 0x20 DUP4 DUP4 ADD ADD GT PUSH2 0x3DC JUMPI DUP2 PUSH0 SWAP3 PUSH1 0x20 DUP1 SWAP4 ADD DUP4 DUP7 ADD CALLDATACOPY DUP4 ADD ADD MSTORE SWAP1 JUMP JUMPDEST PUSH1 0x40 MLOAD PUSH3 0x7EEAC7 PUSH1 0xE1 SHL DUP2 MSTORE ADDRESS PUSH1 0x4 DUP3 ADD MSTORE PUSH1 0x1 PUSH1 0x1 PUSH1 0xA0 SHL SUB PUSH32 0x0 DUP2 AND PUSH1 0x24 DUP4 ADD DUP2 SWAP1 MSTORE PUSH32 0x0 SWAP1 SWAP2 AND SWAP2 PUSH1 0x20 DUP2 PUSH1 0x44 DUP2 DUP7 GAS STATICCALL SWAP1 DUP2 ISZERO PUSH2 0x3D1 JUMPI PUSH0 SWAP2 PUSH2 0x63E JUMPI JUMPDEST POP DUP1 PUSH2 0x5EE JUMPI POP POP POP JUMP JUMPDEST DUP3 EXTCODESIZE ISZERO PUSH2 0x3DC JUMPI PUSH1 0x84 PUSH0 SWAP3 DUP4 PUSH1 0x40 MLOAD SWAP6 DUP7 SWAP5 DUP6 SWAP4 PUSH4 0x80A5A371 PUSH1 0xE0 SHL DUP6 MSTORE PUSH1 0x4 DUP6 ADD MSTORE PUSH1 0x24 DUP5 ADD MSTORE PUSH1 0x60 PUSH1 0x44 DUP5 ADD MSTORE DUP2 PUSH1 0x64 DUP5 ADD MSTORE GAS CALL DUP1 ISZERO PUSH2 0x3D1 JUMPI PUSH2 0x632 JUMPI POP JUMP JUMPDEST PUSH0 PUSH2 0x63C SWAP2 PUSH2 0x46E JUMP JUMPDEST JUMP JUMPDEST SWAP1 POP PUSH1 0x20 DUP2 RETURNDATASIZE PUSH1 0x20 GT PUSH2 0x668 JUMPI JUMPDEST DUP2 PUSH2 0x659 PUSH1 0x20 SWAP4 DUP4 PUSH2 0x46E JUMP JUMPDEST DUP2 ADD SUB SLT PUSH2 0x3DC JUMPI MLOAD PUSH0 PUSH2 0x5E3 JUMP JUMPDEST RETURNDATASIZE SWAP2 POP PUSH2 0x64C JUMP JUMPDEST PUSH1 0x1 PUSH1 0x1 PUSH1 0xA0 SHL SUB PUSH32 0x0 DUP2 AND SWAP2 SWAP1 PUSH32 0x0 AND PUSH0 JUMPDEST DUP3 MLOAD DUP2 LT ISZERO PUSH2 0x785 JUMPI DUP3 MLOAD DUP2 LT ISZERO PUSH2 0x771 JUMPI PUSH1 0x20 PUSH1 0x5 DUP3 SWAP1 SHL DUP5 ADD DUP2 ADD MLOAD PUSH1 0x40 MLOAD PUSH4 0x6713E23 PUSH1 0xE4 SHL DUP2 MSTORE PUSH1 0x4 DUP2 ADD DUP6 SWAP1 MSTORE PUSH1 0x1 PUSH1 0x1 PUSH1 0xA0 SHL SUB SWAP1 SWAP2 AND PUSH1 0x24 DUP3 ADD MSTORE SWAP1 DUP2 PUSH1 0x44 DUP2 PUSH0 DUP10 GAS CALL SWAP1 DUP2 ISZERO PUSH2 0x3D1 JUMPI PUSH0 SWAP2 PUSH2 0x737 JUMPI JUMPDEST POP ISZERO PUSH2 0x728 JUMPI PUSH1 0x1 ADD PUSH2 0x6C1 JUMP JUMPDEST PUSH4 0x1C74BB57 PUSH1 0xE1 SHL PUSH0 MSTORE PUSH1 0x4 PUSH0 REVERT JUMPDEST SWAP1 POP PUSH1 0x20 DUP2 RETURNDATASIZE DUP3 GT PUSH2 0x769 JUMPI JUMPDEST DUP2 PUSH2 0x751 PUSH1 0x20 SWAP4 DUP4 PUSH2 0x46E JUMP JUMPDEST DUP2 ADD SUB SLT PUSH2 0x3DC JUMPI MLOAD DUP1 ISZERO ISZERO DUP2 SUB PUSH2 0x3DC JUMPI PUSH0 PUSH2 0x71A JUMP JUMPDEST RETURNDATASIZE SWAP2 POP PUSH2 0x744 JUMP JUMPDEST PUSH4 0x4E487B71 PUSH1 0xE0 SHL PUSH0 MSTORE PUSH1 0x32 PUSH1 0x4 MSTORE PUSH1 0x24 PUSH0 REVERT JUMPDEST POP POP POP POP JUMP INVALID LOG2 PUSH5 0x6970667358 0x22 SLT KECCAK256 ADD ADDMOD 0xDA 0xEF 0xBE PUSH11 0xF0F7D71F139C2E5EB8415A 0xC1 PUSH15 0x2BCA330E23B3034593731C5B5F6473 PUSH16 0x6C634300081C00330000000000000000 "},"methodIdentifiers":{"GROUP()":"e532b61d","HUB()":"a4c52b86","NAME_REGISTRY()":"a05c2616","burn()":"44df8e70","onERC1155BatchReceived(address,address,uint256[],uint256[],bytes)":"bc197c81","onERC1155Received(address,address,uint256,uint256,bytes)":"f23a6e61","supportsInterface(bytes4)":"01ffc9a7","updateMetadataDigest(bytes32)":"3857d9d7"}}}}}