{"sol/base-group/BaseMintHandler.sol":{"BaseMintHandler":{"abi":[{"inputs":[{"internalType":"address","name":"_hub","type":"address"},{"internalType":"address","name":"_nameRegistry","type":"address"},{"internalType":"address","name":"_group","type":"address"},{"internalType":"address","name":"_demurrage","type":"address"},{"internalType":"address","name":"_inflationary","type":"address"},{"internalType":"string","name":"_groupName","type":"string"},{"internalType":"bytes32","name":"_metadataDigest","type":"bytes32"}],"stateMutability":"nonpayable","type":"constructor"},{"inputs":[],"name":"ConversionOngoing","type":"error"},{"inputs":[],"name":"LogicAssertion","type":"error"},{"inputs":[],"name":"OnlyGroup","type":"error"},{"inputs":[],"name":"OnlyHub","type":"error"},{"inputs":[],"name":"ReceivedZeroAmount","type":"error"},{"anonymous":false,"inputs":[],"name":"ConversionCleared","type":"event"},{"anonymous":false,"inputs":[{"indexed":true,"internalType":"address","name":"beneficiary","type":"address"},{"indexed":true,"internalType":"uint256","name":"amount","type":"uint256"},{"indexed":true,"internalType":"uint256","name":"tokenType","type":"uint256"}],"name":"ConversionInitiated","type":"event"},{"anonymous":false,"inputs":[{"indexed":true,"internalType":"address","name":"beneficiary","type":"address"},{"indexed":true,"internalType":"uint256","name":"amount","type":"uint256"},{"indexed":true,"internalType":"uint256","name":"tokenType","type":"uint256"}],"name":"ReturnedMintedGroupCircles","type":"event"},{"inputs":[],"name":"DEMURRAGE","outputs":[{"internalType":"address","name":"","type":"address"}],"stateMutability":"view","type":"function"},{"inputs":[],"name":"GROUP","outputs":[{"internalType":"address","name":"","type":"address"}],"stateMutability":"view","type":"function"},{"inputs":[],"name":"GROUP_ID","outputs":[{"internalType":"uint256","name":"","type":"uint256"}],"stateMutability":"view","type":"function"},{"inputs":[],"name":"HUB","outputs":[{"internalType":"contract IHub","name":"","type":"address"}],"stateMutability":"view","type":"function"},{"inputs":[],"name":"INFLATIONARY","outputs":[{"internalType":"address","name":"","type":"address"}],"stateMutability":"view","type":"function"},{"inputs":[],"name":"NAME_REGISTRY","outputs":[{"internalType":"contract INameRegistry","name":"","type":"address"}],"stateMutability":"view","type":"function"},{"inputs":[],"name":"TYPE_DEMURRAGE","outputs":[{"internalType":"bytes32","name":"","type":"bytes32"}],"stateMutability":"view","type":"function"},{"inputs":[],"name":"TYPE_INFLATIONARY","outputs":[{"internalType":"bytes32","name":"","type":"bytes32"}],"stateMutability":"view","type":"function"},{"inputs":[{"internalType":"address","name":"_trustReceiver","type":"address"},{"internalType":"uint96","name":"_expiry","type":"uint96"}],"name":"mirrorTrust","outputs":[],"stateMutability":"nonpayable","type":"function"},{"inputs":[{"internalType":"address","name":"","type":"address"},{"internalType":"address","name":"_from","type":"address"},{"internalType":"uint256[]","name":"_ids","type":"uint256[]"},{"internalType":"uint256[]","name":"_values","type":"uint256[]"},{"internalType":"bytes","name":"_data","type":"bytes"}],"name":"onERC1155BatchReceived","outputs":[{"internalType":"bytes4","name":"","type":"bytes4"}],"stateMutability":"nonpayable","type":"function"},{"inputs":[{"internalType":"address","name":"","type":"address"},{"internalType":"address","name":"_from","type":"address"},{"internalType":"uint256","name":"_id","type":"uint256"},{"internalType":"uint256","name":"_value","type":"uint256"},{"internalType":"bytes","name":"_data","type":"bytes"}],"name":"onERC1155Received","outputs":[{"internalType":"bytes4","name":"","type":"bytes4"}],"stateMutability":"nonpayable","type":"function"},{"inputs":[{"internalType":"bytes4","name":"interfaceId","type":"bytes4"}],"name":"supportsInterface","outputs":[{"internalType":"bool","name":"","type":"bool"}],"stateMutability":"view","type":"function"},{"inputs":[{"internalType":"bytes32","name":"_metadataDigest","type":"bytes32"}],"name":"updateMetadataDigest","outputs":[],"stateMutability":"nonpayable","type":"function"}],"evm":{"bytecode":{"linkReferences":{},"object":"61014080604052346102755761146e803803809161001d828561028d565b8339810160e08282031261027557610034826102b0565b610040602084016102b0565b61004c604085016102b0565b610058606086016102b0565b90610065608087016102b0565b60a08701519093906001600160401b03811161027557870186601f82011215610275578051976001600160401b03891161027957604051986100b1601f8201601f19166020018b61028d565b808a5260208a019860208285010111610275576020815f928260c096018c5e8b01015201516001600160a01b0395861660805290851660a05260c0829052931660e052610100526101205260405192516020848101949361013e92600d92918691908190895e81016c16b6b4b73a16b430b7323632b960991b83820152030160121981018552018361028d565b6080516001600160a01b0316803b15610275575f9283606460405180978196829563bfde380d60e01b8452604060048501525180928160448601528585015e82820184018590526024830152601f01601f191681010301925af1801561026a5761025a575b6040516111a990816102c5823960805181818161031c015281816105be015281816107060152818161076201528181610b3101528181610c3a0152610de9015260a0518181816101c601526102d8015260c0518181816101960152818161058e015281816106410152818161086c01528181610b7d0152610da3015260e05181818161025c01528181610c880152610f720152610100518181816102940152610d1c0152610120518181816106850152610f4a0152f35b5f6102649161028d565b5f6101a3565b6040513d5f823e3d90fd5b5f80fd5b634e487b7160e01b5f52604160045260245ffd5b601f909101601f19168101906001600160401b0382119082101761027957604052565b51906001600160a01b03821682036102755756fe60806040526004361015610011575f80fd5b5f3560e01c806301ffc9a7146100e4578063033f7354146100df5780633857d9d7146100da5780634dd9c0b5146100d55780636604495e146100d0578063a05c2616146100cb578063a4c52b86146100c6578063a855a717146100c1578063bc197c81146100bc578063c878fe95146100b7578063e532b61d146100b2578063f07108a0146100ad5763f23a6e61146100a8575f80fd5b6106b4565b610670565b61062c565b610554565b61049c565b61034b565b610307565b6102c3565b61027f565b610245565b610182565b610148565b3461013a57602036600319011261013a5760043563ffffffff60e01b811680910361013a57602090630271189760e51b8114908115610129575b506040519015158152f35b6301ffc9a760e01b1490505f61011e565b5f80fd5b5f91031261013a57565b3461013a575f36600319011261013a5760206040517ff3f5858942140fd2894eeb8b74cd0ed72d24fc6675d352a2884b1be2f32256fe8152f35b3461013a575f602036600319011261013a577f00000000000000000000000000000000000000000000000000000000000000006001600160a01b03163303610236577f00000000000000000000000000000000000000000000000000000000000000006001600160a01b0316803b1561013a575f8091602460405180948193633857d9d760e01b835260043560048401525af1801561023157610223575080f35b61022f91505f906103aa565b005b610750565b636346b2b760e01b5f5260045ffd5b3461013a575f36600319011261013a5760206040517f00000000000000000000000000000000000000000000000000000000000000008152f35b3461013a575f36600319011261013a576040517f00000000000000000000000000000000000000000000000000000000000000006001600160a01b03168152602090f35b3461013a575f36600319011261013a576040517f00000000000000000000000000000000000000000000000000000000000000006001600160a01b03168152602090f35b3461013a575f36600319011261013a576040517f00000000000000000000000000000000000000000000000000000000000000006001600160a01b03168152602090f35b3461013a575f36600319011261013a5760206040517f9d28938b56c0e8aae8dd05e12461cbabf8f699236c3fd7c54c7d3bb9fb443ed28152f35b6001600160a01b0381160361013a57565b634e487b7160e01b5f52604160045260245ffd5b90601f8019910116810190811067ffffffffffffffff8211176103cc57604052565b610396565b67ffffffffffffffff81116103cc5760051b60200190565b9080601f8301121561013a578135610400816103d1565b9261040e60405194856103aa565b81845260208085019260051b82010192831161013a57602001905b8282106104365750505090565b8135815260209182019101610429565b81601f8201121561013a5780359067ffffffffffffffff82116103cc576040519261047b601f8401601f1916602001856103aa565b8284526020838301011161013a57815f926020809301838601378301015290565b3461013a5760a036600319011261013a576004356104b981610385565b602435906104c682610385565b60443567ffffffffffffffff811161013a576104e69036906004016103e9565b9060643567ffffffffffffffff811161013a576105079036906004016103e9565b6084359267ffffffffffffffff841161013a576105509461052f610535953690600401610446565b9361075b565b6040516001600160e01b031990911681529081906020820190565b0390f35b3461013a575f604036600319011261013a5760043561057281610385565b602435906bffffffffffffffffffffffff821680920361013a577f00000000000000000000000000000000000000000000000000000000000000006001600160a01b03163303610236577f00000000000000000000000000000000000000000000000000000000000000006001600160a01b031691823b1561013a576040516375dcebc760e01b81526001600160a01b0390921660048301526024820152905f908290604490829084905af1801561023157610223575080f35b3461013a575f36600319011261013a576040517f00000000000000000000000000000000000000000000000000000000000000006001600160a01b03168152602090f35b3461013a575f36600319011261013a576040517f00000000000000000000000000000000000000000000000000000000000000006001600160a01b03168152602090f35b3461013a5760a036600319011261013a576106d0600435610385565b6024356106dc81610385565b6044359060643560843567ffffffffffffffff811161013a57610703903690600401610446565b907f00000000000000000000000000000000000000000000000000000000000000006001600160a01b03163303610741576105509361053593610ae1565b63058a7c7360e31b5f5260045ffd5b6040513d5f823e3d90fd5b50909390927f00000000000000000000000000000000000000000000000000000000000000006001600160a01b031692909133849003610741576001600160a01b038516156108c95785518251036108c95785515f96959493906107be906108fa565b935f5b8751811015610837578061082c6108136108076107fa846107f48e9f9d9e9c9d6107ed6001998e610952565b519061097a565b9b610952565b516001600160a01b031690565b6001600160a01b031690565b61081d838b610952565b6001600160a01b039091169052565b0196959497966107c1565b509295506108489196819495610f98565b803b1561013a57610894935f809460405196879586948593636cb498e560e01b85527f0000000000000000000000000000000000000000000000000000000000000000600486016109b0565b03925af18015610231576108af575b5063bc197c8160e01b90565b806108bd5f6108c3936103aa565b8061013e565b5f6108a3565b63cac5bffb60e01b5f5260045ffd5b604080519091906108e983826103aa565b6001815291601f1901366020840137565b90610904826103d1565b61091160405191826103aa565b8281528092610922601f19916103d1565b0190602036910137565b634e487b7160e01b5f52603260045260245ffd5b80511561094d5760200190565b61092c565b805182101561094d5760209160051b010190565b634e487b7160e01b5f52601160045260245ffd5b9190820180921161098757565b610966565b805180835260209291819084018484015e5f828201840152601f01601f1916010190565b6001600160a01b03909116815260806020808301829052835191830182905260a0830196959301905f5b818110610a325750505080850360408201526020808451968781520193015f955b808710610a1a575050610a17939450606081840391015261098c565b90565b909360208060019287518152019501960195906109fb565b82516001600160a01b03168852602097880197909201916001016109da565b9081602091031261013a575190565b5f1981019190821161098757565b9190820391821161098757565b9081602091031261013a5751610a1781610385565b9081602091031261013a5751801515810361013a5790565b6001600160a01b039182168152911660208201526040810191909152606081019190915260a060808201819052610a179291019061098c565b9092906001600160a01b03811615610bd4578183610afe92610f98565b610b066108d8565b91610b25610b126108d8565b946001600160a01b031661081d85610940565b610b2e84610940565b527f00000000000000000000000000000000000000000000000000000000000000006001600160a01b0316803b1561013a57610ba5935f809460405196879586948593636cb498e560e01b85527f0000000000000000000000000000000000000000000000000000000000000000600486016109b0565b03925af1801561023157610bc0575b5063f23a6e6160e01b90565b806108bd5f610bce936103aa565b5f610bb4565b505f5160206111345f395f51905f525c925f5160206111545f395f51905f525c927f6136adcd727e05279d0beb0b97407672abc1607384d66aec4a65a09daa5bba685c9291849182149081610f6e575b50156108c957610c326110ca565b84610d0f57507f00000000000000000000000000000000000000000000000000000000000000006001600160a01b0316803b1561013a57604051637921219560e11b8152915f918391829084908290610cb2908a7f00000000000000000000000000000000000000000000000000000000000000008b3060048701610aa8565b03925af1801561023157610cfb575b505b6001600160a01b03167f4442af9fc0f6466cea71a55e8cae87ef09853f682dc82b362e4c8981944afa395f80a463f23a6e6160e01b90565b806108bd5f610d09936103aa565b5f610cc1565b92505060018303610f48577f00000000000000000000000000000000000000000000000000000000000000005b6040516370a0823160e01b81523060048201526001600160a01b039190911692602082602481875afa918215610231575f92610f22575b506020610de491610d8c610d8688610a60565b60ff1690565b604051632aaf5a5560e21b81526001600160a01b037f0000000000000000000000000000000000000000000000000000000000000000166004820152602481019290925260ff16604482015291829081906064820190565b03815f7f00000000000000000000000000000000000000000000000000000000000000006001600160a01b03165af1801561023157610ef5575b506040516370a0823160e01b815230600482015290602082602481875afa801561023157610e53925f91610ec6575b50610a6e565b60405163a9059cbb60e01b81526001600160a01b0383166004820152602481018290529092602090829060449082905f905af1801561023157610e97575b50610cc3565b610eb89060203d602011610ebf575b610eb081836103aa565b810190610a90565b505f610e91565b503d610ea6565b610ee8915060203d602011610eee575b610ee081836103aa565b810190610a51565b5f610e4d565b503d610ed6565b610f169060203d602011610f1b575b610f0e81836103aa565b810190610a7b565b610e1e565b503d610f04565b610de4919250610f40602091823d8411610eee57610ee081836103aa565b929150610d73565b7f0000000000000000000000000000000000000000000000000000000000000000610d3c565b90507f0000000000000000000000000000000000000000000000000000000000000000145f610c24565b5f9282156110bb575f5160206111545f395f51905f525c15610fc35763a896a06560e01b5f5260045ffd5b825f5160206111545f395f51905f525d817f6136adcd727e05279d0beb0b97407672abc1607384d66aec4a65a09daa5bba685d601f815111611030575b506001600160a01b03167fa4466aa34ad627877204336e07a065a4da68fb136d84533a7b17290b86154de95f80a4565b60200151807ff3f5858942140fd2894eeb8b74cd0ed72d24fc6675d352a2884b1be2f32256fe146110a1577f9d28938b56c0e8aae8dd05e12461cbabf8f699236c3fd7c54c7d3bb9fb443ed214611088575b5f611000565b60029250825f5160206111345f395f51905f525d611082565b5060019250825f5160206111345f395f51905f525d611082565b633402a16360e01b5f5260045ffd5b5f5f5160206111545f395f51905f525d5f7f6136adcd727e05279d0beb0b97407672abc1607384d66aec4a65a09daa5bba685d5f5f5160206111345f395f51905f525d7f1992ef760e9f09c8c806016548a62b7fd11268379c371a730a1a06d621f002dc5f80a156fecda71533cdfa11dcfe861dbfa38b956c85d855f8e75c6728c650ac844f4fd47efb747a744f99e39f75c6fc4a40ae1e72605f4d4a2aa65e5e3d29e889d7f5061ba2646970667358221220f2ccffc9f1e2c35709776c152951330582b65687874b48d1c8e0c93988dddf3864736f6c634300081c0033","opcodes":"PUSH2 0x140 DUP1 PUSH1 0x40 MSTORE CALLVALUE PUSH2 0x275 JUMPI PUSH2 0x146E DUP1 CODESIZE SUB DUP1 SWAP2 PUSH2 0x1D DUP3 DUP6 PUSH2 0x28D JUMP JUMPDEST DUP4 CODECOPY DUP2 ADD PUSH1 0xE0 DUP3 DUP3 SUB SLT PUSH2 0x275 JUMPI PUSH2 0x34 DUP3 PUSH2 0x2B0 JUMP JUMPDEST PUSH2 0x40 PUSH1 0x20 DUP5 ADD PUSH2 0x2B0 JUMP JUMPDEST PUSH2 0x4C PUSH1 0x40 DUP6 ADD PUSH2 0x2B0 JUMP JUMPDEST PUSH2 0x58 PUSH1 0x60 DUP7 ADD PUSH2 0x2B0 JUMP JUMPDEST SWAP1 PUSH2 0x65 PUSH1 0x80 DUP8 ADD PUSH2 0x2B0 JUMP JUMPDEST PUSH1 0xA0 DUP8 ADD MLOAD SWAP1 SWAP4 SWAP1 PUSH1 0x1 PUSH1 0x1 PUSH1 0x40 SHL SUB DUP2 GT PUSH2 0x275 JUMPI DUP8 ADD DUP7 PUSH1 0x1F DUP3 ADD SLT ISZERO PUSH2 0x275 JUMPI DUP1 MLOAD SWAP8 PUSH1 0x1 PUSH1 0x1 PUSH1 0x40 SHL SUB DUP10 GT PUSH2 0x279 JUMPI PUSH1 0x40 MLOAD SWAP9 PUSH2 0xB1 PUSH1 0x1F DUP3 ADD PUSH1 0x1F NOT AND PUSH1 0x20 ADD DUP12 PUSH2 0x28D JUMP JUMPDEST DUP1 DUP11 MSTORE PUSH1 0x20 DUP11 ADD SWAP9 PUSH1 0x20 DUP3 DUP6 ADD ADD GT PUSH2 0x275 JUMPI PUSH1 0x20 DUP2 PUSH0 SWAP3 DUP3 PUSH1 0xC0 SWAP7 ADD DUP13 MCOPY DUP12 ADD ADD MSTORE ADD MLOAD PUSH1 0x1 PUSH1 0x1 PUSH1 0xA0 SHL SUB SWAP6 DUP7 AND PUSH1 0x80 MSTORE SWAP1 DUP6 AND PUSH1 0xA0 MSTORE PUSH1 0xC0 DUP3 SWAP1 MSTORE SWAP4 AND PUSH1 0xE0 MSTORE PUSH2 0x100 MSTORE PUSH2 0x120 MSTORE PUSH1 0x40 MLOAD SWAP3 MLOAD PUSH1 0x20 DUP5 DUP2 ADD SWAP5 SWAP4 PUSH2 0x13E SWAP3 PUSH1 0xD SWAP3 SWAP2 DUP7 SWAP2 SWAP1 DUP2 SWAP1 DUP10 MCOPY DUP2 ADD PUSH13 0x16B6B4B73A16B430B7323632B9 PUSH1 0x99 SHL DUP4 DUP3 ADD MSTORE SUB ADD PUSH1 0x12 NOT DUP2 ADD DUP6 MSTORE ADD DUP4 PUSH2 0x28D JUMP JUMPDEST PUSH1 0x80 MLOAD PUSH1 0x1 PUSH1 0x1 PUSH1 0xA0 SHL SUB AND DUP1 EXTCODESIZE ISZERO PUSH2 0x275 JUMPI PUSH0 SWAP3 DUP4 PUSH1 0x64 PUSH1 0x40 MLOAD DUP1 SWAP8 DUP2 SWAP7 DUP3 SWAP6 PUSH4 0xBFDE380D PUSH1 0xE0 SHL DUP5 MSTORE PUSH1 0x40 PUSH1 0x4 DUP6 ADD MSTORE MLOAD DUP1 SWAP3 DUP2 PUSH1 0x44 DUP7 ADD MSTORE DUP6 DUP6 ADD MCOPY DUP3 DUP3 ADD DUP5 ADD DUP6 SWAP1 MSTORE PUSH1 0x24 DUP4 ADD MSTORE PUSH1 0x1F ADD PUSH1 0x1F NOT AND DUP2 ADD SUB ADD SWAP3 GAS CALL DUP1 ISZERO PUSH2 0x26A JUMPI PUSH2 0x25A JUMPI JUMPDEST PUSH1 0x40 MLOAD PUSH2 0x11A9 SWAP1 DUP2 PUSH2 0x2C5 DUP3 CODECOPY PUSH1 0x80 MLOAD DUP2 DUP2 DUP2 PUSH2 0x31C ADD MSTORE DUP2 DUP2 PUSH2 0x5BE ADD MSTORE DUP2 DUP2 PUSH2 0x706 ADD MSTORE DUP2 DUP2 PUSH2 0x762 ADD MSTORE DUP2 DUP2 PUSH2 0xB31 ADD MSTORE DUP2 DUP2 PUSH2 0xC3A ADD MSTORE PUSH2 0xDE9 ADD MSTORE PUSH1 0xA0 MLOAD DUP2 DUP2 DUP2 PUSH2 0x1C6 ADD MSTORE PUSH2 0x2D8 ADD MSTORE PUSH1 0xC0 MLOAD DUP2 DUP2 DUP2 PUSH2 0x196 ADD MSTORE DUP2 DUP2 PUSH2 0x58E ADD MSTORE DUP2 DUP2 PUSH2 0x641 ADD MSTORE DUP2 DUP2 PUSH2 0x86C ADD MSTORE DUP2 DUP2 PUSH2 0xB7D ADD MSTORE PUSH2 0xDA3 ADD MSTORE PUSH1 0xE0 MLOAD DUP2 DUP2 DUP2 PUSH2 0x25C ADD MSTORE DUP2 DUP2 PUSH2 0xC88 ADD MSTORE PUSH2 0xF72 ADD MSTORE PUSH2 0x100 MLOAD DUP2 DUP2 DUP2 PUSH2 0x294 ADD MSTORE PUSH2 0xD1C ADD MSTORE PUSH2 0x120 MLOAD DUP2 DUP2 DUP2 PUSH2 0x685 ADD MSTORE PUSH2 0xF4A ADD MSTORE RETURN JUMPDEST PUSH0 PUSH2 0x264 SWAP2 PUSH2 0x28D JUMP JUMPDEST PUSH0 PUSH2 0x1A3 JUMP JUMPDEST PUSH1 0x40 MLOAD RETURNDATASIZE PUSH0 DUP3 RETURNDATACOPY RETURNDATASIZE SWAP1 REVERT JUMPDEST PUSH0 DUP1 REVERT JUMPDEST PUSH4 0x4E487B71 PUSH1 0xE0 SHL PUSH0 MSTORE PUSH1 0x41 PUSH1 0x4 MSTORE PUSH1 0x24 PUSH0 REVERT JUMPDEST PUSH1 0x1F SWAP1 SWAP2 ADD PUSH1 0x1F NOT AND DUP2 ADD SWAP1 PUSH1 0x1 PUSH1 0x1 PUSH1 0x40 SHL SUB DUP3 GT SWAP1 DUP3 LT OR PUSH2 0x279 JUMPI PUSH1 0x40 MSTORE JUMP JUMPDEST MLOAD SWAP1 PUSH1 0x1 PUSH1 0x1 PUSH1 0xA0 SHL SUB DUP3 AND DUP3 SUB PUSH2 0x275 JUMPI JUMP INVALID PUSH1 0x80 PUSH1 0x40 MSTORE PUSH1 0x4 CALLDATASIZE LT ISZERO PUSH2 0x11 JUMPI PUSH0 DUP1 REVERT JUMPDEST PUSH0 CALLDATALOAD PUSH1 0xE0 SHR DUP1 PUSH4 0x1FFC9A7 EQ PUSH2 0xE4 JUMPI DUP1 PUSH4 0x33F7354 EQ PUSH2 0xDF JUMPI DUP1 PUSH4 0x3857D9D7 EQ PUSH2 0xDA JUMPI DUP1 PUSH4 0x4DD9C0B5 EQ PUSH2 0xD5 JUMPI DUP1 PUSH4 0x6604495E EQ PUSH2 0xD0 JUMPI DUP1 PUSH4 0xA05C2616 EQ PUSH2 0xCB JUMPI DUP1 PUSH4 0xA4C52B86 EQ PUSH2 0xC6 JUMPI DUP1 PUSH4 0xA855A717 EQ PUSH2 0xC1 JUMPI DUP1 PUSH4 0xBC197C81 EQ PUSH2 0xBC JUMPI DUP1 PUSH4 0xC878FE95 EQ PUSH2 0xB7 JUMPI DUP1 PUSH4 0xE532B61D EQ PUSH2 0xB2 JUMPI DUP1 PUSH4 0xF07108A0 EQ PUSH2 0xAD JUMPI PUSH4 0xF23A6E61 EQ PUSH2 0xA8 JUMPI PUSH0 DUP1 REVERT JUMPDEST PUSH2 0x6B4 JUMP JUMPDEST PUSH2 0x670 JUMP JUMPDEST PUSH2 0x62C JUMP JUMPDEST PUSH2 0x554 JUMP JUMPDEST PUSH2 0x49C JUMP JUMPDEST PUSH2 0x34B JUMP JUMPDEST PUSH2 0x307 JUMP JUMPDEST PUSH2 0x2C3 JUMP JUMPDEST PUSH2 0x27F JUMP JUMPDEST PUSH2 0x245 JUMP JUMPDEST PUSH2 0x182 JUMP JUMPDEST PUSH2 0x148 JUMP JUMPDEST CALLVALUE PUSH2 0x13A JUMPI PUSH1 0x20 CALLDATASIZE PUSH1 0x3 NOT ADD SLT PUSH2 0x13A JUMPI PUSH1 0x4 CALLDATALOAD PUSH4 0xFFFFFFFF PUSH1 0xE0 SHL DUP2 AND DUP1 SWAP2 SUB PUSH2 0x13A JUMPI PUSH1 0x20 SWAP1 PUSH4 0x2711897 PUSH1 0xE5 SHL DUP2 EQ SWAP1 DUP2 ISZERO PUSH2 0x129 JUMPI JUMPDEST POP PUSH1 0x40 MLOAD SWAP1 ISZERO ISZERO DUP2 MSTORE RETURN JUMPDEST PUSH4 0x1FFC9A7 PUSH1 0xE0 SHL EQ SWAP1 POP PUSH0 PUSH2 0x11E JUMP JUMPDEST PUSH0 DUP1 REVERT JUMPDEST PUSH0 SWAP2 SUB SLT PUSH2 0x13A JUMPI JUMP JUMPDEST CALLVALUE PUSH2 0x13A JUMPI PUSH0 CALLDATASIZE PUSH1 0x3 NOT ADD SLT PUSH2 0x13A JUMPI PUSH1 0x20 PUSH1 0x40 MLOAD PUSH32 0xF3F5858942140FD2894EEB8B74CD0ED72D24FC6675D352A2884B1BE2F32256FE DUP2 MSTORE RETURN JUMPDEST CALLVALUE PUSH2 0x13A JUMPI PUSH0 PUSH1 0x20 CALLDATASIZE PUSH1 0x3 NOT ADD SLT PUSH2 0x13A JUMPI PUSH32 0x0 PUSH1 0x1 PUSH1 0x1 PUSH1 0xA0 SHL SUB AND CALLER SUB PUSH2 0x236 JUMPI PUSH32 0x0 PUSH1 0x1 PUSH1 0x1 PUSH1 0xA0 SHL SUB AND DUP1 EXTCODESIZE ISZERO PUSH2 0x13A JUMPI PUSH0 DUP1 SWAP2 PUSH1 0x24 PUSH1 0x40 MLOAD DUP1 SWAP5 DUP2 SWAP4 PUSH4 0x3857D9D7 PUSH1 0xE0 SHL DUP4 MSTORE PUSH1 0x4 CALLDATALOAD PUSH1 0x4 DUP5 ADD MSTORE GAS CALL DUP1 ISZERO PUSH2 0x231 JUMPI PUSH2 0x223 JUMPI POP DUP1 RETURN JUMPDEST PUSH2 0x22F SWAP2 POP PUSH0 SWAP1 PUSH2 0x3AA JUMP JUMPDEST STOP JUMPDEST PUSH2 0x750 JUMP JUMPDEST PUSH4 0x6346B2B7 PUSH1 0xE0 SHL PUSH0 MSTORE PUSH1 0x4 PUSH0 REVERT JUMPDEST CALLVALUE PUSH2 0x13A JUMPI PUSH0 CALLDATASIZE PUSH1 0x3 NOT ADD SLT PUSH2 0x13A JUMPI PUSH1 0x20 PUSH1 0x40 MLOAD PUSH32 0x0 DUP2 MSTORE RETURN JUMPDEST CALLVALUE PUSH2 0x13A JUMPI PUSH0 CALLDATASIZE PUSH1 0x3 NOT ADD SLT PUSH2 0x13A JUMPI PUSH1 0x40 MLOAD PUSH32 0x0 PUSH1 0x1 PUSH1 0x1 PUSH1 0xA0 SHL SUB AND DUP2 MSTORE PUSH1 0x20 SWAP1 RETURN JUMPDEST CALLVALUE PUSH2 0x13A JUMPI PUSH0 CALLDATASIZE PUSH1 0x3 NOT ADD SLT PUSH2 0x13A JUMPI PUSH1 0x40 MLOAD PUSH32 0x0 PUSH1 0x1 PUSH1 0x1 PUSH1 0xA0 SHL SUB AND DUP2 MSTORE PUSH1 0x20 SWAP1 RETURN JUMPDEST CALLVALUE PUSH2 0x13A JUMPI PUSH0 CALLDATASIZE PUSH1 0x3 NOT ADD SLT PUSH2 0x13A JUMPI PUSH1 0x40 MLOAD PUSH32 0x0 PUSH1 0x1 PUSH1 0x1 PUSH1 0xA0 SHL SUB AND DUP2 MSTORE PUSH1 0x20 SWAP1 RETURN JUMPDEST CALLVALUE PUSH2 0x13A JUMPI PUSH0 CALLDATASIZE PUSH1 0x3 NOT ADD SLT PUSH2 0x13A JUMPI PUSH1 0x20 PUSH1 0x40 MLOAD PUSH32 0x9D28938B56C0E8AAE8DD05E12461CBABF8F699236C3FD7C54C7D3BB9FB443ED2 DUP2 MSTORE RETURN JUMPDEST PUSH1 0x1 PUSH1 0x1 PUSH1 0xA0 SHL SUB DUP2 AND SUB PUSH2 0x13A JUMPI JUMP JUMPDEST PUSH4 0x4E487B71 PUSH1 0xE0 SHL PUSH0 MSTORE PUSH1 0x41 PUSH1 0x4 MSTORE PUSH1 0x24 PUSH0 REVERT JUMPDEST SWAP1 PUSH1 0x1F DUP1 NOT SWAP2 ADD AND DUP2 ADD SWAP1 DUP2 LT PUSH8 0xFFFFFFFFFFFFFFFF DUP3 GT OR PUSH2 0x3CC JUMPI PUSH1 0x40 MSTORE JUMP JUMPDEST PUSH2 0x396 JUMP JUMPDEST PUSH8 0xFFFFFFFFFFFFFFFF DUP2 GT PUSH2 0x3CC JUMPI PUSH1 0x5 SHL PUSH1 0x20 ADD SWAP1 JUMP JUMPDEST SWAP1 DUP1 PUSH1 0x1F DUP4 ADD SLT ISZERO PUSH2 0x13A JUMPI DUP2 CALLDATALOAD PUSH2 0x400 DUP2 PUSH2 0x3D1 JUMP JUMPDEST SWAP3 PUSH2 0x40E PUSH1 0x40 MLOAD SWAP5 DUP6 PUSH2 0x3AA JUMP JUMPDEST DUP2 DUP5 MSTORE PUSH1 0x20 DUP1 DUP6 ADD SWAP3 PUSH1 0x5 SHL DUP3 ADD ADD SWAP3 DUP4 GT PUSH2 0x13A JUMPI PUSH1 0x20 ADD SWAP1 JUMPDEST DUP3 DUP3 LT PUSH2 0x436 JUMPI POP POP POP SWAP1 JUMP JUMPDEST DUP2 CALLDATALOAD DUP2 MSTORE PUSH1 0x20 SWAP2 DUP3 ADD SWAP2 ADD PUSH2 0x429 JUMP JUMPDEST DUP2 PUSH1 0x1F DUP3 ADD SLT ISZERO PUSH2 0x13A JUMPI DUP1 CALLDATALOAD SWAP1 PUSH8 0xFFFFFFFFFFFFFFFF DUP3 GT PUSH2 0x3CC JUMPI PUSH1 0x40 MLOAD SWAP3 PUSH2 0x47B PUSH1 0x1F DUP5 ADD PUSH1 0x1F NOT AND PUSH1 0x20 ADD DUP6 PUSH2 0x3AA JUMP JUMPDEST DUP3 DUP5 MSTORE PUSH1 0x20 DUP4 DUP4 ADD ADD GT PUSH2 0x13A JUMPI DUP2 PUSH0 SWAP3 PUSH1 0x20 DUP1 SWAP4 ADD DUP4 DUP7 ADD CALLDATACOPY DUP4 ADD ADD MSTORE SWAP1 JUMP JUMPDEST CALLVALUE PUSH2 0x13A JUMPI PUSH1 0xA0 CALLDATASIZE PUSH1 0x3 NOT ADD SLT PUSH2 0x13A JUMPI PUSH1 0x4 CALLDATALOAD PUSH2 0x4B9 DUP2 PUSH2 0x385 JUMP JUMPDEST PUSH1 0x24 CALLDATALOAD SWAP1 PUSH2 0x4C6 DUP3 PUSH2 0x385 JUMP JUMPDEST PUSH1 0x44 CALLDATALOAD PUSH8 0xFFFFFFFFFFFFFFFF DUP2 GT PUSH2 0x13A JUMPI PUSH2 0x4E6 SWAP1 CALLDATASIZE SWAP1 PUSH1 0x4 ADD PUSH2 0x3E9 JUMP JUMPDEST SWAP1 PUSH1 0x64 CALLDATALOAD PUSH8 0xFFFFFFFFFFFFFFFF DUP2 GT PUSH2 0x13A JUMPI PUSH2 0x507 SWAP1 CALLDATASIZE SWAP1 PUSH1 0x4 ADD PUSH2 0x3E9 JUMP JUMPDEST PUSH1 0x84 CALLDATALOAD SWAP3 PUSH8 0xFFFFFFFFFFFFFFFF DUP5 GT PUSH2 0x13A JUMPI PUSH2 0x550 SWAP5 PUSH2 0x52F PUSH2 0x535 SWAP6 CALLDATASIZE SWAP1 PUSH1 0x4 ADD PUSH2 0x446 JUMP JUMPDEST SWAP4 PUSH2 0x75B JUMP JUMPDEST PUSH1 0x40 MLOAD PUSH1 0x1 PUSH1 0x1 PUSH1 0xE0 SHL SUB NOT SWAP1 SWAP2 AND DUP2 MSTORE SWAP1 DUP2 SWAP1 PUSH1 0x20 DUP3 ADD SWAP1 JUMP JUMPDEST SUB SWAP1 RETURN JUMPDEST CALLVALUE PUSH2 0x13A JUMPI PUSH0 PUSH1 0x40 CALLDATASIZE PUSH1 0x3 NOT ADD SLT PUSH2 0x13A JUMPI PUSH1 0x4 CALLDATALOAD PUSH2 0x572 DUP2 PUSH2 0x385 JUMP JUMPDEST PUSH1 0x24 CALLDATALOAD SWAP1 PUSH12 0xFFFFFFFFFFFFFFFFFFFFFFFF DUP3 AND DUP1 SWAP3 SUB PUSH2 0x13A JUMPI PUSH32 0x0 PUSH1 0x1 PUSH1 0x1 PUSH1 0xA0 SHL SUB AND CALLER SUB PUSH2 0x236 JUMPI PUSH32 0x0 PUSH1 0x1 PUSH1 0x1 PUSH1 0xA0 SHL SUB AND SWAP2 DUP3 EXTCODESIZE ISZERO PUSH2 0x13A JUMPI PUSH1 0x40 MLOAD PUSH4 0x75DCEBC7 PUSH1 0xE0 SHL DUP2 MSTORE PUSH1 0x1 PUSH1 0x1 PUSH1 0xA0 SHL SUB SWAP1 SWAP3 AND PUSH1 0x4 DUP4 ADD MSTORE PUSH1 0x24 DUP3 ADD MSTORE SWAP1 PUSH0 SWAP1 DUP3 SWAP1 PUSH1 0x44 SWAP1 DUP3 SWAP1 DUP5 SWAP1 GAS CALL DUP1 ISZERO PUSH2 0x231 JUMPI PUSH2 0x223 JUMPI POP DUP1 RETURN JUMPDEST CALLVALUE PUSH2 0x13A JUMPI PUSH0 CALLDATASIZE PUSH1 0x3 NOT ADD SLT PUSH2 0x13A JUMPI PUSH1 0x40 MLOAD PUSH32 0x0 PUSH1 0x1 PUSH1 0x1 PUSH1 0xA0 SHL SUB AND DUP2 MSTORE PUSH1 0x20 SWAP1 RETURN JUMPDEST CALLVALUE PUSH2 0x13A JUMPI PUSH0 CALLDATASIZE PUSH1 0x3 NOT ADD SLT PUSH2 0x13A JUMPI PUSH1 0x40 MLOAD PUSH32 0x0 PUSH1 0x1 PUSH1 0x1 PUSH1 0xA0 SHL SUB AND DUP2 MSTORE PUSH1 0x20 SWAP1 RETURN JUMPDEST CALLVALUE PUSH2 0x13A JUMPI PUSH1 0xA0 CALLDATASIZE PUSH1 0x3 NOT ADD SLT PUSH2 0x13A JUMPI PUSH2 0x6D0 PUSH1 0x4 CALLDATALOAD PUSH2 0x385 JUMP JUMPDEST PUSH1 0x24 CALLDATALOAD PUSH2 0x6DC DUP2 PUSH2 0x385 JUMP JUMPDEST PUSH1 0x44 CALLDATALOAD SWAP1 PUSH1 0x64 CALLDATALOAD PUSH1 0x84 CALLDATALOAD PUSH8 0xFFFFFFFFFFFFFFFF DUP2 GT PUSH2 0x13A JUMPI PUSH2 0x703 SWAP1 CALLDATASIZE SWAP1 PUSH1 0x4 ADD PUSH2 0x446 JUMP JUMPDEST SWAP1 PUSH32 0x0 PUSH1 0x1 PUSH1 0x1 PUSH1 0xA0 SHL SUB AND CALLER SUB PUSH2 0x741 JUMPI PUSH2 0x550 SWAP4 PUSH2 0x535 SWAP4 PUSH2 0xAE1 JUMP JUMPDEST PUSH4 0x58A7C73 PUSH1 0xE3 SHL PUSH0 MSTORE PUSH1 0x4 PUSH0 REVERT JUMPDEST PUSH1 0x40 MLOAD RETURNDATASIZE PUSH0 DUP3 RETURNDATACOPY RETURNDATASIZE SWAP1 REVERT JUMPDEST POP SWAP1 SWAP4 SWAP1 SWAP3 PUSH32 0x0 PUSH1 0x1 PUSH1 0x1 PUSH1 0xA0 SHL SUB AND SWAP3 SWAP1 SWAP2 CALLER DUP5 SWAP1 SUB PUSH2 0x741 JUMPI PUSH1 0x1 PUSH1 0x1 PUSH1 0xA0 SHL SUB DUP6 AND ISZERO PUSH2 0x8C9 JUMPI DUP6 MLOAD DUP3 MLOAD SUB PUSH2 0x8C9 JUMPI DUP6 MLOAD PUSH0 SWAP7 SWAP6 SWAP5 SWAP4 SWAP1 PUSH2 0x7BE SWAP1 PUSH2 0x8FA JUMP JUMPDEST SWAP4 PUSH0 JUMPDEST DUP8 MLOAD DUP2 LT ISZERO PUSH2 0x837 JUMPI DUP1 PUSH2 0x82C PUSH2 0x813 PUSH2 0x807 PUSH2 0x7FA DUP5 PUSH2 0x7F4 DUP15 SWAP16 SWAP14 SWAP15 SWAP13 SWAP14 PUSH2 0x7ED PUSH1 0x1 SWAP10 DUP15 PUSH2 0x952 JUMP JUMPDEST MLOAD SWAP1 PUSH2 0x97A JUMP JUMPDEST SWAP12 PUSH2 0x952 JUMP JUMPDEST MLOAD PUSH1 0x1 PUSH1 0x1 PUSH1 0xA0 SHL SUB AND SWAP1 JUMP JUMPDEST PUSH1 0x1 PUSH1 0x1 PUSH1 0xA0 SHL SUB AND SWAP1 JUMP JUMPDEST PUSH2 0x81D DUP4 DUP12 PUSH2 0x952 JUMP JUMPDEST PUSH1 0x1 PUSH1 0x1 PUSH1 0xA0 SHL SUB SWAP1 SWAP2 AND SWAP1 MSTORE JUMP JUMPDEST ADD SWAP7 SWAP6 SWAP5 SWAP8 SWAP7 PUSH2 0x7C1 JUMP JUMPDEST POP SWAP3 SWAP6 POP PUSH2 0x848 SWAP2 SWAP7 DUP2 SWAP5 SWAP6 PUSH2 0xF98 JUMP JUMPDEST DUP1 EXTCODESIZE ISZERO PUSH2 0x13A JUMPI PUSH2 0x894 SWAP4 PUSH0 DUP1 SWAP5 PUSH1 0x40 MLOAD SWAP7 DUP8 SWAP6 DUP7 SWAP5 DUP6 SWAP4 PUSH4 0x6CB498E5 PUSH1 0xE0 SHL DUP6 MSTORE PUSH32 0x0 PUSH1 0x4 DUP7 ADD PUSH2 0x9B0 JUMP JUMPDEST SUB SWAP3 GAS CALL DUP1 ISZERO PUSH2 0x231 JUMPI PUSH2 0x8AF JUMPI JUMPDEST POP PUSH4 0xBC197C81 PUSH1 0xE0 SHL SWAP1 JUMP JUMPDEST DUP1 PUSH2 0x8BD PUSH0 PUSH2 0x8C3 SWAP4 PUSH2 0x3AA JUMP JUMPDEST DUP1 PUSH2 0x13E JUMP JUMPDEST PUSH0 PUSH2 0x8A3 JUMP JUMPDEST PUSH4 0xCAC5BFFB PUSH1 0xE0 SHL PUSH0 MSTORE PUSH1 0x4 PUSH0 REVERT JUMPDEST PUSH1 0x40 DUP1 MLOAD SWAP1 SWAP2 SWAP1 PUSH2 0x8E9 DUP4 DUP3 PUSH2 0x3AA JUMP JUMPDEST PUSH1 0x1 DUP2 MSTORE SWAP2 PUSH1 0x1F NOT ADD CALLDATASIZE PUSH1 0x20 DUP5 ADD CALLDATACOPY JUMP JUMPDEST SWAP1 PUSH2 0x904 DUP3 PUSH2 0x3D1 JUMP JUMPDEST PUSH2 0x911 PUSH1 0x40 MLOAD SWAP2 DUP3 PUSH2 0x3AA JUMP JUMPDEST DUP3 DUP2 MSTORE DUP1 SWAP3 PUSH2 0x922 PUSH1 0x1F NOT SWAP2 PUSH2 0x3D1 JUMP JUMPDEST ADD SWAP1 PUSH1 0x20 CALLDATASIZE SWAP2 ADD CALLDATACOPY JUMP JUMPDEST PUSH4 0x4E487B71 PUSH1 0xE0 SHL PUSH0 MSTORE PUSH1 0x32 PUSH1 0x4 MSTORE PUSH1 0x24 PUSH0 REVERT JUMPDEST DUP1 MLOAD ISZERO PUSH2 0x94D JUMPI PUSH1 0x20 ADD SWAP1 JUMP JUMPDEST PUSH2 0x92C JUMP JUMPDEST DUP1 MLOAD DUP3 LT ISZERO PUSH2 0x94D JUMPI PUSH1 0x20 SWAP2 PUSH1 0x5 SHL ADD ADD SWAP1 JUMP JUMPDEST PUSH4 0x4E487B71 PUSH1 0xE0 SHL PUSH0 MSTORE PUSH1 0x11 PUSH1 0x4 MSTORE PUSH1 0x24 PUSH0 REVERT JUMPDEST SWAP2 SWAP1 DUP3 ADD DUP1 SWAP3 GT PUSH2 0x987 JUMPI JUMP JUMPDEST PUSH2 0x966 JUMP JUMPDEST DUP1 MLOAD DUP1 DUP4 MSTORE PUSH1 0x20 SWAP3 SWAP2 DUP2 SWAP1 DUP5 ADD DUP5 DUP5 ADD MCOPY PUSH0 DUP3 DUP3 ADD DUP5 ADD MSTORE PUSH1 0x1F ADD PUSH1 0x1F NOT AND ADD ADD SWAP1 JUMP JUMPDEST PUSH1 0x1 PUSH1 0x1 PUSH1 0xA0 SHL SUB SWAP1 SWAP2 AND DUP2 MSTORE PUSH1 0x80 PUSH1 0x20 DUP1 DUP4 ADD DUP3 SWAP1 MSTORE DUP4 MLOAD SWAP2 DUP4 ADD DUP3 SWAP1 MSTORE PUSH1 0xA0 DUP4 ADD SWAP7 SWAP6 SWAP4 ADD SWAP1 PUSH0 JUMPDEST DUP2 DUP2 LT PUSH2 0xA32 JUMPI POP POP POP DUP1 DUP6 SUB PUSH1 0x40 DUP3 ADD MSTORE PUSH1 0x20 DUP1 DUP5 MLOAD SWAP7 DUP8 DUP2 MSTORE ADD SWAP4 ADD PUSH0 SWAP6 JUMPDEST DUP1 DUP8 LT PUSH2 0xA1A JUMPI POP POP PUSH2 0xA17 SWAP4 SWAP5 POP PUSH1 0x60 DUP2 DUP5 SUB SWAP2 ADD MSTORE PUSH2 0x98C JUMP JUMPDEST SWAP1 JUMP JUMPDEST SWAP1 SWAP4 PUSH1 0x20 DUP1 PUSH1 0x1 SWAP3 DUP8 MLOAD DUP2 MSTORE ADD SWAP6 ADD SWAP7 ADD SWAP6 SWAP1 PUSH2 0x9FB JUMP JUMPDEST DUP3 MLOAD PUSH1 0x1 PUSH1 0x1 PUSH1 0xA0 SHL SUB AND DUP9 MSTORE PUSH1 0x20 SWAP8 DUP9 ADD SWAP8 SWAP1 SWAP3 ADD SWAP2 PUSH1 0x1 ADD PUSH2 0x9DA JUMP JUMPDEST SWAP1 DUP2 PUSH1 0x20 SWAP2 SUB SLT PUSH2 0x13A JUMPI MLOAD SWAP1 JUMP JUMPDEST PUSH0 NOT DUP2 ADD SWAP2 SWAP1 DUP3 GT PUSH2 0x987 JUMPI JUMP JUMPDEST SWAP2 SWAP1 DUP3 SUB SWAP2 DUP3 GT PUSH2 0x987 JUMPI JUMP JUMPDEST SWAP1 DUP2 PUSH1 0x20 SWAP2 SUB SLT PUSH2 0x13A JUMPI MLOAD PUSH2 0xA17 DUP2 PUSH2 0x385 JUMP JUMPDEST SWAP1 DUP2 PUSH1 0x20 SWAP2 SUB SLT PUSH2 0x13A JUMPI MLOAD DUP1 ISZERO ISZERO DUP2 SUB PUSH2 0x13A JUMPI SWAP1 JUMP JUMPDEST PUSH1 0x1 PUSH1 0x1 PUSH1 0xA0 SHL SUB SWAP2 DUP3 AND DUP2 MSTORE SWAP2 AND PUSH1 0x20 DUP3 ADD MSTORE PUSH1 0x40 DUP2 ADD SWAP2 SWAP1 SWAP2 MSTORE PUSH1 0x60 DUP2 ADD SWAP2 SWAP1 SWAP2 MSTORE PUSH1 0xA0 PUSH1 0x80 DUP3 ADD DUP2 SWAP1 MSTORE PUSH2 0xA17 SWAP3 SWAP2 ADD SWAP1 PUSH2 0x98C JUMP JUMPDEST SWAP1 SWAP3 SWAP1 PUSH1 0x1 PUSH1 0x1 PUSH1 0xA0 SHL SUB DUP2 AND ISZERO PUSH2 0xBD4 JUMPI DUP2 DUP4 PUSH2 0xAFE SWAP3 PUSH2 0xF98 JUMP JUMPDEST PUSH2 0xB06 PUSH2 0x8D8 JUMP JUMPDEST SWAP2 PUSH2 0xB25 PUSH2 0xB12 PUSH2 0x8D8 JUMP JUMPDEST SWAP5 PUSH1 0x1 PUSH1 0x1 PUSH1 0xA0 SHL SUB AND PUSH2 0x81D DUP6 PUSH2 0x940 JUMP JUMPDEST PUSH2 0xB2E DUP5 PUSH2 0x940 JUMP JUMPDEST MSTORE PUSH32 0x0 PUSH1 0x1 PUSH1 0x1 PUSH1 0xA0 SHL SUB AND DUP1 EXTCODESIZE ISZERO PUSH2 0x13A JUMPI PUSH2 0xBA5 SWAP4 PUSH0 DUP1 SWAP5 PUSH1 0x40 MLOAD SWAP7 DUP8 SWAP6 DUP7 SWAP5 DUP6 SWAP4 PUSH4 0x6CB498E5 PUSH1 0xE0 SHL DUP6 MSTORE PUSH32 0x0 PUSH1 0x4 DUP7 ADD PUSH2 0x9B0 JUMP JUMPDEST SUB SWAP3 GAS CALL DUP1 ISZERO PUSH2 0x231 JUMPI PUSH2 0xBC0 JUMPI JUMPDEST POP PUSH4 0xF23A6E61 PUSH1 0xE0 SHL SWAP1 JUMP JUMPDEST DUP1 PUSH2 0x8BD PUSH0 PUSH2 0xBCE SWAP4 PUSH2 0x3AA JUMP JUMPDEST PUSH0 PUSH2 0xBB4 JUMP JUMPDEST POP PUSH0 MLOAD PUSH1 0x20 PUSH2 0x1134 PUSH0 CODECOPY PUSH0 MLOAD SWAP1 PUSH0 MSTORE TLOAD SWAP3 PUSH0 MLOAD PUSH1 0x20 PUSH2 0x1154 PUSH0 CODECOPY PUSH0 MLOAD SWAP1 PUSH0 MSTORE TLOAD SWAP3 PUSH32 0x6136ADCD727E05279D0BEB0B97407672ABC1607384D66AEC4A65A09DAA5BBA68 TLOAD SWAP3 SWAP2 DUP5 SWAP2 DUP3 EQ SWAP1 DUP2 PUSH2 0xF6E JUMPI JUMPDEST POP ISZERO PUSH2 0x8C9 JUMPI PUSH2 0xC32 PUSH2 0x10CA JUMP JUMPDEST DUP5 PUSH2 0xD0F JUMPI POP PUSH32 0x0 PUSH1 0x1 PUSH1 0x1 PUSH1 0xA0 SHL SUB AND DUP1 EXTCODESIZE ISZERO PUSH2 0x13A JUMPI PUSH1 0x40 MLOAD PUSH4 0x79212195 PUSH1 0xE1 SHL DUP2 MSTORE SWAP2 PUSH0 SWAP2 DUP4 SWAP2 DUP3 SWAP1 DUP5 SWAP1 DUP3 SWAP1 PUSH2 0xCB2 SWAP1 DUP11 PUSH32 0x0 DUP12 ADDRESS PUSH1 0x4 DUP8 ADD PUSH2 0xAA8 JUMP JUMPDEST SUB SWAP3 GAS CALL DUP1 ISZERO PUSH2 0x231 JUMPI PUSH2 0xCFB JUMPI JUMPDEST POP JUMPDEST PUSH1 0x1 PUSH1 0x1 PUSH1 0xA0 SHL SUB AND PUSH32 0x4442AF9FC0F6466CEA71A55E8CAE87EF09853F682DC82B362E4C8981944AFA39 PUSH0 DUP1 LOG4 PUSH4 0xF23A6E61 PUSH1 0xE0 SHL SWAP1 JUMP JUMPDEST DUP1 PUSH2 0x8BD PUSH0 PUSH2 0xD09 SWAP4 PUSH2 0x3AA JUMP JUMPDEST PUSH0 PUSH2 0xCC1 JUMP JUMPDEST SWAP3 POP POP PUSH1 0x1 DUP4 SUB PUSH2 0xF48 JUMPI PUSH32 0x0 JUMPDEST PUSH1 0x40 MLOAD PUSH4 0x70A08231 PUSH1 0xE0 SHL DUP2 MSTORE ADDRESS PUSH1 0x4 DUP3 ADD MSTORE PUSH1 0x1 PUSH1 0x1 PUSH1 0xA0 SHL SUB SWAP2 SWAP1 SWAP2 AND SWAP3 PUSH1 0x20 DUP3 PUSH1 0x24 DUP2 DUP8 GAS STATICCALL SWAP2 DUP3 ISZERO PUSH2 0x231 JUMPI PUSH0 SWAP3 PUSH2 0xF22 JUMPI JUMPDEST POP PUSH1 0x20 PUSH2 0xDE4 SWAP2 PUSH2 0xD8C PUSH2 0xD86 DUP9 PUSH2 0xA60 JUMP JUMPDEST PUSH1 0xFF AND SWAP1 JUMP JUMPDEST PUSH1 0x40 MLOAD PUSH4 0x2AAF5A55 PUSH1 0xE2 SHL DUP2 MSTORE PUSH1 0x1 PUSH1 0x1 PUSH1 0xA0 SHL SUB PUSH32 0x0 AND PUSH1 0x4 DUP3 ADD MSTORE PUSH1 0x24 DUP2 ADD SWAP3 SWAP1 SWAP3 MSTORE PUSH1 0xFF AND PUSH1 0x44 DUP3 ADD MSTORE SWAP2 DUP3 SWAP1 DUP2 SWAP1 PUSH1 0x64 DUP3 ADD SWAP1 JUMP JUMPDEST SUB DUP2 PUSH0 PUSH32 0x0 PUSH1 0x1 PUSH1 0x1 PUSH1 0xA0 SHL SUB AND GAS CALL DUP1 ISZERO PUSH2 0x231 JUMPI PUSH2 0xEF5 JUMPI JUMPDEST POP PUSH1 0x40 MLOAD PUSH4 0x70A08231 PUSH1 0xE0 SHL DUP2 MSTORE ADDRESS PUSH1 0x4 DUP3 ADD MSTORE SWAP1 PUSH1 0x20 DUP3 PUSH1 0x24 DUP2 DUP8 GAS STATICCALL DUP1 ISZERO PUSH2 0x231 JUMPI PUSH2 0xE53 SWAP3 PUSH0 SWAP2 PUSH2 0xEC6 JUMPI JUMPDEST POP PUSH2 0xA6E JUMP JUMPDEST PUSH1 0x40 MLOAD PUSH4 0xA9059CBB PUSH1 0xE0 SHL DUP2 MSTORE PUSH1 0x1 PUSH1 0x1 PUSH1 0xA0 SHL SUB DUP4 AND PUSH1 0x4 DUP3 ADD MSTORE PUSH1 0x24 DUP2 ADD DUP3 SWAP1 MSTORE SWAP1 SWAP3 PUSH1 0x20 SWAP1 DUP3 SWAP1 PUSH1 0x44 SWAP1 DUP3 SWAP1 PUSH0 SWAP1 GAS CALL DUP1 ISZERO PUSH2 0x231 JUMPI PUSH2 0xE97 JUMPI JUMPDEST POP PUSH2 0xCC3 JUMP JUMPDEST PUSH2 0xEB8 SWAP1 PUSH1 0x20 RETURNDATASIZE PUSH1 0x20 GT PUSH2 0xEBF JUMPI JUMPDEST PUSH2 0xEB0 DUP2 DUP4 PUSH2 0x3AA JUMP JUMPDEST DUP2 ADD SWAP1 PUSH2 0xA90 JUMP JUMPDEST POP PUSH0 PUSH2 0xE91 JUMP JUMPDEST POP RETURNDATASIZE PUSH2 0xEA6 JUMP JUMPDEST PUSH2 0xEE8 SWAP2 POP PUSH1 0x20 RETURNDATASIZE PUSH1 0x20 GT PUSH2 0xEEE JUMPI JUMPDEST PUSH2 0xEE0 DUP2 DUP4 PUSH2 0x3AA JUMP JUMPDEST DUP2 ADD SWAP1 PUSH2 0xA51 JUMP JUMPDEST PUSH0 PUSH2 0xE4D JUMP JUMPDEST POP RETURNDATASIZE PUSH2 0xED6 JUMP JUMPDEST PUSH2 0xF16 SWAP1 PUSH1 0x20 RETURNDATASIZE PUSH1 0x20 GT PUSH2 0xF1B JUMPI JUMPDEST PUSH2 0xF0E DUP2 DUP4 PUSH2 0x3AA JUMP JUMPDEST DUP2 ADD SWAP1 PUSH2 0xA7B JUMP JUMPDEST PUSH2 0xE1E JUMP JUMPDEST POP RETURNDATASIZE PUSH2 0xF04 JUMP JUMPDEST PUSH2 0xDE4 SWAP2 SWAP3 POP PUSH2 0xF40 PUSH1 0x20 SWAP2 DUP3 RETURNDATASIZE DUP5 GT PUSH2 0xEEE JUMPI PUSH2 0xEE0 DUP2 DUP4 PUSH2 0x3AA JUMP JUMPDEST SWAP3 SWAP2 POP PUSH2 0xD73 JUMP JUMPDEST PUSH32 0x0 PUSH2 0xD3C JUMP JUMPDEST SWAP1 POP PUSH32 0x0 EQ PUSH0 PUSH2 0xC24 JUMP JUMPDEST PUSH0 SWAP3 DUP3 ISZERO PUSH2 0x10BB JUMPI PUSH0 MLOAD PUSH1 0x20 PUSH2 0x1154 PUSH0 CODECOPY PUSH0 MLOAD SWAP1 PUSH0 MSTORE TLOAD ISZERO PUSH2 0xFC3 JUMPI PUSH4 0xA896A065 PUSH1 0xE0 SHL PUSH0 MSTORE PUSH1 0x4 PUSH0 REVERT JUMPDEST DUP3 PUSH0 MLOAD PUSH1 0x20 PUSH2 0x1154 PUSH0 CODECOPY PUSH0 MLOAD SWAP1 PUSH0 MSTORE TSTORE DUP2 PUSH32 0x6136ADCD727E05279D0BEB0B97407672ABC1607384D66AEC4A65A09DAA5BBA68 TSTORE PUSH1 0x1F DUP2 MLOAD GT PUSH2 0x1030 JUMPI JUMPDEST POP PUSH1 0x1 PUSH1 0x1 PUSH1 0xA0 SHL SUB AND PUSH32 0xA4466AA34AD627877204336E07A065A4DA68FB136D84533A7B17290B86154DE9 PUSH0 DUP1 LOG4 JUMP JUMPDEST PUSH1 0x20 ADD MLOAD DUP1 PUSH32 0xF3F5858942140FD2894EEB8B74CD0ED72D24FC6675D352A2884B1BE2F32256FE EQ PUSH2 0x10A1 JUMPI PUSH32 0x9D28938B56C0E8AAE8DD05E12461CBABF8F699236C3FD7C54C7D3BB9FB443ED2 EQ PUSH2 0x1088 JUMPI JUMPDEST PUSH0 PUSH2 0x1000 JUMP JUMPDEST PUSH1 0x2 SWAP3 POP DUP3 PUSH0 MLOAD PUSH1 0x20 PUSH2 0x1134 PUSH0 CODECOPY PUSH0 MLOAD SWAP1 PUSH0 MSTORE TSTORE PUSH2 0x1082 JUMP JUMPDEST POP PUSH1 0x1 SWAP3 POP DUP3 PUSH0 MLOAD PUSH1 0x20 PUSH2 0x1134 PUSH0 CODECOPY PUSH0 MLOAD SWAP1 PUSH0 MSTORE TSTORE PUSH2 0x1082 JUMP JUMPDEST PUSH4 0x3402A163 PUSH1 0xE0 SHL PUSH0 MSTORE PUSH1 0x4 PUSH0 REVERT JUMPDEST PUSH0 PUSH0 MLOAD PUSH1 0x20 PUSH2 0x1154 PUSH0 CODECOPY PUSH0 MLOAD SWAP1 PUSH0 MSTORE TSTORE PUSH0 PUSH32 0x6136ADCD727E05279D0BEB0B97407672ABC1607384D66AEC4A65A09DAA5BBA68 TSTORE PUSH0 PUSH0 MLOAD PUSH1 0x20 PUSH2 0x1134 PUSH0 CODECOPY PUSH0 MLOAD SWAP1 PUSH0 MSTORE TSTORE PUSH32 0x1992EF760E9F09C8C806016548A62B7FD11268379C371A730A1A06D621F002DC PUSH0 DUP1 LOG1 JUMP INVALID 0xCD 0xA7 ISZERO CALLER 0xCD STATICCALL GT 0xDC INVALID DUP7 SAR 0xBF LOG3 DUP12 SWAP6 PUSH13 0x85D855F8E75C6728C650AC844F 0x4F 0xD4 PUSH31 0xFB747A744F99E39F75C6FC4A40AE1E72605F4D4A2AA65E5E3D29E889D7F506 SHL LOG2 PUSH5 0x6970667358 0x22 SLT KECCAK256 CALLCODE 0xCC SELFDESTRUCT 0xC9 CALL 0xE2 0xC3 JUMPI MULMOD PUSH24 0x6C152951330582B65687874B48D1C8E0C93988DDDF386473 PUSH16 0x6C634300081C00330000000000000000 "},"methodIdentifiers":{"DEMURRAGE()":"6604495e","GROUP()":"e532b61d","GROUP_ID()":"4dd9c0b5","HUB()":"a4c52b86","INFLATIONARY()":"f07108a0","NAME_REGISTRY()":"a05c2616","TYPE_DEMURRAGE()":"033f7354","TYPE_INFLATIONARY()":"a855a717","mirrorTrust(address,uint96)":"c878fe95","onERC1155BatchReceived(address,address,uint256[],uint256[],bytes)":"bc197c81","onERC1155Received(address,address,uint256,uint256,bytes)":"f23a6e61","supportsInterface(bytes4)":"01ffc9a7","updateMetadataDigest(bytes32)":"3857d9d7"}}}}}