{"sol/implementations/CustomTreasury.sol":{"CustomTreasury":{"abi":[{"inputs":[{"internalType":"address","name":"_owner","type":"address"},{"internalType":"address","name":"_hub","type":"address"},{"internalType":"address","name":"_nameRegistry","type":"address"},{"internalType":"address","name":"_group","type":"address"},{"internalType":"string","name":"_groupName","type":"string"},{"internalType":"bytes32","name":"_metadataDigest","type":"bytes32"}],"stateMutability":"nonpayable","type":"constructor"},{"inputs":[],"name":"CollateralIsNotTrustedByGroup","type":"error"},{"inputs":[],"name":"InsufficientCollateral","type":"error"},{"inputs":[],"name":"OnlyGroup","type":"error"},{"inputs":[],"name":"OnlyHub","type":"error"},{"inputs":[],"name":"TransferFailed","type":"error"},{"inputs":[],"name":"WithdrawalFailed","type":"error"},{"anonymous":false,"inputs":[{"indexed":true,"internalType":"address","name":"depositor","type":"address"},{"indexed":false,"internalType":"uint256","name":"amount","type":"uint256"}],"name":"CollateralDeposited","type":"event"},{"anonymous":false,"inputs":[{"indexed":true,"internalType":"address","name":"withdrawer","type":"address"},{"indexed":false,"internalType":"uint256","name":"amount","type":"uint256"}],"name":"CollateralWithdrawn","type":"event"},{"anonymous":false,"inputs":[{"indexed":true,"internalType":"address","name":"recipient","type":"address"},{"indexed":false,"internalType":"uint256","name":"amount","type":"uint256"}],"name":"EmergencyWithdrawal","type":"event"},{"inputs":[],"name":"GROUP","outputs":[{"internalType":"address","name":"","type":"address"}],"stateMutability":"view","type":"function"},{"inputs":[],"name":"HUB","outputs":[{"internalType":"contract IHub","name":"","type":"address"}],"stateMutability":"view","type":"function"},{"inputs":[],"name":"NAME_REGISTRY","outputs":[{"internalType":"contract INameRegistry","name":"","type":"address"}],"stateMutability":"view","type":"function"},{"inputs":[],"name":"burn","outputs":[],"stateMutability":"nonpayable","type":"function"},{"inputs":[{"internalType":"address","name":"","type":"address"}],"name":"collateralBalances","outputs":[{"internalType":"uint256","name":"","type":"uint256"}],"stateMutability":"view","type":"function"},{"inputs":[],"name":"depositCollateral","outputs":[],"stateMutability":"payable","type":"function"},{"inputs":[{"internalType":"address","name":"_recipient","type":"address"}],"name":"emergencyWithdraw","outputs":[],"stateMutability":"nonpayable","type":"function"},{"inputs":[{"internalType":"address","name":"_address","type":"address"}],"name":"getCollateralBalance","outputs":[{"internalType":"uint256","name":"","type":"uint256"}],"stateMutability":"view","type":"function"},{"inputs":[{"internalType":"address","name":"","type":"address"},{"internalType":"address","name":"","type":"address"},{"internalType":"uint256[]","name":"_ids","type":"uint256[]"},{"internalType":"uint256[]","name":"","type":"uint256[]"},{"internalType":"bytes","name":"","type":"bytes"}],"name":"onERC1155BatchReceived","outputs":[{"internalType":"bytes4","name":"","type":"bytes4"}],"stateMutability":"nonpayable","type":"function"},{"inputs":[{"internalType":"address","name":"","type":"address"},{"internalType":"address","name":"","type":"address"},{"internalType":"uint256","name":"_id","type":"uint256"},{"internalType":"uint256","name":"","type":"uint256"},{"internalType":"bytes","name":"","type":"bytes"}],"name":"onERC1155Received","outputs":[{"internalType":"bytes4","name":"","type":"bytes4"}],"stateMutability":"nonpayable","type":"function"},{"inputs":[],"name":"owner","outputs":[{"internalType":"address","name":"","type":"address"}],"stateMutability":"view","type":"function"},{"inputs":[{"internalType":"address","name":"_newOwner","type":"address"}],"name":"setOwner","outputs":[],"stateMutability":"nonpayable","type":"function"},{"inputs":[{"internalType":"bytes4","name":"interfaceId","type":"bytes4"}],"name":"supportsInterface","outputs":[{"internalType":"bool","name":"","type":"bool"}],"stateMutability":"view","type":"function"},{"inputs":[],"name":"totalCollateral","outputs":[{"internalType":"uint256","name":"","type":"uint256"}],"stateMutability":"view","type":"function"},{"inputs":[{"internalType":"bytes32","name":"_metadataDigest","type":"bytes32"}],"name":"updateMetadataDigest","outputs":[],"stateMutability":"nonpayable","type":"function"},{"inputs":[{"internalType":"uint256","name":"_amount","type":"uint256"}],"name":"withdrawCollateral","outputs":[],"stateMutability":"nonpayable","type":"function"}],"evm":{"bytecode":{"linkReferences":{},"object":"60e080604052346102a0575f610e17803803809161001d82866102b8565b8439820160c0838203126102a057610034836102db565b92610041602082016102db565b9161004e604083016102db565b9261005b606084016102db565b60808401519094906001600160401b0381116102a057840183601f820112156102a0578051946001600160401b0386116102a457604051956100a7601f8201601f1916602001886102b8565b8087526020870195602082850101116102a0576020815f928260a09601895e8801015201519160018060a01b031660805260018060a01b031660a0528360c05261011f60096020604051809582820197518091895e8101682d747265617375727960b81b8382015203016016198101855201836102b8565b6080516001600160a01b0316803b156102a0575f9283606460405180978196829563bfde380d60e01b8452604060048501525180928160448601528585015e82820184018590526024830152601f01601f191681010301925af1801561029557610280575b506080516001600160a01b031690813b1561027c576040516375dcebc760e01b81526001600160a01b0390911660048201526001600160601b0360248201529082908290604490829084905af1801561027157610259575b600280546001600160a01b0319166001600160a01b038516179055604051610b2790816102f0823960805181818161011401528181610283015281816102ea015281816108b201526109e0015260a05181818161032f01526105a7015260c0518181816101cb01528181610577015281816108880152610a050152f35b6102648280926102b8565b61026e57806101dc565b80fd5b6040513d84823e3d90fd5b8280fd5b61028d9192505f906102b8565b5f905f610184565b6040513d5f823e3d90fd5b5f80fd5b634e487b7160e01b5f52604160045260245ffd5b601f909101601f19168101906001600160401b038211908210176102a457604052565b51906001600160a01b03821682036102a05756fe6080806040526004361015610012575f80fd5b5f905f3560e01c90816301ffc9a7146106b45750806313af4035146106675780632703ee851461063057806329bc969d146106305780633857d9d71461056357806344df8e70146105475780634ac8eb5f146105295780636112fe2e146104785780636f758140146104165780636ff1c9bc146103875780638da5cb5b1461035e578063a05c261614610319578063a4c52b86146102d4578063bc197c81146101fa578063e532b61d146101b55763f23a6e61146100ce575f80fd5b346101b25760a03660031901126101b2576100e7610707565b506100f061071d565b5060843567ffffffffffffffff81116101b0576101119036906004016107ee565b507f00000000000000000000000000000000000000000000000000000000000000006001600160a01b031633036101a157604051610150604082610733565b6001815260208082019036823781511561018d57610173925060443590526109d6565b61017b61086c565b60405163f23a6e6160e01b8152602090f35b634e487b7160e01b83526032600452602483fd5b63058a7c7360e31b8152600490fd5b505b80fd5b50346101b257806003193601126101b2576040517f00000000000000000000000000000000000000000000000000000000000000006001600160a01b03168152602090f35b50346101b25760a03660031901126101b257610214610707565b5061021d61071d565b5060443567ffffffffffffffff81116101b05761023e903690600401610769565b9060643567ffffffffffffffff81116101b05761025f903690600401610769565b5060843567ffffffffffffffff81116101b0576102809036906004016107ee565b507f00000000000000000000000000000000000000000000000000000000000000006001600160a01b031633036101a1576102ba826109d6565b6102c261086c565b60405163bc197c8160e01b8152602090f35b50346101b257806003193601126101b2576040517f00000000000000000000000000000000000000000000000000000000000000006001600160a01b03168152602090f35b50346101b257806003193601126101b2576040517f00000000000000000000000000000000000000000000000000000000000000006001600160a01b03168152602090f35b50346101b257806003193601126101b2576002546040516001600160a01b039091168152602090f35b50346101b25760203660031901126101b2576103a1610707565b6103b660018060a01b03600254163314610834565b47908280808085855af16103c861099a565b5015610407576040519182526001600160a01b0316907f23d6711a1d031134a36921253c75aa59e967d38e369ac625992824315e204f2090602090a280f35b6312171d8360e31b8352600483fd5b50806003193601126101b25733815280602052604081206104383482546109c9565b9055610446346001546109c9565b6001556040513481527fd7243f6f8212d5188fd054141cf6ea89cfc0d91facb8c3afe2f88a135848014260203392a280f35b50346101b25760203660031901126101b257600435338252816020528060408320541061051a5733825281602052604082206104b5828254610979565b90556104c381600154610979565b6001558180808084335af16104d661099a565b501561050b576040519081527fc30fcfbcaac9e0deffa719714eaa82396ff506a0d0d0eebe170830177288715d60203392a280f35b6327fcd9d160e01b8252600482fd5b633a23d82560e01b8252600482fd5b50346101b257806003193601126101b2576020600154604051908152f35b50346101b257806003193601126101b25761056061086c565b80f35b503461061d57602036600319011261061d577f00000000000000000000000000000000000000000000000000000000000000006001600160a01b03163303610621577f00000000000000000000000000000000000000000000000000000000000000006001600160a01b0316803b1561061d575f8091602460405180948193633857d9d760e01b835260043560048401525af1801561061257610604575080f35b61061091505f90610733565b005b6040513d5f823e3d90fd5b5f80fd5b636346b2b760e01b5f5260045ffd5b3461061d57602036600319011261061d576001600160a01b03610651610707565b165f525f602052602060405f2054604051908152f35b3461061d57602036600319011261061d57610680610707565b60025490610698336001600160a01b03841614610834565b6001600160a01b03166001600160a01b03199190911617600255005b3461061d57602036600319011261061d576004359063ffffffff60e01b821680920361061d57602091630271189760e51b81149081156106f6575b5015158152f35b6301ffc9a760e01b149050836106ef565b600435906001600160a01b038216820361061d57565b602435906001600160a01b038216820361061d57565b90601f8019910116810190811067ffffffffffffffff82111761075557604052565b634e487b7160e01b5f52604160045260245ffd5b9080601f8301121561061d5781359167ffffffffffffffff8311610755578260051b90602082019361079e6040519586610733565b845260208085019282010192831161061d57602001905b8282106107c25750505090565b81358152602091820191016107b5565b67ffffffffffffffff811161075557601f01601f191660200190565b81601f8201121561061d57803590610805826107d2565b926108136040519485610733565b8284526020838301011161061d57815f926020809301838601378301015290565b1561083b57565b60405162461bcd60e51b81526020600482015260096024820152682737ba1037bbb732b960b91b6044820152606490fd5b604051627eeac760e11b81523060048201526001600160a01b037f00000000000000000000000000000000000000000000000000000000000000008116602483018190527f000000000000000000000000000000000000000000000000000000000000000090911691602081604481865afa908115610612575f91610947575b50806108f757505050565b823b1561061d5760845f928360405195869485936380a5a37160e01b855260048501526024840152606060448401528160648401525af180156106125761093b5750565b5f61094591610733565b565b90506020813d602011610971575b8161096260209383610733565b8101031261061d57515f6108ec565b3d9150610955565b9190820391821161098657565b634e487b7160e01b5f52601160045260245ffd5b3d156109c4573d906109ab826107d2565b916109b96040519384610733565b82523d5f602084013e565b606090565b9190820180921161098657565b6001600160a01b037f0000000000000000000000000000000000000000000000000000000000000000811691907f0000000000000000000000000000000000000000000000000000000000000000165f5b8251811015610aeb578251811015610ad7576020600582901b84018101516040516306713e2360e41b8152600481018590526001600160a01b03909116602482015290816044815f895af1908115610612575f91610a9d575b5015610a8e57600101610a27565b631c74bb5760e11b5f5260045ffd5b90506020813d8211610acf575b81610ab760209383610733565b8101031261061d5751801515810361061d575f610a80565b3d9150610aaa565b634e487b7160e01b5f52603260045260245ffd5b5050505056fea2646970667358221220169d44faa233e9bf2f0e45419632c423c11b8877aabb031964a4d0df88ad9db264736f6c634300081c0033","opcodes":"PUSH1 0xE0 DUP1 PUSH1 0x40 MSTORE CALLVALUE PUSH2 0x2A0 JUMPI PUSH0 PUSH2 0xE17 DUP1 CODESIZE SUB DUP1 SWAP2 PUSH2 0x1D DUP3 DUP7 PUSH2 0x2B8 JUMP JUMPDEST DUP5 CODECOPY DUP3 ADD PUSH1 0xC0 DUP4 DUP3 SUB SLT PUSH2 0x2A0 JUMPI PUSH2 0x34 DUP4 PUSH2 0x2DB JUMP JUMPDEST SWAP3 PUSH2 0x41 PUSH1 0x20 DUP3 ADD PUSH2 0x2DB JUMP JUMPDEST SWAP2 PUSH2 0x4E PUSH1 0x40 DUP4 ADD PUSH2 0x2DB JUMP JUMPDEST SWAP3 PUSH2 0x5B PUSH1 0x60 DUP5 ADD PUSH2 0x2DB JUMP JUMPDEST PUSH1 0x80 DUP5 ADD MLOAD SWAP1 SWAP5 SWAP1 PUSH1 0x1 PUSH1 0x1 PUSH1 0x40 SHL SUB DUP2 GT PUSH2 0x2A0 JUMPI DUP5 ADD DUP4 PUSH1 0x1F DUP3 ADD SLT ISZERO PUSH2 0x2A0 JUMPI DUP1 MLOAD SWAP5 PUSH1 0x1 PUSH1 0x1 PUSH1 0x40 SHL SUB DUP7 GT PUSH2 0x2A4 JUMPI PUSH1 0x40 MLOAD SWAP6 PUSH2 0xA7 PUSH1 0x1F DUP3 ADD PUSH1 0x1F NOT AND PUSH1 0x20 ADD DUP9 PUSH2 0x2B8 JUMP JUMPDEST DUP1 DUP8 MSTORE PUSH1 0x20 DUP8 ADD SWAP6 PUSH1 0x20 DUP3 DUP6 ADD ADD GT PUSH2 0x2A0 JUMPI PUSH1 0x20 DUP2 PUSH0 SWAP3 DUP3 PUSH1 0xA0 SWAP7 ADD DUP10 MCOPY DUP9 ADD ADD MSTORE ADD MLOAD SWAP2 PUSH1 0x1 DUP1 PUSH1 0xA0 SHL SUB AND PUSH1 0x80 MSTORE PUSH1 0x1 DUP1 PUSH1 0xA0 SHL SUB AND PUSH1 0xA0 MSTORE DUP4 PUSH1 0xC0 MSTORE PUSH2 0x11F PUSH1 0x9 PUSH1 0x20 PUSH1 0x40 MLOAD DUP1 SWAP6 DUP3 DUP3 ADD SWAP8 MLOAD DUP1 SWAP2 DUP10 MCOPY DUP2 ADD PUSH9 0x2D7472656173757279 PUSH1 0xB8 SHL DUP4 DUP3 ADD MSTORE SUB ADD PUSH1 0x16 NOT DUP2 ADD DUP6 MSTORE ADD DUP4 PUSH2 0x2B8 JUMP JUMPDEST PUSH1 0x80 MLOAD PUSH1 0x1 PUSH1 0x1 PUSH1 0xA0 SHL SUB AND DUP1 EXTCODESIZE ISZERO PUSH2 0x2A0 JUMPI PUSH0 SWAP3 DUP4 PUSH1 0x64 PUSH1 0x40 MLOAD DUP1 SWAP8 DUP2 SWAP7 DUP3 SWAP6 PUSH4 0xBFDE380D PUSH1 0xE0 SHL DUP5 MSTORE PUSH1 0x40 PUSH1 0x4 DUP6 ADD MSTORE MLOAD DUP1 SWAP3 DUP2 PUSH1 0x44 DUP7 ADD MSTORE DUP6 DUP6 ADD MCOPY DUP3 DUP3 ADD DUP5 ADD DUP6 SWAP1 MSTORE PUSH1 0x24 DUP4 ADD MSTORE PUSH1 0x1F ADD PUSH1 0x1F NOT AND DUP2 ADD SUB ADD SWAP3 GAS CALL DUP1 ISZERO PUSH2 0x295 JUMPI PUSH2 0x280 JUMPI JUMPDEST POP PUSH1 0x80 MLOAD PUSH1 0x1 PUSH1 0x1 PUSH1 0xA0 SHL SUB AND SWAP1 DUP2 EXTCODESIZE ISZERO PUSH2 0x27C JUMPI PUSH1 0x40 MLOAD PUSH4 0x75DCEBC7 PUSH1 0xE0 SHL DUP2 MSTORE PUSH1 0x1 PUSH1 0x1 PUSH1 0xA0 SHL SUB SWAP1 SWAP2 AND PUSH1 0x4 DUP3 ADD MSTORE PUSH1 0x1 PUSH1 0x1 PUSH1 0x60 SHL SUB PUSH1 0x24 DUP3 ADD MSTORE SWAP1 DUP3 SWAP1 DUP3 SWAP1 PUSH1 0x44 SWAP1 DUP3 SWAP1 DUP5 SWAP1 GAS CALL DUP1 ISZERO PUSH2 0x271 JUMPI PUSH2 0x259 JUMPI JUMPDEST PUSH1 0x2 DUP1 SLOAD PUSH1 0x1 PUSH1 0x1 PUSH1 0xA0 SHL SUB NOT AND PUSH1 0x1 PUSH1 0x1 PUSH1 0xA0 SHL SUB DUP6 AND OR SWAP1 SSTORE PUSH1 0x40 MLOAD PUSH2 0xB27 SWAP1 DUP2 PUSH2 0x2F0 DUP3 CODECOPY PUSH1 0x80 MLOAD DUP2 DUP2 DUP2 PUSH2 0x114 ADD MSTORE DUP2 DUP2 PUSH2 0x283 ADD MSTORE DUP2 DUP2 PUSH2 0x2EA ADD MSTORE DUP2 DUP2 PUSH2 0x8B2 ADD MSTORE PUSH2 0x9E0 ADD MSTORE PUSH1 0xA0 MLOAD DUP2 DUP2 DUP2 PUSH2 0x32F ADD MSTORE PUSH2 0x5A7 ADD MSTORE PUSH1 0xC0 MLOAD DUP2 DUP2 DUP2 PUSH2 0x1CB ADD MSTORE DUP2 DUP2 PUSH2 0x577 ADD MSTORE DUP2 DUP2 PUSH2 0x888 ADD MSTORE PUSH2 0xA05 ADD MSTORE RETURN JUMPDEST PUSH2 0x264 DUP3 DUP1 SWAP3 PUSH2 0x2B8 JUMP JUMPDEST PUSH2 0x26E JUMPI DUP1 PUSH2 0x1DC JUMP JUMPDEST DUP1 REVERT JUMPDEST PUSH1 0x40 MLOAD RETURNDATASIZE DUP5 DUP3 RETURNDATACOPY RETURNDATASIZE SWAP1 REVERT JUMPDEST DUP3 DUP1 REVERT JUMPDEST PUSH2 0x28D SWAP2 SWAP3 POP PUSH0 SWAP1 PUSH2 0x2B8 JUMP JUMPDEST PUSH0 SWAP1 PUSH0 PUSH2 0x184 JUMP JUMPDEST PUSH1 0x40 MLOAD RETURNDATASIZE PUSH0 DUP3 RETURNDATACOPY RETURNDATASIZE SWAP1 REVERT JUMPDEST PUSH0 DUP1 REVERT JUMPDEST PUSH4 0x4E487B71 PUSH1 0xE0 SHL PUSH0 MSTORE PUSH1 0x41 PUSH1 0x4 MSTORE PUSH1 0x24 PUSH0 REVERT JUMPDEST PUSH1 0x1F SWAP1 SWAP2 ADD PUSH1 0x1F NOT AND DUP2 ADD SWAP1 PUSH1 0x1 PUSH1 0x1 PUSH1 0x40 SHL SUB DUP3 GT SWAP1 DUP3 LT OR PUSH2 0x2A4 JUMPI PUSH1 0x40 MSTORE JUMP JUMPDEST MLOAD SWAP1 PUSH1 0x1 PUSH1 0x1 PUSH1 0xA0 SHL SUB DUP3 AND DUP3 SUB PUSH2 0x2A0 JUMPI JUMP INVALID PUSH1 0x80 DUP1 PUSH1 0x40 MSTORE PUSH1 0x4 CALLDATASIZE LT ISZERO PUSH2 0x12 JUMPI PUSH0 DUP1 REVERT JUMPDEST PUSH0 SWAP1 PUSH0 CALLDATALOAD PUSH1 0xE0 SHR SWAP1 DUP2 PUSH4 0x1FFC9A7 EQ PUSH2 0x6B4 JUMPI POP DUP1 PUSH4 0x13AF4035 EQ PUSH2 0x667 JUMPI DUP1 PUSH4 0x2703EE85 EQ PUSH2 0x630 JUMPI DUP1 PUSH4 0x29BC969D EQ PUSH2 0x630 JUMPI DUP1 PUSH4 0x3857D9D7 EQ PUSH2 0x563 JUMPI DUP1 PUSH4 0x44DF8E70 EQ PUSH2 0x547 JUMPI DUP1 PUSH4 0x4AC8EB5F EQ PUSH2 0x529 JUMPI DUP1 PUSH4 0x6112FE2E EQ PUSH2 0x478 JUMPI DUP1 PUSH4 0x6F758140 EQ PUSH2 0x416 JUMPI DUP1 PUSH4 0x6FF1C9BC EQ PUSH2 0x387 JUMPI DUP1 PUSH4 0x8DA5CB5B EQ PUSH2 0x35E JUMPI DUP1 PUSH4 0xA05C2616 EQ PUSH2 0x319 JUMPI DUP1 PUSH4 0xA4C52B86 EQ PUSH2 0x2D4 JUMPI DUP1 PUSH4 0xBC197C81 EQ PUSH2 0x1FA JUMPI DUP1 PUSH4 0xE532B61D EQ PUSH2 0x1B5 JUMPI PUSH4 0xF23A6E61 EQ PUSH2 0xCE JUMPI PUSH0 DUP1 REVERT JUMPDEST CALLVALUE PUSH2 0x1B2 JUMPI PUSH1 0xA0 CALLDATASIZE PUSH1 0x3 NOT ADD SLT PUSH2 0x1B2 JUMPI PUSH2 0xE7 PUSH2 0x707 JUMP JUMPDEST POP PUSH2 0xF0 PUSH2 0x71D JUMP JUMPDEST POP PUSH1 0x84 CALLDATALOAD PUSH8 0xFFFFFFFFFFFFFFFF DUP2 GT PUSH2 0x1B0 JUMPI PUSH2 0x111 SWAP1 CALLDATASIZE SWAP1 PUSH1 0x4 ADD PUSH2 0x7EE JUMP JUMPDEST POP PUSH32 0x0 PUSH1 0x1 PUSH1 0x1 PUSH1 0xA0 SHL SUB AND CALLER SUB PUSH2 0x1A1 JUMPI PUSH1 0x40 MLOAD PUSH2 0x150 PUSH1 0x40 DUP3 PUSH2 0x733 JUMP JUMPDEST PUSH1 0x1 DUP2 MSTORE PUSH1 0x20 DUP1 DUP3 ADD SWAP1 CALLDATASIZE DUP3 CALLDATACOPY DUP2 MLOAD ISZERO PUSH2 0x18D JUMPI PUSH2 0x173 SWAP3 POP PUSH1 0x44 CALLDATALOAD SWAP1 MSTORE PUSH2 0x9D6 JUMP JUMPDEST PUSH2 0x17B PUSH2 0x86C JUMP JUMPDEST PUSH1 0x40 MLOAD PUSH4 0xF23A6E61 PUSH1 0xE0 SHL DUP2 MSTORE PUSH1 0x20 SWAP1 RETURN JUMPDEST PUSH4 0x4E487B71 PUSH1 0xE0 SHL DUP4 MSTORE PUSH1 0x32 PUSH1 0x4 MSTORE PUSH1 0x24 DUP4 REVERT JUMPDEST PUSH4 0x58A7C73 PUSH1 0xE3 SHL DUP2 MSTORE PUSH1 0x4 SWAP1 REVERT JUMPDEST POP JUMPDEST DUP1 REVERT JUMPDEST POP CALLVALUE PUSH2 0x1B2 JUMPI DUP1 PUSH1 0x3 NOT CALLDATASIZE ADD SLT PUSH2 0x1B2 JUMPI PUSH1 0x40 MLOAD PUSH32 0x0 PUSH1 0x1 PUSH1 0x1 PUSH1 0xA0 SHL SUB AND DUP2 MSTORE PUSH1 0x20 SWAP1 RETURN JUMPDEST POP CALLVALUE PUSH2 0x1B2 JUMPI PUSH1 0xA0 CALLDATASIZE PUSH1 0x3 NOT ADD SLT PUSH2 0x1B2 JUMPI PUSH2 0x214 PUSH2 0x707 JUMP JUMPDEST POP PUSH2 0x21D PUSH2 0x71D JUMP JUMPDEST POP PUSH1 0x44 CALLDATALOAD PUSH8 0xFFFFFFFFFFFFFFFF DUP2 GT PUSH2 0x1B0 JUMPI PUSH2 0x23E SWAP1 CALLDATASIZE SWAP1 PUSH1 0x4 ADD PUSH2 0x769 JUMP JUMPDEST SWAP1 PUSH1 0x64 CALLDATALOAD PUSH8 0xFFFFFFFFFFFFFFFF DUP2 GT PUSH2 0x1B0 JUMPI PUSH2 0x25F SWAP1 CALLDATASIZE SWAP1 PUSH1 0x4 ADD PUSH2 0x769 JUMP JUMPDEST POP PUSH1 0x84 CALLDATALOAD PUSH8 0xFFFFFFFFFFFFFFFF DUP2 GT PUSH2 0x1B0 JUMPI PUSH2 0x280 SWAP1 CALLDATASIZE SWAP1 PUSH1 0x4 ADD PUSH2 0x7EE JUMP JUMPDEST POP PUSH32 0x0 PUSH1 0x1 PUSH1 0x1 PUSH1 0xA0 SHL SUB AND CALLER SUB PUSH2 0x1A1 JUMPI PUSH2 0x2BA DUP3 PUSH2 0x9D6 JUMP JUMPDEST PUSH2 0x2C2 PUSH2 0x86C JUMP JUMPDEST PUSH1 0x40 MLOAD PUSH4 0xBC197C81 PUSH1 0xE0 SHL DUP2 MSTORE PUSH1 0x20 SWAP1 RETURN JUMPDEST POP CALLVALUE PUSH2 0x1B2 JUMPI DUP1 PUSH1 0x3 NOT CALLDATASIZE ADD SLT PUSH2 0x1B2 JUMPI PUSH1 0x40 MLOAD PUSH32 0x0 PUSH1 0x1 PUSH1 0x1 PUSH1 0xA0 SHL SUB AND DUP2 MSTORE PUSH1 0x20 SWAP1 RETURN JUMPDEST POP CALLVALUE PUSH2 0x1B2 JUMPI DUP1 PUSH1 0x3 NOT CALLDATASIZE ADD SLT PUSH2 0x1B2 JUMPI PUSH1 0x40 MLOAD PUSH32 0x0 PUSH1 0x1 PUSH1 0x1 PUSH1 0xA0 SHL SUB AND DUP2 MSTORE PUSH1 0x20 SWAP1 RETURN JUMPDEST POP CALLVALUE PUSH2 0x1B2 JUMPI DUP1 PUSH1 0x3 NOT CALLDATASIZE ADD SLT PUSH2 0x1B2 JUMPI PUSH1 0x2 SLOAD PUSH1 0x40 MLOAD PUSH1 0x1 PUSH1 0x1 PUSH1 0xA0 SHL SUB SWAP1 SWAP2 AND DUP2 MSTORE PUSH1 0x20 SWAP1 RETURN JUMPDEST POP CALLVALUE PUSH2 0x1B2 JUMPI PUSH1 0x20 CALLDATASIZE PUSH1 0x3 NOT ADD SLT PUSH2 0x1B2 JUMPI PUSH2 0x3A1 PUSH2 0x707 JUMP JUMPDEST PUSH2 0x3B6 PUSH1 0x1 DUP1 PUSH1 0xA0 SHL SUB PUSH1 0x2 SLOAD AND CALLER EQ PUSH2 0x834 JUMP JUMPDEST SELFBALANCE SWAP1 DUP3 DUP1 DUP1 DUP1 DUP6 DUP6 GAS CALL PUSH2 0x3C8 PUSH2 0x99A JUMP JUMPDEST POP ISZERO PUSH2 0x407 JUMPI PUSH1 0x40 MLOAD SWAP2 DUP3 MSTORE PUSH1 0x1 PUSH1 0x1 PUSH1 0xA0 SHL SUB AND SWAP1 PUSH32 0x23D6711A1D031134A36921253C75AA59E967D38E369AC625992824315E204F20 SWAP1 PUSH1 0x20 SWAP1 LOG2 DUP1 RETURN JUMPDEST PUSH4 0x12171D83 PUSH1 0xE3 SHL DUP4 MSTORE PUSH1 0x4 DUP4 REVERT JUMPDEST POP DUP1 PUSH1 0x3 NOT CALLDATASIZE ADD SLT PUSH2 0x1B2 JUMPI CALLER DUP2 MSTORE DUP1 PUSH1 0x20 MSTORE PUSH1 0x40 DUP2 KECCAK256 PUSH2 0x438 CALLVALUE DUP3 SLOAD PUSH2 0x9C9 JUMP JUMPDEST SWAP1 SSTORE PUSH2 0x446 CALLVALUE PUSH1 0x1 SLOAD PUSH2 0x9C9 JUMP JUMPDEST PUSH1 0x1 SSTORE PUSH1 0x40 MLOAD CALLVALUE DUP2 MSTORE PUSH32 0xD7243F6F8212D5188FD054141CF6EA89CFC0D91FACB8C3AFE2F88A1358480142 PUSH1 0x20 CALLER SWAP3 LOG2 DUP1 RETURN JUMPDEST POP CALLVALUE PUSH2 0x1B2 JUMPI PUSH1 0x20 CALLDATASIZE PUSH1 0x3 NOT ADD SLT PUSH2 0x1B2 JUMPI PUSH1 0x4 CALLDATALOAD CALLER DUP3 MSTORE DUP2 PUSH1 0x20 MSTORE DUP1 PUSH1 0x40 DUP4 KECCAK256 SLOAD LT PUSH2 0x51A JUMPI CALLER DUP3 MSTORE DUP2 PUSH1 0x20 MSTORE PUSH1 0x40 DUP3 KECCAK256 PUSH2 0x4B5 DUP3 DUP3 SLOAD PUSH2 0x979 JUMP JUMPDEST SWAP1 SSTORE PUSH2 0x4C3 DUP2 PUSH1 0x1 SLOAD PUSH2 0x979 JUMP JUMPDEST PUSH1 0x1 SSTORE DUP2 DUP1 DUP1 DUP1 DUP5 CALLER GAS CALL PUSH2 0x4D6 PUSH2 0x99A JUMP JUMPDEST POP ISZERO PUSH2 0x50B JUMPI PUSH1 0x40 MLOAD SWAP1 DUP2 MSTORE PUSH32 0xC30FCFBCAAC9E0DEFFA719714EAA82396FF506A0D0D0EEBE170830177288715D PUSH1 0x20 CALLER SWAP3 LOG2 DUP1 RETURN JUMPDEST PUSH4 0x27FCD9D1 PUSH1 0xE0 SHL DUP3 MSTORE PUSH1 0x4 DUP3 REVERT JUMPDEST PUSH4 0x3A23D825 PUSH1 0xE0 SHL DUP3 MSTORE PUSH1 0x4 DUP3 REVERT JUMPDEST POP CALLVALUE PUSH2 0x1B2 JUMPI DUP1 PUSH1 0x3 NOT CALLDATASIZE ADD SLT PUSH2 0x1B2 JUMPI PUSH1 0x20 PUSH1 0x1 SLOAD PUSH1 0x40 MLOAD SWAP1 DUP2 MSTORE RETURN JUMPDEST POP CALLVALUE PUSH2 0x1B2 JUMPI DUP1 PUSH1 0x3 NOT CALLDATASIZE ADD SLT PUSH2 0x1B2 JUMPI PUSH2 0x560 PUSH2 0x86C JUMP JUMPDEST DUP1 RETURN JUMPDEST POP CALLVALUE PUSH2 0x61D JUMPI PUSH1 0x20 CALLDATASIZE PUSH1 0x3 NOT ADD SLT PUSH2 0x61D JUMPI PUSH32 0x0 PUSH1 0x1 PUSH1 0x1 PUSH1 0xA0 SHL SUB AND CALLER SUB PUSH2 0x621 JUMPI PUSH32 0x0 PUSH1 0x1 PUSH1 0x1 PUSH1 0xA0 SHL SUB AND DUP1 EXTCODESIZE ISZERO PUSH2 0x61D JUMPI PUSH0 DUP1 SWAP2 PUSH1 0x24 PUSH1 0x40 MLOAD DUP1 SWAP5 DUP2 SWAP4 PUSH4 0x3857D9D7 PUSH1 0xE0 SHL DUP4 MSTORE PUSH1 0x4 CALLDATALOAD PUSH1 0x4 DUP5 ADD MSTORE GAS CALL DUP1 ISZERO PUSH2 0x612 JUMPI PUSH2 0x604 JUMPI POP DUP1 RETURN JUMPDEST PUSH2 0x610 SWAP2 POP PUSH0 SWAP1 PUSH2 0x733 JUMP JUMPDEST STOP JUMPDEST PUSH1 0x40 MLOAD RETURNDATASIZE PUSH0 DUP3 RETURNDATACOPY RETURNDATASIZE SWAP1 REVERT JUMPDEST PUSH0 DUP1 REVERT JUMPDEST PUSH4 0x6346B2B7 PUSH1 0xE0 SHL PUSH0 MSTORE PUSH1 0x4 PUSH0 REVERT JUMPDEST CALLVALUE PUSH2 0x61D JUMPI PUSH1 0x20 CALLDATASIZE PUSH1 0x3 NOT ADD SLT PUSH2 0x61D JUMPI PUSH1 0x1 PUSH1 0x1 PUSH1 0xA0 SHL SUB PUSH2 0x651 PUSH2 0x707 JUMP JUMPDEST AND PUSH0 MSTORE PUSH0 PUSH1 0x20 MSTORE PUSH1 0x20 PUSH1 0x40 PUSH0 KECCAK256 SLOAD PUSH1 0x40 MLOAD SWAP1 DUP2 MSTORE RETURN JUMPDEST CALLVALUE PUSH2 0x61D JUMPI PUSH1 0x20 CALLDATASIZE PUSH1 0x3 NOT ADD SLT PUSH2 0x61D JUMPI PUSH2 0x680 PUSH2 0x707 JUMP JUMPDEST PUSH1 0x2 SLOAD SWAP1 PUSH2 0x698 CALLER PUSH1 0x1 PUSH1 0x1 PUSH1 0xA0 SHL SUB DUP5 AND EQ PUSH2 0x834 JUMP JUMPDEST PUSH1 0x1 PUSH1 0x1 PUSH1 0xA0 SHL SUB AND PUSH1 0x1 PUSH1 0x1 PUSH1 0xA0 SHL SUB NOT SWAP2 SWAP1 SWAP2 AND OR PUSH1 0x2 SSTORE STOP JUMPDEST CALLVALUE PUSH2 0x61D JUMPI PUSH1 0x20 CALLDATASIZE PUSH1 0x3 NOT ADD SLT PUSH2 0x61D JUMPI PUSH1 0x4 CALLDATALOAD SWAP1 PUSH4 0xFFFFFFFF PUSH1 0xE0 SHL DUP3 AND DUP1 SWAP3 SUB PUSH2 0x61D JUMPI PUSH1 0x20 SWAP2 PUSH4 0x2711897 PUSH1 0xE5 SHL DUP2 EQ SWAP1 DUP2 ISZERO PUSH2 0x6F6 JUMPI JUMPDEST POP ISZERO ISZERO DUP2 MSTORE RETURN JUMPDEST PUSH4 0x1FFC9A7 PUSH1 0xE0 SHL EQ SWAP1 POP DUP4 PUSH2 0x6EF JUMP JUMPDEST PUSH1 0x4 CALLDATALOAD SWAP1 PUSH1 0x1 PUSH1 0x1 PUSH1 0xA0 SHL SUB DUP3 AND DUP3 SUB PUSH2 0x61D JUMPI JUMP JUMPDEST PUSH1 0x24 CALLDATALOAD SWAP1 PUSH1 0x1 PUSH1 0x1 PUSH1 0xA0 SHL SUB DUP3 AND DUP3 SUB PUSH2 0x61D JUMPI JUMP JUMPDEST SWAP1 PUSH1 0x1F DUP1 NOT SWAP2 ADD AND DUP2 ADD SWAP1 DUP2 LT PUSH8 0xFFFFFFFFFFFFFFFF DUP3 GT OR PUSH2 0x755 JUMPI PUSH1 0x40 MSTORE JUMP JUMPDEST PUSH4 0x4E487B71 PUSH1 0xE0 SHL PUSH0 MSTORE PUSH1 0x41 PUSH1 0x4 MSTORE PUSH1 0x24 PUSH0 REVERT JUMPDEST SWAP1 DUP1 PUSH1 0x1F DUP4 ADD SLT ISZERO PUSH2 0x61D JUMPI DUP2 CALLDATALOAD SWAP2 PUSH8 0xFFFFFFFFFFFFFFFF DUP4 GT PUSH2 0x755 JUMPI DUP3 PUSH1 0x5 SHL SWAP1 PUSH1 0x20 DUP3 ADD SWAP4 PUSH2 0x79E PUSH1 0x40 MLOAD SWAP6 DUP7 PUSH2 0x733 JUMP JUMPDEST DUP5 MSTORE PUSH1 0x20 DUP1 DUP6 ADD SWAP3 DUP3 ADD ADD SWAP3 DUP4 GT PUSH2 0x61D JUMPI PUSH1 0x20 ADD SWAP1 JUMPDEST DUP3 DUP3 LT PUSH2 0x7C2 JUMPI POP POP POP SWAP1 JUMP JUMPDEST DUP2 CALLDATALOAD DUP2 MSTORE PUSH1 0x20 SWAP2 DUP3 ADD SWAP2 ADD PUSH2 0x7B5 JUMP JUMPDEST PUSH8 0xFFFFFFFFFFFFFFFF DUP2 GT PUSH2 0x755 JUMPI PUSH1 0x1F ADD PUSH1 0x1F NOT AND PUSH1 0x20 ADD SWAP1 JUMP JUMPDEST DUP2 PUSH1 0x1F DUP3 ADD SLT ISZERO PUSH2 0x61D JUMPI DUP1 CALLDATALOAD SWAP1 PUSH2 0x805 DUP3 PUSH2 0x7D2 JUMP JUMPDEST SWAP3 PUSH2 0x813 PUSH1 0x40 MLOAD SWAP5 DUP6 PUSH2 0x733 JUMP JUMPDEST DUP3 DUP5 MSTORE PUSH1 0x20 DUP4 DUP4 ADD ADD GT PUSH2 0x61D JUMPI DUP2 PUSH0 SWAP3 PUSH1 0x20 DUP1 SWAP4 ADD DUP4 DUP7 ADD CALLDATACOPY DUP4 ADD ADD MSTORE SWAP1 JUMP JUMPDEST ISZERO PUSH2 0x83B JUMPI JUMP JUMPDEST PUSH1 0x40 MLOAD PUSH3 0x461BCD PUSH1 0xE5 SHL DUP2 MSTORE PUSH1 0x20 PUSH1 0x4 DUP3 ADD MSTORE PUSH1 0x9 PUSH1 0x24 DUP3 ADD MSTORE PUSH9 0x2737BA1037BBB732B9 PUSH1 0xB9 SHL PUSH1 0x44 DUP3 ADD MSTORE PUSH1 0x64 SWAP1 REVERT JUMPDEST PUSH1 0x40 MLOAD PUSH3 0x7EEAC7 PUSH1 0xE1 SHL DUP2 MSTORE ADDRESS PUSH1 0x4 DUP3 ADD MSTORE PUSH1 0x1 PUSH1 0x1 PUSH1 0xA0 SHL SUB PUSH32 0x0 DUP2 AND PUSH1 0x24 DUP4 ADD DUP2 SWAP1 MSTORE PUSH32 0x0 SWAP1 SWAP2 AND SWAP2 PUSH1 0x20 DUP2 PUSH1 0x44 DUP2 DUP7 GAS STATICCALL SWAP1 DUP2 ISZERO PUSH2 0x612 JUMPI PUSH0 SWAP2 PUSH2 0x947 JUMPI JUMPDEST POP DUP1 PUSH2 0x8F7 JUMPI POP POP POP JUMP JUMPDEST DUP3 EXTCODESIZE ISZERO PUSH2 0x61D JUMPI PUSH1 0x84 PUSH0 SWAP3 DUP4 PUSH1 0x40 MLOAD SWAP6 DUP7 SWAP5 DUP6 SWAP4 PUSH4 0x80A5A371 PUSH1 0xE0 SHL DUP6 MSTORE PUSH1 0x4 DUP6 ADD MSTORE PUSH1 0x24 DUP5 ADD MSTORE PUSH1 0x60 PUSH1 0x44 DUP5 ADD MSTORE DUP2 PUSH1 0x64 DUP5 ADD MSTORE GAS CALL DUP1 ISZERO PUSH2 0x612 JUMPI PUSH2 0x93B JUMPI POP JUMP JUMPDEST PUSH0 PUSH2 0x945 SWAP2 PUSH2 0x733 JUMP JUMPDEST JUMP JUMPDEST SWAP1 POP PUSH1 0x20 DUP2 RETURNDATASIZE PUSH1 0x20 GT PUSH2 0x971 JUMPI JUMPDEST DUP2 PUSH2 0x962 PUSH1 0x20 SWAP4 DUP4 PUSH2 0x733 JUMP JUMPDEST DUP2 ADD SUB SLT PUSH2 0x61D JUMPI MLOAD PUSH0 PUSH2 0x8EC JUMP JUMPDEST RETURNDATASIZE SWAP2 POP PUSH2 0x955 JUMP JUMPDEST SWAP2 SWAP1 DUP3 SUB SWAP2 DUP3 GT PUSH2 0x986 JUMPI JUMP JUMPDEST PUSH4 0x4E487B71 PUSH1 0xE0 SHL PUSH0 MSTORE PUSH1 0x11 PUSH1 0x4 MSTORE PUSH1 0x24 PUSH0 REVERT JUMPDEST RETURNDATASIZE ISZERO PUSH2 0x9C4 JUMPI RETURNDATASIZE SWAP1 PUSH2 0x9AB DUP3 PUSH2 0x7D2 JUMP JUMPDEST SWAP2 PUSH2 0x9B9 PUSH1 0x40 MLOAD SWAP4 DUP5 PUSH2 0x733 JUMP JUMPDEST DUP3 MSTORE RETURNDATASIZE PUSH0 PUSH1 0x20 DUP5 ADD RETURNDATACOPY JUMP JUMPDEST PUSH1 0x60 SWAP1 JUMP JUMPDEST SWAP2 SWAP1 DUP3 ADD DUP1 SWAP3 GT PUSH2 0x986 JUMPI JUMP JUMPDEST PUSH1 0x1 PUSH1 0x1 PUSH1 0xA0 SHL SUB PUSH32 0x0 DUP2 AND SWAP2 SWAP1 PUSH32 0x0 AND PUSH0 JUMPDEST DUP3 MLOAD DUP2 LT ISZERO PUSH2 0xAEB JUMPI DUP3 MLOAD DUP2 LT ISZERO PUSH2 0xAD7 JUMPI PUSH1 0x20 PUSH1 0x5 DUP3 SWAP1 SHL DUP5 ADD DUP2 ADD MLOAD PUSH1 0x40 MLOAD PUSH4 0x6713E23 PUSH1 0xE4 SHL DUP2 MSTORE PUSH1 0x4 DUP2 ADD DUP6 SWAP1 MSTORE PUSH1 0x1 PUSH1 0x1 PUSH1 0xA0 SHL SUB SWAP1 SWAP2 AND PUSH1 0x24 DUP3 ADD MSTORE SWAP1 DUP2 PUSH1 0x44 DUP2 PUSH0 DUP10 GAS CALL SWAP1 DUP2 ISZERO PUSH2 0x612 JUMPI PUSH0 SWAP2 PUSH2 0xA9D JUMPI JUMPDEST POP ISZERO PUSH2 0xA8E JUMPI PUSH1 0x1 ADD PUSH2 0xA27 JUMP JUMPDEST PUSH4 0x1C74BB57 PUSH1 0xE1 SHL PUSH0 MSTORE PUSH1 0x4 PUSH0 REVERT JUMPDEST SWAP1 POP PUSH1 0x20 DUP2 RETURNDATASIZE DUP3 GT PUSH2 0xACF JUMPI JUMPDEST DUP2 PUSH2 0xAB7 PUSH1 0x20 SWAP4 DUP4 PUSH2 0x733 JUMP JUMPDEST DUP2 ADD SUB SLT PUSH2 0x61D JUMPI MLOAD DUP1 ISZERO ISZERO DUP2 SUB PUSH2 0x61D JUMPI PUSH0 PUSH2 0xA80 JUMP JUMPDEST RETURNDATASIZE SWAP2 POP PUSH2 0xAAA JUMP JUMPDEST PUSH4 0x4E487B71 PUSH1 0xE0 SHL PUSH0 MSTORE PUSH1 0x32 PUSH1 0x4 MSTORE PUSH1 0x24 PUSH0 REVERT JUMPDEST POP POP POP POP JUMP INVALID LOG2 PUSH5 0x6970667358 0x22 SLT KECCAK256 AND SWAP14 PREVRANDAO STATICCALL LOG2 CALLER 0xE9 0xBF 0x2F 0xE GASLIMIT COINBASE SWAP7 ORIGIN 0xC4 0x23 0xC1 SHL DUP9 PUSH24 0xAABB031964A4D0DF88AD9DB264736F6C634300081C003300 "},"methodIdentifiers":{"GROUP()":"e532b61d","HUB()":"a4c52b86","NAME_REGISTRY()":"a05c2616","burn()":"44df8e70","collateralBalances(address)":"29bc969d","depositCollateral()":"6f758140","emergencyWithdraw(address)":"6ff1c9bc","getCollateralBalance(address)":"2703ee85","onERC1155BatchReceived(address,address,uint256[],uint256[],bytes)":"bc197c81","onERC1155Received(address,address,uint256,uint256,bytes)":"f23a6e61","owner()":"8da5cb5b","setOwner(address)":"13af4035","supportsInterface(bytes4)":"01ffc9a7","totalCollateral()":"4ac8eb5f","updateMetadataDigest(bytes32)":"3857d9d7","withdrawCollateral(uint256)":"6112fe2e"}}}}}