{"sol/circles/Core.sol":{"CirclesV2BetaAddresses":{"abi":[{"inputs":[],"name":"getCirclesCore","outputs":[{"components":[{"internalType":"contract IHub","name":"hub","type":"address"},{"internalType":"contract IStandardTreasury","name":"standardTreasury","type":"address"},{"internalType":"contract INameRegistryExtended","name":"nameRegistry","type":"address"},{"internalType":"contract IERC20Lift","name":"erc20Lift","type":"address"}],"internalType":"struct CirclesCoreAddresses.CirclesCore","name":"","type":"tuple"}],"stateMutability":"view","type":"function"}],"evm":{"bytecode":{"linkReferences":{},"object":"608080604052346098575f80546001600160a01b031990811673c12c1e50abb450d6205ea2c3fa861b3b834d13e8179091556001805482167308f90ab73a515308f03a718257ff9887ed330c6e17905560028054821673a27566fd89162cc3d40cb59c87aaaa49b85f347417905560038054909116735f99a795dd2743c36d63511f0d4bc667e6d3cdb517905561012d908161009d8239f35b5f80fdfe608060405260043610156010575f80fd5b5f3560e01c637f756b46146022575f80fd5b3460c0575f36600319011260c0575f6060603960c4565b828152602081018390526040810183905201525f546001546002546003546080936001600160a01b039081169391811692811691166060607660c4565b85815260208101928352604081019384520192835260405193845260018060a01b03905116602084015260018060a01b03905116604083015260018060a01b039051166060820152f35b5f80fd5b604051906080820182811067ffffffffffffffff82111760e357604052565b634e487b7160e01b5f52604160045260245ffdfea26469706673582212206976d786f8a3186dbf5b5e8b7105f8be33da6cb1bbbf47c0df4ea5400c29e62e64736f6c634300081c0033","opcodes":"PUSH1 0x80 DUP1 PUSH1 0x40 MSTORE CALLVALUE PUSH1 0x98 JUMPI PUSH0 DUP1 SLOAD PUSH1 0x1 PUSH1 0x1 PUSH1 0xA0 SHL SUB NOT SWAP1 DUP2 AND PUSH20 0xC12C1E50ABB450D6205EA2C3FA861B3B834D13E8 OR SWAP1 SWAP2 SSTORE PUSH1 0x1 DUP1 SLOAD DUP3 AND PUSH20 0x8F90AB73A515308F03A718257FF9887ED330C6E OR SWAP1 SSTORE PUSH1 0x2 DUP1 SLOAD DUP3 AND PUSH20 0xA27566FD89162CC3D40CB59C87AAAA49B85F3474 OR SWAP1 SSTORE PUSH1 0x3 DUP1 SLOAD SWAP1 SWAP2 AND PUSH20 0x5F99A795DD2743C36D63511F0D4BC667E6D3CDB5 OR SWAP1 SSTORE PUSH2 0x12D SWAP1 DUP2 PUSH2 0x9D DUP3 CODECOPY RETURN JUMPDEST PUSH0 DUP1 REVERT INVALID PUSH1 0x80 PUSH1 0x40 MSTORE PUSH1 0x4 CALLDATASIZE LT ISZERO PUSH1 0x10 JUMPI PUSH0 DUP1 REVERT JUMPDEST PUSH0 CALLDATALOAD PUSH1 0xE0 SHR PUSH4 0x7F756B46 EQ PUSH1 0x22 JUMPI PUSH0 DUP1 REVERT JUMPDEST CALLVALUE PUSH1 0xC0 JUMPI PUSH0 CALLDATASIZE PUSH1 0x3 NOT ADD SLT PUSH1 0xC0 JUMPI PUSH0 PUSH1 0x60 PUSH1 0x39 PUSH1 0xC4 JUMP JUMPDEST DUP3 DUP2 MSTORE PUSH1 0x20 DUP2 ADD DUP4 SWAP1 MSTORE PUSH1 0x40 DUP2 ADD DUP4 SWAP1 MSTORE ADD MSTORE PUSH0 SLOAD PUSH1 0x1 SLOAD PUSH1 0x2 SLOAD PUSH1 0x3 SLOAD PUSH1 0x80 SWAP4 PUSH1 0x1 PUSH1 0x1 PUSH1 0xA0 SHL SUB SWAP1 DUP2 AND SWAP4 SWAP2 DUP2 AND SWAP3 DUP2 AND SWAP2 AND PUSH1 0x60 PUSH1 0x76 PUSH1 0xC4 JUMP JUMPDEST DUP6 DUP2 MSTORE PUSH1 0x20 DUP2 ADD SWAP3 DUP4 MSTORE PUSH1 0x40 DUP2 ADD SWAP4 DUP5 MSTORE ADD SWAP3 DUP4 MSTORE PUSH1 0x40 MLOAD SWAP4 DUP5 MSTORE PUSH1 0x1 DUP1 PUSH1 0xA0 SHL SUB SWAP1 MLOAD AND PUSH1 0x20 DUP5 ADD MSTORE PUSH1 0x1 DUP1 PUSH1 0xA0 SHL SUB SWAP1 MLOAD AND PUSH1 0x40 DUP4 ADD MSTORE PUSH1 0x1 DUP1 PUSH1 0xA0 SHL SUB SWAP1 MLOAD AND PUSH1 0x60 DUP3 ADD MSTORE RETURN JUMPDEST PUSH0 DUP1 REVERT JUMPDEST PUSH1 0x40 MLOAD SWAP1 PUSH1 0x80 DUP3 ADD DUP3 DUP2 LT PUSH8 0xFFFFFFFFFFFFFFFF DUP3 GT OR PUSH1 0xE3 JUMPI PUSH1 0x40 MSTORE JUMP JUMPDEST PUSH4 0x4E487B71 PUSH1 0xE0 SHL PUSH0 MSTORE PUSH1 0x41 PUSH1 0x4 MSTORE PUSH1 0x24 PUSH0 REVERT INVALID LOG2 PUSH5 0x6970667358 0x22 SLT KECCAK256 PUSH10 0x76D786F8A3186DBF5B5E DUP12 PUSH18 0x5F8BE33DA6CB1BBBF47C0DF4EA5400C29E6 0x2E PUSH5 0x736F6C6343 STOP ADDMOD SHR STOP CALLER "},"methodIdentifiers":{"getCirclesCore()":"7f756b46"}}}}}