{"circles-groups/src/base-group/BaseTreasury.sol":{"BaseTreasury":{"abi":[{"inputs":[{"internalType":"address","name":"_hub","type":"address"},{"internalType":"address","name":"_nameRegistry","type":"address"},{"internalType":"address","name":"_group","type":"address"},{"internalType":"string","name":"_groupName","type":"string"},{"internalType":"bytes32","name":"_metadataDigest","type":"bytes32"}],"stateMutability":"nonpayable","type":"constructor"},{"inputs":[],"name":"CollateralIsNotTrustedByGroup","type":"error"},{"inputs":[],"name":"OnlyGroup","type":"error"},{"inputs":[],"name":"OnlyHub","type":"error"},{"inputs":[],"name":"GROUP","outputs":[{"internalType":"address","name":"","type":"address"}],"stateMutability":"view","type":"function"},{"inputs":[],"name":"HUB","outputs":[{"internalType":"contract IHub","name":"","type":"address"}],"stateMutability":"view","type":"function"},{"inputs":[],"name":"NAME_REGISTRY","outputs":[{"internalType":"contract INameRegistry","name":"","type":"address"}],"stateMutability":"view","type":"function"},{"inputs":[],"name":"burn","outputs":[],"stateMutability":"nonpayable","type":"function"},{"inputs":[{"internalType":"address","name":"","type":"address"},{"internalType":"address","name":"","type":"address"},{"internalType":"uint256[]","name":"_ids","type":"uint256[]"},{"internalType":"uint256[]","name":"","type":"uint256[]"},{"internalType":"bytes","name":"","type":"bytes"}],"name":"onERC1155BatchReceived","outputs":[{"internalType":"bytes4","name":"","type":"bytes4"}],"stateMutability":"nonpayable","type":"function"},{"inputs":[{"internalType":"address","name":"","type":"address"},{"internalType":"address","name":"","type":"address"},{"internalType":"uint256","name":"_id","type":"uint256"},{"internalType":"uint256","name":"","type":"uint256"},{"internalType":"bytes","name":"","type":"bytes"}],"name":"onERC1155Received","outputs":[{"internalType":"bytes4","name":"","type":"bytes4"}],"stateMutability":"nonpayable","type":"function"},{"inputs":[{"internalType":"bytes4","name":"interfaceId","type":"bytes4"}],"name":"supportsInterface","outputs":[{"internalType":"bool","name":"","type":"bool"}],"stateMutability":"view","type":"function"},{"inputs":[{"internalType":"bytes32","name":"_metadataDigest","type":"bytes32"}],"name":"updateMetadataDigest","outputs":[],"stateMutability":"nonpayable","type":"function"}],"evm":{"bytecode":{"linkReferences":{},"object":"60e060405234801561000f575f5ffd5b50604051610c32380380610c3283398101604081905261002e91610169565b6001600160a01b0380861660805284811660a052831660c0526040515f9061005a908490602001610256565b60408051601f198184030181529082905260805163bfde380d60e01b83529092506001600160a01b03169063bfde380d9061009b908490869060040161027b565b5f604051808303815f87803b1580156100b2575f5ffd5b505af11580156100c4573d5f5f3e3d5ffd5b50506080516040516375dcebc760e01b81526001600160a01b0388811660048301526001600160601b03602483015290911692506375dcebc791506044015f604051808303815f87803b158015610119575f5ffd5b505af115801561012b573d5f5f3e3d5ffd5b505050505050505050506102b7565b80516001600160a01b0381168114610150575f5ffd5b919050565b634e487b7160e01b5f52604160045260245ffd5b5f5f5f5f5f60a0868803121561017d575f5ffd5b6101868661013a565b94506101946020870161013a565b93506101a26040870161013a565b60608701519093506001600160401b038111156101bd575f5ffd5b8601601f810188136101cd575f5ffd5b80516001600160401b038111156101e6576101e6610155565b604051601f8201601f19908116603f011681016001600160401b038111828210171561021457610214610155565b6040528181528282016020018a101561022b575f5ffd5b8160208401602083015e5f918101602001919091526080979097015195989497509295949392505050565b5f82518060208501845e682d747265617375727960b81b920191825250600901919050565b604081525f83518060408401528060208601606085015e5f606082850101526060601f19601f8301168401019150508260208301529392505050565b60805160a05160c05161091361031f5f395f8181610165015281816101db015281816102ad015261052f01525f818160d3015261022f01525f8181610112015281816102da01528181610374015281816103e401528181610451015261050001526109135ff3fe608060405234801561000f575f5ffd5b5060043610610085575f3560e01c8063a4c52b8611610058578063a4c52b861461010d578063bc197c8114610134578063e532b61d14610160578063f23a6e6114610187575f5ffd5b806301ffc9a7146100895780633857d9d7146100b157806344df8e70146100c6578063a05c2616146100ce575b5f5ffd5b61009c6100973660046105ff565b61019a565b60405190151581526020015b60405180910390f35b6100c46100bf36600461062d565b6101d0565b005b6100c4610291565b6100f57f000000000000000000000000000000000000000000000000000000000000000081565b6040516001600160a01b0390911681526020016100a8565b6100f57f000000000000000000000000000000000000000000000000000000000000000081565b610147610142366004610790565b6103d8565b6040516001600160e01b031990911681526020016100a8565b6100f57f000000000000000000000000000000000000000000000000000000000000000081565b61014761019536600461083f565b610445565b5f6001600160e01b03198216630271189760e51b14806101ca57506301ffc9a760e01b6001600160e01b03198316145b92915050565b336001600160a01b037f0000000000000000000000000000000000000000000000000000000000000000161461021957604051636346b2b760e01b815260040160405180910390fd5b604051633857d9d760e01b8152600481018290527f00000000000000000000000000000000000000000000000000000000000000006001600160a01b031690633857d9d7906024015f604051808303815f87803b158015610278575f5ffd5b505af115801561028a573d5f5f3e3d5ffd5b5050505050565b604051627eeac760e11b81523060048201526001600160a01b037f0000000000000000000000000000000000000000000000000000000000000000811660248301819052915f917f0000000000000000000000000000000000000000000000000000000000000000169062fdd58e90604401602060405180830381865afa15801561031e573d5f5f3e3d5ffd5b505050506040513d601f19601f820116820180604052508101906103429190610893565b905080156103d4576040516380a5a37160e01b81526004810183905260248101829052606060448201525f60648201527f00000000000000000000000000000000000000000000000000000000000000006001600160a01b0316906380a5a371906084015f604051808303815f87803b1580156103bd575f5ffd5b505af11580156103cf573d5f5f3e3d5ffd5b505050505b5050565b5f336001600160a01b037f000000000000000000000000000000000000000000000000000000000000000016146104225760405163058a7c7360e31b815260040160405180910390fd5b61042b846104f3565b610433610291565b5063bc197c8160e01b95945050505050565b5f336001600160a01b037f0000000000000000000000000000000000000000000000000000000000000000161461048f5760405163058a7c7360e31b815260040160405180910390fd5b6040805160018082528183019092525f916020808301908036833701905050905084815f815181106104c3576104c36108aa565b6020026020010181815250506104d8816104f3565b6104e0610291565b5063f23a6e6160e01b9695505050505050565b5f5b81518110156103d4577f00000000000000000000000000000000000000000000000000000000000000006001600160a01b0316636713e2307f0000000000000000000000000000000000000000000000000000000000000000848481518110610560576105606108aa565b60200260200101516040518363ffffffff1660e01b815260040161059a9291906001600160a01b0392831681529116602082015260400190565b6020604051808303815f875af11580156105b6573d5f5f3e3d5ffd5b505050506040513d601f19601f820116820180604052508101906105da91906108be565b6105f757604051631c74bb5760e11b815260040160405180910390fd5b6001016104f5565b5f6020828403121561060f575f5ffd5b81356001600160e01b031981168114610626575f5ffd5b9392505050565b5f6020828403121561063d575f5ffd5b5035919050565b80356001600160a01b038116811461065a575f5ffd5b919050565b634e487b7160e01b5f52604160045260245ffd5b604051601f8201601f1916810167ffffffffffffffff8111828210171561069c5761069c61065f565b604052919050565b5f82601f8301126106b3575f5ffd5b813567ffffffffffffffff8111156106cd576106cd61065f565b8060051b6106dd60208201610673565b918252602081850181019290810190868411156106f8575f5ffd5b6020860192505b8383101561071a5782358252602092830192909101906106ff565b9695505050505050565b5f82601f830112610733575f5ffd5b813567ffffffffffffffff81111561074d5761074d61065f565b610760601f8201601f1916602001610673565b818152846020838601011115610774575f5ffd5b816020850160208301375f918101602001919091529392505050565b5f5f5f5f5f60a086880312156107a4575f5ffd5b6107ad86610644565b94506107bb60208701610644565b9350604086013567ffffffffffffffff8111156107d6575f5ffd5b6107e2888289016106a4565b935050606086013567ffffffffffffffff8111156107fe575f5ffd5b61080a888289016106a4565b925050608086013567ffffffffffffffff811115610826575f5ffd5b61083288828901610724565b9150509295509295909350565b5f5f5f5f5f60a08688031215610853575f5ffd5b61085c86610644565b945061086a60208701610644565b93506040860135925060608601359150608086013567ffffffffffffffff811115610826575f5ffd5b5f602082840312156108a3575f5ffd5b5051919050565b634e487b7160e01b5f52603260045260245ffd5b5f602082840312156108ce575f5ffd5b81518015158114610626575f5ffdfea26469706673582212209217904d1030e636468aab237302c0a7da124f4e37962b7534b7440189dde9ae64736f6c634300081c0033","opcodes":"PUSH1 0xE0 PUSH1 0x40 MSTORE CALLVALUE DUP1 ISZERO PUSH2 0xF JUMPI PUSH0 PUSH0 REVERT JUMPDEST POP PUSH1 0x40 MLOAD PUSH2 0xC32 CODESIZE SUB DUP1 PUSH2 0xC32 DUP4 CODECOPY DUP2 ADD PUSH1 0x40 DUP2 SWAP1 MSTORE PUSH2 0x2E SWAP2 PUSH2 0x169 JUMP JUMPDEST PUSH1 0x1 PUSH1 0x1 PUSH1 0xA0 SHL SUB DUP1 DUP7 AND PUSH1 0x80 MSTORE DUP5 DUP2 AND PUSH1 0xA0 MSTORE DUP4 AND PUSH1 0xC0 MSTORE PUSH1 0x40 MLOAD PUSH0 SWAP1 PUSH2 0x5A SWAP1 DUP5 SWAP1 PUSH1 0x20 ADD PUSH2 0x256 JUMP JUMPDEST PUSH1 0x40 DUP1 MLOAD PUSH1 0x1F NOT DUP2 DUP5 SUB ADD DUP2 MSTORE SWAP1 DUP3 SWAP1 MSTORE PUSH1 0x80 MLOAD PUSH4 0xBFDE380D PUSH1 0xE0 SHL DUP4 MSTORE SWAP1 SWAP3 POP PUSH1 0x1 PUSH1 0x1 PUSH1 0xA0 SHL SUB AND SWAP1 PUSH4 0xBFDE380D SWAP1 PUSH2 0x9B SWAP1 DUP5 SWAP1 DUP7 SWAP1 PUSH1 0x4 ADD PUSH2 0x27B JUMP JUMPDEST PUSH0 PUSH1 0x40 MLOAD DUP1 DUP4 SUB DUP2 PUSH0 DUP8 DUP1 EXTCODESIZE ISZERO DUP1 ISZERO PUSH2 0xB2 JUMPI PUSH0 PUSH0 REVERT JUMPDEST POP GAS CALL ISZERO DUP1 ISZERO PUSH2 0xC4 JUMPI RETURNDATASIZE PUSH0 PUSH0 RETURNDATACOPY RETURNDATASIZE PUSH0 REVERT JUMPDEST POP POP PUSH1 0x80 MLOAD PUSH1 0x40 MLOAD PUSH4 0x75DCEBC7 PUSH1 0xE0 SHL DUP2 MSTORE PUSH1 0x1 PUSH1 0x1 PUSH1 0xA0 SHL SUB DUP9 DUP2 AND PUSH1 0x4 DUP4 ADD MSTORE PUSH1 0x1 PUSH1 0x1 PUSH1 0x60 SHL SUB PUSH1 0x24 DUP4 ADD MSTORE SWAP1 SWAP2 AND SWAP3 POP PUSH4 0x75DCEBC7 SWAP2 POP PUSH1 0x44 ADD PUSH0 PUSH1 0x40 MLOAD DUP1 DUP4 SUB DUP2 PUSH0 DUP8 DUP1 EXTCODESIZE ISZERO DUP1 ISZERO PUSH2 0x119 JUMPI PUSH0 PUSH0 REVERT JUMPDEST POP GAS CALL ISZERO DUP1 ISZERO PUSH2 0x12B JUMPI RETURNDATASIZE PUSH0 PUSH0 RETURNDATACOPY RETURNDATASIZE PUSH0 REVERT JUMPDEST POP POP POP POP POP POP POP POP POP POP PUSH2 0x2B7 JUMP JUMPDEST DUP1 MLOAD PUSH1 0x1 PUSH1 0x1 PUSH1 0xA0 SHL SUB DUP2 AND DUP2 EQ PUSH2 0x150 JUMPI PUSH0 PUSH0 REVERT JUMPDEST SWAP2 SWAP1 POP JUMP JUMPDEST PUSH4 0x4E487B71 PUSH1 0xE0 SHL PUSH0 MSTORE PUSH1 0x41 PUSH1 0x4 MSTORE PUSH1 0x24 PUSH0 REVERT JUMPDEST PUSH0 PUSH0 PUSH0 PUSH0 PUSH0 PUSH1 0xA0 DUP7 DUP9 SUB SLT ISZERO PUSH2 0x17D JUMPI PUSH0 PUSH0 REVERT JUMPDEST PUSH2 0x186 DUP7 PUSH2 0x13A JUMP JUMPDEST SWAP5 POP PUSH2 0x194 PUSH1 0x20 DUP8 ADD PUSH2 0x13A JUMP JUMPDEST SWAP4 POP PUSH2 0x1A2 PUSH1 0x40 DUP8 ADD PUSH2 0x13A JUMP JUMPDEST PUSH1 0x60 DUP8 ADD MLOAD SWAP1 SWAP4 POP PUSH1 0x1 PUSH1 0x1 PUSH1 0x40 SHL SUB DUP2 GT ISZERO PUSH2 0x1BD JUMPI PUSH0 PUSH0 REVERT JUMPDEST DUP7 ADD PUSH1 0x1F DUP2 ADD DUP9 SGT PUSH2 0x1CD JUMPI PUSH0 PUSH0 REVERT JUMPDEST DUP1 MLOAD PUSH1 0x1 PUSH1 0x1 PUSH1 0x40 SHL SUB DUP2 GT ISZERO PUSH2 0x1E6 JUMPI PUSH2 0x1E6 PUSH2 0x155 JUMP JUMPDEST PUSH1 0x40 MLOAD PUSH1 0x1F DUP3 ADD PUSH1 0x1F NOT SWAP1 DUP2 AND PUSH1 0x3F ADD AND DUP2 ADD PUSH1 0x1 PUSH1 0x1 PUSH1 0x40 SHL SUB DUP2 GT DUP3 DUP3 LT OR ISZERO PUSH2 0x214 JUMPI PUSH2 0x214 PUSH2 0x155 JUMP JUMPDEST PUSH1 0x40 MSTORE DUP2 DUP2 MSTORE DUP3 DUP3 ADD PUSH1 0x20 ADD DUP11 LT ISZERO PUSH2 0x22B JUMPI PUSH0 PUSH0 REVERT JUMPDEST DUP2 PUSH1 0x20 DUP5 ADD PUSH1 0x20 DUP4 ADD MCOPY PUSH0 SWAP2 DUP2 ADD PUSH1 0x20 ADD SWAP2 SWAP1 SWAP2 MSTORE PUSH1 0x80 SWAP8 SWAP1 SWAP8 ADD MLOAD SWAP6 SWAP9 SWAP5 SWAP8 POP SWAP3 SWAP6 SWAP5 SWAP4 SWAP3 POP POP POP JUMP JUMPDEST PUSH0 DUP3 MLOAD DUP1 PUSH1 0x20 DUP6 ADD DUP5 MCOPY PUSH9 0x2D7472656173757279 PUSH1 0xB8 SHL SWAP3 ADD SWAP2 DUP3 MSTORE POP PUSH1 0x9 ADD SWAP2 SWAP1 POP JUMP JUMPDEST PUSH1 0x40 DUP2 MSTORE PUSH0 DUP4 MLOAD DUP1 PUSH1 0x40 DUP5 ADD MSTORE DUP1 PUSH1 0x20 DUP7 ADD PUSH1 0x60 DUP6 ADD MCOPY PUSH0 PUSH1 0x60 DUP3 DUP6 ADD ADD MSTORE PUSH1 0x60 PUSH1 0x1F NOT PUSH1 0x1F DUP4 ADD AND DUP5 ADD ADD SWAP2 POP POP DUP3 PUSH1 0x20 DUP4 ADD MSTORE SWAP4 SWAP3 POP POP POP JUMP JUMPDEST PUSH1 0x80 MLOAD PUSH1 0xA0 MLOAD PUSH1 0xC0 MLOAD PUSH2 0x913 PUSH2 0x31F PUSH0 CODECOPY PUSH0 DUP2 DUP2 PUSH2 0x165 ADD MSTORE DUP2 DUP2 PUSH2 0x1DB ADD MSTORE DUP2 DUP2 PUSH2 0x2AD ADD MSTORE PUSH2 0x52F ADD MSTORE PUSH0 DUP2 DUP2 PUSH1 0xD3 ADD MSTORE PUSH2 0x22F ADD MSTORE PUSH0 DUP2 DUP2 PUSH2 0x112 ADD MSTORE DUP2 DUP2 PUSH2 0x2DA ADD MSTORE DUP2 DUP2 PUSH2 0x374 ADD MSTORE DUP2 DUP2 PUSH2 0x3E4 ADD MSTORE DUP2 DUP2 PUSH2 0x451 ADD MSTORE PUSH2 0x500 ADD MSTORE PUSH2 0x913 PUSH0 RETURN INVALID PUSH1 0x80 PUSH1 0x40 MSTORE CALLVALUE DUP1 ISZERO PUSH2 0xF JUMPI PUSH0 PUSH0 REVERT JUMPDEST POP PUSH1 0x4 CALLDATASIZE LT PUSH2 0x85 JUMPI PUSH0 CALLDATALOAD PUSH1 0xE0 SHR DUP1 PUSH4 0xA4C52B86 GT PUSH2 0x58 JUMPI DUP1 PUSH4 0xA4C52B86 EQ PUSH2 0x10D JUMPI DUP1 PUSH4 0xBC197C81 EQ PUSH2 0x134 JUMPI DUP1 PUSH4 0xE532B61D EQ PUSH2 0x160 JUMPI DUP1 PUSH4 0xF23A6E61 EQ PUSH2 0x187 JUMPI PUSH0 PUSH0 REVERT JUMPDEST DUP1 PUSH4 0x1FFC9A7 EQ PUSH2 0x89 JUMPI DUP1 PUSH4 0x3857D9D7 EQ PUSH2 0xB1 JUMPI DUP1 PUSH4 0x44DF8E70 EQ PUSH2 0xC6 JUMPI DUP1 PUSH4 0xA05C2616 EQ PUSH2 0xCE JUMPI JUMPDEST PUSH0 PUSH0 REVERT JUMPDEST PUSH2 0x9C PUSH2 0x97 CALLDATASIZE PUSH1 0x4 PUSH2 0x5FF JUMP JUMPDEST PUSH2 0x19A JUMP JUMPDEST PUSH1 0x40 MLOAD SWAP1 ISZERO ISZERO DUP2 MSTORE PUSH1 0x20 ADD JUMPDEST PUSH1 0x40 MLOAD DUP1 SWAP2 SUB SWAP1 RETURN JUMPDEST PUSH2 0xC4 PUSH2 0xBF CALLDATASIZE PUSH1 0x4 PUSH2 0x62D JUMP JUMPDEST PUSH2 0x1D0 JUMP JUMPDEST STOP JUMPDEST PUSH2 0xC4 PUSH2 0x291 JUMP JUMPDEST PUSH2 0xF5 PUSH32 0x0 DUP2 JUMP JUMPDEST PUSH1 0x40 MLOAD PUSH1 0x1 PUSH1 0x1 PUSH1 0xA0 SHL SUB SWAP1 SWAP2 AND DUP2 MSTORE PUSH1 0x20 ADD PUSH2 0xA8 JUMP JUMPDEST PUSH2 0xF5 PUSH32 0x0 DUP2 JUMP JUMPDEST PUSH2 0x147 PUSH2 0x142 CALLDATASIZE PUSH1 0x4 PUSH2 0x790 JUMP JUMPDEST PUSH2 0x3D8 JUMP JUMPDEST PUSH1 0x40 MLOAD PUSH1 0x1 PUSH1 0x1 PUSH1 0xE0 SHL SUB NOT SWAP1 SWAP2 AND DUP2 MSTORE PUSH1 0x20 ADD PUSH2 0xA8 JUMP JUMPDEST PUSH2 0xF5 PUSH32 0x0 DUP2 JUMP JUMPDEST PUSH2 0x147 PUSH2 0x195 CALLDATASIZE PUSH1 0x4 PUSH2 0x83F JUMP JUMPDEST PUSH2 0x445 JUMP JUMPDEST PUSH0 PUSH1 0x1 PUSH1 0x1 PUSH1 0xE0 SHL SUB NOT DUP3 AND PUSH4 0x2711897 PUSH1 0xE5 SHL EQ DUP1 PUSH2 0x1CA JUMPI POP PUSH4 0x1FFC9A7 PUSH1 0xE0 SHL PUSH1 0x1 PUSH1 0x1 PUSH1 0xE0 SHL SUB NOT DUP4 AND EQ JUMPDEST SWAP3 SWAP2 POP POP JUMP JUMPDEST CALLER PUSH1 0x1 PUSH1 0x1 PUSH1 0xA0 SHL SUB PUSH32 0x0 AND EQ PUSH2 0x219 JUMPI PUSH1 0x40 MLOAD PUSH4 0x6346B2B7 PUSH1 0xE0 SHL DUP2 MSTORE PUSH1 0x4 ADD PUSH1 0x40 MLOAD DUP1 SWAP2 SUB SWAP1 REVERT JUMPDEST PUSH1 0x40 MLOAD PUSH4 0x3857D9D7 PUSH1 0xE0 SHL DUP2 MSTORE PUSH1 0x4 DUP2 ADD DUP3 SWAP1 MSTORE PUSH32 0x0 PUSH1 0x1 PUSH1 0x1 PUSH1 0xA0 SHL SUB AND SWAP1 PUSH4 0x3857D9D7 SWAP1 PUSH1 0x24 ADD PUSH0 PUSH1 0x40 MLOAD DUP1 DUP4 SUB DUP2 PUSH0 DUP8 DUP1 EXTCODESIZE ISZERO DUP1 ISZERO PUSH2 0x278 JUMPI PUSH0 PUSH0 REVERT JUMPDEST POP GAS CALL ISZERO DUP1 ISZERO PUSH2 0x28A JUMPI RETURNDATASIZE PUSH0 PUSH0 RETURNDATACOPY RETURNDATASIZE PUSH0 REVERT JUMPDEST POP POP POP POP POP JUMP JUMPDEST PUSH1 0x40 MLOAD PUSH3 0x7EEAC7 PUSH1 0xE1 SHL DUP2 MSTORE ADDRESS PUSH1 0x4 DUP3 ADD MSTORE PUSH1 0x1 PUSH1 0x1 PUSH1 0xA0 SHL SUB PUSH32 0x0 DUP2 AND PUSH1 0x24 DUP4 ADD DUP2 SWAP1 MSTORE SWAP2 PUSH0 SWAP2 PUSH32 0x0 AND SWAP1 PUSH3 0xFDD58E SWAP1 PUSH1 0x44 ADD PUSH1 0x20 PUSH1 0x40 MLOAD DUP1 DUP4 SUB DUP2 DUP7 GAS STATICCALL ISZERO DUP1 ISZERO PUSH2 0x31E JUMPI RETURNDATASIZE PUSH0 PUSH0 RETURNDATACOPY RETURNDATASIZE PUSH0 REVERT JUMPDEST POP POP POP POP PUSH1 0x40 MLOAD RETURNDATASIZE PUSH1 0x1F NOT PUSH1 0x1F DUP3 ADD AND DUP3 ADD DUP1 PUSH1 0x40 MSTORE POP DUP2 ADD SWAP1 PUSH2 0x342 SWAP2 SWAP1 PUSH2 0x893 JUMP JUMPDEST SWAP1 POP DUP1 ISZERO PUSH2 0x3D4 JUMPI PUSH1 0x40 MLOAD PUSH4 0x80A5A371 PUSH1 0xE0 SHL DUP2 MSTORE PUSH1 0x4 DUP2 ADD DUP4 SWAP1 MSTORE PUSH1 0x24 DUP2 ADD DUP3 SWAP1 MSTORE PUSH1 0x60 PUSH1 0x44 DUP3 ADD MSTORE PUSH0 PUSH1 0x64 DUP3 ADD MSTORE PUSH32 0x0 PUSH1 0x1 PUSH1 0x1 PUSH1 0xA0 SHL SUB AND SWAP1 PUSH4 0x80A5A371 SWAP1 PUSH1 0x84 ADD PUSH0 PUSH1 0x40 MLOAD DUP1 DUP4 SUB DUP2 PUSH0 DUP8 DUP1 EXTCODESIZE ISZERO DUP1 ISZERO PUSH2 0x3BD JUMPI PUSH0 PUSH0 REVERT JUMPDEST POP GAS CALL ISZERO DUP1 ISZERO PUSH2 0x3CF JUMPI RETURNDATASIZE PUSH0 PUSH0 RETURNDATACOPY RETURNDATASIZE PUSH0 REVERT JUMPDEST POP POP POP POP JUMPDEST POP POP JUMP JUMPDEST PUSH0 CALLER PUSH1 0x1 PUSH1 0x1 PUSH1 0xA0 SHL SUB PUSH32 0x0 AND EQ PUSH2 0x422 JUMPI PUSH1 0x40 MLOAD PUSH4 0x58A7C73 PUSH1 0xE3 SHL DUP2 MSTORE PUSH1 0x4 ADD PUSH1 0x40 MLOAD DUP1 SWAP2 SUB SWAP1 REVERT JUMPDEST PUSH2 0x42B DUP5 PUSH2 0x4F3 JUMP JUMPDEST PUSH2 0x433 PUSH2 0x291 JUMP JUMPDEST POP PUSH4 0xBC197C81 PUSH1 0xE0 SHL SWAP6 SWAP5 POP POP POP POP POP JUMP JUMPDEST PUSH0 CALLER PUSH1 0x1 PUSH1 0x1 PUSH1 0xA0 SHL SUB PUSH32 0x0 AND EQ PUSH2 0x48F JUMPI PUSH1 0x40 MLOAD PUSH4 0x58A7C73 PUSH1 0xE3 SHL DUP2 MSTORE PUSH1 0x4 ADD PUSH1 0x40 MLOAD DUP1 SWAP2 SUB SWAP1 REVERT JUMPDEST PUSH1 0x40 DUP1 MLOAD PUSH1 0x1 DUP1 DUP3 MSTORE DUP2 DUP4 ADD SWAP1 SWAP3 MSTORE PUSH0 SWAP2 PUSH1 0x20 DUP1 DUP4 ADD SWAP1 DUP1 CALLDATASIZE DUP4 CALLDATACOPY ADD SWAP1 POP POP SWAP1 POP DUP5 DUP2 PUSH0 DUP2 MLOAD DUP2 LT PUSH2 0x4C3 JUMPI PUSH2 0x4C3 PUSH2 0x8AA JUMP JUMPDEST PUSH1 0x20 MUL PUSH1 0x20 ADD ADD DUP2 DUP2 MSTORE POP POP PUSH2 0x4D8 DUP2 PUSH2 0x4F3 JUMP JUMPDEST PUSH2 0x4E0 PUSH2 0x291 JUMP JUMPDEST POP PUSH4 0xF23A6E61 PUSH1 0xE0 SHL SWAP7 SWAP6 POP POP POP POP POP POP JUMP JUMPDEST PUSH0 JUMPDEST DUP2 MLOAD DUP2 LT ISZERO PUSH2 0x3D4 JUMPI PUSH32 0x0 PUSH1 0x1 PUSH1 0x1 PUSH1 0xA0 SHL SUB AND PUSH4 0x6713E230 PUSH32 0x0 DUP5 DUP5 DUP2 MLOAD DUP2 LT PUSH2 0x560 JUMPI PUSH2 0x560 PUSH2 0x8AA JUMP JUMPDEST PUSH1 0x20 MUL PUSH1 0x20 ADD ADD MLOAD PUSH1 0x40 MLOAD DUP4 PUSH4 0xFFFFFFFF AND PUSH1 0xE0 SHL DUP2 MSTORE PUSH1 0x4 ADD PUSH2 0x59A SWAP3 SWAP2 SWAP1 PUSH1 0x1 PUSH1 0x1 PUSH1 0xA0 SHL SUB SWAP3 DUP4 AND DUP2 MSTORE SWAP2 AND PUSH1 0x20 DUP3 ADD MSTORE PUSH1 0x40 ADD SWAP1 JUMP JUMPDEST PUSH1 0x20 PUSH1 0x40 MLOAD DUP1 DUP4 SUB DUP2 PUSH0 DUP8 GAS CALL ISZERO DUP1 ISZERO PUSH2 0x5B6 JUMPI RETURNDATASIZE PUSH0 PUSH0 RETURNDATACOPY RETURNDATASIZE PUSH0 REVERT JUMPDEST POP POP POP POP PUSH1 0x40 MLOAD RETURNDATASIZE PUSH1 0x1F NOT PUSH1 0x1F DUP3 ADD AND DUP3 ADD DUP1 PUSH1 0x40 MSTORE POP DUP2 ADD SWAP1 PUSH2 0x5DA SWAP2 SWAP1 PUSH2 0x8BE JUMP JUMPDEST PUSH2 0x5F7 JUMPI PUSH1 0x40 MLOAD PUSH4 0x1C74BB57 PUSH1 0xE1 SHL DUP2 MSTORE PUSH1 0x4 ADD PUSH1 0x40 MLOAD DUP1 SWAP2 SUB SWAP1 REVERT JUMPDEST PUSH1 0x1 ADD PUSH2 0x4F5 JUMP JUMPDEST PUSH0 PUSH1 0x20 DUP3 DUP5 SUB SLT ISZERO PUSH2 0x60F JUMPI PUSH0 PUSH0 REVERT JUMPDEST DUP2 CALLDATALOAD PUSH1 0x1 PUSH1 0x1 PUSH1 0xE0 SHL SUB NOT DUP2 AND DUP2 EQ PUSH2 0x626 JUMPI PUSH0 PUSH0 REVERT JUMPDEST SWAP4 SWAP3 POP POP POP JUMP JUMPDEST PUSH0 PUSH1 0x20 DUP3 DUP5 SUB SLT ISZERO PUSH2 0x63D JUMPI PUSH0 PUSH0 REVERT JUMPDEST POP CALLDATALOAD SWAP2 SWAP1 POP JUMP JUMPDEST DUP1 CALLDATALOAD PUSH1 0x1 PUSH1 0x1 PUSH1 0xA0 SHL SUB DUP2 AND DUP2 EQ PUSH2 0x65A JUMPI PUSH0 PUSH0 REVERT JUMPDEST SWAP2 SWAP1 POP JUMP JUMPDEST PUSH4 0x4E487B71 PUSH1 0xE0 SHL PUSH0 MSTORE PUSH1 0x41 PUSH1 0x4 MSTORE PUSH1 0x24 PUSH0 REVERT JUMPDEST PUSH1 0x40 MLOAD PUSH1 0x1F DUP3 ADD PUSH1 0x1F NOT AND DUP2 ADD PUSH8 0xFFFFFFFFFFFFFFFF DUP2 GT DUP3 DUP3 LT OR ISZERO PUSH2 0x69C JUMPI PUSH2 0x69C PUSH2 0x65F JUMP JUMPDEST PUSH1 0x40 MSTORE SWAP2 SWAP1 POP JUMP JUMPDEST PUSH0 DUP3 PUSH1 0x1F DUP4 ADD SLT PUSH2 0x6B3 JUMPI PUSH0 PUSH0 REVERT JUMPDEST DUP2 CALLDATALOAD PUSH8 0xFFFFFFFFFFFFFFFF DUP2 GT ISZERO PUSH2 0x6CD JUMPI PUSH2 0x6CD PUSH2 0x65F JUMP JUMPDEST DUP1 PUSH1 0x5 SHL PUSH2 0x6DD PUSH1 0x20 DUP3 ADD PUSH2 0x673 JUMP JUMPDEST SWAP2 DUP3 MSTORE PUSH1 0x20 DUP2 DUP6 ADD DUP2 ADD SWAP3 SWAP1 DUP2 ADD SWAP1 DUP7 DUP5 GT ISZERO PUSH2 0x6F8 JUMPI PUSH0 PUSH0 REVERT JUMPDEST PUSH1 0x20 DUP7 ADD SWAP3 POP JUMPDEST DUP4 DUP4 LT ISZERO PUSH2 0x71A JUMPI DUP3 CALLDATALOAD DUP3 MSTORE PUSH1 0x20 SWAP3 DUP4 ADD SWAP3 SWAP1 SWAP2 ADD SWAP1 PUSH2 0x6FF JUMP JUMPDEST SWAP7 SWAP6 POP POP POP POP POP POP JUMP JUMPDEST PUSH0 DUP3 PUSH1 0x1F DUP4 ADD SLT PUSH2 0x733 JUMPI PUSH0 PUSH0 REVERT JUMPDEST DUP2 CALLDATALOAD PUSH8 0xFFFFFFFFFFFFFFFF DUP2 GT ISZERO PUSH2 0x74D JUMPI PUSH2 0x74D PUSH2 0x65F JUMP JUMPDEST PUSH2 0x760 PUSH1 0x1F DUP3 ADD PUSH1 0x1F NOT AND PUSH1 0x20 ADD PUSH2 0x673 JUMP JUMPDEST DUP2 DUP2 MSTORE DUP5 PUSH1 0x20 DUP4 DUP7 ADD ADD GT ISZERO PUSH2 0x774 JUMPI PUSH0 PUSH0 REVERT JUMPDEST DUP2 PUSH1 0x20 DUP6 ADD PUSH1 0x20 DUP4 ADD CALLDATACOPY PUSH0 SWAP2 DUP2 ADD PUSH1 0x20 ADD SWAP2 SWAP1 SWAP2 MSTORE SWAP4 SWAP3 POP POP POP JUMP JUMPDEST PUSH0 PUSH0 PUSH0 PUSH0 PUSH0 PUSH1 0xA0 DUP7 DUP9 SUB SLT ISZERO PUSH2 0x7A4 JUMPI PUSH0 PUSH0 REVERT JUMPDEST PUSH2 0x7AD DUP7 PUSH2 0x644 JUMP JUMPDEST SWAP5 POP PUSH2 0x7BB PUSH1 0x20 DUP8 ADD PUSH2 0x644 JUMP JUMPDEST SWAP4 POP PUSH1 0x40 DUP7 ADD CALLDATALOAD PUSH8 0xFFFFFFFFFFFFFFFF DUP2 GT ISZERO PUSH2 0x7D6 JUMPI PUSH0 PUSH0 REVERT JUMPDEST PUSH2 0x7E2 DUP9 DUP3 DUP10 ADD PUSH2 0x6A4 JUMP JUMPDEST SWAP4 POP POP PUSH1 0x60 DUP7 ADD CALLDATALOAD PUSH8 0xFFFFFFFFFFFFFFFF DUP2 GT ISZERO PUSH2 0x7FE JUMPI PUSH0 PUSH0 REVERT JUMPDEST PUSH2 0x80A DUP9 DUP3 DUP10 ADD PUSH2 0x6A4 JUMP JUMPDEST SWAP3 POP POP PUSH1 0x80 DUP7 ADD CALLDATALOAD PUSH8 0xFFFFFFFFFFFFFFFF DUP2 GT ISZERO PUSH2 0x826 JUMPI PUSH0 PUSH0 REVERT JUMPDEST PUSH2 0x832 DUP9 DUP3 DUP10 ADD PUSH2 0x724 JUMP JUMPDEST SWAP2 POP POP SWAP3 SWAP6 POP SWAP3 SWAP6 SWAP1 SWAP4 POP JUMP JUMPDEST PUSH0 PUSH0 PUSH0 PUSH0 PUSH0 PUSH1 0xA0 DUP7 DUP9 SUB SLT ISZERO PUSH2 0x853 JUMPI PUSH0 PUSH0 REVERT JUMPDEST PUSH2 0x85C DUP7 PUSH2 0x644 JUMP JUMPDEST SWAP5 POP PUSH2 0x86A PUSH1 0x20 DUP8 ADD PUSH2 0x644 JUMP JUMPDEST SWAP4 POP PUSH1 0x40 DUP7 ADD CALLDATALOAD SWAP3 POP PUSH1 0x60 DUP7 ADD CALLDATALOAD SWAP2 POP PUSH1 0x80 DUP7 ADD CALLDATALOAD PUSH8 0xFFFFFFFFFFFFFFFF DUP2 GT ISZERO PUSH2 0x826 JUMPI PUSH0 PUSH0 REVERT JUMPDEST PUSH0 PUSH1 0x20 DUP3 DUP5 SUB SLT ISZERO PUSH2 0x8A3 JUMPI PUSH0 PUSH0 REVERT JUMPDEST POP MLOAD SWAP2 SWAP1 POP JUMP JUMPDEST PUSH4 0x4E487B71 PUSH1 0xE0 SHL PUSH0 MSTORE PUSH1 0x32 PUSH1 0x4 MSTORE PUSH1 0x24 PUSH0 REVERT JUMPDEST PUSH0 PUSH1 0x20 DUP3 DUP5 SUB SLT ISZERO PUSH2 0x8CE JUMPI PUSH0 PUSH0 REVERT JUMPDEST DUP2 MLOAD DUP1 ISZERO ISZERO DUP2 EQ PUSH2 0x626 JUMPI PUSH0 PUSH0 REVERT INVALID LOG2 PUSH5 0x6970667358 0x22 SLT KECCAK256 SWAP3 OR SWAP1 0x4D LT ADDRESS 0xE6 CALLDATASIZE CHAINID DUP11 0xAB 0x23 PUSH20 0x2C0A7DA124F4E37962B7534B7440189DDE9AE64 PUSH20 0x6F6C634300081C00330000000000000000000000 "},"methodIdentifiers":{"GROUP()":"e532b61d","HUB()":"a4c52b86","NAME_REGISTRY()":"a05c2616","burn()":"44df8e70","onERC1155BatchReceived(address,address,uint256[],uint256[],bytes)":"bc197c81","onERC1155Received(address,address,uint256,uint256,bytes)":"f23a6e61","supportsInterface(bytes4)":"01ffc9a7","updateMetadataDigest(bytes32)":"3857d9d7"}}}}}