{"sol/implementations/TFGroupFactory.sol":{"TFGroupFactory":{"abi":[{"inputs":[],"name":"MaxNameLength19","type":"error"},{"anonymous":false,"inputs":[{"indexed":true,"internalType":"address","name":"group","type":"address"},{"indexed":true,"internalType":"address","name":"owner","type":"address"},{"indexed":true,"internalType":"address","name":"mintHandler","type":"address"},{"indexed":false,"internalType":"address","name":"treasury","type":"address"}],"name":"BaseGroupCreated","type":"event"},{"inputs":[{"internalType":"address","name":"_owner","type":"address"},{"internalType":"address","name":"_service","type":"address"},{"internalType":"address","name":"_feeCollection","type":"address"},{"internalType":"address","name":"_customMintPolicy","type":"address"},{"internalType":"address[]","name":"_initialConditions","type":"address[]"},{"internalType":"string","name":"_name","type":"string"},{"internalType":"string","name":"_symbol","type":"string"},{"internalType":"bytes32","name":"_metadataDigest","type":"bytes32"}],"name":"createTrustFund","outputs":[{"internalType":"address","name":"group","type":"address"},{"internalType":"address","name":"mintHandler","type":"address"},{"internalType":"address","name":"treasury","type":"address"}],"stateMutability":"nonpayable","type":"function"},{"inputs":[{"internalType":"address","name":"group","type":"address"}],"name":"deployedByFactory","outputs":[{"internalType":"bool","name":"deployed","type":"bool"}],"stateMutability":"view","type":"function"}],"evm":{"bytecode":{"linkReferences":{},"object":"6080604052348015600e575f5ffd5b506141478061001c5f395ff3fe608060405234801561000f575f5ffd5b5060043610610034575f3560e01c8063bc38fc6514610038578063de87aeeb1461007a575b5f5ffd5b61004b6100463660046103ca565b6100ac565b604080516001600160a01b03948516815292841660208401529216918101919091526060015b60405180910390f35b61009c6100883660046104a5565b5f6020819052908152604090205460ff1681565b6040519015158152602001610071565b5f5f5f6013865111156100d1576040516272a29d60e71b815260040160405180910390fd5b5f8b8b8b8b8b8b8b8b6040516100e69061025c565b6100f79897969594939291906104f5565b604051809103905ff080158015610110573d5f5f3e3d5ffd5b509050809350806001600160a01b03166318daa2266040518163ffffffff1660e01b8152600401602060405180830381865afa158015610152573d5f5f3e3d5ffd5b505050506040513d601f19601f8201168201806040525081019061017691906105a3565b9250806001600160a01b031663dcdcbb3a6040518163ffffffff1660e01b8152600401602060405180830381865afa1580156101b4573d5f5f3e3d5ffd5b505050506040513d601f19601f820116820180604052508101906101d891906105a3565b6001600160a01b038086165f8181526020819052604090819020805460ff191660011790555192945085821692918f16917fee2d13e80f5f1abdc1590049ea7b859791ca98f79c1aa0b19ae0647c9bb81a96906102459087906001600160a01b0391909116815260200190565b60405180910390a450985098509895505050505050565b613b53806105bf83390190565b6001600160a01b038116811461027d575f5ffd5b50565b803561028b81610269565b919050565b634e487b7160e01b5f52604160045260245ffd5b604051601f8201601f1916810167ffffffffffffffff811182821017156102cd576102cd610290565b604052919050565b5f82601f8301126102e4575f5ffd5b813567ffffffffffffffff8111156102fe576102fe610290565b8060051b61030e602082016102a4565b91825260208185018101929081019086841115610329575f5ffd5b6020860192505b8383101561035457823561034381610269565b825260209283019290910190610330565b9695505050505050565b5f82601f83011261036d575f5ffd5b813567ffffffffffffffff81111561038757610387610290565b61039a601f8201601f19166020016102a4565b8181528460208386010111156103ae575f5ffd5b816020850160208301375f918101602001919091529392505050565b5f5f5f5f5f5f5f5f610100898b0312156103e2575f5ffd5b6103eb89610280565b97506103f960208a01610280565b965061040760408a01610280565b955061041560608a01610280565b9450608089013567ffffffffffffffff811115610430575f5ffd5b61043c8b828c016102d5565b94505060a089013567ffffffffffffffff811115610458575f5ffd5b6104648b828c0161035e565b93505060c089013567ffffffffffffffff811115610480575f5ffd5b61048c8b828c0161035e565b989b979a50959894979396929550929360e00135925050565b5f602082840312156104b5575f5ffd5b81356104c081610269565b9392505050565b5f81518084528060208401602086015e5f602082860101526020601f19601f83011685010191505092915050565b6001600160a01b038981168252888116602080840191909152888216604084015290871660608301526101006080830181905286519083018190525f91870190610120840190835b818110156105645783516001600160a01b031683526020938401939092019160010161053d565b505083810360a085015261057881886104c7565b91505082810360c084015261058d81866104c7565b9150508260e08301529998505050505050505050565b5f602082840312156105b3575f5ffd5b81516104c08161026956fe60c060405234801561000f575f5ffd5b50604051613b53380380613b5383398101604081905261002e9161067b565b6001600160a01b03881661005457604051628c613160e41b815260040160405180910390fd5b61005d88610363565b610066876103aa565b61006f866103f3565b5f5b84518110156100aa576100a285828151811061008f5761008f610758565b602002602001015161043c60201b60201c565b600101610071565b5073c12c1e50abb450d6205ea2c3fa861b3b834d13e873a27566fd89162cc3d40cb59c87aaaa49b85f34743085846040516100e490610511565b6100f295949392919061079a565b604051809103905ff08015801561010b573d5f5f3e3d5ffd5b506001600160a01b03166080819052604051634df62b9360e11b815273c12c1e50abb450d6205ea2c3fa861b3b834d13e891639bec5726916101579189918890889088906004016107df565b5f604051808303815f87803b15801561016e575f5ffd5b505af1158015610180573d5f5f3e3d5ffd5b5050505073a27566fd89162cc3d40cb59c87aaaa49b85f34746001600160a01b031663829c0fde6203d0906040518263ffffffff1660e01b81526004015f604051808303815f88803b1580156101d4575f5ffd5b5087f1935050505080156101e6575060015b506040516395b645b160e01b81523060048201525f6024820181905290735f99a795dd2743c36d63511f0d4bc667e6d3cdb5906395b645b1906044016020604051808303815f875af115801561023e573d5f5f3e3d5ffd5b505050506040513d601f19601f82011682018060405250810190610262919061082f565b6040516395b645b160e01b8152306004820152600160248201529091505f90735f99a795dd2743c36d63511f0d4bc667e6d3cdb5906395b645b1906044016020604051808303815f875af11580156102bc573d5f5f3e3d5ffd5b505050506040513d601f19601f820116820180604052508101906102e0919061082f565b905073c12c1e50abb450d6205ea2c3fa861b3b834d13e873a27566fd89162cc3d40cb59c87aaaa49b85f3474308484898860405161031d9061051e565b61032d979695949392919061084f565b604051809103905ff080158015610346573d5f5f3e3d5ffd5b506001600160a01b031660a052506108a698505050505050505050565b5f80546001600160a01b0319166001600160a01b038316908117825560405190917f4ffd725fc4a22075e9ec71c59edf9c38cdeb588a91b24fc5b61388c5be41282b91a250565b600180546001600160a01b0319166001600160a01b0383169081179091556040517f0176c74b9bca78214099248dd4e675a4be45c1f7417e269f78ef97e96ece2a51905f90a250565b600280546001600160a01b0319166001600160a01b0383169081179091556040517f166c82f2c4cd6d3546d8aa18fe78e4b4e6a1baa30de276480b10d2a4faa95a28905f90a250565b6001600160a01b03811661044d5750565b600354600a8110610471576040516329ba6e8d60e11b815260040160405180910390fd5b5f5b818110156104be57826001600160a01b03166003828154811061049857610498610758565b5f918252602090912001546001600160a01b0316036104b657505050565b600101610473565b5050600380546001810182555f919091527fc2575a0e9e593c00f959f8c92f12db2869c3395a3b0502d05e2516446f71f85b0180546001600160a01b0319166001600160a01b0392909216919091179055565b610c32806118c883390190565b611659806124fa83390190565b80516001600160a01b0381168114610541575f5ffd5b919050565b634e487b7160e01b5f52604160045260245ffd5b604051601f8201601f191681016001600160401b038111828210171561058257610582610546565b604052919050565b5f82601f830112610599575f5ffd5b81516001600160401b038111156105b2576105b2610546565b8060051b6105c26020820161055a565b918252602081850181019290810190868411156105dd575f5ffd5b6020860192505b83831015610606576105f58361052b565b8252602092830192909101906105e4565b9695505050505050565b5f82601f83011261061f575f5ffd5b81516001600160401b0381111561063857610638610546565b61064b601f8201601f191660200161055a565b81815284602083860101111561065f575f5ffd5b8160208501602083015e5f918101602001919091529392505050565b5f5f5f5f5f5f5f5f610100898b031215610693575f5ffd5b61069c8961052b565b97506106aa60208a0161052b565b96506106b860408a0161052b565b95506106c660608a0161052b565b60808a01519095506001600160401b038111156106e1575f5ffd5b6106ed8b828c0161058a565b60a08b015190955090506001600160401b0381111561070a575f5ffd5b6107168b828c01610610565b60c08b015190945090506001600160401b03811115610733575f5ffd5b61073f8b828c01610610565b60e09a909a0151989b979a509598949793969295505050565b634e487b7160e01b5f52603260045260245ffd5b5f81518084528060208401602086015e5f602082860101526020601f19601f83011685010191505092915050565b6001600160a01b03868116825285811660208301528416604082015260a0606082018190525f906107cd9083018561076c565b90508260808301529695505050505050565b6001600160a01b0386811682528516602082015260a0604082018190525f9061080a9083018661076c565b828103606084015261081c818661076c565b9150508260808301529695505050505050565b5f6020828403121561083f575f5ffd5b6108488261052b565b9392505050565b6001600160a01b0388811682528781166020830152868116604083015285811660608301528416608082015260e060a082018190525f906108929083018561076c565b90508260c083015298975050505050505050565b60805160a051610fec6108dc5f395f8181610175015281816105cc0152610c9a01525f81816102c201526105570152610fec5ff3fe608060405234801561000f575f5ffd5b5060043610610127575f3560e01c80638da5cb5b116100a9578063d598d4c91161006e578063d598d4c914610294578063d9b7f3ee146102a7578063dcdcbb3a146102bd578063dd758399146102e4578063edbcfdf2146102ff575f5ffd5b80638da5cb5b14610226578063a05c261614610238578063a4c52b8614610253578063bf8bdac11461026e578063c5a5688c14610281575f5ffd5b80633786df5e116100ef5780633786df5e146101bf5780633857d9d7146101d25780634141f954146101e557806375dcebc7146101f857806383c2b7f51461020b575f5ffd5b80630720cb191461012b57806313af40351461015b57806318daa226146101705780631f5be2e7146101975780632bfed375146101aa575b5f5ffd5b61013e610139366004610d40565b610312565b6040516001600160a01b0390911681526020015b60405180910390f35b61016e610169366004610d72565b61033a565b005b61013e7f000000000000000000000000000000000000000000000000000000000000000081565b61016e6101a5366004610d9f565b610370565b6101b2610400565b6040516101529190610dd4565b61016e6101cd366004610d72565b610460565b61016e6101e0366004610d40565b6104b9565b61016e6101f3366004610e49565b610631565b61016e610206366004610f26565b61079c565b61013e735f99a795dd2743c36d63511f0d4bc667e6d3cdb581565b5f5461013e906001600160a01b031681565b61013e73a27566fd89162cc3d40cb59c87aaaa49b85f347481565b61013e73c12c1e50abb450d6205ea2c3fa861b3b834d13e881565b61016e61027c366004610d72565b6107d4565b61016e61028f366004610d40565b61082d565b60015461013e906001600160a01b031681565b6102af600a81565b604051908152602001610152565b61013e7f000000000000000000000000000000000000000000000000000000000000000081565b61013e73cdfc5135aec0afbf102c108e7f5c8a88c611284281565b60025461013e906001600160a01b031681565b60038181548110610321575f80fd5b5f918252602090912001546001600160a01b0316905081565b5f546001600160a01b0316331461036457604051635fc483c560e01b815260040160405180910390fd5b61036d8161088f565b50565b5f546001600160a01b0316331461039a57604051635fc483c560e01b815260040160405180910390fd5b80156103ae576103a9826108d6565b6103b7565b6103b7826109ab565b816001600160a01b03167f020147d45cea39f58d5e0ac88491218987fe0a4ceafbf0a47796542ac9446b6a826040516103f4911515815260200190565b60405180910390a25050565b6060600380548060200260200160405190810160405280929190818152602001828054801561045657602002820191905f5260205f20905b81546001600160a01b03168152600190910190602001808311610438575b5050505050905090565b5f546001600160a01b0316331461048a57604051635fc483c560e01b815260040160405180910390fd5b6001600160a01b0381166104b057604051628c613160e41b815260040160405180910390fd5b61036d81610ac7565b5f546001600160a01b031633146104e357604051635fc483c560e01b815260040160405180910390fd5b604051633857d9d760e01b81526004810182905273a27566fd89162cc3d40cb59c87aaaa49b85f347490633857d9d7906024015f604051808303815f87803b15801561052d575f5ffd5b505af115801561053f573d5f5f3e3d5ffd5b5050604051633857d9d760e01b8152600481018490527f00000000000000000000000000000000000000000000000000000000000000006001600160a01b03169250633857d9d791506024015f604051808303815f87803b1580156105a2575f5ffd5b505af11580156105b4573d5f5f3e3d5ffd5b5050604051633857d9d760e01b8152600481018490527f00000000000000000000000000000000000000000000000000000000000000006001600160a01b03169250633857d9d791506024015b5f604051808303815f87803b158015610618575f5ffd5b505af115801561062a573d5f5f3e3d5ffd5b5050505050565b5f546001600160a01b0316331480159061065657506001546001600160a01b03163314155b1561067457604051630f14274360e41b815260040160405180910390fd5b426001600160601b03821610155f805b845181101561062a5784818151811061069f5761069f610f4e565b602002602001015191508215610704575f5f6106ba84610b10565b91509150816106f35760405163f35a9bb360e01b81526001600160a01b0380861660048301528216602482015260440160405180910390fd5b6106fd8487610bf7565b5050610794565b6040516306713e2360e41b81523060048201526001600160a01b038316602482015273c12c1e50abb450d6205ea2c3fa861b3b834d13e890636713e230906044016020604051808303815f875af1158015610761573d5f5f3e3d5ffd5b505050506040513d601f19601f820116820180604052508101906107859190610f62565b15610794576107948285610bf7565b600101610684565b5f546001600160a01b031633146107c657604051635fc483c560e01b815260040160405180910390fd5b6107d08282610bf7565b5050565b5f546001600160a01b031633146107fe57604051635fc483c560e01b815260040160405180910390fd5b6001600160a01b03811661082457604051628c613160e41b815260040160405180910390fd5b61036d81610cf7565b5f546001600160a01b0316331461085757604051635fc483c560e01b815260040160405180910390fd5b6040516331695a2360e21b81526004810182905273a27566fd89162cc3d40cb59c87aaaa49b85f34749063c5a5688c90602401610601565b5f80546001600160a01b0319166001600160a01b038316908117825560405190917f4ffd725fc4a22075e9ec71c59edf9c38cdeb588a91b24fc5b61388c5be41282b91a250565b6001600160a01b0381166108e75750565b600354600a811061090b576040516329ba6e8d60e11b815260040160405180910390fd5b5f5b8181101561095857826001600160a01b03166003828154811061093257610932610f4e565b5f918252602090912001546001600160a01b03160361095057505050565b60010161090d565b5050600380546001810182555f919091527fc2575a0e9e593c00f959f8c92f12db2869c3395a3b0502d05e2516446f71f85b0180546001600160a01b0319166001600160a01b0392909216919091179055565b6001600160a01b0381166109bc5750565b6003545f5b81811015610ac257826001600160a01b0316600382815481106109e6576109e6610f4e565b5f918252602090912001546001600160a01b031603610aba57610a0a600183610f7d565b8114610a84576003610a1d600184610f7d565b81548110610a2d57610a2d610f4e565b5f91825260209091200154600380546001600160a01b039092169183908110610a5857610a58610f4e565b905f5260205f20015f6101000a8154816001600160a01b0302191690836001600160a01b031602179055505b6003805480610a9557610a95610fa2565b5f8281526020902081015f1990810180546001600160a01b0319169055019055505050565b6001016109c1565b505050565b600280546001600160a01b0319166001600160a01b0383169081179091556040517f166c82f2c4cd6d3546d8aa18fe78e4b4e6a1baa30de276480b10d2a4faa95a28905f90a250565b6003545f908190815b81811015610bea5760038181548110610b3457610b34610f4e565b5f9182526020909120015460405163cf3838e160e01b81526001600160a01b0387811660048301529091169063cf3838e1906024016020604051808303815f875af1158015610b85573d5f5f3e3d5ffd5b505050506040513d601f19601f82011682018060405250810190610ba99190610f62565b610be2575f60038281548110610bc157610bc1610f4e565b5f9182526020909120015490966001600160a01b0390911695509350505050565b600101610b19565b506001945f945092505050565b6040516375dcebc760e01b81526001600160a01b03831660048201526001600160601b038216602482015273c12c1e50abb450d6205ea2c3fa861b3b834d13e8906375dcebc7906044015f604051808303815f87803b158015610c58575f5ffd5b505af1158015610c6a573d5f5f3e3d5ffd5b505060405163c878fe9560e01b81526001600160a01b0385811660048301526001600160601b03851660248301527f000000000000000000000000000000000000000000000000000000000000000016925063c878fe9591506044015f604051808303815f87803b158015610cdd575f5ffd5b505af1158015610cef573d5f5f3e3d5ffd5b505050505050565b600180546001600160a01b0319166001600160a01b0383169081179091556040517f0176c74b9bca78214099248dd4e675a4be45c1f7417e269f78ef97e96ece2a51905f90a250565b5f60208284031215610d50575f5ffd5b5035919050565b80356001600160a01b0381168114610d6d575f5ffd5b919050565b5f60208284031215610d82575f5ffd5b610d8b82610d57565b9392505050565b801515811461036d575f5ffd5b5f5f60408385031215610db0575f5ffd5b610db983610d57565b91506020830135610dc981610d92565b809150509250929050565b602080825282518282018190525f918401906040840190835b81811015610e145783516001600160a01b0316835260209384019390920191600101610ded565b509095945050505050565b634e487b7160e01b5f52604160045260245ffd5b80356001600160601b0381168114610d6d575f5ffd5b5f5f60408385031215610e5a575f5ffd5b823567ffffffffffffffff811115610e70575f5ffd5b8301601f81018513610e80575f5ffd5b803567ffffffffffffffff811115610e9a57610e9a610e1f565b8060051b604051601f19603f830116810181811067ffffffffffffffff82111715610ec757610ec7610e1f565b604052918252602081840181019290810188841115610ee4575f5ffd5b6020850194505b83851015610f0a57610efc85610d57565b815260209485019401610eeb565b509450610f1d9250505060208401610e33565b90509250929050565b5f5f60408385031215610f37575f5ffd5b610f4083610d57565b9150610f1d60208401610e33565b634e487b7160e01b5f52603260045260245ffd5b5f60208284031215610f72575f5ffd5b8151610d8b81610d92565b81810381811115610f9c57634e487b7160e01b5f52601160045260245ffd5b92915050565b634e487b7160e01b5f52603160045260245ffdfea2646970667358221220f8e91d48460f76414c168f81b3d6dea8613dd80463e17b405adc8d3c51e81f2a64736f6c634300081c003360e060405234801561000f575f5ffd5b50604051610c32380380610c3283398101604081905261002e91610169565b6001600160a01b0380861660805284811660a052831660c0526040515f9061005a908490602001610256565b60408051601f198184030181529082905260805163bfde380d60e01b83529092506001600160a01b03169063bfde380d9061009b908490869060040161027b565b5f604051808303815f87803b1580156100b2575f5ffd5b505af11580156100c4573d5f5f3e3d5ffd5b50506080516040516375dcebc760e01b81526001600160a01b0388811660048301526001600160601b03602483015290911692506375dcebc791506044015f604051808303815f87803b158015610119575f5ffd5b505af115801561012b573d5f5f3e3d5ffd5b505050505050505050506102b7565b80516001600160a01b0381168114610150575f5ffd5b919050565b634e487b7160e01b5f52604160045260245ffd5b5f5f5f5f5f60a0868803121561017d575f5ffd5b6101868661013a565b94506101946020870161013a565b93506101a26040870161013a565b60608701519093506001600160401b038111156101bd575f5ffd5b8601601f810188136101cd575f5ffd5b80516001600160401b038111156101e6576101e6610155565b604051601f8201601f19908116603f011681016001600160401b038111828210171561021457610214610155565b6040528181528282016020018a101561022b575f5ffd5b8160208401602083015e5f918101602001919091526080979097015195989497509295949392505050565b5f82518060208501845e682d747265617375727960b81b920191825250600901919050565b604081525f83518060408401528060208601606085015e5f606082850101526060601f19601f8301168401019150508260208301529392505050565b60805160a05160c05161091361031f5f395f8181610165015281816101db015281816102ad015261052f01525f818160d3015261022f01525f8181610112015281816102da01528181610374015281816103e401528181610451015261050001526109135ff3fe608060405234801561000f575f5ffd5b5060043610610085575f3560e01c8063a4c52b8611610058578063a4c52b861461010d578063bc197c8114610134578063e532b61d14610160578063f23a6e6114610187575f5ffd5b806301ffc9a7146100895780633857d9d7146100b157806344df8e70146100c6578063a05c2616146100ce575b5f5ffd5b61009c6100973660046105ff565b61019a565b60405190151581526020015b60405180910390f35b6100c46100bf36600461062d565b6101d0565b005b6100c4610291565b6100f57f000000000000000000000000000000000000000000000000000000000000000081565b6040516001600160a01b0390911681526020016100a8565b6100f57f000000000000000000000000000000000000000000000000000000000000000081565b610147610142366004610790565b6103d8565b6040516001600160e01b031990911681526020016100a8565b6100f57f000000000000000000000000000000000000000000000000000000000000000081565b61014761019536600461083f565b610445565b5f6001600160e01b03198216630271189760e51b14806101ca57506301ffc9a760e01b6001600160e01b03198316145b92915050565b336001600160a01b037f0000000000000000000000000000000000000000000000000000000000000000161461021957604051636346b2b760e01b815260040160405180910390fd5b604051633857d9d760e01b8152600481018290527f00000000000000000000000000000000000000000000000000000000000000006001600160a01b031690633857d9d7906024015f604051808303815f87803b158015610278575f5ffd5b505af115801561028a573d5f5f3e3d5ffd5b5050505050565b604051627eeac760e11b81523060048201526001600160a01b037f0000000000000000000000000000000000000000000000000000000000000000811660248301819052915f917f0000000000000000000000000000000000000000000000000000000000000000169062fdd58e90604401602060405180830381865afa15801561031e573d5f5f3e3d5ffd5b505050506040513d601f19601f820116820180604052508101906103429190610893565b905080156103d4576040516380a5a37160e01b81526004810183905260248101829052606060448201525f60648201527f00000000000000000000000000000000000000000000000000000000000000006001600160a01b0316906380a5a371906084015f604051808303815f87803b1580156103bd575f5ffd5b505af11580156103cf573d5f5f3e3d5ffd5b505050505b5050565b5f336001600160a01b037f000000000000000000000000000000000000000000000000000000000000000016146104225760405163058a7c7360e31b815260040160405180910390fd5b61042b846104f3565b610433610291565b5063bc197c8160e01b95945050505050565b5f336001600160a01b037f0000000000000000000000000000000000000000000000000000000000000000161461048f5760405163058a7c7360e31b815260040160405180910390fd5b6040805160018082528183019092525f916020808301908036833701905050905084815f815181106104c3576104c36108aa565b6020026020010181815250506104d8816104f3565b6104e0610291565b5063f23a6e6160e01b9695505050505050565b5f5b81518110156103d4577f00000000000000000000000000000000000000000000000000000000000000006001600160a01b0316636713e2307f0000000000000000000000000000000000000000000000000000000000000000848481518110610560576105606108aa565b60200260200101516040518363ffffffff1660e01b815260040161059a9291906001600160a01b0392831681529116602082015260400190565b6020604051808303815f875af11580156105b6573d5f5f3e3d5ffd5b505050506040513d601f19601f820116820180604052508101906105da91906108be565b6105f757604051631c74bb5760e11b815260040160405180910390fd5b6001016104f5565b5f6020828403121561060f575f5ffd5b81356001600160e01b031981168114610626575f5ffd5b9392505050565b5f6020828403121561063d575f5ffd5b5035919050565b80356001600160a01b038116811461065a575f5ffd5b919050565b634e487b7160e01b5f52604160045260245ffd5b604051601f8201601f1916810167ffffffffffffffff8111828210171561069c5761069c61065f565b604052919050565b5f82601f8301126106b3575f5ffd5b813567ffffffffffffffff8111156106cd576106cd61065f565b8060051b6106dd60208201610673565b918252602081850181019290810190868411156106f8575f5ffd5b6020860192505b8383101561071a5782358252602092830192909101906106ff565b9695505050505050565b5f82601f830112610733575f5ffd5b813567ffffffffffffffff81111561074d5761074d61065f565b610760601f8201601f1916602001610673565b818152846020838601011115610774575f5ffd5b816020850160208301375f918101602001919091529392505050565b5f5f5f5f5f60a086880312156107a4575f5ffd5b6107ad86610644565b94506107bb60208701610644565b9350604086013567ffffffffffffffff8111156107d6575f5ffd5b6107e2888289016106a4565b935050606086013567ffffffffffffffff8111156107fe575f5ffd5b61080a888289016106a4565b925050608086013567ffffffffffffffff811115610826575f5ffd5b61083288828901610724565b9150509295509295909350565b5f5f5f5f5f60a08688031215610853575f5ffd5b61085c86610644565b945061086a60208701610644565b93506040860135925060608601359150608086013567ffffffffffffffff811115610826575f5ffd5b5f602082840312156108a3575f5ffd5b5051919050565b634e487b7160e01b5f52603260045260245ffd5b5f602082840312156108ce575f5ffd5b81518015158114610626575f5ffdfea26469706673582212209217904d1030e636468aab237302c0a7da124f4e37962b7534b7440189dde9ae64736f6c634300081c0033610140604052348015610010575f5ffd5b5060405161165938038061165983398101604081905261002f91610118565b6001600160a01b0380881660805286811660a05285811660c081905260e052848116610100528316610120526040515f9061006e908490602001610228565b60408051601f198184030181529082905260805163bfde380d60e01b83529092506001600160a01b03169063bfde380d906100af9084908690600401610251565b5f604051808303815f87803b1580156100c6575f5ffd5b505af11580156100d8573d5f5f3e3d5ffd5b50505050505050505050505061028d565b80516001600160a01b03811681146100ff575f5ffd5b919050565b634e487b7160e01b5f52604160045260245ffd5b5f5f5f5f5f5f5f60e0888a03121561012e575f5ffd5b610137886100e9565b9650610145602089016100e9565b9550610153604089016100e9565b9450610161606089016100e9565b935061016f608089016100e9565b60a08901519093506001600160401b0381111561018a575f5ffd5b8801601f81018a1361019a575f5ffd5b80516001600160401b038111156101b3576101b3610104565b604051601f8201601f19908116603f011681016001600160401b03811182821017156101e1576101e1610104565b6040528181528282016020018c10156101f8575f5ffd5b8160208401602083015e5f602083830101528094505050505f60c089015190508091505092959891949750929550565b5f82518060208501845e6c16b6b4b73a16b430b7323632b960991b920191825250600d01919050565b604081525f83518060408401528060208601606085015e5f606082850101526060601f19601f8301168401019150508260208301529392505050565b60805160a05160c05160e051610100516101205161130e61034b5f395f8181610287015261082f01525f818161016d015261085501525f81816101460152818161074801526107c601525f8181610260015281816102fd0152818161055c015281816105d8015281816109130152610be701525f81816101ac015261035101525f81816101d3015281816103bf0152818161052f01528181610649015281816106b001528181610795015281816108ec0152610bba015261130e5ff3fe608060405234801561000f575f5ffd5b50600436106100cb575f3560e01c8063a4c52b8611610088578063c878fe9511610063578063c878fe9514610248578063e532b61d1461025b578063f07108a014610282578063f23a6e61146102a9575f5ffd5b8063a4c52b86146101ce578063a855a717146101f5578063bc197c811461021c575f5ffd5b806301ffc9a7146100cf578063033f7354146100f75780633857d9d71461012c5780634dd9c0b5146101415780636604495e14610168578063a05c2616146101a7575b5f5ffd5b6100e26100dd366004610e04565b6102bc565b60405190151581526020015b60405180910390f35b61011e7ff3f5858942140fd2894eeb8b74cd0ed72d24fc6675d352a2884b1be2f32256fe81565b6040519081526020016100ee565b61013f61013a366004610e32565b6102f2565b005b61011e7f000000000000000000000000000000000000000000000000000000000000000081565b61018f7f000000000000000000000000000000000000000000000000000000000000000081565b6040516001600160a01b0390911681526020016100ee565b61018f7f000000000000000000000000000000000000000000000000000000000000000081565b61018f7f000000000000000000000000000000000000000000000000000000000000000081565b61011e7f9d28938b56c0e8aae8dd05e12461cbabf8f699236c3fd7c54c7d3bb9fb443ed281565b61022f61022a366004610f91565b6103b3565b6040516001600160e01b031990911681526020016100ee565b61013f610256366004611044565b6105cd565b61018f7f000000000000000000000000000000000000000000000000000000000000000081565b61018f7f000000000000000000000000000000000000000000000000000000000000000081565b61022f6102b736600461108b565b6106a4565b5f6001600160e01b03198216630271189760e51b14806102ec57506301ffc9a760e01b6001600160e01b03198316145b92915050565b336001600160a01b037f0000000000000000000000000000000000000000000000000000000000000000161461033b57604051636346b2b760e01b815260040160405180910390fd5b604051633857d9d760e01b8152600481018290527f00000000000000000000000000000000000000000000000000000000000000006001600160a01b031690633857d9d7906024015f604051808303815f87803b15801561039a575f5ffd5b505af11580156103ac573d5f5f3e3d5ffd5b5050505050565b5f336001600160a01b037f000000000000000000000000000000000000000000000000000000000000000016146103fd5760405163058a7c7360e31b815260040160405180910390fd5b6001600160a01b0385166104245760405163cac5bffb60e01b815260040160405180910390fd5b82518451146104465760405163cac5bffb60e01b815260040160405180910390fd5b5f5f855167ffffffffffffffff81111561046257610462610e60565b60405190808252806020026020018201604052801561048b578160200160208202803683370190505b5090505f5b865181101561050c578581815181106104ab576104ab6110e3565b6020026020010151836104be919061110b565b92508681815181106104d2576104d26110e3565b60200260200101518282815181106104ec576104ec6110e3565b6001600160a01b0390921660209283029190910190910152600101610490565b50610518878386610c56565b604051636cb498e560e01b81526001600160a01b037f00000000000000000000000000000000000000000000000000000000000000001690636cb498e59061058a907f00000000000000000000000000000000000000000000000000000000000000009085908a908a9060040161114c565b5f604051808303815f87803b1580156105a1575f5ffd5b505af11580156105b3573d5f5f3e3d5ffd5b5063bc197c8160e01b955050505050505b95945050505050565b336001600160a01b037f0000000000000000000000000000000000000000000000000000000000000000161461061657604051636346b2b760e01b815260040160405180910390fd5b6040516375dcebc760e01b81526001600160a01b0383811660048301526bffffffffffffffffffffffff831660248301527f000000000000000000000000000000000000000000000000000000000000000016906375dcebc7906044015f604051808303815f87803b15801561068a575f5ffd5b505af115801561069c573d5f5f3e3d5ffd5b505050505050565b5f336001600160a01b037f000000000000000000000000000000000000000000000000000000000000000016146106ee5760405163058a7c7360e31b815260040160405180910390fd5b6001600160a01b038516610b04575f5160206112b95f395f51905f525c7f6136adcd727e05279d0beb0b97407672abc1607384d66aec4a65a09daa5bba685c5f5160206112995f395f51905f525c858314801561076a57507f000000000000000000000000000000000000000000000000000000000000000087145b15610aeb57610777610d97565b805f0361082457604051637921219560e11b81526001600160a01b037f0000000000000000000000000000000000000000000000000000000000000000169063f242432a906107f290309086907f00000000000000000000000000000000000000000000000000000000000000009089908c906004016111fb565b5f604051808303815f87803b158015610809575f5ffd5b505af115801561081b573d5f5f3e3d5ffd5b50505050610aa0565b5f81600114610853577f0000000000000000000000000000000000000000000000000000000000000000610875565b7f00000000000000000000000000000000000000000000000000000000000000005b6040516370a0823160e01b81523060048201529091505f906001600160a01b038316906370a0823190602401602060405180830381865afa1580156108bc573d5f5f3e3d5ffd5b505050506040513d601f19601f820116820180604052508101906108e09190611234565b90506001600160a01b037f00000000000000000000000000000000000000000000000000000000000000001663aabd69547f00000000000000000000000000000000000000000000000000000000000000008761093e60018861124b565b6040516001600160e01b031960e086901b1681526001600160a01b039093166004840152602483019190915260ff1660448201526064016020604051808303815f875af1158015610991573d5f5f3e3d5ffd5b505050506040513d601f19601f820116820180604052508101906109b5919061125e565b506040516370a0823160e01b815230600482015281906001600160a01b038416906370a0823190602401602060405180830381865afa1580156109fa573d5f5f3e3d5ffd5b505050506040513d601f19601f82011682018060405250810190610a1e9190611234565b610a28919061124b565b60405163a9059cbb60e01b81526001600160a01b038681166004830152602482018390529196509083169063a9059cbb906044016020604051808303815f875af1158015610a78573d5f5f3e3d5ffd5b505050506040513d601f19601f82011682018060405250810190610a9c9190611279565b5050505b8083836001600160a01b03167f4442af9fc0f6466cea71a55e8cae87ef09853f682dc82b362e4c8981944afa3960405160405180910390a45063f23a6e6160e01b92506105c4915050565b60405163cac5bffb60e01b815260040160405180910390fd5b610b0f858484610c56565b6040805160018082528183019092525f916020808301908036833750506040805160018082528183019092529293505f9291506020808301908036833701905050905085825f81518110610b6557610b656110e3565b60200260200101906001600160a01b031690816001600160a01b03168152505084815f81518110610b9857610b986110e3565b6020908102919091010152604051636cb498e560e01b81526001600160a01b037f00000000000000000000000000000000000000000000000000000000000000001690636cb498e590610c15907f000000000000000000000000000000000000000000000000000000000000000090869086908a9060040161114c565b5f604051808303815f87803b158015610c2c575f5ffd5b505af1158015610c3e573d5f5f3e3d5ffd5b5063f23a6e6160e01b9b9a5050505050505050505050565b633402a16360e01b63a896a06560e01b5f84610c7457825f5260045ffd5b5f5160206112b95f395f51905f525c8015610c9157825f5260045ffd5b855f5160206112b95f395f51905f525d867f6136adcd727e05279d0beb0b97407672abc1607384d66aec4a65a09daa5bba685d601f85511115610d565760208501517ff3f5858942140fd2894eeb8b74cd0ed72d24fc6675d352a2884b1be2f32256fe8114610d26577f9d28938b56c0e8aae8dd05e12461cbabf8f699236c3fd7c54c7d3bb9fb443ed28114610d3f57610d54565b60019250825f5160206112995f395f51905f525d610d54565b60029250825f5160206112995f395f51905f525d5b505b508085876001600160a01b03167fa4466aa34ad627877204336e07a065a4da68fb136d84533a7b17290b86154de960405160405180910390a4505050505050565b5f5f5160206112b95f395f51905f525d5f7f6136adcd727e05279d0beb0b97407672abc1607384d66aec4a65a09daa5bba685d5f5f5160206112995f395f51905f525d6040517f1992ef760e9f09c8c806016548a62b7fd11268379c371a730a1a06d621f002dc905f90a1565b5f60208284031215610e14575f5ffd5b81356001600160e01b031981168114610e2b575f5ffd5b9392505050565b5f60208284031215610e42575f5ffd5b5035919050565b6001600160a01b0381168114610e5d575f5ffd5b50565b634e487b7160e01b5f52604160045260245ffd5b604051601f8201601f1916810167ffffffffffffffff81118282101715610e9d57610e9d610e60565b604052919050565b5f82601f830112610eb4575f5ffd5b813567ffffffffffffffff811115610ece57610ece610e60565b8060051b610ede60208201610e74565b91825260208185018101929081019086841115610ef9575f5ffd5b6020860192505b83831015610f1b578235825260209283019290910190610f00565b9695505050505050565b5f82601f830112610f34575f5ffd5b813567ffffffffffffffff811115610f4e57610f4e610e60565b610f61601f8201601f1916602001610e74565b818152846020838601011115610f75575f5ffd5b816020850160208301375f918101602001919091529392505050565b5f5f5f5f5f60a08688031215610fa5575f5ffd5b8535610fb081610e49565b94506020860135610fc081610e49565b9350604086013567ffffffffffffffff811115610fdb575f5ffd5b610fe788828901610ea5565b935050606086013567ffffffffffffffff811115611003575f5ffd5b61100f88828901610ea5565b925050608086013567ffffffffffffffff81111561102b575f5ffd5b61103788828901610f25565b9150509295509295909350565b5f5f60408385031215611055575f5ffd5b823561106081610e49565b915060208301356bffffffffffffffffffffffff81168114611080575f5ffd5b809150509250929050565b5f5f5f5f5f60a0868803121561109f575f5ffd5b85356110aa81610e49565b945060208601356110ba81610e49565b93506040860135925060608601359150608086013567ffffffffffffffff81111561102b575f5ffd5b634e487b7160e01b5f52603260045260245ffd5b634e487b7160e01b5f52601160045260245ffd5b808201808211156102ec576102ec6110f7565b5f81518084528060208401602086015e5f602082860101526020601f19601f83011685010191505092915050565b6001600160a01b03851681526080602080830182905285519183018290525f919086019060a0840190835b8181101561119e5783516001600160a01b0316835260209384019390920191600101611177565b50508381036040850152855180825260209182019250908601905f90815b818110156111da5783518552602094850194909301926001016111bc565b5050505082810360608401526111f0818561111e565b979650505050505050565b6001600160a01b03868116825285166020820152604081018490526060810183905260a0608082018190525f906111f09083018461111e565b5f60208284031215611244575f5ffd5b5051919050565b818103818111156102ec576102ec6110f7565b5f6020828403121561126e575f5ffd5b8151610e2b81610e49565b5f60208284031215611289575f5ffd5b81518015158114610e2b575f5ffdfecda71533cdfa11dcfe861dbfa38b956c85d855f8e75c6728c650ac844f4fd47efb747a744f99e39f75c6fc4a40ae1e72605f4d4a2aa65e5e3d29e889d7f5061ba2646970667358221220a61ab608ba6f19bd473571ccb14791442c815ff5be1afbd226122ed916a2a2ac64736f6c634300081c0033a2646970667358221220e5be770d8c8f081154f5d59e68a48f6784e002bf4adc73174d4634d3acbae85f64736f6c634300081c0033","opcodes":"PUSH1 0x80 PUSH1 0x40 MSTORE CALLVALUE DUP1 ISZERO PUSH1 0xE JUMPI PUSH0 PUSH0 REVERT JUMPDEST POP PUSH2 0x4147 DUP1 PUSH2 0x1C PUSH0 CODECOPY PUSH0 RETURN INVALID PUSH1 0x80 PUSH1 0x40 MSTORE CALLVALUE DUP1 ISZERO PUSH2 0xF JUMPI PUSH0 PUSH0 REVERT JUMPDEST POP PUSH1 0x4 CALLDATASIZE LT PUSH2 0x34 JUMPI PUSH0 CALLDATALOAD PUSH1 0xE0 SHR DUP1 PUSH4 0xBC38FC65 EQ PUSH2 0x38 JUMPI DUP1 PUSH4 0xDE87AEEB EQ PUSH2 0x7A JUMPI JUMPDEST PUSH0 PUSH0 REVERT JUMPDEST PUSH2 0x4B PUSH2 0x46 CALLDATASIZE PUSH1 0x4 PUSH2 0x3CA JUMP JUMPDEST PUSH2 0xAC JUMP JUMPDEST PUSH1 0x40 DUP1 MLOAD PUSH1 0x1 PUSH1 0x1 PUSH1 0xA0 SHL SUB SWAP5 DUP6 AND DUP2 MSTORE SWAP3 DUP5 AND PUSH1 0x20 DUP5 ADD MSTORE SWAP3 AND SWAP2 DUP2 ADD SWAP2 SWAP1 SWAP2 MSTORE PUSH1 0x60 ADD JUMPDEST PUSH1 0x40 MLOAD DUP1 SWAP2 SUB SWAP1 RETURN JUMPDEST PUSH2 0x9C PUSH2 0x88 CALLDATASIZE PUSH1 0x4 PUSH2 0x4A5 JUMP JUMPDEST PUSH0 PUSH1 0x20 DUP2 SWAP1 MSTORE SWAP1 DUP2 MSTORE PUSH1 0x40 SWAP1 KECCAK256 SLOAD PUSH1 0xFF AND DUP2 JUMP JUMPDEST PUSH1 0x40 MLOAD SWAP1 ISZERO ISZERO DUP2 MSTORE PUSH1 0x20 ADD PUSH2 0x71 JUMP JUMPDEST PUSH0 PUSH0 PUSH0 PUSH1 0x13 DUP7 MLOAD GT ISZERO PUSH2 0xD1 JUMPI PUSH1 0x40 MLOAD PUSH3 0x72A29D PUSH1 0xE7 SHL DUP2 MSTORE PUSH1 0x4 ADD PUSH1 0x40 MLOAD DUP1 SWAP2 SUB SWAP1 REVERT JUMPDEST PUSH0 DUP12 DUP12 DUP12 DUP12 DUP12 DUP12 DUP12 DUP12 PUSH1 0x40 MLOAD PUSH2 0xE6 SWAP1 PUSH2 0x25C JUMP JUMPDEST PUSH2 0xF7 SWAP9 SWAP8 SWAP7 SWAP6 SWAP5 SWAP4 SWAP3 SWAP2 SWAP1 PUSH2 0x4F5 JUMP JUMPDEST PUSH1 0x40 MLOAD DUP1 SWAP2 SUB SWAP1 PUSH0 CREATE DUP1 ISZERO DUP1 ISZERO PUSH2 0x110 JUMPI RETURNDATASIZE PUSH0 PUSH0 RETURNDATACOPY RETURNDATASIZE PUSH0 REVERT JUMPDEST POP SWAP1 POP DUP1 SWAP4 POP DUP1 PUSH1 0x1 PUSH1 0x1 PUSH1 0xA0 SHL SUB AND PUSH4 0x18DAA226 PUSH1 0x40 MLOAD DUP2 PUSH4 0xFFFFFFFF AND PUSH1 0xE0 SHL DUP2 MSTORE PUSH1 0x4 ADD PUSH1 0x20 PUSH1 0x40 MLOAD DUP1 DUP4 SUB DUP2 DUP7 GAS STATICCALL ISZERO DUP1 ISZERO PUSH2 0x152 JUMPI RETURNDATASIZE PUSH0 PUSH0 RETURNDATACOPY RETURNDATASIZE PUSH0 REVERT JUMPDEST POP POP POP POP PUSH1 0x40 MLOAD RETURNDATASIZE PUSH1 0x1F NOT PUSH1 0x1F DUP3 ADD AND DUP3 ADD DUP1 PUSH1 0x40 MSTORE POP DUP2 ADD SWAP1 PUSH2 0x176 SWAP2 SWAP1 PUSH2 0x5A3 JUMP JUMPDEST SWAP3 POP DUP1 PUSH1 0x1 PUSH1 0x1 PUSH1 0xA0 SHL SUB AND PUSH4 0xDCDCBB3A PUSH1 0x40 MLOAD DUP2 PUSH4 0xFFFFFFFF AND PUSH1 0xE0 SHL DUP2 MSTORE PUSH1 0x4 ADD PUSH1 0x20 PUSH1 0x40 MLOAD DUP1 DUP4 SUB DUP2 DUP7 GAS STATICCALL ISZERO DUP1 ISZERO PUSH2 0x1B4 JUMPI RETURNDATASIZE PUSH0 PUSH0 RETURNDATACOPY RETURNDATASIZE PUSH0 REVERT JUMPDEST POP POP POP POP PUSH1 0x40 MLOAD RETURNDATASIZE PUSH1 0x1F NOT PUSH1 0x1F DUP3 ADD AND DUP3 ADD DUP1 PUSH1 0x40 MSTORE POP DUP2 ADD SWAP1 PUSH2 0x1D8 SWAP2 SWAP1 PUSH2 0x5A3 JUMP JUMPDEST PUSH1 0x1 PUSH1 0x1 PUSH1 0xA0 SHL SUB DUP1 DUP7 AND PUSH0 DUP2 DUP2 MSTORE PUSH1 0x20 DUP2 SWAP1 MSTORE PUSH1 0x40 SWAP1 DUP2 SWAP1 KECCAK256 DUP1 SLOAD PUSH1 0xFF NOT AND PUSH1 0x1 OR SWAP1 SSTORE MLOAD SWAP3 SWAP5 POP DUP6 DUP3 AND SWAP3 SWAP2 DUP16 AND SWAP2 PUSH32 0xEE2D13E80F5F1ABDC1590049EA7B859791CA98F79C1AA0B19AE0647C9BB81A96 SWAP1 PUSH2 0x245 SWAP1 DUP8 SWAP1 PUSH1 0x1 PUSH1 0x1 PUSH1 0xA0 SHL SUB SWAP2 SWAP1 SWAP2 AND DUP2 MSTORE PUSH1 0x20 ADD SWAP1 JUMP JUMPDEST PUSH1 0x40 MLOAD DUP1 SWAP2 SUB SWAP1 LOG4 POP SWAP9 POP SWAP9 POP SWAP9 SWAP6 POP POP POP POP POP POP JUMP JUMPDEST PUSH2 0x3B53 DUP1 PUSH2 0x5BF DUP4 CODECOPY ADD SWAP1 JUMP JUMPDEST PUSH1 0x1 PUSH1 0x1 PUSH1 0xA0 SHL SUB DUP2 AND DUP2 EQ PUSH2 0x27D JUMPI PUSH0 PUSH0 REVERT JUMPDEST POP JUMP JUMPDEST DUP1 CALLDATALOAD PUSH2 0x28B DUP2 PUSH2 0x269 JUMP JUMPDEST SWAP2 SWAP1 POP JUMP JUMPDEST PUSH4 0x4E487B71 PUSH1 0xE0 SHL PUSH0 MSTORE PUSH1 0x41 PUSH1 0x4 MSTORE PUSH1 0x24 PUSH0 REVERT JUMPDEST PUSH1 0x40 MLOAD PUSH1 0x1F DUP3 ADD PUSH1 0x1F NOT AND DUP2 ADD PUSH8 0xFFFFFFFFFFFFFFFF DUP2 GT DUP3 DUP3 LT OR ISZERO PUSH2 0x2CD JUMPI PUSH2 0x2CD PUSH2 0x290 JUMP JUMPDEST PUSH1 0x40 MSTORE SWAP2 SWAP1 POP JUMP JUMPDEST PUSH0 DUP3 PUSH1 0x1F DUP4 ADD SLT PUSH2 0x2E4 JUMPI PUSH0 PUSH0 REVERT JUMPDEST DUP2 CALLDATALOAD PUSH8 0xFFFFFFFFFFFFFFFF DUP2 GT ISZERO PUSH2 0x2FE JUMPI PUSH2 0x2FE PUSH2 0x290 JUMP JUMPDEST DUP1 PUSH1 0x5 SHL PUSH2 0x30E PUSH1 0x20 DUP3 ADD PUSH2 0x2A4 JUMP JUMPDEST SWAP2 DUP3 MSTORE PUSH1 0x20 DUP2 DUP6 ADD DUP2 ADD SWAP3 SWAP1 DUP2 ADD SWAP1 DUP7 DUP5 GT ISZERO PUSH2 0x329 JUMPI PUSH0 PUSH0 REVERT JUMPDEST PUSH1 0x20 DUP7 ADD SWAP3 POP JUMPDEST DUP4 DUP4 LT ISZERO PUSH2 0x354 JUMPI DUP3 CALLDATALOAD PUSH2 0x343 DUP2 PUSH2 0x269 JUMP JUMPDEST DUP3 MSTORE PUSH1 0x20 SWAP3 DUP4 ADD SWAP3 SWAP1 SWAP2 ADD SWAP1 PUSH2 0x330 JUMP JUMPDEST SWAP7 SWAP6 POP POP POP POP POP POP JUMP JUMPDEST PUSH0 DUP3 PUSH1 0x1F DUP4 ADD SLT PUSH2 0x36D JUMPI PUSH0 PUSH0 REVERT JUMPDEST DUP2 CALLDATALOAD PUSH8 0xFFFFFFFFFFFFFFFF DUP2 GT ISZERO PUSH2 0x387 JUMPI PUSH2 0x387 PUSH2 0x290 JUMP JUMPDEST PUSH2 0x39A PUSH1 0x1F DUP3 ADD PUSH1 0x1F NOT AND PUSH1 0x20 ADD PUSH2 0x2A4 JUMP JUMPDEST DUP2 DUP2 MSTORE DUP5 PUSH1 0x20 DUP4 DUP7 ADD ADD GT ISZERO PUSH2 0x3AE JUMPI PUSH0 PUSH0 REVERT JUMPDEST DUP2 PUSH1 0x20 DUP6 ADD PUSH1 0x20 DUP4 ADD CALLDATACOPY PUSH0 SWAP2 DUP2 ADD PUSH1 0x20 ADD SWAP2 SWAP1 SWAP2 MSTORE SWAP4 SWAP3 POP POP POP JUMP JUMPDEST PUSH0 PUSH0 PUSH0 PUSH0 PUSH0 PUSH0 PUSH0 PUSH0 PUSH2 0x100 DUP10 DUP12 SUB SLT ISZERO PUSH2 0x3E2 JUMPI PUSH0 PUSH0 REVERT JUMPDEST PUSH2 0x3EB DUP10 PUSH2 0x280 JUMP JUMPDEST SWAP8 POP PUSH2 0x3F9 PUSH1 0x20 DUP11 ADD PUSH2 0x280 JUMP JUMPDEST SWAP7 POP PUSH2 0x407 PUSH1 0x40 DUP11 ADD PUSH2 0x280 JUMP JUMPDEST SWAP6 POP PUSH2 0x415 PUSH1 0x60 DUP11 ADD PUSH2 0x280 JUMP JUMPDEST SWAP5 POP PUSH1 0x80 DUP10 ADD CALLDATALOAD PUSH8 0xFFFFFFFFFFFFFFFF DUP2 GT ISZERO PUSH2 0x430 JUMPI PUSH0 PUSH0 REVERT JUMPDEST PUSH2 0x43C DUP12 DUP3 DUP13 ADD PUSH2 0x2D5 JUMP JUMPDEST SWAP5 POP POP PUSH1 0xA0 DUP10 ADD CALLDATALOAD PUSH8 0xFFFFFFFFFFFFFFFF DUP2 GT ISZERO PUSH2 0x458 JUMPI PUSH0 PUSH0 REVERT JUMPDEST PUSH2 0x464 DUP12 DUP3 DUP13 ADD PUSH2 0x35E JUMP JUMPDEST SWAP4 POP POP PUSH1 0xC0 DUP10 ADD CALLDATALOAD PUSH8 0xFFFFFFFFFFFFFFFF DUP2 GT ISZERO PUSH2 0x480 JUMPI PUSH0 PUSH0 REVERT JUMPDEST PUSH2 0x48C DUP12 DUP3 DUP13 ADD PUSH2 0x35E JUMP JUMPDEST SWAP9 SWAP12 SWAP8 SWAP11 POP SWAP6 SWAP9 SWAP5 SWAP8 SWAP4 SWAP7 SWAP3 SWAP6 POP SWAP3 SWAP4 PUSH1 0xE0 ADD CALLDATALOAD SWAP3 POP POP JUMP JUMPDEST PUSH0 PUSH1 0x20 DUP3 DUP5 SUB SLT ISZERO PUSH2 0x4B5 JUMPI PUSH0 PUSH0 REVERT JUMPDEST DUP2 CALLDATALOAD PUSH2 0x4C0 DUP2 PUSH2 0x269 JUMP JUMPDEST SWAP4 SWAP3 POP POP POP JUMP JUMPDEST PUSH0 DUP2 MLOAD DUP1 DUP5 MSTORE DUP1 PUSH1 0x20 DUP5 ADD PUSH1 0x20 DUP7 ADD MCOPY PUSH0 PUSH1 0x20 DUP3 DUP7 ADD ADD MSTORE PUSH1 0x20 PUSH1 0x1F NOT PUSH1 0x1F DUP4 ADD AND DUP6 ADD ADD SWAP2 POP POP SWAP3 SWAP2 POP POP JUMP JUMPDEST PUSH1 0x1 PUSH1 0x1 PUSH1 0xA0 SHL SUB DUP10 DUP2 AND DUP3 MSTORE DUP9 DUP2 AND PUSH1 0x20 DUP1 DUP5 ADD SWAP2 SWAP1 SWAP2 MSTORE DUP9 DUP3 AND PUSH1 0x40 DUP5 ADD MSTORE SWAP1 DUP8 AND PUSH1 0x60 DUP4 ADD MSTORE PUSH2 0x100 PUSH1 0x80 DUP4 ADD DUP2 SWAP1 MSTORE DUP7 MLOAD SWAP1 DUP4 ADD DUP2 SWAP1 MSTORE PUSH0 SWAP2 DUP8 ADD SWAP1 PUSH2 0x120 DUP5 ADD SWAP1 DUP4 JUMPDEST DUP2 DUP2 LT ISZERO PUSH2 0x564 JUMPI DUP4 MLOAD PUSH1 0x1 PUSH1 0x1 PUSH1 0xA0 SHL SUB AND DUP4 MSTORE PUSH1 0x20 SWAP4 DUP5 ADD SWAP4 SWAP1 SWAP3 ADD SWAP2 PUSH1 0x1 ADD PUSH2 0x53D JUMP JUMPDEST POP POP DUP4 DUP2 SUB PUSH1 0xA0 DUP6 ADD MSTORE PUSH2 0x578 DUP2 DUP9 PUSH2 0x4C7 JUMP JUMPDEST SWAP2 POP POP DUP3 DUP2 SUB PUSH1 0xC0 DUP5 ADD MSTORE PUSH2 0x58D DUP2 DUP7 PUSH2 0x4C7 JUMP JUMPDEST SWAP2 POP POP DUP3 PUSH1 0xE0 DUP4 ADD MSTORE SWAP10 SWAP9 POP POP POP POP POP POP POP POP POP JUMP JUMPDEST PUSH0 PUSH1 0x20 DUP3 DUP5 SUB SLT ISZERO PUSH2 0x5B3 JUMPI PUSH0 PUSH0 REVERT JUMPDEST DUP2 MLOAD PUSH2 0x4C0 DUP2 PUSH2 0x269 JUMP INVALID PUSH1 0xC0 PUSH1 0x40 MSTORE CALLVALUE DUP1 ISZERO PUSH2 0xF JUMPI PUSH0 PUSH0 REVERT JUMPDEST POP PUSH1 0x40 MLOAD PUSH2 0x3B53 CODESIZE SUB DUP1 PUSH2 0x3B53 DUP4 CODECOPY DUP2 ADD PUSH1 0x40 DUP2 SWAP1 MSTORE PUSH2 0x2E SWAP2 PUSH2 0x67B JUMP JUMPDEST PUSH1 0x1 PUSH1 0x1 PUSH1 0xA0 SHL SUB DUP9 AND PUSH2 0x54 JUMPI PUSH1 0x40 MLOAD PUSH3 0x8C6131 PUSH1 0xE4 SHL DUP2 MSTORE PUSH1 0x4 ADD PUSH1 0x40 MLOAD DUP1 SWAP2 SUB SWAP1 REVERT JUMPDEST PUSH2 0x5D DUP9 PUSH2 0x363 JUMP JUMPDEST PUSH2 0x66 DUP8 PUSH2 0x3AA JUMP JUMPDEST PUSH2 0x6F DUP7 PUSH2 0x3F3 JUMP JUMPDEST PUSH0 JUMPDEST DUP5 MLOAD DUP2 LT ISZERO PUSH2 0xAA JUMPI PUSH2 0xA2 DUP6 DUP3 DUP2 MLOAD DUP2 LT PUSH2 0x8F JUMPI PUSH2 0x8F PUSH2 0x758 JUMP JUMPDEST PUSH1 0x20 MUL PUSH1 0x20 ADD ADD MLOAD PUSH2 0x43C PUSH1 0x20 SHL PUSH1 0x20 SHR JUMP JUMPDEST PUSH1 0x1 ADD PUSH2 0x71 JUMP JUMPDEST POP PUSH20 0xC12C1E50ABB450D6205EA2C3FA861B3B834D13E8 PUSH20 0xA27566FD89162CC3D40CB59C87AAAA49B85F3474 ADDRESS DUP6 DUP5 PUSH1 0x40 MLOAD PUSH2 0xE4 SWAP1 PUSH2 0x511 JUMP JUMPDEST PUSH2 0xF2 SWAP6 SWAP5 SWAP4 SWAP3 SWAP2 SWAP1 PUSH2 0x79A JUMP JUMPDEST PUSH1 0x40 MLOAD DUP1 SWAP2 SUB SWAP1 PUSH0 CREATE DUP1 ISZERO DUP1 ISZERO PUSH2 0x10B JUMPI RETURNDATASIZE PUSH0 PUSH0 RETURNDATACOPY RETURNDATASIZE PUSH0 REVERT JUMPDEST POP PUSH1 0x1 PUSH1 0x1 PUSH1 0xA0 SHL SUB AND PUSH1 0x80 DUP2 SWAP1 MSTORE PUSH1 0x40 MLOAD PUSH4 0x4DF62B93 PUSH1 0xE1 SHL DUP2 MSTORE PUSH20 0xC12C1E50ABB450D6205EA2C3FA861B3B834D13E8 SWAP2 PUSH4 0x9BEC5726 SWAP2 PUSH2 0x157 SWAP2 DUP10 SWAP2 DUP9 SWAP1 DUP9 SWAP1 DUP9 SWAP1 PUSH1 0x4 ADD PUSH2 0x7DF JUMP JUMPDEST PUSH0 PUSH1 0x40 MLOAD DUP1 DUP4 SUB DUP2 PUSH0 DUP8 DUP1 EXTCODESIZE ISZERO DUP1 ISZERO PUSH2 0x16E JUMPI PUSH0 PUSH0 REVERT JUMPDEST POP GAS CALL ISZERO DUP1 ISZERO PUSH2 0x180 JUMPI RETURNDATASIZE PUSH0 PUSH0 RETURNDATACOPY RETURNDATASIZE PUSH0 REVERT JUMPDEST POP POP POP POP PUSH20 0xA27566FD89162CC3D40CB59C87AAAA49B85F3474 PUSH1 0x1 PUSH1 0x1 PUSH1 0xA0 SHL SUB AND PUSH4 0x829C0FDE PUSH3 0x3D090 PUSH1 0x40 MLOAD DUP3 PUSH4 0xFFFFFFFF AND PUSH1 0xE0 SHL DUP2 MSTORE PUSH1 0x4 ADD PUSH0 PUSH1 0x40 MLOAD DUP1 DUP4 SUB DUP2 PUSH0 DUP9 DUP1 EXTCODESIZE ISZERO DUP1 ISZERO PUSH2 0x1D4 JUMPI PUSH0 PUSH0 REVERT JUMPDEST POP DUP8 CALL SWAP4 POP POP POP POP DUP1 ISZERO PUSH2 0x1E6 JUMPI POP PUSH1 0x1 JUMPDEST POP PUSH1 0x40 MLOAD PUSH4 0x95B645B1 PUSH1 0xE0 SHL DUP2 MSTORE ADDRESS PUSH1 0x4 DUP3 ADD MSTORE PUSH0 PUSH1 0x24 DUP3 ADD DUP2 SWAP1 MSTORE SWAP1 PUSH20 0x5F99A795DD2743C36D63511F0D4BC667E6D3CDB5 SWAP1 PUSH4 0x95B645B1 SWAP1 PUSH1 0x44 ADD PUSH1 0x20 PUSH1 0x40 MLOAD DUP1 DUP4 SUB DUP2 PUSH0 DUP8 GAS CALL ISZERO DUP1 ISZERO PUSH2 0x23E JUMPI RETURNDATASIZE PUSH0 PUSH0 RETURNDATACOPY RETURNDATASIZE PUSH0 REVERT JUMPDEST POP POP POP POP PUSH1 0x40 MLOAD RETURNDATASIZE PUSH1 0x1F NOT PUSH1 0x1F DUP3 ADD AND DUP3 ADD DUP1 PUSH1 0x40 MSTORE POP DUP2 ADD SWAP1 PUSH2 0x262 SWAP2 SWAP1 PUSH2 0x82F JUMP JUMPDEST PUSH1 0x40 MLOAD PUSH4 0x95B645B1 PUSH1 0xE0 SHL DUP2 MSTORE ADDRESS PUSH1 0x4 DUP3 ADD MSTORE PUSH1 0x1 PUSH1 0x24 DUP3 ADD MSTORE SWAP1 SWAP2 POP PUSH0 SWAP1 PUSH20 0x5F99A795DD2743C36D63511F0D4BC667E6D3CDB5 SWAP1 PUSH4 0x95B645B1 SWAP1 PUSH1 0x44 ADD PUSH1 0x20 PUSH1 0x40 MLOAD DUP1 DUP4 SUB DUP2 PUSH0 DUP8 GAS CALL ISZERO DUP1 ISZERO PUSH2 0x2BC JUMPI RETURNDATASIZE PUSH0 PUSH0 RETURNDATACOPY RETURNDATASIZE PUSH0 REVERT JUMPDEST POP POP POP POP PUSH1 0x40 MLOAD RETURNDATASIZE PUSH1 0x1F NOT PUSH1 0x1F DUP3 ADD AND DUP3 ADD DUP1 PUSH1 0x40 MSTORE POP DUP2 ADD SWAP1 PUSH2 0x2E0 SWAP2 SWAP1 PUSH2 0x82F JUMP JUMPDEST SWAP1 POP PUSH20 0xC12C1E50ABB450D6205EA2C3FA861B3B834D13E8 PUSH20 0xA27566FD89162CC3D40CB59C87AAAA49B85F3474 ADDRESS DUP5 DUP5 DUP10 DUP9 PUSH1 0x40 MLOAD PUSH2 0x31D SWAP1 PUSH2 0x51E JUMP JUMPDEST PUSH2 0x32D SWAP8 SWAP7 SWAP6 SWAP5 SWAP4 SWAP3 SWAP2 SWAP1 PUSH2 0x84F JUMP JUMPDEST PUSH1 0x40 MLOAD DUP1 SWAP2 SUB SWAP1 PUSH0 CREATE DUP1 ISZERO DUP1 ISZERO PUSH2 0x346 JUMPI RETURNDATASIZE PUSH0 PUSH0 RETURNDATACOPY RETURNDATASIZE PUSH0 REVERT JUMPDEST POP PUSH1 0x1 PUSH1 0x1 PUSH1 0xA0 SHL SUB AND PUSH1 0xA0 MSTORE POP PUSH2 0x8A6 SWAP9 POP POP POP POP POP POP POP POP POP JUMP JUMPDEST PUSH0 DUP1 SLOAD PUSH1 0x1 PUSH1 0x1 PUSH1 0xA0 SHL SUB NOT AND PUSH1 0x1 PUSH1 0x1 PUSH1 0xA0 SHL SUB DUP4 AND SWAP1 DUP2 OR DUP3 SSTORE PUSH1 0x40 MLOAD SWAP1 SWAP2 PUSH32 0x4FFD725FC4A22075E9EC71C59EDF9C38CDEB588A91B24FC5B61388C5BE41282B SWAP2 LOG2 POP JUMP JUMPDEST PUSH1 0x1 DUP1 SLOAD PUSH1 0x1 PUSH1 0x1 PUSH1 0xA0 SHL SUB NOT AND PUSH1 0x1 PUSH1 0x1 PUSH1 0xA0 SHL SUB DUP4 AND SWAP1 DUP2 OR SWAP1 SWAP2 SSTORE PUSH1 0x40 MLOAD PUSH32 0x176C74B9BCA78214099248DD4E675A4BE45C1F7417E269F78EF97E96ECE2A51 SWAP1 PUSH0 SWAP1 LOG2 POP JUMP JUMPDEST PUSH1 0x2 DUP1 SLOAD PUSH1 0x1 PUSH1 0x1 PUSH1 0xA0 SHL SUB NOT AND PUSH1 0x1 PUSH1 0x1 PUSH1 0xA0 SHL SUB DUP4 AND SWAP1 DUP2 OR SWAP1 SWAP2 SSTORE PUSH1 0x40 MLOAD PUSH32 0x166C82F2C4CD6D3546D8AA18FE78E4B4E6A1BAA30DE276480B10D2A4FAA95A28 SWAP1 PUSH0 SWAP1 LOG2 POP JUMP JUMPDEST PUSH1 0x1 PUSH1 0x1 PUSH1 0xA0 SHL SUB DUP2 AND PUSH2 0x44D JUMPI POP JUMP JUMPDEST PUSH1 0x3 SLOAD PUSH1 0xA DUP2 LT PUSH2 0x471 JUMPI PUSH1 0x40 MLOAD PUSH4 0x29BA6E8D PUSH1 0xE1 SHL DUP2 MSTORE PUSH1 0x4 ADD PUSH1 0x40 MLOAD DUP1 SWAP2 SUB SWAP1 REVERT JUMPDEST PUSH0 JUMPDEST DUP2 DUP2 LT ISZERO PUSH2 0x4BE JUMPI DUP3 PUSH1 0x1 PUSH1 0x1 PUSH1 0xA0 SHL SUB AND PUSH1 0x3 DUP3 DUP2 SLOAD DUP2 LT PUSH2 0x498 JUMPI PUSH2 0x498 PUSH2 0x758 JUMP JUMPDEST PUSH0 SWAP2 DUP3 MSTORE PUSH1 0x20 SWAP1 SWAP2 KECCAK256 ADD SLOAD PUSH1 0x1 PUSH1 0x1 PUSH1 0xA0 SHL SUB AND SUB PUSH2 0x4B6 JUMPI POP POP POP JUMP JUMPDEST PUSH1 0x1 ADD PUSH2 0x473 JUMP JUMPDEST POP POP PUSH1 0x3 DUP1 SLOAD PUSH1 0x1 DUP2 ADD DUP3 SSTORE PUSH0 SWAP2 SWAP1 SWAP2 MSTORE PUSH32 0xC2575A0E9E593C00F959F8C92F12DB2869C3395A3B0502D05E2516446F71F85B ADD DUP1 SLOAD PUSH1 0x1 PUSH1 0x1 PUSH1 0xA0 SHL SUB NOT AND PUSH1 0x1 PUSH1 0x1 PUSH1 0xA0 SHL SUB SWAP3 SWAP1 SWAP3 AND SWAP2 SWAP1 SWAP2 OR SWAP1 SSTORE JUMP JUMPDEST PUSH2 0xC32 DUP1 PUSH2 0x18C8 DUP4 CODECOPY ADD SWAP1 JUMP JUMPDEST PUSH2 0x1659 DUP1 PUSH2 0x24FA DUP4 CODECOPY ADD SWAP1 JUMP JUMPDEST DUP1 MLOAD PUSH1 0x1 PUSH1 0x1 PUSH1 0xA0 SHL SUB DUP2 AND DUP2 EQ PUSH2 0x541 JUMPI PUSH0 PUSH0 REVERT JUMPDEST SWAP2 SWAP1 POP JUMP JUMPDEST PUSH4 0x4E487B71 PUSH1 0xE0 SHL PUSH0 MSTORE PUSH1 0x41 PUSH1 0x4 MSTORE PUSH1 0x24 PUSH0 REVERT JUMPDEST PUSH1 0x40 MLOAD PUSH1 0x1F DUP3 ADD PUSH1 0x1F NOT AND DUP2 ADD PUSH1 0x1 PUSH1 0x1 PUSH1 0x40 SHL SUB DUP2 GT DUP3 DUP3 LT OR ISZERO PUSH2 0x582 JUMPI PUSH2 0x582 PUSH2 0x546 JUMP JUMPDEST PUSH1 0x40 MSTORE SWAP2 SWAP1 POP JUMP JUMPDEST PUSH0 DUP3 PUSH1 0x1F DUP4 ADD SLT PUSH2 0x599 JUMPI PUSH0 PUSH0 REVERT JUMPDEST DUP2 MLOAD PUSH1 0x1 PUSH1 0x1 PUSH1 0x40 SHL SUB DUP2 GT ISZERO PUSH2 0x5B2 JUMPI PUSH2 0x5B2 PUSH2 0x546 JUMP JUMPDEST DUP1 PUSH1 0x5 SHL PUSH2 0x5C2 PUSH1 0x20 DUP3 ADD PUSH2 0x55A JUMP JUMPDEST SWAP2 DUP3 MSTORE PUSH1 0x20 DUP2 DUP6 ADD DUP2 ADD SWAP3 SWAP1 DUP2 ADD SWAP1 DUP7 DUP5 GT ISZERO PUSH2 0x5DD JUMPI PUSH0 PUSH0 REVERT JUMPDEST PUSH1 0x20 DUP7 ADD SWAP3 POP JUMPDEST DUP4 DUP4 LT ISZERO PUSH2 0x606 JUMPI PUSH2 0x5F5 DUP4 PUSH2 0x52B JUMP JUMPDEST DUP3 MSTORE PUSH1 0x20 SWAP3 DUP4 ADD SWAP3 SWAP1 SWAP2 ADD SWAP1 PUSH2 0x5E4 JUMP JUMPDEST SWAP7 SWAP6 POP POP POP POP POP POP JUMP JUMPDEST PUSH0 DUP3 PUSH1 0x1F DUP4 ADD SLT PUSH2 0x61F JUMPI PUSH0 PUSH0 REVERT JUMPDEST DUP2 MLOAD PUSH1 0x1 PUSH1 0x1 PUSH1 0x40 SHL SUB DUP2 GT ISZERO PUSH2 0x638 JUMPI PUSH2 0x638 PUSH2 0x546 JUMP JUMPDEST PUSH2 0x64B PUSH1 0x1F DUP3 ADD PUSH1 0x1F NOT AND PUSH1 0x20 ADD PUSH2 0x55A JUMP JUMPDEST DUP2 DUP2 MSTORE DUP5 PUSH1 0x20 DUP4 DUP7 ADD ADD GT ISZERO PUSH2 0x65F JUMPI PUSH0 PUSH0 REVERT JUMPDEST DUP2 PUSH1 0x20 DUP6 ADD PUSH1 0x20 DUP4 ADD MCOPY PUSH0 SWAP2 DUP2 ADD PUSH1 0x20 ADD SWAP2 SWAP1 SWAP2 MSTORE SWAP4 SWAP3 POP POP POP JUMP JUMPDEST PUSH0 PUSH0 PUSH0 PUSH0 PUSH0 PUSH0 PUSH0 PUSH0 PUSH2 0x100 DUP10 DUP12 SUB SLT ISZERO PUSH2 0x693 JUMPI PUSH0 PUSH0 REVERT JUMPDEST PUSH2 0x69C DUP10 PUSH2 0x52B JUMP JUMPDEST SWAP8 POP PUSH2 0x6AA PUSH1 0x20 DUP11 ADD PUSH2 0x52B JUMP JUMPDEST SWAP7 POP PUSH2 0x6B8 PUSH1 0x40 DUP11 ADD PUSH2 0x52B JUMP JUMPDEST SWAP6 POP PUSH2 0x6C6 PUSH1 0x60 DUP11 ADD PUSH2 0x52B JUMP JUMPDEST PUSH1 0x80 DUP11 ADD MLOAD SWAP1 SWAP6 POP PUSH1 0x1 PUSH1 0x1 PUSH1 0x40 SHL SUB DUP2 GT ISZERO PUSH2 0x6E1 JUMPI PUSH0 PUSH0 REVERT JUMPDEST PUSH2 0x6ED DUP12 DUP3 DUP13 ADD PUSH2 0x58A JUMP JUMPDEST PUSH1 0xA0 DUP12 ADD MLOAD SWAP1 SWAP6 POP SWAP1 POP PUSH1 0x1 PUSH1 0x1 PUSH1 0x40 SHL SUB DUP2 GT ISZERO PUSH2 0x70A JUMPI PUSH0 PUSH0 REVERT JUMPDEST PUSH2 0x716 DUP12 DUP3 DUP13 ADD PUSH2 0x610 JUMP JUMPDEST PUSH1 0xC0 DUP12 ADD MLOAD SWAP1 SWAP5 POP SWAP1 POP PUSH1 0x1 PUSH1 0x1 PUSH1 0x40 SHL SUB DUP2 GT ISZERO PUSH2 0x733 JUMPI PUSH0 PUSH0 REVERT JUMPDEST PUSH2 0x73F DUP12 DUP3 DUP13 ADD PUSH2 0x610 JUMP JUMPDEST PUSH1 0xE0 SWAP11 SWAP1 SWAP11 ADD MLOAD SWAP9 SWAP12 SWAP8 SWAP11 POP SWAP6 SWAP9 SWAP5 SWAP8 SWAP4 SWAP7 SWAP3 SWAP6 POP POP POP JUMP JUMPDEST PUSH4 0x4E487B71 PUSH1 0xE0 SHL PUSH0 MSTORE PUSH1 0x32 PUSH1 0x4 MSTORE PUSH1 0x24 PUSH0 REVERT JUMPDEST PUSH0 DUP2 MLOAD DUP1 DUP5 MSTORE DUP1 PUSH1 0x20 DUP5 ADD PUSH1 0x20 DUP7 ADD MCOPY PUSH0 PUSH1 0x20 DUP3 DUP7 ADD ADD MSTORE PUSH1 0x20 PUSH1 0x1F NOT PUSH1 0x1F DUP4 ADD AND DUP6 ADD ADD SWAP2 POP POP SWAP3 SWAP2 POP POP JUMP JUMPDEST PUSH1 0x1 PUSH1 0x1 PUSH1 0xA0 SHL SUB DUP7 DUP2 AND DUP3 MSTORE DUP6 DUP2 AND PUSH1 0x20 DUP4 ADD MSTORE DUP5 AND PUSH1 0x40 DUP3 ADD MSTORE PUSH1 0xA0 PUSH1 0x60 DUP3 ADD DUP2 SWAP1 MSTORE PUSH0 SWAP1 PUSH2 0x7CD SWAP1 DUP4 ADD DUP6 PUSH2 0x76C JUMP JUMPDEST SWAP1 POP DUP3 PUSH1 0x80 DUP4 ADD MSTORE SWAP7 SWAP6 POP POP POP POP POP POP JUMP JUMPDEST PUSH1 0x1 PUSH1 0x1 PUSH1 0xA0 SHL SUB DUP7 DUP2 AND DUP3 MSTORE DUP6 AND PUSH1 0x20 DUP3 ADD MSTORE PUSH1 0xA0 PUSH1 0x40 DUP3 ADD DUP2 SWAP1 MSTORE PUSH0 SWAP1 PUSH2 0x80A SWAP1 DUP4 ADD DUP7 PUSH2 0x76C JUMP JUMPDEST DUP3 DUP2 SUB PUSH1 0x60 DUP5 ADD MSTORE PUSH2 0x81C DUP2 DUP7 PUSH2 0x76C JUMP JUMPDEST SWAP2 POP POP DUP3 PUSH1 0x80 DUP4 ADD MSTORE SWAP7 SWAP6 POP POP POP POP POP POP JUMP JUMPDEST PUSH0 PUSH1 0x20 DUP3 DUP5 SUB SLT ISZERO PUSH2 0x83F JUMPI PUSH0 PUSH0 REVERT JUMPDEST PUSH2 0x848 DUP3 PUSH2 0x52B JUMP JUMPDEST SWAP4 SWAP3 POP POP POP JUMP JUMPDEST PUSH1 0x1 PUSH1 0x1 PUSH1 0xA0 SHL SUB DUP9 DUP2 AND DUP3 MSTORE DUP8 DUP2 AND PUSH1 0x20 DUP4 ADD MSTORE DUP7 DUP2 AND PUSH1 0x40 DUP4 ADD MSTORE DUP6 DUP2 AND PUSH1 0x60 DUP4 ADD MSTORE DUP5 AND PUSH1 0x80 DUP3 ADD MSTORE PUSH1 0xE0 PUSH1 0xA0 DUP3 ADD DUP2 SWAP1 MSTORE PUSH0 SWAP1 PUSH2 0x892 SWAP1 DUP4 ADD DUP6 PUSH2 0x76C JUMP JUMPDEST SWAP1 POP DUP3 PUSH1 0xC0 DUP4 ADD MSTORE SWAP9 SWAP8 POP POP POP POP POP POP POP POP JUMP JUMPDEST PUSH1 0x80 MLOAD PUSH1 0xA0 MLOAD PUSH2 0xFEC PUSH2 0x8DC PUSH0 CODECOPY PUSH0 DUP2 DUP2 PUSH2 0x175 ADD MSTORE DUP2 DUP2 PUSH2 0x5CC ADD MSTORE PUSH2 0xC9A ADD MSTORE PUSH0 DUP2 DUP2 PUSH2 0x2C2 ADD MSTORE PUSH2 0x557 ADD MSTORE PUSH2 0xFEC PUSH0 RETURN INVALID PUSH1 0x80 PUSH1 0x40 MSTORE CALLVALUE DUP1 ISZERO PUSH2 0xF JUMPI PUSH0 PUSH0 REVERT JUMPDEST POP PUSH1 0x4 CALLDATASIZE LT PUSH2 0x127 JUMPI PUSH0 CALLDATALOAD PUSH1 0xE0 SHR DUP1 PUSH4 0x8DA5CB5B GT PUSH2 0xA9 JUMPI DUP1 PUSH4 0xD598D4C9 GT PUSH2 0x6E JUMPI DUP1 PUSH4 0xD598D4C9 EQ PUSH2 0x294 JUMPI DUP1 PUSH4 0xD9B7F3EE EQ PUSH2 0x2A7 JUMPI DUP1 PUSH4 0xDCDCBB3A EQ PUSH2 0x2BD JUMPI DUP1 PUSH4 0xDD758399 EQ PUSH2 0x2E4 JUMPI DUP1 PUSH4 0xEDBCFDF2 EQ PUSH2 0x2FF JUMPI PUSH0 PUSH0 REVERT JUMPDEST DUP1 PUSH4 0x8DA5CB5B EQ PUSH2 0x226 JUMPI DUP1 PUSH4 0xA05C2616 EQ PUSH2 0x238 JUMPI DUP1 PUSH4 0xA4C52B86 EQ PUSH2 0x253 JUMPI DUP1 PUSH4 0xBF8BDAC1 EQ PUSH2 0x26E JUMPI DUP1 PUSH4 0xC5A5688C EQ PUSH2 0x281 JUMPI PUSH0 PUSH0 REVERT JUMPDEST DUP1 PUSH4 0x3786DF5E GT PUSH2 0xEF JUMPI DUP1 PUSH4 0x3786DF5E EQ PUSH2 0x1BF JUMPI DUP1 PUSH4 0x3857D9D7 EQ PUSH2 0x1D2 JUMPI DUP1 PUSH4 0x4141F954 EQ PUSH2 0x1E5 JUMPI DUP1 PUSH4 0x75DCEBC7 EQ PUSH2 0x1F8 JUMPI DUP1 PUSH4 0x83C2B7F5 EQ PUSH2 0x20B JUMPI PUSH0 PUSH0 REVERT JUMPDEST DUP1 PUSH4 0x720CB19 EQ PUSH2 0x12B JUMPI DUP1 PUSH4 0x13AF4035 EQ PUSH2 0x15B JUMPI DUP1 PUSH4 0x18DAA226 EQ PUSH2 0x170 JUMPI DUP1 PUSH4 0x1F5BE2E7 EQ PUSH2 0x197 JUMPI DUP1 PUSH4 0x2BFED375 EQ PUSH2 0x1AA JUMPI JUMPDEST PUSH0 PUSH0 REVERT JUMPDEST PUSH2 0x13E PUSH2 0x139 CALLDATASIZE PUSH1 0x4 PUSH2 0xD40 JUMP JUMPDEST PUSH2 0x312 JUMP JUMPDEST PUSH1 0x40 MLOAD PUSH1 0x1 PUSH1 0x1 PUSH1 0xA0 SHL SUB SWAP1 SWAP2 AND DUP2 MSTORE PUSH1 0x20 ADD JUMPDEST PUSH1 0x40 MLOAD DUP1 SWAP2 SUB SWAP1 RETURN JUMPDEST PUSH2 0x16E PUSH2 0x169 CALLDATASIZE PUSH1 0x4 PUSH2 0xD72 JUMP JUMPDEST PUSH2 0x33A JUMP JUMPDEST STOP JUMPDEST PUSH2 0x13E PUSH32 0x0 DUP2 JUMP JUMPDEST PUSH2 0x16E PUSH2 0x1A5 CALLDATASIZE PUSH1 0x4 PUSH2 0xD9F JUMP JUMPDEST PUSH2 0x370 JUMP JUMPDEST PUSH2 0x1B2 PUSH2 0x400 JUMP JUMPDEST PUSH1 0x40 MLOAD PUSH2 0x152 SWAP2 SWAP1 PUSH2 0xDD4 JUMP JUMPDEST PUSH2 0x16E PUSH2 0x1CD CALLDATASIZE PUSH1 0x4 PUSH2 0xD72 JUMP JUMPDEST PUSH2 0x460 JUMP JUMPDEST PUSH2 0x16E PUSH2 0x1E0 CALLDATASIZE PUSH1 0x4 PUSH2 0xD40 JUMP JUMPDEST PUSH2 0x4B9 JUMP JUMPDEST PUSH2 0x16E PUSH2 0x1F3 CALLDATASIZE PUSH1 0x4 PUSH2 0xE49 JUMP JUMPDEST PUSH2 0x631 JUMP JUMPDEST PUSH2 0x16E PUSH2 0x206 CALLDATASIZE PUSH1 0x4 PUSH2 0xF26 JUMP JUMPDEST PUSH2 0x79C JUMP JUMPDEST PUSH2 0x13E PUSH20 0x5F99A795DD2743C36D63511F0D4BC667E6D3CDB5 DUP2 JUMP JUMPDEST PUSH0 SLOAD PUSH2 0x13E SWAP1 PUSH1 0x1 PUSH1 0x1 PUSH1 0xA0 SHL SUB AND DUP2 JUMP JUMPDEST PUSH2 0x13E PUSH20 0xA27566FD89162CC3D40CB59C87AAAA49B85F3474 DUP2 JUMP JUMPDEST PUSH2 0x13E PUSH20 0xC12C1E50ABB450D6205EA2C3FA861B3B834D13E8 DUP2 JUMP JUMPDEST PUSH2 0x16E PUSH2 0x27C CALLDATASIZE PUSH1 0x4 PUSH2 0xD72 JUMP JUMPDEST PUSH2 0x7D4 JUMP JUMPDEST PUSH2 0x16E PUSH2 0x28F CALLDATASIZE PUSH1 0x4 PUSH2 0xD40 JUMP JUMPDEST PUSH2 0x82D JUMP JUMPDEST PUSH1 0x1 SLOAD PUSH2 0x13E SWAP1 PUSH1 0x1 PUSH1 0x1 PUSH1 0xA0 SHL SUB AND DUP2 JUMP JUMPDEST PUSH2 0x2AF PUSH1 0xA DUP2 JUMP JUMPDEST PUSH1 0x40 MLOAD SWAP1 DUP2 MSTORE PUSH1 0x20 ADD PUSH2 0x152 JUMP JUMPDEST PUSH2 0x13E PUSH32 0x0 DUP2 JUMP JUMPDEST PUSH2 0x13E PUSH20 0xCDFC5135AEC0AFBF102C108E7F5C8A88C6112842 DUP2 JUMP JUMPDEST PUSH1 0x2 SLOAD PUSH2 0x13E SWAP1 PUSH1 0x1 PUSH1 0x1 PUSH1 0xA0 SHL SUB AND DUP2 JUMP JUMPDEST PUSH1 0x3 DUP2 DUP2 SLOAD DUP2 LT PUSH2 0x321 JUMPI PUSH0 DUP1 REVERT JUMPDEST PUSH0 SWAP2 DUP3 MSTORE PUSH1 0x20 SWAP1 SWAP2 KECCAK256 ADD SLOAD PUSH1 0x1 PUSH1 0x1 PUSH1 0xA0 SHL SUB AND SWAP1 POP DUP2 JUMP JUMPDEST PUSH0 SLOAD PUSH1 0x1 PUSH1 0x1 PUSH1 0xA0 SHL SUB AND CALLER EQ PUSH2 0x364 JUMPI PUSH1 0x40 MLOAD PUSH4 0x5FC483C5 PUSH1 0xE0 SHL DUP2 MSTORE PUSH1 0x4 ADD PUSH1 0x40 MLOAD DUP1 SWAP2 SUB SWAP1 REVERT JUMPDEST PUSH2 0x36D DUP2 PUSH2 0x88F JUMP JUMPDEST POP JUMP JUMPDEST PUSH0 SLOAD PUSH1 0x1 PUSH1 0x1 PUSH1 0xA0 SHL SUB AND CALLER EQ PUSH2 0x39A JUMPI PUSH1 0x40 MLOAD PUSH4 0x5FC483C5 PUSH1 0xE0 SHL DUP2 MSTORE PUSH1 0x4 ADD PUSH1 0x40 MLOAD DUP1 SWAP2 SUB SWAP1 REVERT JUMPDEST DUP1 ISZERO PUSH2 0x3AE JUMPI PUSH2 0x3A9 DUP3 PUSH2 0x8D6 JUMP JUMPDEST PUSH2 0x3B7 JUMP JUMPDEST PUSH2 0x3B7 DUP3 PUSH2 0x9AB JUMP JUMPDEST DUP2 PUSH1 0x1 PUSH1 0x1 PUSH1 0xA0 SHL SUB AND PUSH32 0x20147D45CEA39F58D5E0AC88491218987FE0A4CEAFBF0A47796542AC9446B6A DUP3 PUSH1 0x40 MLOAD PUSH2 0x3F4 SWAP2 ISZERO ISZERO DUP2 MSTORE PUSH1 0x20 ADD SWAP1 JUMP JUMPDEST PUSH1 0x40 MLOAD DUP1 SWAP2 SUB SWAP1 LOG2 POP POP JUMP JUMPDEST PUSH1 0x60 PUSH1 0x3 DUP1 SLOAD DUP1 PUSH1 0x20 MUL PUSH1 0x20 ADD PUSH1 0x40 MLOAD SWAP1 DUP2 ADD PUSH1 0x40 MSTORE DUP1 SWAP3 SWAP2 SWAP1 DUP2 DUP2 MSTORE PUSH1 0x20 ADD DUP3 DUP1 SLOAD DUP1 ISZERO PUSH2 0x456 JUMPI PUSH1 0x20 MUL DUP3 ADD SWAP2 SWAP1 PUSH0 MSTORE PUSH1 0x20 PUSH0 KECCAK256 SWAP1 JUMPDEST DUP2 SLOAD PUSH1 0x1 PUSH1 0x1 PUSH1 0xA0 SHL SUB AND DUP2 MSTORE PUSH1 0x1 SWAP1 SWAP2 ADD SWAP1 PUSH1 0x20 ADD DUP1 DUP4 GT PUSH2 0x438 JUMPI JUMPDEST POP POP POP POP POP SWAP1 POP SWAP1 JUMP JUMPDEST PUSH0 SLOAD PUSH1 0x1 PUSH1 0x1 PUSH1 0xA0 SHL SUB AND CALLER EQ PUSH2 0x48A JUMPI PUSH1 0x40 MLOAD PUSH4 0x5FC483C5 PUSH1 0xE0 SHL DUP2 MSTORE PUSH1 0x4 ADD PUSH1 0x40 MLOAD DUP1 SWAP2 SUB SWAP1 REVERT JUMPDEST PUSH1 0x1 PUSH1 0x1 PUSH1 0xA0 SHL SUB DUP2 AND PUSH2 0x4B0 JUMPI PUSH1 0x40 MLOAD PUSH3 0x8C6131 PUSH1 0xE4 SHL DUP2 MSTORE PUSH1 0x4 ADD PUSH1 0x40 MLOAD DUP1 SWAP2 SUB SWAP1 REVERT JUMPDEST PUSH2 0x36D DUP2 PUSH2 0xAC7 JUMP JUMPDEST PUSH0 SLOAD PUSH1 0x1 PUSH1 0x1 PUSH1 0xA0 SHL SUB AND CALLER EQ PUSH2 0x4E3 JUMPI PUSH1 0x40 MLOAD PUSH4 0x5FC483C5 PUSH1 0xE0 SHL DUP2 MSTORE PUSH1 0x4 ADD PUSH1 0x40 MLOAD DUP1 SWAP2 SUB SWAP1 REVERT JUMPDEST PUSH1 0x40 MLOAD PUSH4 0x3857D9D7 PUSH1 0xE0 SHL DUP2 MSTORE PUSH1 0x4 DUP2 ADD DUP3 SWAP1 MSTORE PUSH20 0xA27566FD89162CC3D40CB59C87AAAA49B85F3474 SWAP1 PUSH4 0x3857D9D7 SWAP1 PUSH1 0x24 ADD PUSH0 PUSH1 0x40 MLOAD DUP1 DUP4 SUB DUP2 PUSH0 DUP8 DUP1 EXTCODESIZE ISZERO DUP1 ISZERO PUSH2 0x52D JUMPI PUSH0 PUSH0 REVERT JUMPDEST POP GAS CALL ISZERO DUP1 ISZERO PUSH2 0x53F JUMPI RETURNDATASIZE PUSH0 PUSH0 RETURNDATACOPY RETURNDATASIZE PUSH0 REVERT JUMPDEST POP POP PUSH1 0x40 MLOAD PUSH4 0x3857D9D7 PUSH1 0xE0 SHL DUP2 MSTORE PUSH1 0x4 DUP2 ADD DUP5 SWAP1 MSTORE PUSH32 0x0 PUSH1 0x1 PUSH1 0x1 PUSH1 0xA0 SHL SUB AND SWAP3 POP PUSH4 0x3857D9D7 SWAP2 POP PUSH1 0x24 ADD PUSH0 PUSH1 0x40 MLOAD DUP1 DUP4 SUB DUP2 PUSH0 DUP8 DUP1 EXTCODESIZE ISZERO DUP1 ISZERO PUSH2 0x5A2 JUMPI PUSH0 PUSH0 REVERT JUMPDEST POP GAS CALL ISZERO DUP1 ISZERO PUSH2 0x5B4 JUMPI RETURNDATASIZE PUSH0 PUSH0 RETURNDATACOPY RETURNDATASIZE PUSH0 REVERT JUMPDEST POP POP PUSH1 0x40 MLOAD PUSH4 0x3857D9D7 PUSH1 0xE0 SHL DUP2 MSTORE PUSH1 0x4 DUP2 ADD DUP5 SWAP1 MSTORE PUSH32 0x0 PUSH1 0x1 PUSH1 0x1 PUSH1 0xA0 SHL SUB AND SWAP3 POP PUSH4 0x3857D9D7 SWAP2 POP PUSH1 0x24 ADD JUMPDEST PUSH0 PUSH1 0x40 MLOAD DUP1 DUP4 SUB DUP2 PUSH0 DUP8 DUP1 EXTCODESIZE ISZERO DUP1 ISZERO PUSH2 0x618 JUMPI PUSH0 PUSH0 REVERT JUMPDEST POP GAS CALL ISZERO DUP1 ISZERO PUSH2 0x62A JUMPI RETURNDATASIZE PUSH0 PUSH0 RETURNDATACOPY RETURNDATASIZE PUSH0 REVERT JUMPDEST POP POP POP POP POP JUMP JUMPDEST PUSH0 SLOAD PUSH1 0x1 PUSH1 0x1 PUSH1 0xA0 SHL SUB AND CALLER EQ DUP1 ISZERO SWAP1 PUSH2 0x656 JUMPI POP PUSH1 0x1 SLOAD PUSH1 0x1 PUSH1 0x1 PUSH1 0xA0 SHL SUB AND CALLER EQ ISZERO JUMPDEST ISZERO PUSH2 0x674 JUMPI PUSH1 0x40 MLOAD PUSH4 0xF142743 PUSH1 0xE4 SHL DUP2 MSTORE PUSH1 0x4 ADD PUSH1 0x40 MLOAD DUP1 SWAP2 SUB SWAP1 REVERT JUMPDEST TIMESTAMP PUSH1 0x1 PUSH1 0x1 PUSH1 0x60 SHL SUB DUP3 AND LT ISZERO PUSH0 DUP1 JUMPDEST DUP5 MLOAD DUP2 LT ISZERO PUSH2 0x62A JUMPI DUP5 DUP2 DUP2 MLOAD DUP2 LT PUSH2 0x69F JUMPI PUSH2 0x69F PUSH2 0xF4E JUMP JUMPDEST PUSH1 0x20 MUL PUSH1 0x20 ADD ADD MLOAD SWAP2 POP DUP3 ISZERO PUSH2 0x704 JUMPI PUSH0 PUSH0 PUSH2 0x6BA DUP5 PUSH2 0xB10 JUMP JUMPDEST SWAP2 POP SWAP2 POP DUP2 PUSH2 0x6F3 JUMPI PUSH1 0x40 MLOAD PUSH4 0xF35A9BB3 PUSH1 0xE0 SHL DUP2 MSTORE PUSH1 0x1 PUSH1 0x1 PUSH1 0xA0 SHL SUB DUP1 DUP7 AND PUSH1 0x4 DUP4 ADD MSTORE DUP3 AND PUSH1 0x24 DUP3 ADD MSTORE PUSH1 0x44 ADD PUSH1 0x40 MLOAD DUP1 SWAP2 SUB SWAP1 REVERT JUMPDEST PUSH2 0x6FD DUP5 DUP8 PUSH2 0xBF7 JUMP JUMPDEST POP POP PUSH2 0x794 JUMP JUMPDEST PUSH1 0x40 MLOAD PUSH4 0x6713E23 PUSH1 0xE4 SHL DUP2 MSTORE ADDRESS PUSH1 0x4 DUP3 ADD MSTORE PUSH1 0x1 PUSH1 0x1 PUSH1 0xA0 SHL SUB DUP4 AND PUSH1 0x24 DUP3 ADD MSTORE PUSH20 0xC12C1E50ABB450D6205EA2C3FA861B3B834D13E8 SWAP1 PUSH4 0x6713E230 SWAP1 PUSH1 0x44 ADD PUSH1 0x20 PUSH1 0x40 MLOAD DUP1 DUP4 SUB DUP2 PUSH0 DUP8 GAS CALL ISZERO DUP1 ISZERO PUSH2 0x761 JUMPI RETURNDATASIZE PUSH0 PUSH0 RETURNDATACOPY RETURNDATASIZE PUSH0 REVERT JUMPDEST POP POP POP POP PUSH1 0x40 MLOAD RETURNDATASIZE PUSH1 0x1F NOT PUSH1 0x1F DUP3 ADD AND DUP3 ADD DUP1 PUSH1 0x40 MSTORE POP DUP2 ADD SWAP1 PUSH2 0x785 SWAP2 SWAP1 PUSH2 0xF62 JUMP JUMPDEST ISZERO PUSH2 0x794 JUMPI PUSH2 0x794 DUP3 DUP6 PUSH2 0xBF7 JUMP JUMPDEST PUSH1 0x1 ADD PUSH2 0x684 JUMP JUMPDEST PUSH0 SLOAD PUSH1 0x1 PUSH1 0x1 PUSH1 0xA0 SHL SUB AND CALLER EQ PUSH2 0x7C6 JUMPI PUSH1 0x40 MLOAD PUSH4 0x5FC483C5 PUSH1 0xE0 SHL DUP2 MSTORE PUSH1 0x4 ADD PUSH1 0x40 MLOAD DUP1 SWAP2 SUB SWAP1 REVERT JUMPDEST PUSH2 0x7D0 DUP3 DUP3 PUSH2 0xBF7 JUMP JUMPDEST POP POP JUMP JUMPDEST PUSH0 SLOAD PUSH1 0x1 PUSH1 0x1 PUSH1 0xA0 SHL SUB AND CALLER EQ PUSH2 0x7FE JUMPI PUSH1 0x40 MLOAD PUSH4 0x5FC483C5 PUSH1 0xE0 SHL DUP2 MSTORE PUSH1 0x4 ADD PUSH1 0x40 MLOAD DUP1 SWAP2 SUB SWAP1 REVERT JUMPDEST PUSH1 0x1 PUSH1 0x1 PUSH1 0xA0 SHL SUB DUP2 AND PUSH2 0x824 JUMPI PUSH1 0x40 MLOAD PUSH3 0x8C6131 PUSH1 0xE4 SHL DUP2 MSTORE PUSH1 0x4 ADD PUSH1 0x40 MLOAD DUP1 SWAP2 SUB SWAP1 REVERT JUMPDEST PUSH2 0x36D DUP2 PUSH2 0xCF7 JUMP JUMPDEST PUSH0 SLOAD PUSH1 0x1 PUSH1 0x1 PUSH1 0xA0 SHL SUB AND CALLER EQ PUSH2 0x857 JUMPI PUSH1 0x40 MLOAD PUSH4 0x5FC483C5 PUSH1 0xE0 SHL DUP2 MSTORE PUSH1 0x4 ADD PUSH1 0x40 MLOAD DUP1 SWAP2 SUB SWAP1 REVERT JUMPDEST PUSH1 0x40 MLOAD PUSH4 0x31695A23 PUSH1 0xE2 SHL DUP2 MSTORE PUSH1 0x4 DUP2 ADD DUP3 SWAP1 MSTORE PUSH20 0xA27566FD89162CC3D40CB59C87AAAA49B85F3474 SWAP1 PUSH4 0xC5A5688C SWAP1 PUSH1 0x24 ADD PUSH2 0x601 JUMP JUMPDEST PUSH0 DUP1 SLOAD PUSH1 0x1 PUSH1 0x1 PUSH1 0xA0 SHL SUB NOT AND PUSH1 0x1 PUSH1 0x1 PUSH1 0xA0 SHL SUB DUP4 AND SWAP1 DUP2 OR DUP3 SSTORE PUSH1 0x40 MLOAD SWAP1 SWAP2 PUSH32 0x4FFD725FC4A22075E9EC71C59EDF9C38CDEB588A91B24FC5B61388C5BE41282B SWAP2 LOG2 POP JUMP JUMPDEST PUSH1 0x1 PUSH1 0x1 PUSH1 0xA0 SHL SUB DUP2 AND PUSH2 0x8E7 JUMPI POP JUMP JUMPDEST PUSH1 0x3 SLOAD PUSH1 0xA DUP2 LT PUSH2 0x90B JUMPI PUSH1 0x40 MLOAD PUSH4 0x29BA6E8D PUSH1 0xE1 SHL DUP2 MSTORE PUSH1 0x4 ADD PUSH1 0x40 MLOAD DUP1 SWAP2 SUB SWAP1 REVERT JUMPDEST PUSH0 JUMPDEST DUP2 DUP2 LT ISZERO PUSH2 0x958 JUMPI DUP3 PUSH1 0x1 PUSH1 0x1 PUSH1 0xA0 SHL SUB AND PUSH1 0x3 DUP3 DUP2 SLOAD DUP2 LT PUSH2 0x932 JUMPI PUSH2 0x932 PUSH2 0xF4E JUMP JUMPDEST PUSH0 SWAP2 DUP3 MSTORE PUSH1 0x20 SWAP1 SWAP2 KECCAK256 ADD SLOAD PUSH1 0x1 PUSH1 0x1 PUSH1 0xA0 SHL SUB AND SUB PUSH2 0x950 JUMPI POP POP POP JUMP JUMPDEST PUSH1 0x1 ADD PUSH2 0x90D JUMP JUMPDEST POP POP PUSH1 0x3 DUP1 SLOAD PUSH1 0x1 DUP2 ADD DUP3 SSTORE PUSH0 SWAP2 SWAP1 SWAP2 MSTORE PUSH32 0xC2575A0E9E593C00F959F8C92F12DB2869C3395A3B0502D05E2516446F71F85B ADD DUP1 SLOAD PUSH1 0x1 PUSH1 0x1 PUSH1 0xA0 SHL SUB NOT AND PUSH1 0x1 PUSH1 0x1 PUSH1 0xA0 SHL SUB SWAP3 SWAP1 SWAP3 AND SWAP2 SWAP1 SWAP2 OR SWAP1 SSTORE JUMP JUMPDEST PUSH1 0x1 PUSH1 0x1 PUSH1 0xA0 SHL SUB DUP2 AND PUSH2 0x9BC JUMPI POP JUMP JUMPDEST PUSH1 0x3 SLOAD PUSH0 JUMPDEST DUP2 DUP2 LT ISZERO PUSH2 0xAC2 JUMPI DUP3 PUSH1 0x1 PUSH1 0x1 PUSH1 0xA0 SHL SUB AND PUSH1 0x3 DUP3 DUP2 SLOAD DUP2 LT PUSH2 0x9E6 JUMPI PUSH2 0x9E6 PUSH2 0xF4E JUMP JUMPDEST PUSH0 SWAP2 DUP3 MSTORE PUSH1 0x20 SWAP1 SWAP2 KECCAK256 ADD SLOAD PUSH1 0x1 PUSH1 0x1 PUSH1 0xA0 SHL SUB AND SUB PUSH2 0xABA JUMPI PUSH2 0xA0A PUSH1 0x1 DUP4 PUSH2 0xF7D JUMP JUMPDEST DUP2 EQ PUSH2 0xA84 JUMPI PUSH1 0x3 PUSH2 0xA1D PUSH1 0x1 DUP5 PUSH2 0xF7D JUMP JUMPDEST DUP2 SLOAD DUP2 LT PUSH2 0xA2D JUMPI PUSH2 0xA2D PUSH2 0xF4E JUMP JUMPDEST PUSH0 SWAP2 DUP3 MSTORE PUSH1 0x20 SWAP1 SWAP2 KECCAK256 ADD SLOAD PUSH1 0x3 DUP1 SLOAD PUSH1 0x1 PUSH1 0x1 PUSH1 0xA0 SHL SUB SWAP1 SWAP3 AND SWAP2 DUP4 SWAP1 DUP2 LT PUSH2 0xA58 JUMPI PUSH2 0xA58 PUSH2 0xF4E JUMP JUMPDEST SWAP1 PUSH0 MSTORE PUSH1 0x20 PUSH0 KECCAK256 ADD PUSH0 PUSH2 0x100 EXP DUP2 SLOAD DUP2 PUSH1 0x1 PUSH1 0x1 PUSH1 0xA0 SHL SUB MUL NOT AND SWAP1 DUP4 PUSH1 0x1 PUSH1 0x1 PUSH1 0xA0 SHL SUB AND MUL OR SWAP1 SSTORE POP JUMPDEST PUSH1 0x3 DUP1 SLOAD DUP1 PUSH2 0xA95 JUMPI PUSH2 0xA95 PUSH2 0xFA2 JUMP JUMPDEST PUSH0 DUP3 DUP2 MSTORE PUSH1 0x20 SWAP1 KECCAK256 DUP2 ADD PUSH0 NOT SWAP1 DUP2 ADD DUP1 SLOAD PUSH1 0x1 PUSH1 0x1 PUSH1 0xA0 SHL SUB NOT AND SWAP1 SSTORE ADD SWAP1 SSTORE POP POP POP JUMP JUMPDEST PUSH1 0x1 ADD PUSH2 0x9C1 JUMP JUMPDEST POP POP POP JUMP JUMPDEST PUSH1 0x2 DUP1 SLOAD PUSH1 0x1 PUSH1 0x1 PUSH1 0xA0 SHL SUB NOT AND PUSH1 0x1 PUSH1 0x1 PUSH1 0xA0 SHL SUB DUP4 AND SWAP1 DUP2 OR SWAP1 SWAP2 SSTORE PUSH1 0x40 MLOAD PUSH32 0x166C82F2C4CD6D3546D8AA18FE78E4B4E6A1BAA30DE276480B10D2A4FAA95A28 SWAP1 PUSH0 SWAP1 LOG2 POP JUMP JUMPDEST PUSH1 0x3 SLOAD PUSH0 SWAP1 DUP2 SWAP1 DUP2 JUMPDEST DUP2 DUP2 LT ISZERO PUSH2 0xBEA JUMPI PUSH1 0x3 DUP2 DUP2 SLOAD DUP2 LT PUSH2 0xB34 JUMPI PUSH2 0xB34 PUSH2 0xF4E JUMP JUMPDEST PUSH0 SWAP2 DUP3 MSTORE PUSH1 0x20 SWAP1 SWAP2 KECCAK256 ADD SLOAD PUSH1 0x40 MLOAD PUSH4 0xCF3838E1 PUSH1 0xE0 SHL DUP2 MSTORE PUSH1 0x1 PUSH1 0x1 PUSH1 0xA0 SHL SUB DUP8 DUP2 AND PUSH1 0x4 DUP4 ADD MSTORE SWAP1 SWAP2 AND SWAP1 PUSH4 0xCF3838E1 SWAP1 PUSH1 0x24 ADD PUSH1 0x20 PUSH1 0x40 MLOAD DUP1 DUP4 SUB DUP2 PUSH0 DUP8 GAS CALL ISZERO DUP1 ISZERO PUSH2 0xB85 JUMPI RETURNDATASIZE PUSH0 PUSH0 RETURNDATACOPY RETURNDATASIZE PUSH0 REVERT JUMPDEST POP POP POP POP PUSH1 0x40 MLOAD RETURNDATASIZE PUSH1 0x1F NOT PUSH1 0x1F DUP3 ADD AND DUP3 ADD DUP1 PUSH1 0x40 MSTORE POP DUP2 ADD SWAP1 PUSH2 0xBA9 SWAP2 SWAP1 PUSH2 0xF62 JUMP JUMPDEST PUSH2 0xBE2 JUMPI PUSH0 PUSH1 0x3 DUP3 DUP2 SLOAD DUP2 LT PUSH2 0xBC1 JUMPI PUSH2 0xBC1 PUSH2 0xF4E JUMP JUMPDEST PUSH0 SWAP2 DUP3 MSTORE PUSH1 0x20 SWAP1 SWAP2 KECCAK256 ADD SLOAD SWAP1 SWAP7 PUSH1 0x1 PUSH1 0x1 PUSH1 0xA0 SHL SUB SWAP1 SWAP2 AND SWAP6 POP SWAP4 POP POP POP POP JUMP JUMPDEST PUSH1 0x1 ADD PUSH2 0xB19 JUMP JUMPDEST POP PUSH1 0x1 SWAP5 PUSH0 SWAP5 POP SWAP3 POP POP POP JUMP JUMPDEST PUSH1 0x40 MLOAD PUSH4 0x75DCEBC7 PUSH1 0xE0 SHL DUP2 MSTORE PUSH1 0x1 PUSH1 0x1 PUSH1 0xA0 SHL SUB DUP4 AND PUSH1 0x4 DUP3 ADD MSTORE PUSH1 0x1 PUSH1 0x1 PUSH1 0x60 SHL SUB DUP3 AND PUSH1 0x24 DUP3 ADD MSTORE PUSH20 0xC12C1E50ABB450D6205EA2C3FA861B3B834D13E8 SWAP1 PUSH4 0x75DCEBC7 SWAP1 PUSH1 0x44 ADD PUSH0 PUSH1 0x40 MLOAD DUP1 DUP4 SUB DUP2 PUSH0 DUP8 DUP1 EXTCODESIZE ISZERO DUP1 ISZERO PUSH2 0xC58 JUMPI PUSH0 PUSH0 REVERT JUMPDEST POP GAS CALL ISZERO DUP1 ISZERO PUSH2 0xC6A JUMPI RETURNDATASIZE PUSH0 PUSH0 RETURNDATACOPY RETURNDATASIZE PUSH0 REVERT JUMPDEST POP POP PUSH1 0x40 MLOAD PUSH4 0xC878FE95 PUSH1 0xE0 SHL DUP2 MSTORE PUSH1 0x1 PUSH1 0x1 PUSH1 0xA0 SHL SUB DUP6 DUP2 AND PUSH1 0x4 DUP4 ADD MSTORE PUSH1 0x1 PUSH1 0x1 PUSH1 0x60 SHL SUB DUP6 AND PUSH1 0x24 DUP4 ADD MSTORE PUSH32 0x0 AND SWAP3 POP PUSH4 0xC878FE95 SWAP2 POP PUSH1 0x44 ADD PUSH0 PUSH1 0x40 MLOAD DUP1 DUP4 SUB DUP2 PUSH0 DUP8 DUP1 EXTCODESIZE ISZERO DUP1 ISZERO PUSH2 0xCDD JUMPI PUSH0 PUSH0 REVERT JUMPDEST POP GAS CALL ISZERO DUP1 ISZERO PUSH2 0xCEF JUMPI RETURNDATASIZE PUSH0 PUSH0 RETURNDATACOPY RETURNDATASIZE PUSH0 REVERT JUMPDEST POP POP POP POP POP POP JUMP JUMPDEST PUSH1 0x1 DUP1 SLOAD PUSH1 0x1 PUSH1 0x1 PUSH1 0xA0 SHL SUB NOT AND PUSH1 0x1 PUSH1 0x1 PUSH1 0xA0 SHL SUB DUP4 AND SWAP1 DUP2 OR SWAP1 SWAP2 SSTORE PUSH1 0x40 MLOAD PUSH32 0x176C74B9BCA78214099248DD4E675A4BE45C1F7417E269F78EF97E96ECE2A51 SWAP1 PUSH0 SWAP1 LOG2 POP JUMP JUMPDEST PUSH0 PUSH1 0x20 DUP3 DUP5 SUB SLT ISZERO PUSH2 0xD50 JUMPI PUSH0 PUSH0 REVERT JUMPDEST POP CALLDATALOAD SWAP2 SWAP1 POP JUMP JUMPDEST DUP1 CALLDATALOAD PUSH1 0x1 PUSH1 0x1 PUSH1 0xA0 SHL SUB DUP2 AND DUP2 EQ PUSH2 0xD6D JUMPI PUSH0 PUSH0 REVERT JUMPDEST SWAP2 SWAP1 POP JUMP JUMPDEST PUSH0 PUSH1 0x20 DUP3 DUP5 SUB SLT ISZERO PUSH2 0xD82 JUMPI PUSH0 PUSH0 REVERT JUMPDEST PUSH2 0xD8B DUP3 PUSH2 0xD57 JUMP JUMPDEST SWAP4 SWAP3 POP POP POP JUMP JUMPDEST DUP1 ISZERO ISZERO DUP2 EQ PUSH2 0x36D JUMPI PUSH0 PUSH0 REVERT JUMPDEST PUSH0 PUSH0 PUSH1 0x40 DUP4 DUP6 SUB SLT ISZERO PUSH2 0xDB0 JUMPI PUSH0 PUSH0 REVERT JUMPDEST PUSH2 0xDB9 DUP4 PUSH2 0xD57 JUMP JUMPDEST SWAP2 POP PUSH1 0x20 DUP4 ADD CALLDATALOAD PUSH2 0xDC9 DUP2 PUSH2 0xD92 JUMP JUMPDEST DUP1 SWAP2 POP POP SWAP3 POP SWAP3 SWAP1 POP JUMP JUMPDEST PUSH1 0x20 DUP1 DUP3 MSTORE DUP3 MLOAD DUP3 DUP3 ADD DUP2 SWAP1 MSTORE PUSH0 SWAP2 DUP5 ADD SWAP1 PUSH1 0x40 DUP5 ADD SWAP1 DUP4 JUMPDEST DUP2 DUP2 LT ISZERO PUSH2 0xE14 JUMPI DUP4 MLOAD PUSH1 0x1 PUSH1 0x1 PUSH1 0xA0 SHL SUB AND DUP4 MSTORE PUSH1 0x20 SWAP4 DUP5 ADD SWAP4 SWAP1 SWAP3 ADD SWAP2 PUSH1 0x1 ADD PUSH2 0xDED JUMP JUMPDEST POP SWAP1 SWAP6 SWAP5 POP POP POP POP POP JUMP JUMPDEST PUSH4 0x4E487B71 PUSH1 0xE0 SHL PUSH0 MSTORE PUSH1 0x41 PUSH1 0x4 MSTORE PUSH1 0x24 PUSH0 REVERT JUMPDEST DUP1 CALLDATALOAD PUSH1 0x1 PUSH1 0x1 PUSH1 0x60 SHL SUB DUP2 AND DUP2 EQ PUSH2 0xD6D JUMPI PUSH0 PUSH0 REVERT JUMPDEST PUSH0 PUSH0 PUSH1 0x40 DUP4 DUP6 SUB SLT ISZERO PUSH2 0xE5A JUMPI PUSH0 PUSH0 REVERT JUMPDEST DUP3 CALLDATALOAD PUSH8 0xFFFFFFFFFFFFFFFF DUP2 GT ISZERO PUSH2 0xE70 JUMPI PUSH0 PUSH0 REVERT JUMPDEST DUP4 ADD PUSH1 0x1F DUP2 ADD DUP6 SGT PUSH2 0xE80 JUMPI PUSH0 PUSH0 REVERT JUMPDEST DUP1 CALLDATALOAD PUSH8 0xFFFFFFFFFFFFFFFF DUP2 GT ISZERO PUSH2 0xE9A JUMPI PUSH2 0xE9A PUSH2 0xE1F JUMP JUMPDEST DUP1 PUSH1 0x5 SHL PUSH1 0x40 MLOAD PUSH1 0x1F NOT PUSH1 0x3F DUP4 ADD AND DUP2 ADD DUP2 DUP2 LT PUSH8 0xFFFFFFFFFFFFFFFF DUP3 GT OR ISZERO PUSH2 0xEC7 JUMPI PUSH2 0xEC7 PUSH2 0xE1F JUMP JUMPDEST PUSH1 0x40 MSTORE SWAP2 DUP3 MSTORE PUSH1 0x20 DUP2 DUP5 ADD DUP2 ADD SWAP3 SWAP1 DUP2 ADD DUP9 DUP5 GT ISZERO PUSH2 0xEE4 JUMPI PUSH0 PUSH0 REVERT JUMPDEST PUSH1 0x20 DUP6 ADD SWAP5 POP JUMPDEST DUP4 DUP6 LT ISZERO PUSH2 0xF0A JUMPI PUSH2 0xEFC DUP6 PUSH2 0xD57 JUMP JUMPDEST DUP2 MSTORE PUSH1 0x20 SWAP5 DUP6 ADD SWAP5 ADD PUSH2 0xEEB JUMP JUMPDEST POP SWAP5 POP PUSH2 0xF1D SWAP3 POP POP POP PUSH1 0x20 DUP5 ADD PUSH2 0xE33 JUMP JUMPDEST SWAP1 POP SWAP3 POP SWAP3 SWAP1 POP JUMP JUMPDEST PUSH0 PUSH0 PUSH1 0x40 DUP4 DUP6 SUB SLT ISZERO PUSH2 0xF37 JUMPI PUSH0 PUSH0 REVERT JUMPDEST PUSH2 0xF40 DUP4 PUSH2 0xD57 JUMP JUMPDEST SWAP2 POP PUSH2 0xF1D PUSH1 0x20 DUP5 ADD PUSH2 0xE33 JUMP JUMPDEST PUSH4 0x4E487B71 PUSH1 0xE0 SHL PUSH0 MSTORE PUSH1 0x32 PUSH1 0x4 MSTORE PUSH1 0x24 PUSH0 REVERT JUMPDEST PUSH0 PUSH1 0x20 DUP3 DUP5 SUB SLT ISZERO PUSH2 0xF72 JUMPI PUSH0 PUSH0 REVERT JUMPDEST DUP2 MLOAD PUSH2 0xD8B DUP2 PUSH2 0xD92 JUMP JUMPDEST DUP2 DUP2 SUB DUP2 DUP2 GT ISZERO PUSH2 0xF9C JUMPI PUSH4 0x4E487B71 PUSH1 0xE0 SHL PUSH0 MSTORE PUSH1 0x11 PUSH1 0x4 MSTORE PUSH1 0x24 PUSH0 REVERT JUMPDEST SWAP3 SWAP2 POP POP JUMP JUMPDEST PUSH4 0x4E487B71 PUSH1 0xE0 SHL PUSH0 MSTORE PUSH1 0x31 PUSH1 0x4 MSTORE PUSH1 0x24 PUSH0 REVERT INVALID LOG2 PUSH5 0x6970667358 0x22 SLT KECCAK256 0xF8 0xE9 SAR BASEFEE CHAINID 0xF PUSH23 0x414C168F81B3D6DEA8613DD80463E17B405ADC8D3C51E8 0x1F 0x2A PUSH5 0x736F6C6343 STOP ADDMOD SHR STOP CALLER PUSH1 0xE0 PUSH1 0x40 MSTORE CALLVALUE DUP1 ISZERO PUSH2 0xF JUMPI PUSH0 PUSH0 REVERT JUMPDEST POP PUSH1 0x40 MLOAD PUSH2 0xC32 CODESIZE SUB DUP1 PUSH2 0xC32 DUP4 CODECOPY DUP2 ADD PUSH1 0x40 DUP2 SWAP1 MSTORE PUSH2 0x2E SWAP2 PUSH2 0x169 JUMP JUMPDEST PUSH1 0x1 PUSH1 0x1 PUSH1 0xA0 SHL SUB DUP1 DUP7 AND PUSH1 0x80 MSTORE DUP5 DUP2 AND PUSH1 0xA0 MSTORE DUP4 AND PUSH1 0xC0 MSTORE PUSH1 0x40 MLOAD PUSH0 SWAP1 PUSH2 0x5A SWAP1 DUP5 SWAP1 PUSH1 0x20 ADD PUSH2 0x256 JUMP JUMPDEST PUSH1 0x40 DUP1 MLOAD PUSH1 0x1F NOT DUP2 DUP5 SUB ADD DUP2 MSTORE SWAP1 DUP3 SWAP1 MSTORE PUSH1 0x80 MLOAD PUSH4 0xBFDE380D PUSH1 0xE0 SHL DUP4 MSTORE SWAP1 SWAP3 POP PUSH1 0x1 PUSH1 0x1 PUSH1 0xA0 SHL SUB AND SWAP1 PUSH4 0xBFDE380D SWAP1 PUSH2 0x9B SWAP1 DUP5 SWAP1 DUP7 SWAP1 PUSH1 0x4 ADD PUSH2 0x27B JUMP JUMPDEST PUSH0 PUSH1 0x40 MLOAD DUP1 DUP4 SUB DUP2 PUSH0 DUP8 DUP1 EXTCODESIZE ISZERO DUP1 ISZERO PUSH2 0xB2 JUMPI PUSH0 PUSH0 REVERT JUMPDEST POP GAS CALL ISZERO DUP1 ISZERO PUSH2 0xC4 JUMPI RETURNDATASIZE PUSH0 PUSH0 RETURNDATACOPY RETURNDATASIZE PUSH0 REVERT JUMPDEST POP POP PUSH1 0x80 MLOAD PUSH1 0x40 MLOAD PUSH4 0x75DCEBC7 PUSH1 0xE0 SHL DUP2 MSTORE PUSH1 0x1 PUSH1 0x1 PUSH1 0xA0 SHL SUB DUP9 DUP2 AND PUSH1 0x4 DUP4 ADD MSTORE PUSH1 0x1 PUSH1 0x1 PUSH1 0x60 SHL SUB PUSH1 0x24 DUP4 ADD MSTORE SWAP1 SWAP2 AND SWAP3 POP PUSH4 0x75DCEBC7 SWAP2 POP PUSH1 0x44 ADD PUSH0 PUSH1 0x40 MLOAD DUP1 DUP4 SUB DUP2 PUSH0 DUP8 DUP1 EXTCODESIZE ISZERO DUP1 ISZERO PUSH2 0x119 JUMPI PUSH0 PUSH0 REVERT JUMPDEST POP GAS CALL ISZERO DUP1 ISZERO PUSH2 0x12B JUMPI RETURNDATASIZE PUSH0 PUSH0 RETURNDATACOPY RETURNDATASIZE PUSH0 REVERT JUMPDEST POP POP POP POP POP POP POP POP POP POP PUSH2 0x2B7 JUMP JUMPDEST DUP1 MLOAD PUSH1 0x1 PUSH1 0x1 PUSH1 0xA0 SHL SUB DUP2 AND DUP2 EQ PUSH2 0x150 JUMPI PUSH0 PUSH0 REVERT JUMPDEST SWAP2 SWAP1 POP JUMP JUMPDEST PUSH4 0x4E487B71 PUSH1 0xE0 SHL PUSH0 MSTORE PUSH1 0x41 PUSH1 0x4 MSTORE PUSH1 0x24 PUSH0 REVERT JUMPDEST PUSH0 PUSH0 PUSH0 PUSH0 PUSH0 PUSH1 0xA0 DUP7 DUP9 SUB SLT ISZERO PUSH2 0x17D JUMPI PUSH0 PUSH0 REVERT JUMPDEST PUSH2 0x186 DUP7 PUSH2 0x13A JUMP JUMPDEST SWAP5 POP PUSH2 0x194 PUSH1 0x20 DUP8 ADD PUSH2 0x13A JUMP JUMPDEST SWAP4 POP PUSH2 0x1A2 PUSH1 0x40 DUP8 ADD PUSH2 0x13A JUMP JUMPDEST PUSH1 0x60 DUP8 ADD MLOAD SWAP1 SWAP4 POP PUSH1 0x1 PUSH1 0x1 PUSH1 0x40 SHL SUB DUP2 GT ISZERO PUSH2 0x1BD JUMPI PUSH0 PUSH0 REVERT JUMPDEST DUP7 ADD PUSH1 0x1F DUP2 ADD DUP9 SGT PUSH2 0x1CD JUMPI PUSH0 PUSH0 REVERT JUMPDEST DUP1 MLOAD PUSH1 0x1 PUSH1 0x1 PUSH1 0x40 SHL SUB DUP2 GT ISZERO PUSH2 0x1E6 JUMPI PUSH2 0x1E6 PUSH2 0x155 JUMP JUMPDEST PUSH1 0x40 MLOAD PUSH1 0x1F DUP3 ADD PUSH1 0x1F NOT SWAP1 DUP2 AND PUSH1 0x3F ADD AND DUP2 ADD PUSH1 0x1 PUSH1 0x1 PUSH1 0x40 SHL SUB DUP2 GT DUP3 DUP3 LT OR ISZERO PUSH2 0x214 JUMPI PUSH2 0x214 PUSH2 0x155 JUMP JUMPDEST PUSH1 0x40 MSTORE DUP2 DUP2 MSTORE DUP3 DUP3 ADD PUSH1 0x20 ADD DUP11 LT ISZERO PUSH2 0x22B JUMPI PUSH0 PUSH0 REVERT JUMPDEST DUP2 PUSH1 0x20 DUP5 ADD PUSH1 0x20 DUP4 ADD MCOPY PUSH0 SWAP2 DUP2 ADD PUSH1 0x20 ADD SWAP2 SWAP1 SWAP2 MSTORE PUSH1 0x80 SWAP8 SWAP1 SWAP8 ADD MLOAD SWAP6 SWAP9 SWAP5 SWAP8 POP SWAP3 SWAP6 SWAP5 SWAP4 SWAP3 POP POP POP JUMP JUMPDEST PUSH0 DUP3 MLOAD DUP1 PUSH1 0x20 DUP6 ADD DUP5 MCOPY PUSH9 0x2D7472656173757279 PUSH1 0xB8 SHL SWAP3 ADD SWAP2 DUP3 MSTORE POP PUSH1 0x9 ADD SWAP2 SWAP1 POP JUMP JUMPDEST PUSH1 0x40 DUP2 MSTORE PUSH0 DUP4 MLOAD DUP1 PUSH1 0x40 DUP5 ADD MSTORE DUP1 PUSH1 0x20 DUP7 ADD PUSH1 0x60 DUP6 ADD MCOPY PUSH0 PUSH1 0x60 DUP3 DUP6 ADD ADD MSTORE PUSH1 0x60 PUSH1 0x1F NOT PUSH1 0x1F DUP4 ADD AND DUP5 ADD ADD SWAP2 POP POP DUP3 PUSH1 0x20 DUP4 ADD MSTORE SWAP4 SWAP3 POP POP POP JUMP JUMPDEST PUSH1 0x80 MLOAD PUSH1 0xA0 MLOAD PUSH1 0xC0 MLOAD PUSH2 0x913 PUSH2 0x31F PUSH0 CODECOPY PUSH0 DUP2 DUP2 PUSH2 0x165 ADD MSTORE DUP2 DUP2 PUSH2 0x1DB ADD MSTORE DUP2 DUP2 PUSH2 0x2AD ADD MSTORE PUSH2 0x52F ADD MSTORE PUSH0 DUP2 DUP2 PUSH1 0xD3 ADD MSTORE PUSH2 0x22F ADD MSTORE PUSH0 DUP2 DUP2 PUSH2 0x112 ADD MSTORE DUP2 DUP2 PUSH2 0x2DA ADD MSTORE DUP2 DUP2 PUSH2 0x374 ADD MSTORE DUP2 DUP2 PUSH2 0x3E4 ADD MSTORE DUP2 DUP2 PUSH2 0x451 ADD MSTORE PUSH2 0x500 ADD MSTORE PUSH2 0x913 PUSH0 RETURN INVALID PUSH1 0x80 PUSH1 0x40 MSTORE CALLVALUE DUP1 ISZERO PUSH2 0xF JUMPI PUSH0 PUSH0 REVERT JUMPDEST POP PUSH1 0x4 CALLDATASIZE LT PUSH2 0x85 JUMPI PUSH0 CALLDATALOAD PUSH1 0xE0 SHR DUP1 PUSH4 0xA4C52B86 GT PUSH2 0x58 JUMPI DUP1 PUSH4 0xA4C52B86 EQ PUSH2 0x10D JUMPI DUP1 PUSH4 0xBC197C81 EQ PUSH2 0x134 JUMPI DUP1 PUSH4 0xE532B61D EQ PUSH2 0x160 JUMPI DUP1 PUSH4 0xF23A6E61 EQ PUSH2 0x187 JUMPI PUSH0 PUSH0 REVERT JUMPDEST DUP1 PUSH4 0x1FFC9A7 EQ PUSH2 0x89 JUMPI DUP1 PUSH4 0x3857D9D7 EQ PUSH2 0xB1 JUMPI DUP1 PUSH4 0x44DF8E70 EQ PUSH2 0xC6 JUMPI DUP1 PUSH4 0xA05C2616 EQ PUSH2 0xCE JUMPI JUMPDEST PUSH0 PUSH0 REVERT JUMPDEST PUSH2 0x9C PUSH2 0x97 CALLDATASIZE PUSH1 0x4 PUSH2 0x5FF JUMP JUMPDEST PUSH2 0x19A JUMP JUMPDEST PUSH1 0x40 MLOAD SWAP1 ISZERO ISZERO DUP2 MSTORE PUSH1 0x20 ADD JUMPDEST PUSH1 0x40 MLOAD DUP1 SWAP2 SUB SWAP1 RETURN JUMPDEST PUSH2 0xC4 PUSH2 0xBF CALLDATASIZE PUSH1 0x4 PUSH2 0x62D JUMP JUMPDEST PUSH2 0x1D0 JUMP JUMPDEST STOP JUMPDEST PUSH2 0xC4 PUSH2 0x291 JUMP JUMPDEST PUSH2 0xF5 PUSH32 0x0 DUP2 JUMP JUMPDEST PUSH1 0x40 MLOAD PUSH1 0x1 PUSH1 0x1 PUSH1 0xA0 SHL SUB SWAP1 SWAP2 AND DUP2 MSTORE PUSH1 0x20 ADD PUSH2 0xA8 JUMP JUMPDEST PUSH2 0xF5 PUSH32 0x0 DUP2 JUMP JUMPDEST PUSH2 0x147 PUSH2 0x142 CALLDATASIZE PUSH1 0x4 PUSH2 0x790 JUMP JUMPDEST PUSH2 0x3D8 JUMP JUMPDEST PUSH1 0x40 MLOAD PUSH1 0x1 PUSH1 0x1 PUSH1 0xE0 SHL SUB NOT SWAP1 SWAP2 AND DUP2 MSTORE PUSH1 0x20 ADD PUSH2 0xA8 JUMP JUMPDEST PUSH2 0xF5 PUSH32 0x0 DUP2 JUMP JUMPDEST PUSH2 0x147 PUSH2 0x195 CALLDATASIZE PUSH1 0x4 PUSH2 0x83F JUMP JUMPDEST PUSH2 0x445 JUMP JUMPDEST PUSH0 PUSH1 0x1 PUSH1 0x1 PUSH1 0xE0 SHL SUB NOT DUP3 AND PUSH4 0x2711897 PUSH1 0xE5 SHL EQ DUP1 PUSH2 0x1CA JUMPI POP PUSH4 0x1FFC9A7 PUSH1 0xE0 SHL PUSH1 0x1 PUSH1 0x1 PUSH1 0xE0 SHL SUB NOT DUP4 AND EQ JUMPDEST SWAP3 SWAP2 POP POP JUMP JUMPDEST CALLER PUSH1 0x1 PUSH1 0x1 PUSH1 0xA0 SHL SUB PUSH32 0x0 AND EQ PUSH2 0x219 JUMPI PUSH1 0x40 MLOAD PUSH4 0x6346B2B7 PUSH1 0xE0 SHL DUP2 MSTORE PUSH1 0x4 ADD PUSH1 0x40 MLOAD DUP1 SWAP2 SUB SWAP1 REVERT JUMPDEST PUSH1 0x40 MLOAD PUSH4 0x3857D9D7 PUSH1 0xE0 SHL DUP2 MSTORE PUSH1 0x4 DUP2 ADD DUP3 SWAP1 MSTORE PUSH32 0x0 PUSH1 0x1 PUSH1 0x1 PUSH1 0xA0 SHL SUB AND SWAP1 PUSH4 0x3857D9D7 SWAP1 PUSH1 0x24 ADD PUSH0 PUSH1 0x40 MLOAD DUP1 DUP4 SUB DUP2 PUSH0 DUP8 DUP1 EXTCODESIZE ISZERO DUP1 ISZERO PUSH2 0x278 JUMPI PUSH0 PUSH0 REVERT JUMPDEST POP GAS CALL ISZERO DUP1 ISZERO PUSH2 0x28A JUMPI RETURNDATASIZE PUSH0 PUSH0 RETURNDATACOPY RETURNDATASIZE PUSH0 REVERT JUMPDEST POP POP POP POP POP JUMP JUMPDEST PUSH1 0x40 MLOAD PUSH3 0x7EEAC7 PUSH1 0xE1 SHL DUP2 MSTORE ADDRESS PUSH1 0x4 DUP3 ADD MSTORE PUSH1 0x1 PUSH1 0x1 PUSH1 0xA0 SHL SUB PUSH32 0x0 DUP2 AND PUSH1 0x24 DUP4 ADD DUP2 SWAP1 MSTORE SWAP2 PUSH0 SWAP2 PUSH32 0x0 AND SWAP1 PUSH3 0xFDD58E SWAP1 PUSH1 0x44 ADD PUSH1 0x20 PUSH1 0x40 MLOAD DUP1 DUP4 SUB DUP2 DUP7 GAS STATICCALL ISZERO DUP1 ISZERO PUSH2 0x31E JUMPI RETURNDATASIZE PUSH0 PUSH0 RETURNDATACOPY RETURNDATASIZE PUSH0 REVERT JUMPDEST POP POP POP POP PUSH1 0x40 MLOAD RETURNDATASIZE PUSH1 0x1F NOT PUSH1 0x1F DUP3 ADD AND DUP3 ADD DUP1 PUSH1 0x40 MSTORE POP DUP2 ADD SWAP1 PUSH2 0x342 SWAP2 SWAP1 PUSH2 0x893 JUMP JUMPDEST SWAP1 POP DUP1 ISZERO PUSH2 0x3D4 JUMPI PUSH1 0x40 MLOAD PUSH4 0x80A5A371 PUSH1 0xE0 SHL DUP2 MSTORE PUSH1 0x4 DUP2 ADD DUP4 SWAP1 MSTORE PUSH1 0x24 DUP2 ADD DUP3 SWAP1 MSTORE PUSH1 0x60 PUSH1 0x44 DUP3 ADD MSTORE PUSH0 PUSH1 0x64 DUP3 ADD MSTORE PUSH32 0x0 PUSH1 0x1 PUSH1 0x1 PUSH1 0xA0 SHL SUB AND SWAP1 PUSH4 0x80A5A371 SWAP1 PUSH1 0x84 ADD PUSH0 PUSH1 0x40 MLOAD DUP1 DUP4 SUB DUP2 PUSH0 DUP8 DUP1 EXTCODESIZE ISZERO DUP1 ISZERO PUSH2 0x3BD JUMPI PUSH0 PUSH0 REVERT JUMPDEST POP GAS CALL ISZERO DUP1 ISZERO PUSH2 0x3CF JUMPI RETURNDATASIZE PUSH0 PUSH0 RETURNDATACOPY RETURNDATASIZE PUSH0 REVERT JUMPDEST POP POP POP POP JUMPDEST POP POP JUMP JUMPDEST PUSH0 CALLER PUSH1 0x1 PUSH1 0x1 PUSH1 0xA0 SHL SUB PUSH32 0x0 AND EQ PUSH2 0x422 JUMPI PUSH1 0x40 MLOAD PUSH4 0x58A7C73 PUSH1 0xE3 SHL DUP2 MSTORE PUSH1 0x4 ADD PUSH1 0x40 MLOAD DUP1 SWAP2 SUB SWAP1 REVERT JUMPDEST PUSH2 0x42B DUP5 PUSH2 0x4F3 JUMP JUMPDEST PUSH2 0x433 PUSH2 0x291 JUMP JUMPDEST POP PUSH4 0xBC197C81 PUSH1 0xE0 SHL SWAP6 SWAP5 POP POP POP POP POP JUMP JUMPDEST PUSH0 CALLER PUSH1 0x1 PUSH1 0x1 PUSH1 0xA0 SHL SUB PUSH32 0x0 AND EQ PUSH2 0x48F JUMPI PUSH1 0x40 MLOAD PUSH4 0x58A7C73 PUSH1 0xE3 SHL DUP2 MSTORE PUSH1 0x4 ADD PUSH1 0x40 MLOAD DUP1 SWAP2 SUB SWAP1 REVERT JUMPDEST PUSH1 0x40 DUP1 MLOAD PUSH1 0x1 DUP1 DUP3 MSTORE DUP2 DUP4 ADD SWAP1 SWAP3 MSTORE PUSH0 SWAP2 PUSH1 0x20 DUP1 DUP4 ADD SWAP1 DUP1 CALLDATASIZE DUP4 CALLDATACOPY ADD SWAP1 POP POP SWAP1 POP DUP5 DUP2 PUSH0 DUP2 MLOAD DUP2 LT PUSH2 0x4C3 JUMPI PUSH2 0x4C3 PUSH2 0x8AA JUMP JUMPDEST PUSH1 0x20 MUL PUSH1 0x20 ADD ADD DUP2 DUP2 MSTORE POP POP PUSH2 0x4D8 DUP2 PUSH2 0x4F3 JUMP JUMPDEST PUSH2 0x4E0 PUSH2 0x291 JUMP JUMPDEST POP PUSH4 0xF23A6E61 PUSH1 0xE0 SHL SWAP7 SWAP6 POP POP POP POP POP POP JUMP JUMPDEST PUSH0 JUMPDEST DUP2 MLOAD DUP2 LT ISZERO PUSH2 0x3D4 JUMPI PUSH32 0x0 PUSH1 0x1 PUSH1 0x1 PUSH1 0xA0 SHL SUB AND PUSH4 0x6713E230 PUSH32 0x0 DUP5 DUP5 DUP2 MLOAD DUP2 LT PUSH2 0x560 JUMPI PUSH2 0x560 PUSH2 0x8AA JUMP JUMPDEST PUSH1 0x20 MUL PUSH1 0x20 ADD ADD MLOAD PUSH1 0x40 MLOAD DUP4 PUSH4 0xFFFFFFFF AND PUSH1 0xE0 SHL DUP2 MSTORE PUSH1 0x4 ADD PUSH2 0x59A SWAP3 SWAP2 SWAP1 PUSH1 0x1 PUSH1 0x1 PUSH1 0xA0 SHL SUB SWAP3 DUP4 AND DUP2 MSTORE SWAP2 AND PUSH1 0x20 DUP3 ADD MSTORE PUSH1 0x40 ADD SWAP1 JUMP JUMPDEST PUSH1 0x20 PUSH1 0x40 MLOAD DUP1 DUP4 SUB DUP2 PUSH0 DUP8 GAS CALL ISZERO DUP1 ISZERO PUSH2 0x5B6 JUMPI RETURNDATASIZE PUSH0 PUSH0 RETURNDATACOPY RETURNDATASIZE PUSH0 REVERT JUMPDEST POP POP POP POP PUSH1 0x40 MLOAD RETURNDATASIZE PUSH1 0x1F NOT PUSH1 0x1F DUP3 ADD AND DUP3 ADD DUP1 PUSH1 0x40 MSTORE POP DUP2 ADD SWAP1 PUSH2 0x5DA SWAP2 SWAP1 PUSH2 0x8BE JUMP JUMPDEST PUSH2 0x5F7 JUMPI PUSH1 0x40 MLOAD PUSH4 0x1C74BB57 PUSH1 0xE1 SHL DUP2 MSTORE PUSH1 0x4 ADD PUSH1 0x40 MLOAD DUP1 SWAP2 SUB SWAP1 REVERT JUMPDEST PUSH1 0x1 ADD PUSH2 0x4F5 JUMP JUMPDEST PUSH0 PUSH1 0x20 DUP3 DUP5 SUB SLT ISZERO PUSH2 0x60F JUMPI PUSH0 PUSH0 REVERT JUMPDEST DUP2 CALLDATALOAD PUSH1 0x1 PUSH1 0x1 PUSH1 0xE0 SHL SUB NOT DUP2 AND DUP2 EQ PUSH2 0x626 JUMPI PUSH0 PUSH0 REVERT JUMPDEST SWAP4 SWAP3 POP POP POP JUMP JUMPDEST PUSH0 PUSH1 0x20 DUP3 DUP5 SUB SLT ISZERO PUSH2 0x63D JUMPI PUSH0 PUSH0 REVERT JUMPDEST POP CALLDATALOAD SWAP2 SWAP1 POP JUMP JUMPDEST DUP1 CALLDATALOAD PUSH1 0x1 PUSH1 0x1 PUSH1 0xA0 SHL SUB DUP2 AND DUP2 EQ PUSH2 0x65A JUMPI PUSH0 PUSH0 REVERT JUMPDEST SWAP2 SWAP1 POP JUMP JUMPDEST PUSH4 0x4E487B71 PUSH1 0xE0 SHL PUSH0 MSTORE PUSH1 0x41 PUSH1 0x4 MSTORE PUSH1 0x24 PUSH0 REVERT JUMPDEST PUSH1 0x40 MLOAD PUSH1 0x1F DUP3 ADD PUSH1 0x1F NOT AND DUP2 ADD PUSH8 0xFFFFFFFFFFFFFFFF DUP2 GT DUP3 DUP3 LT OR ISZERO PUSH2 0x69C JUMPI PUSH2 0x69C PUSH2 0x65F JUMP JUMPDEST PUSH1 0x40 MSTORE SWAP2 SWAP1 POP JUMP JUMPDEST PUSH0 DUP3 PUSH1 0x1F DUP4 ADD SLT PUSH2 0x6B3 JUMPI PUSH0 PUSH0 REVERT JUMPDEST DUP2 CALLDATALOAD PUSH8 0xFFFFFFFFFFFFFFFF DUP2 GT ISZERO PUSH2 0x6CD JUMPI PUSH2 0x6CD PUSH2 0x65F JUMP JUMPDEST DUP1 PUSH1 0x5 SHL PUSH2 0x6DD PUSH1 0x20 DUP3 ADD PUSH2 0x673 JUMP JUMPDEST SWAP2 DUP3 MSTORE PUSH1 0x20 DUP2 DUP6 ADD DUP2 ADD SWAP3 SWAP1 DUP2 ADD SWAP1 DUP7 DUP5 GT ISZERO PUSH2 0x6F8 JUMPI PUSH0 PUSH0 REVERT JUMPDEST PUSH1 0x20 DUP7 ADD SWAP3 POP JUMPDEST DUP4 DUP4 LT ISZERO PUSH2 0x71A JUMPI DUP3 CALLDATALOAD DUP3 MSTORE PUSH1 0x20 SWAP3 DUP4 ADD SWAP3 SWAP1 SWAP2 ADD SWAP1 PUSH2 0x6FF JUMP JUMPDEST SWAP7 SWAP6 POP POP POP POP POP POP JUMP JUMPDEST PUSH0 DUP3 PUSH1 0x1F DUP4 ADD SLT PUSH2 0x733 JUMPI PUSH0 PUSH0 REVERT JUMPDEST DUP2 CALLDATALOAD PUSH8 0xFFFFFFFFFFFFFFFF DUP2 GT ISZERO PUSH2 0x74D JUMPI PUSH2 0x74D PUSH2 0x65F JUMP JUMPDEST PUSH2 0x760 PUSH1 0x1F DUP3 ADD PUSH1 0x1F NOT AND PUSH1 0x20 ADD PUSH2 0x673 JUMP JUMPDEST DUP2 DUP2 MSTORE DUP5 PUSH1 0x20 DUP4 DUP7 ADD ADD GT ISZERO PUSH2 0x774 JUMPI PUSH0 PUSH0 REVERT JUMPDEST DUP2 PUSH1 0x20 DUP6 ADD PUSH1 0x20 DUP4 ADD CALLDATACOPY PUSH0 SWAP2 DUP2 ADD PUSH1 0x20 ADD SWAP2 SWAP1 SWAP2 MSTORE SWAP4 SWAP3 POP POP POP JUMP JUMPDEST PUSH0 PUSH0 PUSH0 PUSH0 PUSH0 PUSH1 0xA0 DUP7 DUP9 SUB SLT ISZERO PUSH2 0x7A4 JUMPI PUSH0 PUSH0 REVERT JUMPDEST PUSH2 0x7AD DUP7 PUSH2 0x644 JUMP JUMPDEST SWAP5 POP PUSH2 0x7BB PUSH1 0x20 DUP8 ADD PUSH2 0x644 JUMP JUMPDEST SWAP4 POP PUSH1 0x40 DUP7 ADD CALLDATALOAD PUSH8 0xFFFFFFFFFFFFFFFF DUP2 GT ISZERO PUSH2 0x7D6 JUMPI PUSH0 PUSH0 REVERT JUMPDEST PUSH2 0x7E2 DUP9 DUP3 DUP10 ADD PUSH2 0x6A4 JUMP JUMPDEST SWAP4 POP POP PUSH1 0x60 DUP7 ADD CALLDATALOAD PUSH8 0xFFFFFFFFFFFFFFFF DUP2 GT ISZERO PUSH2 0x7FE JUMPI PUSH0 PUSH0 REVERT JUMPDEST PUSH2 0x80A DUP9 DUP3 DUP10 ADD PUSH2 0x6A4 JUMP JUMPDEST SWAP3 POP POP PUSH1 0x80 DUP7 ADD CALLDATALOAD PUSH8 0xFFFFFFFFFFFFFFFF DUP2 GT ISZERO PUSH2 0x826 JUMPI PUSH0 PUSH0 REVERT JUMPDEST PUSH2 0x832 DUP9 DUP3 DUP10 ADD PUSH2 0x724 JUMP JUMPDEST SWAP2 POP POP SWAP3 SWAP6 POP SWAP3 SWAP6 SWAP1 SWAP4 POP JUMP JUMPDEST PUSH0 PUSH0 PUSH0 PUSH0 PUSH0 PUSH1 0xA0 DUP7 DUP9 SUB SLT ISZERO PUSH2 0x853 JUMPI PUSH0 PUSH0 REVERT JUMPDEST PUSH2 0x85C DUP7 PUSH2 0x644 JUMP JUMPDEST SWAP5 POP PUSH2 0x86A PUSH1 0x20 DUP8 ADD PUSH2 0x644 JUMP JUMPDEST SWAP4 POP PUSH1 0x40 DUP7 ADD CALLDATALOAD SWAP3 POP PUSH1 0x60 DUP7 ADD CALLDATALOAD SWAP2 POP PUSH1 0x80 DUP7 ADD CALLDATALOAD PUSH8 0xFFFFFFFFFFFFFFFF DUP2 GT ISZERO PUSH2 0x826 JUMPI PUSH0 PUSH0 REVERT JUMPDEST PUSH0 PUSH1 0x20 DUP3 DUP5 SUB SLT ISZERO PUSH2 0x8A3 JUMPI PUSH0 PUSH0 REVERT JUMPDEST POP MLOAD SWAP2 SWAP1 POP JUMP JUMPDEST PUSH4 0x4E487B71 PUSH1 0xE0 SHL PUSH0 MSTORE PUSH1 0x32 PUSH1 0x4 MSTORE PUSH1 0x24 PUSH0 REVERT JUMPDEST PUSH0 PUSH1 0x20 DUP3 DUP5 SUB SLT ISZERO PUSH2 0x8CE JUMPI PUSH0 PUSH0 REVERT JUMPDEST DUP2 MLOAD DUP1 ISZERO ISZERO DUP2 EQ PUSH2 0x626 JUMPI PUSH0 PUSH0 REVERT INVALID LOG2 PUSH5 0x6970667358 0x22 SLT KECCAK256 SWAP3 OR SWAP1 0x4D LT ADDRESS 0xE6 CALLDATASIZE CHAINID DUP11 0xAB 0x23 PUSH20 0x2C0A7DA124F4E37962B7534B7440189DDE9AE64 PUSH20 0x6F6C634300081C00336101406040523480156100 LT JUMPI PUSH0 PUSH0 REVERT JUMPDEST POP PUSH1 0x40 MLOAD PUSH2 0x1659 CODESIZE SUB DUP1 PUSH2 0x1659 DUP4 CODECOPY DUP2 ADD PUSH1 0x40 DUP2 SWAP1 MSTORE PUSH2 0x2F SWAP2 PUSH2 0x118 JUMP JUMPDEST PUSH1 0x1 PUSH1 0x1 PUSH1 0xA0 SHL SUB DUP1 DUP9 AND PUSH1 0x80 MSTORE DUP7 DUP2 AND PUSH1 0xA0 MSTORE DUP6 DUP2 AND PUSH1 0xC0 DUP2 SWAP1 MSTORE PUSH1 0xE0 MSTORE DUP5 DUP2 AND PUSH2 0x100 MSTORE DUP4 AND PUSH2 0x120 MSTORE PUSH1 0x40 MLOAD PUSH0 SWAP1 PUSH2 0x6E SWAP1 DUP5 SWAP1 PUSH1 0x20 ADD PUSH2 0x228 JUMP JUMPDEST PUSH1 0x40 DUP1 MLOAD PUSH1 0x1F NOT DUP2 DUP5 SUB ADD DUP2 MSTORE SWAP1 DUP3 SWAP1 MSTORE PUSH1 0x80 MLOAD PUSH4 0xBFDE380D PUSH1 0xE0 SHL DUP4 MSTORE SWAP1 SWAP3 POP PUSH1 0x1 PUSH1 0x1 PUSH1 0xA0 SHL SUB AND SWAP1 PUSH4 0xBFDE380D SWAP1 PUSH2 0xAF SWAP1 DUP5 SWAP1 DUP7 SWAP1 PUSH1 0x4 ADD PUSH2 0x251 JUMP JUMPDEST PUSH0 PUSH1 0x40 MLOAD DUP1 DUP4 SUB DUP2 PUSH0 DUP8 DUP1 EXTCODESIZE ISZERO DUP1 ISZERO PUSH2 0xC6 JUMPI PUSH0 PUSH0 REVERT JUMPDEST POP GAS CALL ISZERO DUP1 ISZERO PUSH2 0xD8 JUMPI RETURNDATASIZE PUSH0 PUSH0 RETURNDATACOPY RETURNDATASIZE PUSH0 REVERT JUMPDEST POP POP POP POP POP POP POP POP POP POP POP POP PUSH2 0x28D JUMP JUMPDEST DUP1 MLOAD PUSH1 0x1 PUSH1 0x1 PUSH1 0xA0 SHL SUB DUP2 AND DUP2 EQ PUSH2 0xFF JUMPI PUSH0 PUSH0 REVERT JUMPDEST SWAP2 SWAP1 POP JUMP JUMPDEST PUSH4 0x4E487B71 PUSH1 0xE0 SHL PUSH0 MSTORE PUSH1 0x41 PUSH1 0x4 MSTORE PUSH1 0x24 PUSH0 REVERT JUMPDEST PUSH0 PUSH0 PUSH0 PUSH0 PUSH0 PUSH0 PUSH0 PUSH1 0xE0 DUP9 DUP11 SUB SLT ISZERO PUSH2 0x12E JUMPI PUSH0 PUSH0 REVERT JUMPDEST PUSH2 0x137 DUP9 PUSH2 0xE9 JUMP JUMPDEST SWAP7 POP PUSH2 0x145 PUSH1 0x20 DUP10 ADD PUSH2 0xE9 JUMP JUMPDEST SWAP6 POP PUSH2 0x153 PUSH1 0x40 DUP10 ADD PUSH2 0xE9 JUMP JUMPDEST SWAP5 POP PUSH2 0x161 PUSH1 0x60 DUP10 ADD PUSH2 0xE9 JUMP JUMPDEST SWAP4 POP PUSH2 0x16F PUSH1 0x80 DUP10 ADD PUSH2 0xE9 JUMP JUMPDEST PUSH1 0xA0 DUP10 ADD MLOAD SWAP1 SWAP4 POP PUSH1 0x1 PUSH1 0x1 PUSH1 0x40 SHL SUB DUP2 GT ISZERO PUSH2 0x18A JUMPI PUSH0 PUSH0 REVERT JUMPDEST DUP9 ADD PUSH1 0x1F DUP2 ADD DUP11 SGT PUSH2 0x19A JUMPI PUSH0 PUSH0 REVERT JUMPDEST DUP1 MLOAD PUSH1 0x1 PUSH1 0x1 PUSH1 0x40 SHL SUB DUP2 GT ISZERO PUSH2 0x1B3 JUMPI PUSH2 0x1B3 PUSH2 0x104 JUMP JUMPDEST PUSH1 0x40 MLOAD PUSH1 0x1F DUP3 ADD PUSH1 0x1F NOT SWAP1 DUP2 AND PUSH1 0x3F ADD AND DUP2 ADD PUSH1 0x1 PUSH1 0x1 PUSH1 0x40 SHL SUB DUP2 GT DUP3 DUP3 LT OR ISZERO PUSH2 0x1E1 JUMPI PUSH2 0x1E1 PUSH2 0x104 JUMP JUMPDEST PUSH1 0x40 MSTORE DUP2 DUP2 MSTORE DUP3 DUP3 ADD PUSH1 0x20 ADD DUP13 LT ISZERO PUSH2 0x1F8 JUMPI PUSH0 PUSH0 REVERT JUMPDEST DUP2 PUSH1 0x20 DUP5 ADD PUSH1 0x20 DUP4 ADD MCOPY PUSH0 PUSH1 0x20 DUP4 DUP4 ADD ADD MSTORE DUP1 SWAP5 POP POP POP POP PUSH0 PUSH1 0xC0 DUP10 ADD MLOAD SWAP1 POP DUP1 SWAP2 POP POP SWAP3 SWAP6 SWAP9 SWAP2 SWAP5 SWAP8 POP SWAP3 SWAP6 POP JUMP JUMPDEST PUSH0 DUP3 MLOAD DUP1 PUSH1 0x20 DUP6 ADD DUP5 MCOPY PUSH13 0x16B6B4B73A16B430B7323632B9 PUSH1 0x99 SHL SWAP3 ADD SWAP2 DUP3 MSTORE POP PUSH1 0xD ADD SWAP2 SWAP1 POP JUMP JUMPDEST PUSH1 0x40 DUP2 MSTORE PUSH0 DUP4 MLOAD DUP1 PUSH1 0x40 DUP5 ADD MSTORE DUP1 PUSH1 0x20 DUP7 ADD PUSH1 0x60 DUP6 ADD MCOPY PUSH0 PUSH1 0x60 DUP3 DUP6 ADD ADD MSTORE PUSH1 0x60 PUSH1 0x1F NOT PUSH1 0x1F DUP4 ADD AND DUP5 ADD ADD SWAP2 POP POP DUP3 PUSH1 0x20 DUP4 ADD MSTORE SWAP4 SWAP3 POP POP POP JUMP JUMPDEST PUSH1 0x80 MLOAD PUSH1 0xA0 MLOAD PUSH1 0xC0 MLOAD PUSH1 0xE0 MLOAD PUSH2 0x100 MLOAD PUSH2 0x120 MLOAD PUSH2 0x130E PUSH2 0x34B PUSH0 CODECOPY PUSH0 DUP2 DUP2 PUSH2 0x287 ADD MSTORE PUSH2 0x82F ADD MSTORE PUSH0 DUP2 DUP2 PUSH2 0x16D ADD MSTORE PUSH2 0x855 ADD MSTORE PUSH0 DUP2 DUP2 PUSH2 0x146 ADD MSTORE DUP2 DUP2 PUSH2 0x748 ADD MSTORE PUSH2 0x7C6 ADD MSTORE PUSH0 DUP2 DUP2 PUSH2 0x260 ADD MSTORE DUP2 DUP2 PUSH2 0x2FD ADD MSTORE DUP2 DUP2 PUSH2 0x55C ADD MSTORE DUP2 DUP2 PUSH2 0x5D8 ADD MSTORE DUP2 DUP2 PUSH2 0x913 ADD MSTORE PUSH2 0xBE7 ADD MSTORE PUSH0 DUP2 DUP2 PUSH2 0x1AC ADD MSTORE PUSH2 0x351 ADD MSTORE PUSH0 DUP2 DUP2 PUSH2 0x1D3 ADD MSTORE DUP2 DUP2 PUSH2 0x3BF ADD MSTORE DUP2 DUP2 PUSH2 0x52F ADD MSTORE DUP2 DUP2 PUSH2 0x649 ADD MSTORE DUP2 DUP2 PUSH2 0x6B0 ADD MSTORE DUP2 DUP2 PUSH2 0x795 ADD MSTORE DUP2 DUP2 PUSH2 0x8EC ADD MSTORE PUSH2 0xBBA ADD MSTORE PUSH2 0x130E PUSH0 RETURN INVALID PUSH1 0x80 PUSH1 0x40 MSTORE CALLVALUE DUP1 ISZERO PUSH2 0xF JUMPI PUSH0 PUSH0 REVERT JUMPDEST POP PUSH1 0x4 CALLDATASIZE LT PUSH2 0xCB JUMPI PUSH0 CALLDATALOAD PUSH1 0xE0 SHR DUP1 PUSH4 0xA4C52B86 GT PUSH2 0x88 JUMPI DUP1 PUSH4 0xC878FE95 GT PUSH2 0x63 JUMPI DUP1 PUSH4 0xC878FE95 EQ PUSH2 0x248 JUMPI DUP1 PUSH4 0xE532B61D EQ PUSH2 0x25B JUMPI DUP1 PUSH4 0xF07108A0 EQ PUSH2 0x282 JUMPI DUP1 PUSH4 0xF23A6E61 EQ PUSH2 0x2A9 JUMPI PUSH0 PUSH0 REVERT JUMPDEST DUP1 PUSH4 0xA4C52B86 EQ PUSH2 0x1CE JUMPI DUP1 PUSH4 0xA855A717 EQ PUSH2 0x1F5 JUMPI DUP1 PUSH4 0xBC197C81 EQ PUSH2 0x21C JUMPI PUSH0 PUSH0 REVERT JUMPDEST DUP1 PUSH4 0x1FFC9A7 EQ PUSH2 0xCF JUMPI DUP1 PUSH4 0x33F7354 EQ PUSH2 0xF7 JUMPI DUP1 PUSH4 0x3857D9D7 EQ PUSH2 0x12C JUMPI DUP1 PUSH4 0x4DD9C0B5 EQ PUSH2 0x141 JUMPI DUP1 PUSH4 0x6604495E EQ PUSH2 0x168 JUMPI DUP1 PUSH4 0xA05C2616 EQ PUSH2 0x1A7 JUMPI JUMPDEST PUSH0 PUSH0 REVERT JUMPDEST PUSH2 0xE2 PUSH2 0xDD CALLDATASIZE PUSH1 0x4 PUSH2 0xE04 JUMP JUMPDEST PUSH2 0x2BC JUMP JUMPDEST PUSH1 0x40 MLOAD SWAP1 ISZERO ISZERO DUP2 MSTORE PUSH1 0x20 ADD JUMPDEST PUSH1 0x40 MLOAD DUP1 SWAP2 SUB SWAP1 RETURN JUMPDEST PUSH2 0x11E PUSH32 0xF3F5858942140FD2894EEB8B74CD0ED72D24FC6675D352A2884B1BE2F32256FE DUP2 JUMP JUMPDEST PUSH1 0x40 MLOAD SWAP1 DUP2 MSTORE PUSH1 0x20 ADD PUSH2 0xEE JUMP JUMPDEST PUSH2 0x13F PUSH2 0x13A CALLDATASIZE PUSH1 0x4 PUSH2 0xE32 JUMP JUMPDEST PUSH2 0x2F2 JUMP JUMPDEST STOP JUMPDEST PUSH2 0x11E PUSH32 0x0 DUP2 JUMP JUMPDEST PUSH2 0x18F PUSH32 0x0 DUP2 JUMP JUMPDEST PUSH1 0x40 MLOAD PUSH1 0x1 PUSH1 0x1 PUSH1 0xA0 SHL SUB SWAP1 SWAP2 AND DUP2 MSTORE PUSH1 0x20 ADD PUSH2 0xEE JUMP JUMPDEST PUSH2 0x18F PUSH32 0x0 DUP2 JUMP JUMPDEST PUSH2 0x18F PUSH32 0x0 DUP2 JUMP JUMPDEST PUSH2 0x11E PUSH32 0x9D28938B56C0E8AAE8DD05E12461CBABF8F699236C3FD7C54C7D3BB9FB443ED2 DUP2 JUMP JUMPDEST PUSH2 0x22F PUSH2 0x22A CALLDATASIZE PUSH1 0x4 PUSH2 0xF91 JUMP JUMPDEST PUSH2 0x3B3 JUMP JUMPDEST PUSH1 0x40 MLOAD PUSH1 0x1 PUSH1 0x1 PUSH1 0xE0 SHL SUB NOT SWAP1 SWAP2 AND DUP2 MSTORE PUSH1 0x20 ADD PUSH2 0xEE JUMP JUMPDEST PUSH2 0x13F PUSH2 0x256 CALLDATASIZE PUSH1 0x4 PUSH2 0x1044 JUMP JUMPDEST PUSH2 0x5CD JUMP JUMPDEST PUSH2 0x18F PUSH32 0x0 DUP2 JUMP JUMPDEST PUSH2 0x18F PUSH32 0x0 DUP2 JUMP JUMPDEST PUSH2 0x22F PUSH2 0x2B7 CALLDATASIZE PUSH1 0x4 PUSH2 0x108B JUMP JUMPDEST PUSH2 0x6A4 JUMP JUMPDEST PUSH0 PUSH1 0x1 PUSH1 0x1 PUSH1 0xE0 SHL SUB NOT DUP3 AND PUSH4 0x2711897 PUSH1 0xE5 SHL EQ DUP1 PUSH2 0x2EC JUMPI POP PUSH4 0x1FFC9A7 PUSH1 0xE0 SHL PUSH1 0x1 PUSH1 0x1 PUSH1 0xE0 SHL SUB NOT DUP4 AND EQ JUMPDEST SWAP3 SWAP2 POP POP JUMP JUMPDEST CALLER PUSH1 0x1 PUSH1 0x1 PUSH1 0xA0 SHL SUB PUSH32 0x0 AND EQ PUSH2 0x33B JUMPI PUSH1 0x40 MLOAD PUSH4 0x6346B2B7 PUSH1 0xE0 SHL DUP2 MSTORE PUSH1 0x4 ADD PUSH1 0x40 MLOAD DUP1 SWAP2 SUB SWAP1 REVERT JUMPDEST PUSH1 0x40 MLOAD PUSH4 0x3857D9D7 PUSH1 0xE0 SHL DUP2 MSTORE PUSH1 0x4 DUP2 ADD DUP3 SWAP1 MSTORE PUSH32 0x0 PUSH1 0x1 PUSH1 0x1 PUSH1 0xA0 SHL SUB AND SWAP1 PUSH4 0x3857D9D7 SWAP1 PUSH1 0x24 ADD PUSH0 PUSH1 0x40 MLOAD DUP1 DUP4 SUB DUP2 PUSH0 DUP8 DUP1 EXTCODESIZE ISZERO DUP1 ISZERO PUSH2 0x39A JUMPI PUSH0 PUSH0 REVERT JUMPDEST POP GAS CALL ISZERO DUP1 ISZERO PUSH2 0x3AC JUMPI RETURNDATASIZE PUSH0 PUSH0 RETURNDATACOPY RETURNDATASIZE PUSH0 REVERT JUMPDEST POP POP POP POP POP JUMP JUMPDEST PUSH0 CALLER PUSH1 0x1 PUSH1 0x1 PUSH1 0xA0 SHL SUB PUSH32 0x0 AND EQ PUSH2 0x3FD JUMPI PUSH1 0x40 MLOAD PUSH4 0x58A7C73 PUSH1 0xE3 SHL DUP2 MSTORE PUSH1 0x4 ADD PUSH1 0x40 MLOAD DUP1 SWAP2 SUB SWAP1 REVERT JUMPDEST PUSH1 0x1 PUSH1 0x1 PUSH1 0xA0 SHL SUB DUP6 AND PUSH2 0x424 JUMPI PUSH1 0x40 MLOAD PUSH4 0xCAC5BFFB PUSH1 0xE0 SHL DUP2 MSTORE PUSH1 0x4 ADD PUSH1 0x40 MLOAD DUP1 SWAP2 SUB SWAP1 REVERT JUMPDEST DUP3 MLOAD DUP5 MLOAD EQ PUSH2 0x446 JUMPI PUSH1 0x40 MLOAD PUSH4 0xCAC5BFFB PUSH1 0xE0 SHL DUP2 MSTORE PUSH1 0x4 ADD PUSH1 0x40 MLOAD DUP1 SWAP2 SUB SWAP1 REVERT JUMPDEST PUSH0 PUSH0 DUP6 MLOAD PUSH8 0xFFFFFFFFFFFFFFFF DUP2 GT ISZERO PUSH2 0x462 JUMPI PUSH2 0x462 PUSH2 0xE60 JUMP JUMPDEST PUSH1 0x40 MLOAD SWAP1 DUP1 DUP3 MSTORE DUP1 PUSH1 0x20 MUL PUSH1 0x20 ADD DUP3 ADD PUSH1 0x40 MSTORE DUP1 ISZERO PUSH2 0x48B JUMPI DUP2 PUSH1 0x20 ADD PUSH1 0x20 DUP3 MUL DUP1 CALLDATASIZE DUP4 CALLDATACOPY ADD SWAP1 POP JUMPDEST POP SWAP1 POP PUSH0 JUMPDEST DUP7 MLOAD DUP2 LT ISZERO PUSH2 0x50C JUMPI DUP6 DUP2 DUP2 MLOAD DUP2 LT PUSH2 0x4AB JUMPI PUSH2 0x4AB PUSH2 0x10E3 JUMP JUMPDEST PUSH1 0x20 MUL PUSH1 0x20 ADD ADD MLOAD DUP4 PUSH2 0x4BE SWAP2 SWAP1 PUSH2 0x110B JUMP JUMPDEST SWAP3 POP DUP7 DUP2 DUP2 MLOAD DUP2 LT PUSH2 0x4D2 JUMPI PUSH2 0x4D2 PUSH2 0x10E3 JUMP JUMPDEST PUSH1 0x20 MUL PUSH1 0x20 ADD ADD MLOAD DUP3 DUP3 DUP2 MLOAD DUP2 LT PUSH2 0x4EC JUMPI PUSH2 0x4EC PUSH2 0x10E3 JUMP JUMPDEST PUSH1 0x1 PUSH1 0x1 PUSH1 0xA0 SHL SUB SWAP1 SWAP3 AND PUSH1 0x20 SWAP3 DUP4 MUL SWAP2 SWAP1 SWAP2 ADD SWAP1 SWAP2 ADD MSTORE PUSH1 0x1 ADD PUSH2 0x490 JUMP JUMPDEST POP PUSH2 0x518 DUP8 DUP4 DUP7 PUSH2 0xC56 JUMP JUMPDEST PUSH1 0x40 MLOAD PUSH4 0x6CB498E5 PUSH1 0xE0 SHL DUP2 MSTORE PUSH1 0x1 PUSH1 0x1 PUSH1 0xA0 SHL SUB PUSH32 0x0 AND SWAP1 PUSH4 0x6CB498E5 SWAP1 PUSH2 0x58A SWAP1 PUSH32 0x0 SWAP1 DUP6 SWAP1 DUP11 SWAP1 DUP11 SWAP1 PUSH1 0x4 ADD PUSH2 0x114C JUMP JUMPDEST PUSH0 PUSH1 0x40 MLOAD DUP1 DUP4 SUB DUP2 PUSH0 DUP8 DUP1 EXTCODESIZE ISZERO DUP1 ISZERO PUSH2 0x5A1 JUMPI PUSH0 PUSH0 REVERT JUMPDEST POP GAS CALL ISZERO DUP1 ISZERO PUSH2 0x5B3 JUMPI RETURNDATASIZE PUSH0 PUSH0 RETURNDATACOPY RETURNDATASIZE PUSH0 REVERT JUMPDEST POP PUSH4 0xBC197C81 PUSH1 0xE0 SHL SWAP6 POP POP POP POP POP POP JUMPDEST SWAP6 SWAP5 POP POP POP POP POP JUMP JUMPDEST CALLER PUSH1 0x1 PUSH1 0x1 PUSH1 0xA0 SHL SUB PUSH32 0x0 AND EQ PUSH2 0x616 JUMPI PUSH1 0x40 MLOAD PUSH4 0x6346B2B7 PUSH1 0xE0 SHL DUP2 MSTORE PUSH1 0x4 ADD PUSH1 0x40 MLOAD DUP1 SWAP2 SUB SWAP1 REVERT JUMPDEST PUSH1 0x40 MLOAD PUSH4 0x75DCEBC7 PUSH1 0xE0 SHL DUP2 MSTORE PUSH1 0x1 PUSH1 0x1 PUSH1 0xA0 SHL SUB DUP4 DUP2 AND PUSH1 0x4 DUP4 ADD MSTORE PUSH12 0xFFFFFFFFFFFFFFFFFFFFFFFF DUP4 AND PUSH1 0x24 DUP4 ADD MSTORE PUSH32 0x0 AND SWAP1 PUSH4 0x75DCEBC7 SWAP1 PUSH1 0x44 ADD PUSH0 PUSH1 0x40 MLOAD DUP1 DUP4 SUB DUP2 PUSH0 DUP8 DUP1 EXTCODESIZE ISZERO DUP1 ISZERO PUSH2 0x68A JUMPI PUSH0 PUSH0 REVERT JUMPDEST POP GAS CALL ISZERO DUP1 ISZERO PUSH2 0x69C JUMPI RETURNDATASIZE PUSH0 PUSH0 RETURNDATACOPY RETURNDATASIZE PUSH0 REVERT JUMPDEST POP POP POP POP POP POP JUMP JUMPDEST PUSH0 CALLER PUSH1 0x1 PUSH1 0x1 PUSH1 0xA0 SHL SUB PUSH32 0x0 AND EQ PUSH2 0x6EE JUMPI PUSH1 0x40 MLOAD PUSH4 0x58A7C73 PUSH1 0xE3 SHL DUP2 MSTORE PUSH1 0x4 ADD PUSH1 0x40 MLOAD DUP1 SWAP2 SUB SWAP1 REVERT JUMPDEST PUSH1 0x1 PUSH1 0x1 PUSH1 0xA0 SHL SUB DUP6 AND PUSH2 0xB04 JUMPI PUSH0 MLOAD PUSH1 0x20 PUSH2 0x12B9 PUSH0 CODECOPY PUSH0 MLOAD SWAP1 PUSH0 MSTORE TLOAD PUSH32 0x6136ADCD727E05279D0BEB0B97407672ABC1607384D66AEC4A65A09DAA5BBA68 TLOAD PUSH0 MLOAD PUSH1 0x20 PUSH2 0x1299 PUSH0 CODECOPY PUSH0 MLOAD SWAP1 PUSH0 MSTORE TLOAD DUP6 DUP4 EQ DUP1 ISZERO PUSH2 0x76A JUMPI POP PUSH32 0x0 DUP8 EQ JUMPDEST ISZERO PUSH2 0xAEB JUMPI PUSH2 0x777 PUSH2 0xD97 JUMP JUMPDEST DUP1 PUSH0 SUB PUSH2 0x824 JUMPI PUSH1 0x40 MLOAD PUSH4 0x79212195 PUSH1 0xE1 SHL DUP2 MSTORE PUSH1 0x1 PUSH1 0x1 PUSH1 0xA0 SHL SUB PUSH32 0x0 AND SWAP1 PUSH4 0xF242432A SWAP1 PUSH2 0x7F2 SWAP1 ADDRESS SWAP1 DUP7 SWAP1 PUSH32 0x0 SWAP1 DUP10 SWAP1 DUP13 SWAP1 PUSH1 0x4 ADD PUSH2 0x11FB JUMP JUMPDEST PUSH0 PUSH1 0x40 MLOAD DUP1 DUP4 SUB DUP2 PUSH0 DUP8 DUP1 EXTCODESIZE ISZERO DUP1 ISZERO PUSH2 0x809 JUMPI PUSH0 PUSH0 REVERT JUMPDEST POP GAS CALL ISZERO DUP1 ISZERO PUSH2 0x81B JUMPI RETURNDATASIZE PUSH0 PUSH0 RETURNDATACOPY RETURNDATASIZE PUSH0 REVERT JUMPDEST POP POP POP POP PUSH2 0xAA0 JUMP JUMPDEST PUSH0 DUP2 PUSH1 0x1 EQ PUSH2 0x853 JUMPI PUSH32 0x0 PUSH2 0x875 JUMP JUMPDEST PUSH32 0x0 JUMPDEST PUSH1 0x40 MLOAD PUSH4 0x70A08231 PUSH1 0xE0 SHL DUP2 MSTORE ADDRESS PUSH1 0x4 DUP3 ADD MSTORE SWAP1 SWAP2 POP PUSH0 SWAP1 PUSH1 0x1 PUSH1 0x1 PUSH1 0xA0 SHL SUB DUP4 AND SWAP1 PUSH4 0x70A08231 SWAP1 PUSH1 0x24 ADD PUSH1 0x20 PUSH1 0x40 MLOAD DUP1 DUP4 SUB DUP2 DUP7 GAS STATICCALL ISZERO DUP1 ISZERO PUSH2 0x8BC JUMPI RETURNDATASIZE PUSH0 PUSH0 RETURNDATACOPY RETURNDATASIZE PUSH0 REVERT JUMPDEST POP POP POP POP PUSH1 0x40 MLOAD RETURNDATASIZE PUSH1 0x1F NOT PUSH1 0x1F DUP3 ADD AND DUP3 ADD DUP1 PUSH1 0x40 MSTORE POP DUP2 ADD SWAP1 PUSH2 0x8E0 SWAP2 SWAP1 PUSH2 0x1234 JUMP JUMPDEST SWAP1 POP PUSH1 0x1 PUSH1 0x1 PUSH1 0xA0 SHL SUB PUSH32 0x0 AND PUSH4 0xAABD6954 PUSH32 0x0 DUP8 PUSH2 0x93E PUSH1 0x1 DUP9 PUSH2 0x124B JUMP JUMPDEST PUSH1 0x40 MLOAD PUSH1 0x1 PUSH1 0x1 PUSH1 0xE0 SHL SUB NOT PUSH1 0xE0 DUP7 SWAP1 SHL AND DUP2 MSTORE PUSH1 0x1 PUSH1 0x1 PUSH1 0xA0 SHL SUB SWAP1 SWAP4 AND PUSH1 0x4 DUP5 ADD MSTORE PUSH1 0x24 DUP4 ADD SWAP2 SWAP1 SWAP2 MSTORE PUSH1 0xFF AND PUSH1 0x44 DUP3 ADD MSTORE PUSH1 0x64 ADD PUSH1 0x20 PUSH1 0x40 MLOAD DUP1 DUP4 SUB DUP2 PUSH0 DUP8 GAS CALL ISZERO DUP1 ISZERO PUSH2 0x991 JUMPI RETURNDATASIZE PUSH0 PUSH0 RETURNDATACOPY RETURNDATASIZE PUSH0 REVERT JUMPDEST POP POP POP POP PUSH1 0x40 MLOAD RETURNDATASIZE PUSH1 0x1F NOT PUSH1 0x1F DUP3 ADD AND DUP3 ADD DUP1 PUSH1 0x40 MSTORE POP DUP2 ADD SWAP1 PUSH2 0x9B5 SWAP2 SWAP1 PUSH2 0x125E JUMP JUMPDEST POP PUSH1 0x40 MLOAD PUSH4 0x70A08231 PUSH1 0xE0 SHL DUP2 MSTORE ADDRESS PUSH1 0x4 DUP3 ADD MSTORE DUP2 SWAP1 PUSH1 0x1 PUSH1 0x1 PUSH1 0xA0 SHL SUB DUP5 AND SWAP1 PUSH4 0x70A08231 SWAP1 PUSH1 0x24 ADD PUSH1 0x20 PUSH1 0x40 MLOAD DUP1 DUP4 SUB DUP2 DUP7 GAS STATICCALL ISZERO DUP1 ISZERO PUSH2 0x9FA JUMPI RETURNDATASIZE PUSH0 PUSH0 RETURNDATACOPY RETURNDATASIZE PUSH0 REVERT JUMPDEST POP POP POP POP PUSH1 0x40 MLOAD RETURNDATASIZE PUSH1 0x1F NOT PUSH1 0x1F DUP3 ADD AND DUP3 ADD DUP1 PUSH1 0x40 MSTORE POP DUP2 ADD SWAP1 PUSH2 0xA1E SWAP2 SWAP1 PUSH2 0x1234 JUMP JUMPDEST PUSH2 0xA28 SWAP2 SWAP1 PUSH2 0x124B JUMP JUMPDEST PUSH1 0x40 MLOAD PUSH4 0xA9059CBB PUSH1 0xE0 SHL DUP2 MSTORE PUSH1 0x1 PUSH1 0x1 PUSH1 0xA0 SHL SUB DUP7 DUP2 AND PUSH1 0x4 DUP4 ADD MSTORE PUSH1 0x24 DUP3 ADD DUP4 SWAP1 MSTORE SWAP2 SWAP7 POP SWAP1 DUP4 AND SWAP1 PUSH4 0xA9059CBB SWAP1 PUSH1 0x44 ADD PUSH1 0x20 PUSH1 0x40 MLOAD DUP1 DUP4 SUB DUP2 PUSH0 DUP8 GAS CALL ISZERO DUP1 ISZERO PUSH2 0xA78 JUMPI RETURNDATASIZE PUSH0 PUSH0 RETURNDATACOPY RETURNDATASIZE PUSH0 REVERT JUMPDEST POP POP POP POP PUSH1 0x40 MLOAD RETURNDATASIZE PUSH1 0x1F NOT PUSH1 0x1F DUP3 ADD AND DUP3 ADD DUP1 PUSH1 0x40 MSTORE POP DUP2 ADD SWAP1 PUSH2 0xA9C SWAP2 SWAP1 PUSH2 0x1279 JUMP JUMPDEST POP POP POP JUMPDEST DUP1 DUP4 DUP4 PUSH1 0x1 PUSH1 0x1 PUSH1 0xA0 SHL SUB AND PUSH32 0x4442AF9FC0F6466CEA71A55E8CAE87EF09853F682DC82B362E4C8981944AFA39 PUSH1 0x40 MLOAD PUSH1 0x40 MLOAD DUP1 SWAP2 SUB SWAP1 LOG4 POP PUSH4 0xF23A6E61 PUSH1 0xE0 SHL SWAP3 POP PUSH2 0x5C4 SWAP2 POP POP JUMP JUMPDEST PUSH1 0x40 MLOAD PUSH4 0xCAC5BFFB PUSH1 0xE0 SHL DUP2 MSTORE PUSH1 0x4 ADD PUSH1 0x40 MLOAD DUP1 SWAP2 SUB SWAP1 REVERT JUMPDEST PUSH2 0xB0F DUP6 DUP5 DUP5 PUSH2 0xC56 JUMP JUMPDEST PUSH1 0x40 DUP1 MLOAD PUSH1 0x1 DUP1 DUP3 MSTORE DUP2 DUP4 ADD SWAP1 SWAP3 MSTORE PUSH0 SWAP2 PUSH1 0x20 DUP1 DUP4 ADD SWAP1 DUP1 CALLDATASIZE DUP4 CALLDATACOPY POP POP PUSH1 0x40 DUP1 MLOAD PUSH1 0x1 DUP1 DUP3 MSTORE DUP2 DUP4 ADD SWAP1 SWAP3 MSTORE SWAP3 SWAP4 POP PUSH0 SWAP3 SWAP2 POP PUSH1 0x20 DUP1 DUP4 ADD SWAP1 DUP1 CALLDATASIZE DUP4 CALLDATACOPY ADD SWAP1 POP POP SWAP1 POP DUP6 DUP3 PUSH0 DUP2 MLOAD DUP2 LT PUSH2 0xB65 JUMPI PUSH2 0xB65 PUSH2 0x10E3 JUMP JUMPDEST PUSH1 0x20 MUL PUSH1 0x20 ADD ADD SWAP1 PUSH1 0x1 PUSH1 0x1 PUSH1 0xA0 SHL SUB AND SWAP1 DUP2 PUSH1 0x1 PUSH1 0x1 PUSH1 0xA0 SHL SUB AND DUP2 MSTORE POP POP DUP5 DUP2 PUSH0 DUP2 MLOAD DUP2 LT PUSH2 0xB98 JUMPI PUSH2 0xB98 PUSH2 0x10E3 JUMP JUMPDEST PUSH1 0x20 SWAP1 DUP2 MUL SWAP2 SWAP1 SWAP2 ADD ADD MSTORE PUSH1 0x40 MLOAD PUSH4 0x6CB498E5 PUSH1 0xE0 SHL DUP2 MSTORE PUSH1 0x1 PUSH1 0x1 PUSH1 0xA0 SHL SUB PUSH32 0x0 AND SWAP1 PUSH4 0x6CB498E5 SWAP1 PUSH2 0xC15 SWAP1 PUSH32 0x0 SWAP1 DUP7 SWAP1 DUP7 SWAP1 DUP11 SWAP1 PUSH1 0x4 ADD PUSH2 0x114C JUMP JUMPDEST PUSH0 PUSH1 0x40 MLOAD DUP1 DUP4 SUB DUP2 PUSH0 DUP8 DUP1 EXTCODESIZE ISZERO DUP1 ISZERO PUSH2 0xC2C JUMPI PUSH0 PUSH0 REVERT JUMPDEST POP GAS CALL ISZERO DUP1 ISZERO PUSH2 0xC3E JUMPI RETURNDATASIZE PUSH0 PUSH0 RETURNDATACOPY RETURNDATASIZE PUSH0 REVERT JUMPDEST POP PUSH4 0xF23A6E61 PUSH1 0xE0 SHL SWAP12 SWAP11 POP POP POP POP POP POP POP POP POP POP POP JUMP JUMPDEST PUSH4 0x3402A163 PUSH1 0xE0 SHL PUSH4 0xA896A065 PUSH1 0xE0 SHL PUSH0 DUP5 PUSH2 0xC74 JUMPI DUP3 PUSH0 MSTORE PUSH1 0x4 PUSH0 REVERT JUMPDEST PUSH0 MLOAD PUSH1 0x20 PUSH2 0x12B9 PUSH0 CODECOPY PUSH0 MLOAD SWAP1 PUSH0 MSTORE TLOAD DUP1 ISZERO PUSH2 0xC91 JUMPI DUP3 PUSH0 MSTORE PUSH1 0x4 PUSH0 REVERT JUMPDEST DUP6 PUSH0 MLOAD PUSH1 0x20 PUSH2 0x12B9 PUSH0 CODECOPY PUSH0 MLOAD SWAP1 PUSH0 MSTORE TSTORE DUP7 PUSH32 0x6136ADCD727E05279D0BEB0B97407672ABC1607384D66AEC4A65A09DAA5BBA68 TSTORE PUSH1 0x1F DUP6 MLOAD GT ISZERO PUSH2 0xD56 JUMPI PUSH1 0x20 DUP6 ADD MLOAD PUSH32 0xF3F5858942140FD2894EEB8B74CD0ED72D24FC6675D352A2884B1BE2F32256FE DUP2 EQ PUSH2 0xD26 JUMPI PUSH32 0x9D28938B56C0E8AAE8DD05E12461CBABF8F699236C3FD7C54C7D3BB9FB443ED2 DUP2 EQ PUSH2 0xD3F JUMPI PUSH2 0xD54 JUMP JUMPDEST PUSH1 0x1 SWAP3 POP DUP3 PUSH0 MLOAD PUSH1 0x20 PUSH2 0x1299 PUSH0 CODECOPY PUSH0 MLOAD SWAP1 PUSH0 MSTORE TSTORE PUSH2 0xD54 JUMP JUMPDEST PUSH1 0x2 SWAP3 POP DUP3 PUSH0 MLOAD PUSH1 0x20 PUSH2 0x1299 PUSH0 CODECOPY PUSH0 MLOAD SWAP1 PUSH0 MSTORE TSTORE JUMPDEST POP JUMPDEST POP DUP1 DUP6 DUP8 PUSH1 0x1 PUSH1 0x1 PUSH1 0xA0 SHL SUB AND PUSH32 0xA4466AA34AD627877204336E07A065A4DA68FB136D84533A7B17290B86154DE9 PUSH1 0x40 MLOAD PUSH1 0x40 MLOAD DUP1 SWAP2 SUB SWAP1 LOG4 POP POP POP POP POP POP JUMP JUMPDEST PUSH0 PUSH0 MLOAD PUSH1 0x20 PUSH2 0x12B9 PUSH0 CODECOPY PUSH0 MLOAD SWAP1 PUSH0 MSTORE TSTORE PUSH0 PUSH32 0x6136ADCD727E05279D0BEB0B97407672ABC1607384D66AEC4A65A09DAA5BBA68 TSTORE PUSH0 PUSH0 MLOAD PUSH1 0x20 PUSH2 0x1299 PUSH0 CODECOPY PUSH0 MLOAD SWAP1 PUSH0 MSTORE TSTORE PUSH1 0x40 MLOAD PUSH32 0x1992EF760E9F09C8C806016548A62B7FD11268379C371A730A1A06D621F002DC SWAP1 PUSH0 SWAP1 LOG1 JUMP JUMPDEST PUSH0 PUSH1 0x20 DUP3 DUP5 SUB SLT ISZERO PUSH2 0xE14 JUMPI PUSH0 PUSH0 REVERT JUMPDEST DUP2 CALLDATALOAD PUSH1 0x1 PUSH1 0x1 PUSH1 0xE0 SHL SUB NOT DUP2 AND DUP2 EQ PUSH2 0xE2B JUMPI PUSH0 PUSH0 REVERT JUMPDEST SWAP4 SWAP3 POP POP POP JUMP JUMPDEST PUSH0 PUSH1 0x20 DUP3 DUP5 SUB SLT ISZERO PUSH2 0xE42 JUMPI PUSH0 PUSH0 REVERT JUMPDEST POP CALLDATALOAD SWAP2 SWAP1 POP JUMP JUMPDEST PUSH1 0x1 PUSH1 0x1 PUSH1 0xA0 SHL SUB DUP2 AND DUP2 EQ PUSH2 0xE5D JUMPI PUSH0 PUSH0 REVERT JUMPDEST POP JUMP JUMPDEST PUSH4 0x4E487B71 PUSH1 0xE0 SHL PUSH0 MSTORE PUSH1 0x41 PUSH1 0x4 MSTORE PUSH1 0x24 PUSH0 REVERT JUMPDEST PUSH1 0x40 MLOAD PUSH1 0x1F DUP3 ADD PUSH1 0x1F NOT AND DUP2 ADD PUSH8 0xFFFFFFFFFFFFFFFF DUP2 GT DUP3 DUP3 LT OR ISZERO PUSH2 0xE9D JUMPI PUSH2 0xE9D PUSH2 0xE60 JUMP JUMPDEST PUSH1 0x40 MSTORE SWAP2 SWAP1 POP JUMP JUMPDEST PUSH0 DUP3 PUSH1 0x1F DUP4 ADD SLT PUSH2 0xEB4 JUMPI PUSH0 PUSH0 REVERT JUMPDEST DUP2 CALLDATALOAD PUSH8 0xFFFFFFFFFFFFFFFF DUP2 GT ISZERO PUSH2 0xECE JUMPI PUSH2 0xECE PUSH2 0xE60 JUMP JUMPDEST DUP1 PUSH1 0x5 SHL PUSH2 0xEDE PUSH1 0x20 DUP3 ADD PUSH2 0xE74 JUMP JUMPDEST SWAP2 DUP3 MSTORE PUSH1 0x20 DUP2 DUP6 ADD DUP2 ADD SWAP3 SWAP1 DUP2 ADD SWAP1 DUP7 DUP5 GT ISZERO PUSH2 0xEF9 JUMPI PUSH0 PUSH0 REVERT JUMPDEST PUSH1 0x20 DUP7 ADD SWAP3 POP JUMPDEST DUP4 DUP4 LT ISZERO PUSH2 0xF1B JUMPI DUP3 CALLDATALOAD DUP3 MSTORE PUSH1 0x20 SWAP3 DUP4 ADD SWAP3 SWAP1 SWAP2 ADD SWAP1 PUSH2 0xF00 JUMP JUMPDEST SWAP7 SWAP6 POP POP POP POP POP POP JUMP JUMPDEST PUSH0 DUP3 PUSH1 0x1F DUP4 ADD SLT PUSH2 0xF34 JUMPI PUSH0 PUSH0 REVERT JUMPDEST DUP2 CALLDATALOAD PUSH8 0xFFFFFFFFFFFFFFFF DUP2 GT ISZERO PUSH2 0xF4E JUMPI PUSH2 0xF4E PUSH2 0xE60 JUMP JUMPDEST PUSH2 0xF61 PUSH1 0x1F DUP3 ADD PUSH1 0x1F NOT AND PUSH1 0x20 ADD PUSH2 0xE74 JUMP JUMPDEST DUP2 DUP2 MSTORE DUP5 PUSH1 0x20 DUP4 DUP7 ADD ADD GT ISZERO PUSH2 0xF75 JUMPI PUSH0 PUSH0 REVERT JUMPDEST DUP2 PUSH1 0x20 DUP6 ADD PUSH1 0x20 DUP4 ADD CALLDATACOPY PUSH0 SWAP2 DUP2 ADD PUSH1 0x20 ADD SWAP2 SWAP1 SWAP2 MSTORE SWAP4 SWAP3 POP POP POP JUMP JUMPDEST PUSH0 PUSH0 PUSH0 PUSH0 PUSH0 PUSH1 0xA0 DUP7 DUP9 SUB SLT ISZERO PUSH2 0xFA5 JUMPI PUSH0 PUSH0 REVERT JUMPDEST DUP6 CALLDATALOAD PUSH2 0xFB0 DUP2 PUSH2 0xE49 JUMP JUMPDEST SWAP5 POP PUSH1 0x20 DUP7 ADD CALLDATALOAD PUSH2 0xFC0 DUP2 PUSH2 0xE49 JUMP JUMPDEST SWAP4 POP PUSH1 0x40 DUP7 ADD CALLDATALOAD PUSH8 0xFFFFFFFFFFFFFFFF DUP2 GT ISZERO PUSH2 0xFDB JUMPI PUSH0 PUSH0 REVERT JUMPDEST PUSH2 0xFE7 DUP9 DUP3 DUP10 ADD PUSH2 0xEA5 JUMP JUMPDEST SWAP4 POP POP PUSH1 0x60 DUP7 ADD CALLDATALOAD PUSH8 0xFFFFFFFFFFFFFFFF DUP2 GT ISZERO PUSH2 0x1003 JUMPI PUSH0 PUSH0 REVERT JUMPDEST PUSH2 0x100F DUP9 DUP3 DUP10 ADD PUSH2 0xEA5 JUMP JUMPDEST SWAP3 POP POP PUSH1 0x80 DUP7 ADD CALLDATALOAD PUSH8 0xFFFFFFFFFFFFFFFF DUP2 GT ISZERO PUSH2 0x102B JUMPI PUSH0 PUSH0 REVERT JUMPDEST PUSH2 0x1037 DUP9 DUP3 DUP10 ADD PUSH2 0xF25 JUMP JUMPDEST SWAP2 POP POP SWAP3 SWAP6 POP SWAP3 SWAP6 SWAP1 SWAP4 POP JUMP JUMPDEST PUSH0 PUSH0 PUSH1 0x40 DUP4 DUP6 SUB SLT ISZERO PUSH2 0x1055 JUMPI PUSH0 PUSH0 REVERT JUMPDEST DUP3 CALLDATALOAD PUSH2 0x1060 DUP2 PUSH2 0xE49 JUMP JUMPDEST SWAP2 POP PUSH1 0x20 DUP4 ADD CALLDATALOAD PUSH12 0xFFFFFFFFFFFFFFFFFFFFFFFF DUP2 AND DUP2 EQ PUSH2 0x1080 JUMPI PUSH0 PUSH0 REVERT JUMPDEST DUP1 SWAP2 POP POP SWAP3 POP SWAP3 SWAP1 POP JUMP JUMPDEST PUSH0 PUSH0 PUSH0 PUSH0 PUSH0 PUSH1 0xA0 DUP7 DUP9 SUB SLT ISZERO PUSH2 0x109F JUMPI PUSH0 PUSH0 REVERT JUMPDEST DUP6 CALLDATALOAD PUSH2 0x10AA DUP2 PUSH2 0xE49 JUMP JUMPDEST SWAP5 POP PUSH1 0x20 DUP7 ADD CALLDATALOAD PUSH2 0x10BA DUP2 PUSH2 0xE49 JUMP JUMPDEST SWAP4 POP PUSH1 0x40 DUP7 ADD CALLDATALOAD SWAP3 POP PUSH1 0x60 DUP7 ADD CALLDATALOAD SWAP2 POP PUSH1 0x80 DUP7 ADD CALLDATALOAD PUSH8 0xFFFFFFFFFFFFFFFF DUP2 GT ISZERO PUSH2 0x102B JUMPI PUSH0 PUSH0 REVERT JUMPDEST PUSH4 0x4E487B71 PUSH1 0xE0 SHL PUSH0 MSTORE PUSH1 0x32 PUSH1 0x4 MSTORE PUSH1 0x24 PUSH0 REVERT JUMPDEST PUSH4 0x4E487B71 PUSH1 0xE0 SHL PUSH0 MSTORE PUSH1 0x11 PUSH1 0x4 MSTORE PUSH1 0x24 PUSH0 REVERT JUMPDEST DUP1 DUP3 ADD DUP1 DUP3 GT ISZERO PUSH2 0x2EC JUMPI PUSH2 0x2EC PUSH2 0x10F7 JUMP JUMPDEST PUSH0 DUP2 MLOAD DUP1 DUP5 MSTORE DUP1 PUSH1 0x20 DUP5 ADD PUSH1 0x20 DUP7 ADD MCOPY PUSH0 PUSH1 0x20 DUP3 DUP7 ADD ADD MSTORE PUSH1 0x20 PUSH1 0x1F NOT PUSH1 0x1F DUP4 ADD AND DUP6 ADD ADD SWAP2 POP POP SWAP3 SWAP2 POP POP JUMP JUMPDEST PUSH1 0x1 PUSH1 0x1 PUSH1 0xA0 SHL SUB DUP6 AND DUP2 MSTORE PUSH1 0x80 PUSH1 0x20 DUP1 DUP4 ADD DUP3 SWAP1 MSTORE DUP6 MLOAD SWAP2 DUP4 ADD DUP3 SWAP1 MSTORE PUSH0 SWAP2 SWAP1 DUP7 ADD SWAP1 PUSH1 0xA0 DUP5 ADD SWAP1 DUP4 JUMPDEST DUP2 DUP2 LT ISZERO PUSH2 0x119E JUMPI DUP4 MLOAD PUSH1 0x1 PUSH1 0x1 PUSH1 0xA0 SHL SUB AND DUP4 MSTORE PUSH1 0x20 SWAP4 DUP5 ADD SWAP4 SWAP1 SWAP3 ADD SWAP2 PUSH1 0x1 ADD PUSH2 0x1177 JUMP JUMPDEST POP POP DUP4 DUP2 SUB PUSH1 0x40 DUP6 ADD MSTORE DUP6 MLOAD DUP1 DUP3 MSTORE PUSH1 0x20 SWAP2 DUP3 ADD SWAP3 POP SWAP1 DUP7 ADD SWAP1 PUSH0 SWAP1 DUP2 JUMPDEST DUP2 DUP2 LT ISZERO PUSH2 0x11DA JUMPI DUP4 MLOAD DUP6 MSTORE PUSH1 0x20 SWAP5 DUP6 ADD SWAP5 SWAP1 SWAP4 ADD SWAP3 PUSH1 0x1 ADD PUSH2 0x11BC JUMP JUMPDEST POP POP POP POP DUP3 DUP2 SUB PUSH1 0x60 DUP5 ADD MSTORE PUSH2 0x11F0 DUP2 DUP6 PUSH2 0x111E JUMP JUMPDEST SWAP8 SWAP7 POP POP POP POP POP POP POP JUMP JUMPDEST PUSH1 0x1 PUSH1 0x1 PUSH1 0xA0 SHL SUB DUP7 DUP2 AND DUP3 MSTORE DUP6 AND PUSH1 0x20 DUP3 ADD MSTORE PUSH1 0x40 DUP2 ADD DUP5 SWAP1 MSTORE PUSH1 0x60 DUP2 ADD DUP4 SWAP1 MSTORE PUSH1 0xA0 PUSH1 0x80 DUP3 ADD DUP2 SWAP1 MSTORE PUSH0 SWAP1 PUSH2 0x11F0 SWAP1 DUP4 ADD DUP5 PUSH2 0x111E JUMP JUMPDEST PUSH0 PUSH1 0x20 DUP3 DUP5 SUB SLT ISZERO PUSH2 0x1244 JUMPI PUSH0 PUSH0 REVERT JUMPDEST POP MLOAD SWAP2 SWAP1 POP JUMP JUMPDEST DUP2 DUP2 SUB DUP2 DUP2 GT ISZERO PUSH2 0x2EC JUMPI PUSH2 0x2EC PUSH2 0x10F7 JUMP JUMPDEST PUSH0 PUSH1 0x20 DUP3 DUP5 SUB SLT ISZERO PUSH2 0x126E JUMPI PUSH0 PUSH0 REVERT JUMPDEST DUP2 MLOAD PUSH2 0xE2B DUP2 PUSH2 0xE49 JUMP JUMPDEST PUSH0 PUSH1 0x20 DUP3 DUP5 SUB SLT ISZERO PUSH2 0x1289 JUMPI PUSH0 PUSH0 REVERT JUMPDEST DUP2 MLOAD DUP1 ISZERO ISZERO DUP2 EQ PUSH2 0xE2B JUMPI PUSH0 PUSH0 REVERT INVALID 0xCD 0xA7 ISZERO CALLER 0xCD STATICCALL GT 0xDC INVALID DUP7 SAR 0xBF LOG3 DUP12 SWAP6 PUSH13 0x85D855F8E75C6728C650AC844F 0x4F 0xD4 PUSH31 0xFB747A744F99E39F75C6FC4A40AE1E72605F4D4A2AA65E5E3D29E889D7F506 SHL LOG2 PUSH5 0x6970667358 0x22 SLT KECCAK256 0xA6 BYTE 0xB6 ADDMOD 0xBA PUSH16 0x19BD473571CCB14791442C815FF5BE1A 0xFB 0xD2 0x26 SLT 0x2E 0xD9 AND LOG2 LOG2 0xAC PUSH5 0x736F6C6343 STOP ADDMOD SHR STOP CALLER LOG2 PUSH5 0x6970667358 0x22 SLT KECCAK256 0xE5 0xBE PUSH24 0xD8C8F081154F5D59E68A48F6784E002BF4ADC73174D4634 0xD3 0xAC 0xBA 0xE8 PUSH0 PUSH5 0x736F6C6343 STOP ADDMOD SHR STOP CALLER "},"methodIdentifiers":{"createTrustFund(address,address,address,address,address[],string,string,bytes32)":"bc38fc65","deployedByFactory(address)":"de87aeeb"}}}}}