{"circles-groups/src/base-group/BaseMintPolicy.sol":{"BaseMintPolicy":{"abi":[{"inputs":[{"internalType":"address","name":"","type":"address"},{"internalType":"address","name":"","type":"address"},{"internalType":"uint256","name":"","type":"uint256"},{"internalType":"bytes","name":"","type":"bytes"}],"name":"beforeBurnPolicy","outputs":[{"internalType":"bool","name":"","type":"bool"}],"stateMutability":"nonpayable","type":"function"},{"inputs":[{"internalType":"address","name":"","type":"address"},{"internalType":"address","name":"","type":"address"},{"internalType":"uint256[]","name":"","type":"uint256[]"},{"internalType":"uint256[]","name":"","type":"uint256[]"},{"internalType":"bytes","name":"","type":"bytes"}],"name":"beforeMintPolicy","outputs":[{"internalType":"bool","name":"","type":"bool"}],"stateMutability":"nonpayable","type":"function"}],"evm":{"bytecode":{"linkReferences":{},"object":"6080604052348015600e575f5ffd5b506102818061001c5f395ff3fe608060405234801561000f575f5ffd5b5060043610610034575f3560e01c8063862038be14610038578063b703825914610065575b5f5ffd5b6100516100463660046100e1565b600195945050505050565b604051901515815260200160405180910390f35b61005161007336600461018c565b600198975050505050505050565b80356001600160a01b0381168114610097575f5ffd5b919050565b5f5f83601f8401126100ac575f5ffd5b50813567ffffffffffffffff8111156100c3575f5ffd5b6020830191508360208285010111156100da575f5ffd5b9250929050565b5f5f5f5f5f608086880312156100f5575f5ffd5b6100fe86610081565b945061010c60208701610081565b935060408601359250606086013567ffffffffffffffff81111561012e575f5ffd5b61013a8882890161009c565b969995985093965092949392505050565b5f5f83601f84011261015b575f5ffd5b50813567ffffffffffffffff811115610172575f5ffd5b6020830191508360208260051b85010111156100da575f5ffd5b5f5f5f5f5f5f5f5f60a0898b0312156101a3575f5ffd5b6101ac89610081565b97506101ba60208a01610081565b9650604089013567ffffffffffffffff8111156101d5575f5ffd5b6101e18b828c0161014b565b909750955050606089013567ffffffffffffffff811115610200575f5ffd5b61020c8b828c0161014b565b909550935050608089013567ffffffffffffffff81111561022b575f5ffd5b6102378b828c0161009c565b999c989b509699509497939692959450505056fea264697066735822122099d42f6921940f45d5ace99d82a5017d25797a0403866359836cc06e7239b9a464736f6c634300081c0033","opcodes":"PUSH1 0x80 PUSH1 0x40 MSTORE CALLVALUE DUP1 ISZERO PUSH1 0xE JUMPI PUSH0 PUSH0 REVERT JUMPDEST POP PUSH2 0x281 DUP1 PUSH2 0x1C PUSH0 CODECOPY PUSH0 RETURN INVALID PUSH1 0x80 PUSH1 0x40 MSTORE CALLVALUE DUP1 ISZERO PUSH2 0xF JUMPI PUSH0 PUSH0 REVERT JUMPDEST POP PUSH1 0x4 CALLDATASIZE LT PUSH2 0x34 JUMPI PUSH0 CALLDATALOAD PUSH1 0xE0 SHR DUP1 PUSH4 0x862038BE EQ PUSH2 0x38 JUMPI DUP1 PUSH4 0xB7038259 EQ PUSH2 0x65 JUMPI JUMPDEST PUSH0 PUSH0 REVERT JUMPDEST PUSH2 0x51 PUSH2 0x46 CALLDATASIZE PUSH1 0x4 PUSH2 0xE1 JUMP JUMPDEST PUSH1 0x1 SWAP6 SWAP5 POP POP POP POP POP JUMP JUMPDEST PUSH1 0x40 MLOAD SWAP1 ISZERO ISZERO DUP2 MSTORE PUSH1 0x20 ADD PUSH1 0x40 MLOAD DUP1 SWAP2 SUB SWAP1 RETURN JUMPDEST PUSH2 0x51 PUSH2 0x73 CALLDATASIZE PUSH1 0x4 PUSH2 0x18C JUMP JUMPDEST PUSH1 0x1 SWAP9 SWAP8 POP POP POP POP POP POP POP POP JUMP JUMPDEST DUP1 CALLDATALOAD PUSH1 0x1 PUSH1 0x1 PUSH1 0xA0 SHL SUB DUP2 AND DUP2 EQ PUSH2 0x97 JUMPI PUSH0 PUSH0 REVERT JUMPDEST SWAP2 SWAP1 POP JUMP JUMPDEST PUSH0 PUSH0 DUP4 PUSH1 0x1F DUP5 ADD SLT PUSH2 0xAC JUMPI PUSH0 PUSH0 REVERT JUMPDEST POP DUP2 CALLDATALOAD PUSH8 0xFFFFFFFFFFFFFFFF DUP2 GT ISZERO PUSH2 0xC3 JUMPI PUSH0 PUSH0 REVERT JUMPDEST PUSH1 0x20 DUP4 ADD SWAP2 POP DUP4 PUSH1 0x20 DUP3 DUP6 ADD ADD GT ISZERO PUSH2 0xDA JUMPI PUSH0 PUSH0 REVERT JUMPDEST SWAP3 POP SWAP3 SWAP1 POP JUMP JUMPDEST PUSH0 PUSH0 PUSH0 PUSH0 PUSH0 PUSH1 0x80 DUP7 DUP9 SUB SLT ISZERO PUSH2 0xF5 JUMPI PUSH0 PUSH0 REVERT JUMPDEST PUSH2 0xFE DUP7 PUSH2 0x81 JUMP JUMPDEST SWAP5 POP PUSH2 0x10C PUSH1 0x20 DUP8 ADD PUSH2 0x81 JUMP JUMPDEST SWAP4 POP PUSH1 0x40 DUP7 ADD CALLDATALOAD SWAP3 POP PUSH1 0x60 DUP7 ADD CALLDATALOAD PUSH8 0xFFFFFFFFFFFFFFFF DUP2 GT ISZERO PUSH2 0x12E JUMPI PUSH0 PUSH0 REVERT JUMPDEST PUSH2 0x13A DUP9 DUP3 DUP10 ADD PUSH2 0x9C JUMP JUMPDEST SWAP7 SWAP10 SWAP6 SWAP9 POP SWAP4 SWAP7 POP SWAP3 SWAP5 SWAP4 SWAP3 POP POP POP JUMP JUMPDEST PUSH0 PUSH0 DUP4 PUSH1 0x1F DUP5 ADD SLT PUSH2 0x15B JUMPI PUSH0 PUSH0 REVERT JUMPDEST POP DUP2 CALLDATALOAD PUSH8 0xFFFFFFFFFFFFFFFF DUP2 GT ISZERO PUSH2 0x172 JUMPI PUSH0 PUSH0 REVERT JUMPDEST PUSH1 0x20 DUP4 ADD SWAP2 POP DUP4 PUSH1 0x20 DUP3 PUSH1 0x5 SHL DUP6 ADD ADD GT ISZERO PUSH2 0xDA JUMPI PUSH0 PUSH0 REVERT JUMPDEST PUSH0 PUSH0 PUSH0 PUSH0 PUSH0 PUSH0 PUSH0 PUSH0 PUSH1 0xA0 DUP10 DUP12 SUB SLT ISZERO PUSH2 0x1A3 JUMPI PUSH0 PUSH0 REVERT JUMPDEST PUSH2 0x1AC DUP10 PUSH2 0x81 JUMP JUMPDEST SWAP8 POP PUSH2 0x1BA PUSH1 0x20 DUP11 ADD PUSH2 0x81 JUMP JUMPDEST SWAP7 POP PUSH1 0x40 DUP10 ADD CALLDATALOAD PUSH8 0xFFFFFFFFFFFFFFFF DUP2 GT ISZERO PUSH2 0x1D5 JUMPI PUSH0 PUSH0 REVERT JUMPDEST PUSH2 0x1E1 DUP12 DUP3 DUP13 ADD PUSH2 0x14B JUMP JUMPDEST SWAP1 SWAP8 POP SWAP6 POP POP PUSH1 0x60 DUP10 ADD CALLDATALOAD PUSH8 0xFFFFFFFFFFFFFFFF DUP2 GT ISZERO PUSH2 0x200 JUMPI PUSH0 PUSH0 REVERT JUMPDEST PUSH2 0x20C DUP12 DUP3 DUP13 ADD PUSH2 0x14B JUMP JUMPDEST SWAP1 SWAP6 POP SWAP4 POP POP PUSH1 0x80 DUP10 ADD CALLDATALOAD PUSH8 0xFFFFFFFFFFFFFFFF DUP2 GT ISZERO PUSH2 0x22B JUMPI PUSH0 PUSH0 REVERT JUMPDEST PUSH2 0x237 DUP12 DUP3 DUP13 ADD PUSH2 0x9C JUMP JUMPDEST SWAP10 SWAP13 SWAP9 SWAP12 POP SWAP7 SWAP10 POP SWAP5 SWAP8 SWAP4 SWAP7 SWAP3 SWAP6 SWAP5 POP POP POP JUMP INVALID LOG2 PUSH5 0x6970667358 0x22 SLT KECCAK256 SWAP10 0xD4 0x2F PUSH10 0x21940F45D5ACE99D82A5 ADD PUSH30 0x25797A0403866359836CC06E7239B9A464736F6C634300081C0033000000 "},"methodIdentifiers":{"beforeBurnPolicy(address,address,uint256,bytes)":"862038be","beforeMintPolicy(address,address,uint256[],uint256[],bytes)":"b7038259"}}}}}