{"circles-groups/src/base-group/BaseMintHandler.sol":{"BaseMintHandler":{"abi":[{"inputs":[{"internalType":"address","name":"_hub","type":"address"},{"internalType":"address","name":"_nameRegistry","type":"address"},{"internalType":"address","name":"_group","type":"address"},{"internalType":"address","name":"_demurrage","type":"address"},{"internalType":"address","name":"_inflationary","type":"address"},{"internalType":"string","name":"_groupName","type":"string"},{"internalType":"bytes32","name":"_metadataDigest","type":"bytes32"}],"stateMutability":"nonpayable","type":"constructor"},{"inputs":[],"name":"ConversionOngoing","type":"error"},{"inputs":[],"name":"LogicAssertion","type":"error"},{"inputs":[],"name":"OnlyGroup","type":"error"},{"inputs":[],"name":"OnlyHub","type":"error"},{"inputs":[],"name":"ReceivedZeroAmount","type":"error"},{"anonymous":false,"inputs":[],"name":"ConversionCleared","type":"event"},{"anonymous":false,"inputs":[{"indexed":true,"internalType":"address","name":"beneficiary","type":"address"},{"indexed":true,"internalType":"uint256","name":"amount","type":"uint256"},{"indexed":true,"internalType":"uint256","name":"tokenType","type":"uint256"}],"name":"ConversionInitiated","type":"event"},{"anonymous":false,"inputs":[{"indexed":true,"internalType":"address","name":"beneficiary","type":"address"},{"indexed":true,"internalType":"uint256","name":"amount","type":"uint256"},{"indexed":true,"internalType":"uint256","name":"tokenType","type":"uint256"}],"name":"ReturnedMintedGroupCircles","type":"event"},{"inputs":[],"name":"DEMURRAGE","outputs":[{"internalType":"address","name":"","type":"address"}],"stateMutability":"view","type":"function"},{"inputs":[],"name":"GROUP","outputs":[{"internalType":"address","name":"","type":"address"}],"stateMutability":"view","type":"function"},{"inputs":[],"name":"GROUP_ID","outputs":[{"internalType":"uint256","name":"","type":"uint256"}],"stateMutability":"view","type":"function"},{"inputs":[],"name":"HUB","outputs":[{"internalType":"contract IHub","name":"","type":"address"}],"stateMutability":"view","type":"function"},{"inputs":[],"name":"INFLATIONARY","outputs":[{"internalType":"address","name":"","type":"address"}],"stateMutability":"view","type":"function"},{"inputs":[],"name":"NAME_REGISTRY","outputs":[{"internalType":"contract INameRegistry","name":"","type":"address"}],"stateMutability":"view","type":"function"},{"inputs":[],"name":"TYPE_DEMURRAGE","outputs":[{"internalType":"bytes32","name":"","type":"bytes32"}],"stateMutability":"view","type":"function"},{"inputs":[],"name":"TYPE_INFLATIONARY","outputs":[{"internalType":"bytes32","name":"","type":"bytes32"}],"stateMutability":"view","type":"function"},{"inputs":[{"internalType":"address","name":"_trustReceiver","type":"address"},{"internalType":"uint96","name":"_expiry","type":"uint96"}],"name":"mirrorTrust","outputs":[],"stateMutability":"nonpayable","type":"function"},{"inputs":[{"internalType":"address","name":"","type":"address"},{"internalType":"address","name":"_from","type":"address"},{"internalType":"uint256[]","name":"_ids","type":"uint256[]"},{"internalType":"uint256[]","name":"_values","type":"uint256[]"},{"internalType":"bytes","name":"_data","type":"bytes"}],"name":"onERC1155BatchReceived","outputs":[{"internalType":"bytes4","name":"","type":"bytes4"}],"stateMutability":"nonpayable","type":"function"},{"inputs":[{"internalType":"address","name":"","type":"address"},{"internalType":"address","name":"_from","type":"address"},{"internalType":"uint256","name":"_id","type":"uint256"},{"internalType":"uint256","name":"_value","type":"uint256"},{"internalType":"bytes","name":"_data","type":"bytes"}],"name":"onERC1155Received","outputs":[{"internalType":"bytes4","name":"","type":"bytes4"}],"stateMutability":"nonpayable","type":"function"},{"inputs":[{"internalType":"bytes4","name":"interfaceId","type":"bytes4"}],"name":"supportsInterface","outputs":[{"internalType":"bool","name":"","type":"bool"}],"stateMutability":"view","type":"function"},{"inputs":[{"internalType":"bytes32","name":"_metadataDigest","type":"bytes32"}],"name":"updateMetadataDigest","outputs":[],"stateMutability":"nonpayable","type":"function"}],"evm":{"bytecode":{"linkReferences":{},"object":"610140604052348015610010575f5ffd5b5060405161165938038061165983398101604081905261002f91610118565b6001600160a01b0380881660805286811660a05285811660c081905260e052848116610100528316610120526040515f9061006e908490602001610228565b60408051601f198184030181529082905260805163bfde380d60e01b83529092506001600160a01b03169063bfde380d906100af9084908690600401610251565b5f604051808303815f87803b1580156100c6575f5ffd5b505af11580156100d8573d5f5f3e3d5ffd5b50505050505050505050505061028d565b80516001600160a01b03811681146100ff575f5ffd5b919050565b634e487b7160e01b5f52604160045260245ffd5b5f5f5f5f5f5f5f60e0888a03121561012e575f5ffd5b610137886100e9565b9650610145602089016100e9565b9550610153604089016100e9565b9450610161606089016100e9565b935061016f608089016100e9565b60a08901519093506001600160401b0381111561018a575f5ffd5b8801601f81018a1361019a575f5ffd5b80516001600160401b038111156101b3576101b3610104565b604051601f8201601f19908116603f011681016001600160401b03811182821017156101e1576101e1610104565b6040528181528282016020018c10156101f8575f5ffd5b8160208401602083015e5f602083830101528094505050505f60c089015190508091505092959891949750929550565b5f82518060208501845e6c16b6b4b73a16b430b7323632b960991b920191825250600d01919050565b604081525f83518060408401528060208601606085015e5f606082850101526060601f19601f8301168401019150508260208301529392505050565b60805160a05160c05160e051610100516101205161130e61034b5f395f8181610287015261082f01525f818161016d015261085501525f81816101460152818161074801526107c601525f8181610260015281816102fd0152818161055c015281816105d8015281816109130152610be701525f81816101ac015261035101525f81816101d3015281816103bf0152818161052f01528181610649015281816106b001528181610795015281816108ec0152610bba015261130e5ff3fe608060405234801561000f575f5ffd5b50600436106100cb575f3560e01c8063a4c52b8611610088578063c878fe9511610063578063c878fe9514610248578063e532b61d1461025b578063f07108a014610282578063f23a6e61146102a9575f5ffd5b8063a4c52b86146101ce578063a855a717146101f5578063bc197c811461021c575f5ffd5b806301ffc9a7146100cf578063033f7354146100f75780633857d9d71461012c5780634dd9c0b5146101415780636604495e14610168578063a05c2616146101a7575b5f5ffd5b6100e26100dd366004610e04565b6102bc565b60405190151581526020015b60405180910390f35b61011e7ff3f5858942140fd2894eeb8b74cd0ed72d24fc6675d352a2884b1be2f32256fe81565b6040519081526020016100ee565b61013f61013a366004610e32565b6102f2565b005b61011e7f000000000000000000000000000000000000000000000000000000000000000081565b61018f7f000000000000000000000000000000000000000000000000000000000000000081565b6040516001600160a01b0390911681526020016100ee565b61018f7f000000000000000000000000000000000000000000000000000000000000000081565b61018f7f000000000000000000000000000000000000000000000000000000000000000081565b61011e7f9d28938b56c0e8aae8dd05e12461cbabf8f699236c3fd7c54c7d3bb9fb443ed281565b61022f61022a366004610f91565b6103b3565b6040516001600160e01b031990911681526020016100ee565b61013f610256366004611044565b6105cd565b61018f7f000000000000000000000000000000000000000000000000000000000000000081565b61018f7f000000000000000000000000000000000000000000000000000000000000000081565b61022f6102b736600461108b565b6106a4565b5f6001600160e01b03198216630271189760e51b14806102ec57506301ffc9a760e01b6001600160e01b03198316145b92915050565b336001600160a01b037f0000000000000000000000000000000000000000000000000000000000000000161461033b57604051636346b2b760e01b815260040160405180910390fd5b604051633857d9d760e01b8152600481018290527f00000000000000000000000000000000000000000000000000000000000000006001600160a01b031690633857d9d7906024015f604051808303815f87803b15801561039a575f5ffd5b505af11580156103ac573d5f5f3e3d5ffd5b5050505050565b5f336001600160a01b037f000000000000000000000000000000000000000000000000000000000000000016146103fd5760405163058a7c7360e31b815260040160405180910390fd5b6001600160a01b0385166104245760405163cac5bffb60e01b815260040160405180910390fd5b82518451146104465760405163cac5bffb60e01b815260040160405180910390fd5b5f5f855167ffffffffffffffff81111561046257610462610e60565b60405190808252806020026020018201604052801561048b578160200160208202803683370190505b5090505f5b865181101561050c578581815181106104ab576104ab6110e3565b6020026020010151836104be919061110b565b92508681815181106104d2576104d26110e3565b60200260200101518282815181106104ec576104ec6110e3565b6001600160a01b0390921660209283029190910190910152600101610490565b50610518878386610c56565b604051636cb498e560e01b81526001600160a01b037f00000000000000000000000000000000000000000000000000000000000000001690636cb498e59061058a907f00000000000000000000000000000000000000000000000000000000000000009085908a908a9060040161114c565b5f604051808303815f87803b1580156105a1575f5ffd5b505af11580156105b3573d5f5f3e3d5ffd5b5063bc197c8160e01b955050505050505b95945050505050565b336001600160a01b037f0000000000000000000000000000000000000000000000000000000000000000161461061657604051636346b2b760e01b815260040160405180910390fd5b6040516375dcebc760e01b81526001600160a01b0383811660048301526bffffffffffffffffffffffff831660248301527f000000000000000000000000000000000000000000000000000000000000000016906375dcebc7906044015f604051808303815f87803b15801561068a575f5ffd5b505af115801561069c573d5f5f3e3d5ffd5b505050505050565b5f336001600160a01b037f000000000000000000000000000000000000000000000000000000000000000016146106ee5760405163058a7c7360e31b815260040160405180910390fd5b6001600160a01b038516610b04575f5160206112b95f395f51905f525c7f6136adcd727e05279d0beb0b97407672abc1607384d66aec4a65a09daa5bba685c5f5160206112995f395f51905f525c858314801561076a57507f000000000000000000000000000000000000000000000000000000000000000087145b15610aeb57610777610d97565b805f0361082457604051637921219560e11b81526001600160a01b037f0000000000000000000000000000000000000000000000000000000000000000169063f242432a906107f290309086907f00000000000000000000000000000000000000000000000000000000000000009089908c906004016111fb565b5f604051808303815f87803b158015610809575f5ffd5b505af115801561081b573d5f5f3e3d5ffd5b50505050610aa0565b5f81600114610853577f0000000000000000000000000000000000000000000000000000000000000000610875565b7f00000000000000000000000000000000000000000000000000000000000000005b6040516370a0823160e01b81523060048201529091505f906001600160a01b038316906370a0823190602401602060405180830381865afa1580156108bc573d5f5f3e3d5ffd5b505050506040513d601f19601f820116820180604052508101906108e09190611234565b90506001600160a01b037f00000000000000000000000000000000000000000000000000000000000000001663aabd69547f00000000000000000000000000000000000000000000000000000000000000008761093e60018861124b565b6040516001600160e01b031960e086901b1681526001600160a01b039093166004840152602483019190915260ff1660448201526064016020604051808303815f875af1158015610991573d5f5f3e3d5ffd5b505050506040513d601f19601f820116820180604052508101906109b5919061125e565b506040516370a0823160e01b815230600482015281906001600160a01b038416906370a0823190602401602060405180830381865afa1580156109fa573d5f5f3e3d5ffd5b505050506040513d601f19601f82011682018060405250810190610a1e9190611234565b610a28919061124b565b60405163a9059cbb60e01b81526001600160a01b038681166004830152602482018390529196509083169063a9059cbb906044016020604051808303815f875af1158015610a78573d5f5f3e3d5ffd5b505050506040513d601f19601f82011682018060405250810190610a9c9190611279565b5050505b8083836001600160a01b03167f4442af9fc0f6466cea71a55e8cae87ef09853f682dc82b362e4c8981944afa3960405160405180910390a45063f23a6e6160e01b92506105c4915050565b60405163cac5bffb60e01b815260040160405180910390fd5b610b0f858484610c56565b6040805160018082528183019092525f916020808301908036833750506040805160018082528183019092529293505f9291506020808301908036833701905050905085825f81518110610b6557610b656110e3565b60200260200101906001600160a01b031690816001600160a01b03168152505084815f81518110610b9857610b986110e3565b6020908102919091010152604051636cb498e560e01b81526001600160a01b037f00000000000000000000000000000000000000000000000000000000000000001690636cb498e590610c15907f000000000000000000000000000000000000000000000000000000000000000090869086908a9060040161114c565b5f604051808303815f87803b158015610c2c575f5ffd5b505af1158015610c3e573d5f5f3e3d5ffd5b5063f23a6e6160e01b9b9a5050505050505050505050565b633402a16360e01b63a896a06560e01b5f84610c7457825f5260045ffd5b5f5160206112b95f395f51905f525c8015610c9157825f5260045ffd5b855f5160206112b95f395f51905f525d867f6136adcd727e05279d0beb0b97407672abc1607384d66aec4a65a09daa5bba685d601f85511115610d565760208501517ff3f5858942140fd2894eeb8b74cd0ed72d24fc6675d352a2884b1be2f32256fe8114610d26577f9d28938b56c0e8aae8dd05e12461cbabf8f699236c3fd7c54c7d3bb9fb443ed28114610d3f57610d54565b60019250825f5160206112995f395f51905f525d610d54565b60029250825f5160206112995f395f51905f525d5b505b508085876001600160a01b03167fa4466aa34ad627877204336e07a065a4da68fb136d84533a7b17290b86154de960405160405180910390a4505050505050565b5f5f5160206112b95f395f51905f525d5f7f6136adcd727e05279d0beb0b97407672abc1607384d66aec4a65a09daa5bba685d5f5f5160206112995f395f51905f525d6040517f1992ef760e9f09c8c806016548a62b7fd11268379c371a730a1a06d621f002dc905f90a1565b5f60208284031215610e14575f5ffd5b81356001600160e01b031981168114610e2b575f5ffd5b9392505050565b5f60208284031215610e42575f5ffd5b5035919050565b6001600160a01b0381168114610e5d575f5ffd5b50565b634e487b7160e01b5f52604160045260245ffd5b604051601f8201601f1916810167ffffffffffffffff81118282101715610e9d57610e9d610e60565b604052919050565b5f82601f830112610eb4575f5ffd5b813567ffffffffffffffff811115610ece57610ece610e60565b8060051b610ede60208201610e74565b91825260208185018101929081019086841115610ef9575f5ffd5b6020860192505b83831015610f1b578235825260209283019290910190610f00565b9695505050505050565b5f82601f830112610f34575f5ffd5b813567ffffffffffffffff811115610f4e57610f4e610e60565b610f61601f8201601f1916602001610e74565b818152846020838601011115610f75575f5ffd5b816020850160208301375f918101602001919091529392505050565b5f5f5f5f5f60a08688031215610fa5575f5ffd5b8535610fb081610e49565b94506020860135610fc081610e49565b9350604086013567ffffffffffffffff811115610fdb575f5ffd5b610fe788828901610ea5565b935050606086013567ffffffffffffffff811115611003575f5ffd5b61100f88828901610ea5565b925050608086013567ffffffffffffffff81111561102b575f5ffd5b61103788828901610f25565b9150509295509295909350565b5f5f60408385031215611055575f5ffd5b823561106081610e49565b915060208301356bffffffffffffffffffffffff81168114611080575f5ffd5b809150509250929050565b5f5f5f5f5f60a0868803121561109f575f5ffd5b85356110aa81610e49565b945060208601356110ba81610e49565b93506040860135925060608601359150608086013567ffffffffffffffff81111561102b575f5ffd5b634e487b7160e01b5f52603260045260245ffd5b634e487b7160e01b5f52601160045260245ffd5b808201808211156102ec576102ec6110f7565b5f81518084528060208401602086015e5f602082860101526020601f19601f83011685010191505092915050565b6001600160a01b03851681526080602080830182905285519183018290525f919086019060a0840190835b8181101561119e5783516001600160a01b0316835260209384019390920191600101611177565b50508381036040850152855180825260209182019250908601905f90815b818110156111da5783518552602094850194909301926001016111bc565b5050505082810360608401526111f0818561111e565b979650505050505050565b6001600160a01b03868116825285166020820152604081018490526060810183905260a0608082018190525f906111f09083018461111e565b5f60208284031215611244575f5ffd5b5051919050565b818103818111156102ec576102ec6110f7565b5f6020828403121561126e575f5ffd5b8151610e2b81610e49565b5f60208284031215611289575f5ffd5b81518015158114610e2b575f5ffdfecda71533cdfa11dcfe861dbfa38b956c85d855f8e75c6728c650ac844f4fd47efb747a744f99e39f75c6fc4a40ae1e72605f4d4a2aa65e5e3d29e889d7f5061ba2646970667358221220a61ab608ba6f19bd473571ccb14791442c815ff5be1afbd226122ed916a2a2ac64736f6c634300081c0033","opcodes":"PUSH2 0x140 PUSH1 0x40 MSTORE CALLVALUE DUP1 ISZERO PUSH2 0x10 JUMPI PUSH0 PUSH0 REVERT JUMPDEST POP PUSH1 0x40 MLOAD PUSH2 0x1659 CODESIZE SUB DUP1 PUSH2 0x1659 DUP4 CODECOPY DUP2 ADD PUSH1 0x40 DUP2 SWAP1 MSTORE PUSH2 0x2F SWAP2 PUSH2 0x118 JUMP JUMPDEST PUSH1 0x1 PUSH1 0x1 PUSH1 0xA0 SHL SUB DUP1 DUP9 AND PUSH1 0x80 MSTORE DUP7 DUP2 AND PUSH1 0xA0 MSTORE DUP6 DUP2 AND PUSH1 0xC0 DUP2 SWAP1 MSTORE PUSH1 0xE0 MSTORE DUP5 DUP2 AND PUSH2 0x100 MSTORE DUP4 AND PUSH2 0x120 MSTORE PUSH1 0x40 MLOAD PUSH0 SWAP1 PUSH2 0x6E SWAP1 DUP5 SWAP1 PUSH1 0x20 ADD PUSH2 0x228 JUMP JUMPDEST PUSH1 0x40 DUP1 MLOAD PUSH1 0x1F NOT DUP2 DUP5 SUB ADD DUP2 MSTORE SWAP1 DUP3 SWAP1 MSTORE PUSH1 0x80 MLOAD PUSH4 0xBFDE380D PUSH1 0xE0 SHL DUP4 MSTORE SWAP1 SWAP3 POP PUSH1 0x1 PUSH1 0x1 PUSH1 0xA0 SHL SUB AND SWAP1 PUSH4 0xBFDE380D SWAP1 PUSH2 0xAF SWAP1 DUP5 SWAP1 DUP7 SWAP1 PUSH1 0x4 ADD PUSH2 0x251 JUMP JUMPDEST PUSH0 PUSH1 0x40 MLOAD DUP1 DUP4 SUB DUP2 PUSH0 DUP8 DUP1 EXTCODESIZE ISZERO DUP1 ISZERO PUSH2 0xC6 JUMPI PUSH0 PUSH0 REVERT JUMPDEST POP GAS CALL ISZERO DUP1 ISZERO PUSH2 0xD8 JUMPI RETURNDATASIZE PUSH0 PUSH0 RETURNDATACOPY RETURNDATASIZE PUSH0 REVERT JUMPDEST POP POP POP POP POP POP POP POP POP POP POP POP PUSH2 0x28D JUMP JUMPDEST DUP1 MLOAD PUSH1 0x1 PUSH1 0x1 PUSH1 0xA0 SHL SUB DUP2 AND DUP2 EQ PUSH2 0xFF JUMPI PUSH0 PUSH0 REVERT JUMPDEST SWAP2 SWAP1 POP JUMP JUMPDEST PUSH4 0x4E487B71 PUSH1 0xE0 SHL PUSH0 MSTORE PUSH1 0x41 PUSH1 0x4 MSTORE PUSH1 0x24 PUSH0 REVERT JUMPDEST PUSH0 PUSH0 PUSH0 PUSH0 PUSH0 PUSH0 PUSH0 PUSH1 0xE0 DUP9 DUP11 SUB SLT ISZERO PUSH2 0x12E JUMPI PUSH0 PUSH0 REVERT JUMPDEST PUSH2 0x137 DUP9 PUSH2 0xE9 JUMP JUMPDEST SWAP7 POP PUSH2 0x145 PUSH1 0x20 DUP10 ADD PUSH2 0xE9 JUMP JUMPDEST SWAP6 POP PUSH2 0x153 PUSH1 0x40 DUP10 ADD PUSH2 0xE9 JUMP JUMPDEST SWAP5 POP PUSH2 0x161 PUSH1 0x60 DUP10 ADD PUSH2 0xE9 JUMP JUMPDEST SWAP4 POP PUSH2 0x16F PUSH1 0x80 DUP10 ADD PUSH2 0xE9 JUMP JUMPDEST PUSH1 0xA0 DUP10 ADD MLOAD SWAP1 SWAP4 POP PUSH1 0x1 PUSH1 0x1 PUSH1 0x40 SHL SUB DUP2 GT ISZERO PUSH2 0x18A JUMPI PUSH0 PUSH0 REVERT JUMPDEST DUP9 ADD PUSH1 0x1F DUP2 ADD DUP11 SGT PUSH2 0x19A JUMPI PUSH0 PUSH0 REVERT JUMPDEST DUP1 MLOAD PUSH1 0x1 PUSH1 0x1 PUSH1 0x40 SHL SUB DUP2 GT ISZERO PUSH2 0x1B3 JUMPI PUSH2 0x1B3 PUSH2 0x104 JUMP JUMPDEST PUSH1 0x40 MLOAD PUSH1 0x1F DUP3 ADD PUSH1 0x1F NOT SWAP1 DUP2 AND PUSH1 0x3F ADD AND DUP2 ADD PUSH1 0x1 PUSH1 0x1 PUSH1 0x40 SHL SUB DUP2 GT DUP3 DUP3 LT OR ISZERO PUSH2 0x1E1 JUMPI PUSH2 0x1E1 PUSH2 0x104 JUMP JUMPDEST PUSH1 0x40 MSTORE DUP2 DUP2 MSTORE DUP3 DUP3 ADD PUSH1 0x20 ADD DUP13 LT ISZERO PUSH2 0x1F8 JUMPI PUSH0 PUSH0 REVERT JUMPDEST DUP2 PUSH1 0x20 DUP5 ADD PUSH1 0x20 DUP4 ADD MCOPY PUSH0 PUSH1 0x20 DUP4 DUP4 ADD ADD MSTORE DUP1 SWAP5 POP POP POP POP PUSH0 PUSH1 0xC0 DUP10 ADD MLOAD SWAP1 POP DUP1 SWAP2 POP POP SWAP3 SWAP6 SWAP9 SWAP2 SWAP5 SWAP8 POP SWAP3 SWAP6 POP JUMP JUMPDEST PUSH0 DUP3 MLOAD DUP1 PUSH1 0x20 DUP6 ADD DUP5 MCOPY PUSH13 0x16B6B4B73A16B430B7323632B9 PUSH1 0x99 SHL SWAP3 ADD SWAP2 DUP3 MSTORE POP PUSH1 0xD ADD SWAP2 SWAP1 POP JUMP JUMPDEST PUSH1 0x40 DUP2 MSTORE PUSH0 DUP4 MLOAD DUP1 PUSH1 0x40 DUP5 ADD MSTORE DUP1 PUSH1 0x20 DUP7 ADD PUSH1 0x60 DUP6 ADD MCOPY PUSH0 PUSH1 0x60 DUP3 DUP6 ADD ADD MSTORE PUSH1 0x60 PUSH1 0x1F NOT PUSH1 0x1F DUP4 ADD AND DUP5 ADD ADD SWAP2 POP POP DUP3 PUSH1 0x20 DUP4 ADD MSTORE SWAP4 SWAP3 POP POP POP JUMP JUMPDEST PUSH1 0x80 MLOAD PUSH1 0xA0 MLOAD PUSH1 0xC0 MLOAD PUSH1 0xE0 MLOAD PUSH2 0x100 MLOAD PUSH2 0x120 MLOAD PUSH2 0x130E PUSH2 0x34B PUSH0 CODECOPY PUSH0 DUP2 DUP2 PUSH2 0x287 ADD MSTORE PUSH2 0x82F ADD MSTORE PUSH0 DUP2 DUP2 PUSH2 0x16D ADD MSTORE PUSH2 0x855 ADD MSTORE PUSH0 DUP2 DUP2 PUSH2 0x146 ADD MSTORE DUP2 DUP2 PUSH2 0x748 ADD MSTORE PUSH2 0x7C6 ADD MSTORE PUSH0 DUP2 DUP2 PUSH2 0x260 ADD MSTORE DUP2 DUP2 PUSH2 0x2FD ADD MSTORE DUP2 DUP2 PUSH2 0x55C ADD MSTORE DUP2 DUP2 PUSH2 0x5D8 ADD MSTORE DUP2 DUP2 PUSH2 0x913 ADD MSTORE PUSH2 0xBE7 ADD MSTORE PUSH0 DUP2 DUP2 PUSH2 0x1AC ADD MSTORE PUSH2 0x351 ADD MSTORE PUSH0 DUP2 DUP2 PUSH2 0x1D3 ADD MSTORE DUP2 DUP2 PUSH2 0x3BF ADD MSTORE DUP2 DUP2 PUSH2 0x52F ADD MSTORE DUP2 DUP2 PUSH2 0x649 ADD MSTORE DUP2 DUP2 PUSH2 0x6B0 ADD MSTORE DUP2 DUP2 PUSH2 0x795 ADD MSTORE DUP2 DUP2 PUSH2 0x8EC ADD MSTORE PUSH2 0xBBA ADD MSTORE PUSH2 0x130E PUSH0 RETURN INVALID PUSH1 0x80 PUSH1 0x40 MSTORE CALLVALUE DUP1 ISZERO PUSH2 0xF JUMPI PUSH0 PUSH0 REVERT JUMPDEST POP PUSH1 0x4 CALLDATASIZE LT PUSH2 0xCB JUMPI PUSH0 CALLDATALOAD PUSH1 0xE0 SHR DUP1 PUSH4 0xA4C52B86 GT PUSH2 0x88 JUMPI DUP1 PUSH4 0xC878FE95 GT PUSH2 0x63 JUMPI DUP1 PUSH4 0xC878FE95 EQ PUSH2 0x248 JUMPI DUP1 PUSH4 0xE532B61D EQ PUSH2 0x25B JUMPI DUP1 PUSH4 0xF07108A0 EQ PUSH2 0x282 JUMPI DUP1 PUSH4 0xF23A6E61 EQ PUSH2 0x2A9 JUMPI PUSH0 PUSH0 REVERT JUMPDEST DUP1 PUSH4 0xA4C52B86 EQ PUSH2 0x1CE JUMPI DUP1 PUSH4 0xA855A717 EQ PUSH2 0x1F5 JUMPI DUP1 PUSH4 0xBC197C81 EQ PUSH2 0x21C JUMPI PUSH0 PUSH0 REVERT JUMPDEST DUP1 PUSH4 0x1FFC9A7 EQ PUSH2 0xCF JUMPI DUP1 PUSH4 0x33F7354 EQ PUSH2 0xF7 JUMPI DUP1 PUSH4 0x3857D9D7 EQ PUSH2 0x12C JUMPI DUP1 PUSH4 0x4DD9C0B5 EQ PUSH2 0x141 JUMPI DUP1 PUSH4 0x6604495E EQ PUSH2 0x168 JUMPI DUP1 PUSH4 0xA05C2616 EQ PUSH2 0x1A7 JUMPI JUMPDEST PUSH0 PUSH0 REVERT JUMPDEST PUSH2 0xE2 PUSH2 0xDD CALLDATASIZE PUSH1 0x4 PUSH2 0xE04 JUMP JUMPDEST PUSH2 0x2BC JUMP JUMPDEST PUSH1 0x40 MLOAD SWAP1 ISZERO ISZERO DUP2 MSTORE PUSH1 0x20 ADD JUMPDEST PUSH1 0x40 MLOAD DUP1 SWAP2 SUB SWAP1 RETURN JUMPDEST PUSH2 0x11E PUSH32 0xF3F5858942140FD2894EEB8B74CD0ED72D24FC6675D352A2884B1BE2F32256FE DUP2 JUMP JUMPDEST PUSH1 0x40 MLOAD SWAP1 DUP2 MSTORE PUSH1 0x20 ADD PUSH2 0xEE JUMP JUMPDEST PUSH2 0x13F PUSH2 0x13A CALLDATASIZE PUSH1 0x4 PUSH2 0xE32 JUMP JUMPDEST PUSH2 0x2F2 JUMP JUMPDEST STOP JUMPDEST PUSH2 0x11E PUSH32 0x0 DUP2 JUMP JUMPDEST PUSH2 0x18F PUSH32 0x0 DUP2 JUMP JUMPDEST PUSH1 0x40 MLOAD PUSH1 0x1 PUSH1 0x1 PUSH1 0xA0 SHL SUB SWAP1 SWAP2 AND DUP2 MSTORE PUSH1 0x20 ADD PUSH2 0xEE JUMP JUMPDEST PUSH2 0x18F PUSH32 0x0 DUP2 JUMP JUMPDEST PUSH2 0x18F PUSH32 0x0 DUP2 JUMP JUMPDEST PUSH2 0x11E PUSH32 0x9D28938B56C0E8AAE8DD05E12461CBABF8F699236C3FD7C54C7D3BB9FB443ED2 DUP2 JUMP JUMPDEST PUSH2 0x22F PUSH2 0x22A CALLDATASIZE PUSH1 0x4 PUSH2 0xF91 JUMP JUMPDEST PUSH2 0x3B3 JUMP JUMPDEST PUSH1 0x40 MLOAD PUSH1 0x1 PUSH1 0x1 PUSH1 0xE0 SHL SUB NOT SWAP1 SWAP2 AND DUP2 MSTORE PUSH1 0x20 ADD PUSH2 0xEE JUMP JUMPDEST PUSH2 0x13F PUSH2 0x256 CALLDATASIZE PUSH1 0x4 PUSH2 0x1044 JUMP JUMPDEST PUSH2 0x5CD JUMP JUMPDEST PUSH2 0x18F PUSH32 0x0 DUP2 JUMP JUMPDEST PUSH2 0x18F PUSH32 0x0 DUP2 JUMP JUMPDEST PUSH2 0x22F PUSH2 0x2B7 CALLDATASIZE PUSH1 0x4 PUSH2 0x108B JUMP JUMPDEST PUSH2 0x6A4 JUMP JUMPDEST PUSH0 PUSH1 0x1 PUSH1 0x1 PUSH1 0xE0 SHL SUB NOT DUP3 AND PUSH4 0x2711897 PUSH1 0xE5 SHL EQ DUP1 PUSH2 0x2EC JUMPI POP PUSH4 0x1FFC9A7 PUSH1 0xE0 SHL PUSH1 0x1 PUSH1 0x1 PUSH1 0xE0 SHL SUB NOT DUP4 AND EQ JUMPDEST SWAP3 SWAP2 POP POP JUMP JUMPDEST CALLER PUSH1 0x1 PUSH1 0x1 PUSH1 0xA0 SHL SUB PUSH32 0x0 AND EQ PUSH2 0x33B JUMPI PUSH1 0x40 MLOAD PUSH4 0x6346B2B7 PUSH1 0xE0 SHL DUP2 MSTORE PUSH1 0x4 ADD PUSH1 0x40 MLOAD DUP1 SWAP2 SUB SWAP1 REVERT JUMPDEST PUSH1 0x40 MLOAD PUSH4 0x3857D9D7 PUSH1 0xE0 SHL DUP2 MSTORE PUSH1 0x4 DUP2 ADD DUP3 SWAP1 MSTORE PUSH32 0x0 PUSH1 0x1 PUSH1 0x1 PUSH1 0xA0 SHL SUB AND SWAP1 PUSH4 0x3857D9D7 SWAP1 PUSH1 0x24 ADD PUSH0 PUSH1 0x40 MLOAD DUP1 DUP4 SUB DUP2 PUSH0 DUP8 DUP1 EXTCODESIZE ISZERO DUP1 ISZERO PUSH2 0x39A JUMPI PUSH0 PUSH0 REVERT JUMPDEST POP GAS CALL ISZERO DUP1 ISZERO PUSH2 0x3AC JUMPI RETURNDATASIZE PUSH0 PUSH0 RETURNDATACOPY RETURNDATASIZE PUSH0 REVERT JUMPDEST POP POP POP POP POP JUMP JUMPDEST PUSH0 CALLER PUSH1 0x1 PUSH1 0x1 PUSH1 0xA0 SHL SUB PUSH32 0x0 AND EQ PUSH2 0x3FD JUMPI PUSH1 0x40 MLOAD PUSH4 0x58A7C73 PUSH1 0xE3 SHL DUP2 MSTORE PUSH1 0x4 ADD PUSH1 0x40 MLOAD DUP1 SWAP2 SUB SWAP1 REVERT JUMPDEST PUSH1 0x1 PUSH1 0x1 PUSH1 0xA0 SHL SUB DUP6 AND PUSH2 0x424 JUMPI PUSH1 0x40 MLOAD PUSH4 0xCAC5BFFB PUSH1 0xE0 SHL DUP2 MSTORE PUSH1 0x4 ADD PUSH1 0x40 MLOAD DUP1 SWAP2 SUB SWAP1 REVERT JUMPDEST DUP3 MLOAD DUP5 MLOAD EQ PUSH2 0x446 JUMPI PUSH1 0x40 MLOAD PUSH4 0xCAC5BFFB PUSH1 0xE0 SHL DUP2 MSTORE PUSH1 0x4 ADD PUSH1 0x40 MLOAD DUP1 SWAP2 SUB SWAP1 REVERT JUMPDEST PUSH0 PUSH0 DUP6 MLOAD PUSH8 0xFFFFFFFFFFFFFFFF DUP2 GT ISZERO PUSH2 0x462 JUMPI PUSH2 0x462 PUSH2 0xE60 JUMP JUMPDEST PUSH1 0x40 MLOAD SWAP1 DUP1 DUP3 MSTORE DUP1 PUSH1 0x20 MUL PUSH1 0x20 ADD DUP3 ADD PUSH1 0x40 MSTORE DUP1 ISZERO PUSH2 0x48B JUMPI DUP2 PUSH1 0x20 ADD PUSH1 0x20 DUP3 MUL DUP1 CALLDATASIZE DUP4 CALLDATACOPY ADD SWAP1 POP JUMPDEST POP SWAP1 POP PUSH0 JUMPDEST DUP7 MLOAD DUP2 LT ISZERO PUSH2 0x50C JUMPI DUP6 DUP2 DUP2 MLOAD DUP2 LT PUSH2 0x4AB JUMPI PUSH2 0x4AB PUSH2 0x10E3 JUMP JUMPDEST PUSH1 0x20 MUL PUSH1 0x20 ADD ADD MLOAD DUP4 PUSH2 0x4BE SWAP2 SWAP1 PUSH2 0x110B JUMP JUMPDEST SWAP3 POP DUP7 DUP2 DUP2 MLOAD DUP2 LT PUSH2 0x4D2 JUMPI PUSH2 0x4D2 PUSH2 0x10E3 JUMP JUMPDEST PUSH1 0x20 MUL PUSH1 0x20 ADD ADD MLOAD DUP3 DUP3 DUP2 MLOAD DUP2 LT PUSH2 0x4EC JUMPI PUSH2 0x4EC PUSH2 0x10E3 JUMP JUMPDEST PUSH1 0x1 PUSH1 0x1 PUSH1 0xA0 SHL SUB SWAP1 SWAP3 AND PUSH1 0x20 SWAP3 DUP4 MUL SWAP2 SWAP1 SWAP2 ADD SWAP1 SWAP2 ADD MSTORE PUSH1 0x1 ADD PUSH2 0x490 JUMP JUMPDEST POP PUSH2 0x518 DUP8 DUP4 DUP7 PUSH2 0xC56 JUMP JUMPDEST PUSH1 0x40 MLOAD PUSH4 0x6CB498E5 PUSH1 0xE0 SHL DUP2 MSTORE PUSH1 0x1 PUSH1 0x1 PUSH1 0xA0 SHL SUB PUSH32 0x0 AND SWAP1 PUSH4 0x6CB498E5 SWAP1 PUSH2 0x58A SWAP1 PUSH32 0x0 SWAP1 DUP6 SWAP1 DUP11 SWAP1 DUP11 SWAP1 PUSH1 0x4 ADD PUSH2 0x114C JUMP JUMPDEST PUSH0 PUSH1 0x40 MLOAD DUP1 DUP4 SUB DUP2 PUSH0 DUP8 DUP1 EXTCODESIZE ISZERO DUP1 ISZERO PUSH2 0x5A1 JUMPI PUSH0 PUSH0 REVERT JUMPDEST POP GAS CALL ISZERO DUP1 ISZERO PUSH2 0x5B3 JUMPI RETURNDATASIZE PUSH0 PUSH0 RETURNDATACOPY RETURNDATASIZE PUSH0 REVERT JUMPDEST POP PUSH4 0xBC197C81 PUSH1 0xE0 SHL SWAP6 POP POP POP POP POP POP JUMPDEST SWAP6 SWAP5 POP POP POP POP POP JUMP JUMPDEST CALLER PUSH1 0x1 PUSH1 0x1 PUSH1 0xA0 SHL SUB PUSH32 0x0 AND EQ PUSH2 0x616 JUMPI PUSH1 0x40 MLOAD PUSH4 0x6346B2B7 PUSH1 0xE0 SHL DUP2 MSTORE PUSH1 0x4 ADD PUSH1 0x40 MLOAD DUP1 SWAP2 SUB SWAP1 REVERT JUMPDEST PUSH1 0x40 MLOAD PUSH4 0x75DCEBC7 PUSH1 0xE0 SHL DUP2 MSTORE PUSH1 0x1 PUSH1 0x1 PUSH1 0xA0 SHL SUB DUP4 DUP2 AND PUSH1 0x4 DUP4 ADD MSTORE PUSH12 0xFFFFFFFFFFFFFFFFFFFFFFFF DUP4 AND PUSH1 0x24 DUP4 ADD MSTORE PUSH32 0x0 AND SWAP1 PUSH4 0x75DCEBC7 SWAP1 PUSH1 0x44 ADD PUSH0 PUSH1 0x40 MLOAD DUP1 DUP4 SUB DUP2 PUSH0 DUP8 DUP1 EXTCODESIZE ISZERO DUP1 ISZERO PUSH2 0x68A JUMPI PUSH0 PUSH0 REVERT JUMPDEST POP GAS CALL ISZERO DUP1 ISZERO PUSH2 0x69C JUMPI RETURNDATASIZE PUSH0 PUSH0 RETURNDATACOPY RETURNDATASIZE PUSH0 REVERT JUMPDEST POP POP POP POP POP POP JUMP JUMPDEST PUSH0 CALLER PUSH1 0x1 PUSH1 0x1 PUSH1 0xA0 SHL SUB PUSH32 0x0 AND EQ PUSH2 0x6EE JUMPI PUSH1 0x40 MLOAD PUSH4 0x58A7C73 PUSH1 0xE3 SHL DUP2 MSTORE PUSH1 0x4 ADD PUSH1 0x40 MLOAD DUP1 SWAP2 SUB SWAP1 REVERT JUMPDEST PUSH1 0x1 PUSH1 0x1 PUSH1 0xA0 SHL SUB DUP6 AND PUSH2 0xB04 JUMPI PUSH0 MLOAD PUSH1 0x20 PUSH2 0x12B9 PUSH0 CODECOPY PUSH0 MLOAD SWAP1 PUSH0 MSTORE TLOAD PUSH32 0x6136ADCD727E05279D0BEB0B97407672ABC1607384D66AEC4A65A09DAA5BBA68 TLOAD PUSH0 MLOAD PUSH1 0x20 PUSH2 0x1299 PUSH0 CODECOPY PUSH0 MLOAD SWAP1 PUSH0 MSTORE TLOAD DUP6 DUP4 EQ DUP1 ISZERO PUSH2 0x76A JUMPI POP PUSH32 0x0 DUP8 EQ JUMPDEST ISZERO PUSH2 0xAEB JUMPI PUSH2 0x777 PUSH2 0xD97 JUMP JUMPDEST DUP1 PUSH0 SUB PUSH2 0x824 JUMPI PUSH1 0x40 MLOAD PUSH4 0x79212195 PUSH1 0xE1 SHL DUP2 MSTORE PUSH1 0x1 PUSH1 0x1 PUSH1 0xA0 SHL SUB PUSH32 0x0 AND SWAP1 PUSH4 0xF242432A SWAP1 PUSH2 0x7F2 SWAP1 ADDRESS SWAP1 DUP7 SWAP1 PUSH32 0x0 SWAP1 DUP10 SWAP1 DUP13 SWAP1 PUSH1 0x4 ADD PUSH2 0x11FB JUMP JUMPDEST PUSH0 PUSH1 0x40 MLOAD DUP1 DUP4 SUB DUP2 PUSH0 DUP8 DUP1 EXTCODESIZE ISZERO DUP1 ISZERO PUSH2 0x809 JUMPI PUSH0 PUSH0 REVERT JUMPDEST POP GAS CALL ISZERO DUP1 ISZERO PUSH2 0x81B JUMPI RETURNDATASIZE PUSH0 PUSH0 RETURNDATACOPY RETURNDATASIZE PUSH0 REVERT JUMPDEST POP POP POP POP PUSH2 0xAA0 JUMP JUMPDEST PUSH0 DUP2 PUSH1 0x1 EQ PUSH2 0x853 JUMPI PUSH32 0x0 PUSH2 0x875 JUMP JUMPDEST PUSH32 0x0 JUMPDEST PUSH1 0x40 MLOAD PUSH4 0x70A08231 PUSH1 0xE0 SHL DUP2 MSTORE ADDRESS PUSH1 0x4 DUP3 ADD MSTORE SWAP1 SWAP2 POP PUSH0 SWAP1 PUSH1 0x1 PUSH1 0x1 PUSH1 0xA0 SHL SUB DUP4 AND SWAP1 PUSH4 0x70A08231 SWAP1 PUSH1 0x24 ADD PUSH1 0x20 PUSH1 0x40 MLOAD DUP1 DUP4 SUB DUP2 DUP7 GAS STATICCALL ISZERO DUP1 ISZERO PUSH2 0x8BC JUMPI RETURNDATASIZE PUSH0 PUSH0 RETURNDATACOPY RETURNDATASIZE PUSH0 REVERT JUMPDEST POP POP POP POP PUSH1 0x40 MLOAD RETURNDATASIZE PUSH1 0x1F NOT PUSH1 0x1F DUP3 ADD AND DUP3 ADD DUP1 PUSH1 0x40 MSTORE POP DUP2 ADD SWAP1 PUSH2 0x8E0 SWAP2 SWAP1 PUSH2 0x1234 JUMP JUMPDEST SWAP1 POP PUSH1 0x1 PUSH1 0x1 PUSH1 0xA0 SHL SUB PUSH32 0x0 AND PUSH4 0xAABD6954 PUSH32 0x0 DUP8 PUSH2 0x93E PUSH1 0x1 DUP9 PUSH2 0x124B JUMP JUMPDEST PUSH1 0x40 MLOAD PUSH1 0x1 PUSH1 0x1 PUSH1 0xE0 SHL SUB NOT PUSH1 0xE0 DUP7 SWAP1 SHL AND DUP2 MSTORE PUSH1 0x1 PUSH1 0x1 PUSH1 0xA0 SHL SUB SWAP1 SWAP4 AND PUSH1 0x4 DUP5 ADD MSTORE PUSH1 0x24 DUP4 ADD SWAP2 SWAP1 SWAP2 MSTORE PUSH1 0xFF AND PUSH1 0x44 DUP3 ADD MSTORE PUSH1 0x64 ADD PUSH1 0x20 PUSH1 0x40 MLOAD DUP1 DUP4 SUB DUP2 PUSH0 DUP8 GAS CALL ISZERO DUP1 ISZERO PUSH2 0x991 JUMPI RETURNDATASIZE PUSH0 PUSH0 RETURNDATACOPY RETURNDATASIZE PUSH0 REVERT JUMPDEST POP POP POP POP PUSH1 0x40 MLOAD RETURNDATASIZE PUSH1 0x1F NOT PUSH1 0x1F DUP3 ADD AND DUP3 ADD DUP1 PUSH1 0x40 MSTORE POP DUP2 ADD SWAP1 PUSH2 0x9B5 SWAP2 SWAP1 PUSH2 0x125E JUMP JUMPDEST POP PUSH1 0x40 MLOAD PUSH4 0x70A08231 PUSH1 0xE0 SHL DUP2 MSTORE ADDRESS PUSH1 0x4 DUP3 ADD MSTORE DUP2 SWAP1 PUSH1 0x1 PUSH1 0x1 PUSH1 0xA0 SHL SUB DUP5 AND SWAP1 PUSH4 0x70A08231 SWAP1 PUSH1 0x24 ADD PUSH1 0x20 PUSH1 0x40 MLOAD DUP1 DUP4 SUB DUP2 DUP7 GAS STATICCALL ISZERO DUP1 ISZERO PUSH2 0x9FA JUMPI RETURNDATASIZE PUSH0 PUSH0 RETURNDATACOPY RETURNDATASIZE PUSH0 REVERT JUMPDEST POP POP POP POP PUSH1 0x40 MLOAD RETURNDATASIZE PUSH1 0x1F NOT PUSH1 0x1F DUP3 ADD AND DUP3 ADD DUP1 PUSH1 0x40 MSTORE POP DUP2 ADD SWAP1 PUSH2 0xA1E SWAP2 SWAP1 PUSH2 0x1234 JUMP JUMPDEST PUSH2 0xA28 SWAP2 SWAP1 PUSH2 0x124B JUMP JUMPDEST PUSH1 0x40 MLOAD PUSH4 0xA9059CBB PUSH1 0xE0 SHL DUP2 MSTORE PUSH1 0x1 PUSH1 0x1 PUSH1 0xA0 SHL SUB DUP7 DUP2 AND PUSH1 0x4 DUP4 ADD MSTORE PUSH1 0x24 DUP3 ADD DUP4 SWAP1 MSTORE SWAP2 SWAP7 POP SWAP1 DUP4 AND SWAP1 PUSH4 0xA9059CBB SWAP1 PUSH1 0x44 ADD PUSH1 0x20 PUSH1 0x40 MLOAD DUP1 DUP4 SUB DUP2 PUSH0 DUP8 GAS CALL ISZERO DUP1 ISZERO PUSH2 0xA78 JUMPI RETURNDATASIZE PUSH0 PUSH0 RETURNDATACOPY RETURNDATASIZE PUSH0 REVERT JUMPDEST POP POP POP POP PUSH1 0x40 MLOAD RETURNDATASIZE PUSH1 0x1F NOT PUSH1 0x1F DUP3 ADD AND DUP3 ADD DUP1 PUSH1 0x40 MSTORE POP DUP2 ADD SWAP1 PUSH2 0xA9C SWAP2 SWAP1 PUSH2 0x1279 JUMP JUMPDEST POP POP POP JUMPDEST DUP1 DUP4 DUP4 PUSH1 0x1 PUSH1 0x1 PUSH1 0xA0 SHL SUB AND PUSH32 0x4442AF9FC0F6466CEA71A55E8CAE87EF09853F682DC82B362E4C8981944AFA39 PUSH1 0x40 MLOAD PUSH1 0x40 MLOAD DUP1 SWAP2 SUB SWAP1 LOG4 POP PUSH4 0xF23A6E61 PUSH1 0xE0 SHL SWAP3 POP PUSH2 0x5C4 SWAP2 POP POP JUMP JUMPDEST PUSH1 0x40 MLOAD PUSH4 0xCAC5BFFB PUSH1 0xE0 SHL DUP2 MSTORE PUSH1 0x4 ADD PUSH1 0x40 MLOAD DUP1 SWAP2 SUB SWAP1 REVERT JUMPDEST PUSH2 0xB0F DUP6 DUP5 DUP5 PUSH2 0xC56 JUMP JUMPDEST PUSH1 0x40 DUP1 MLOAD PUSH1 0x1 DUP1 DUP3 MSTORE DUP2 DUP4 ADD SWAP1 SWAP3 MSTORE PUSH0 SWAP2 PUSH1 0x20 DUP1 DUP4 ADD SWAP1 DUP1 CALLDATASIZE DUP4 CALLDATACOPY POP POP PUSH1 0x40 DUP1 MLOAD PUSH1 0x1 DUP1 DUP3 MSTORE DUP2 DUP4 ADD SWAP1 SWAP3 MSTORE SWAP3 SWAP4 POP PUSH0 SWAP3 SWAP2 POP PUSH1 0x20 DUP1 DUP4 ADD SWAP1 DUP1 CALLDATASIZE DUP4 CALLDATACOPY ADD SWAP1 POP POP SWAP1 POP DUP6 DUP3 PUSH0 DUP2 MLOAD DUP2 LT PUSH2 0xB65 JUMPI PUSH2 0xB65 PUSH2 0x10E3 JUMP JUMPDEST PUSH1 0x20 MUL PUSH1 0x20 ADD ADD SWAP1 PUSH1 0x1 PUSH1 0x1 PUSH1 0xA0 SHL SUB AND SWAP1 DUP2 PUSH1 0x1 PUSH1 0x1 PUSH1 0xA0 SHL SUB AND DUP2 MSTORE POP POP DUP5 DUP2 PUSH0 DUP2 MLOAD DUP2 LT PUSH2 0xB98 JUMPI PUSH2 0xB98 PUSH2 0x10E3 JUMP JUMPDEST PUSH1 0x20 SWAP1 DUP2 MUL SWAP2 SWAP1 SWAP2 ADD ADD MSTORE PUSH1 0x40 MLOAD PUSH4 0x6CB498E5 PUSH1 0xE0 SHL DUP2 MSTORE PUSH1 0x1 PUSH1 0x1 PUSH1 0xA0 SHL SUB PUSH32 0x0 AND SWAP1 PUSH4 0x6CB498E5 SWAP1 PUSH2 0xC15 SWAP1 PUSH32 0x0 SWAP1 DUP7 SWAP1 DUP7 SWAP1 DUP11 SWAP1 PUSH1 0x4 ADD PUSH2 0x114C JUMP JUMPDEST PUSH0 PUSH1 0x40 MLOAD DUP1 DUP4 SUB DUP2 PUSH0 DUP8 DUP1 EXTCODESIZE ISZERO DUP1 ISZERO PUSH2 0xC2C JUMPI PUSH0 PUSH0 REVERT JUMPDEST POP GAS CALL ISZERO DUP1 ISZERO PUSH2 0xC3E JUMPI RETURNDATASIZE PUSH0 PUSH0 RETURNDATACOPY RETURNDATASIZE PUSH0 REVERT JUMPDEST POP PUSH4 0xF23A6E61 PUSH1 0xE0 SHL SWAP12 SWAP11 POP POP POP POP POP POP POP POP POP POP POP JUMP JUMPDEST PUSH4 0x3402A163 PUSH1 0xE0 SHL PUSH4 0xA896A065 PUSH1 0xE0 SHL PUSH0 DUP5 PUSH2 0xC74 JUMPI DUP3 PUSH0 MSTORE PUSH1 0x4 PUSH0 REVERT JUMPDEST PUSH0 MLOAD PUSH1 0x20 PUSH2 0x12B9 PUSH0 CODECOPY PUSH0 MLOAD SWAP1 PUSH0 MSTORE TLOAD DUP1 ISZERO PUSH2 0xC91 JUMPI DUP3 PUSH0 MSTORE PUSH1 0x4 PUSH0 REVERT JUMPDEST DUP6 PUSH0 MLOAD PUSH1 0x20 PUSH2 0x12B9 PUSH0 CODECOPY PUSH0 MLOAD SWAP1 PUSH0 MSTORE TSTORE DUP7 PUSH32 0x6136ADCD727E05279D0BEB0B97407672ABC1607384D66AEC4A65A09DAA5BBA68 TSTORE PUSH1 0x1F DUP6 MLOAD GT ISZERO PUSH2 0xD56 JUMPI PUSH1 0x20 DUP6 ADD MLOAD PUSH32 0xF3F5858942140FD2894EEB8B74CD0ED72D24FC6675D352A2884B1BE2F32256FE DUP2 EQ PUSH2 0xD26 JUMPI PUSH32 0x9D28938B56C0E8AAE8DD05E12461CBABF8F699236C3FD7C54C7D3BB9FB443ED2 DUP2 EQ PUSH2 0xD3F JUMPI PUSH2 0xD54 JUMP JUMPDEST PUSH1 0x1 SWAP3 POP DUP3 PUSH0 MLOAD PUSH1 0x20 PUSH2 0x1299 PUSH0 CODECOPY PUSH0 MLOAD SWAP1 PUSH0 MSTORE TSTORE PUSH2 0xD54 JUMP JUMPDEST PUSH1 0x2 SWAP3 POP DUP3 PUSH0 MLOAD PUSH1 0x20 PUSH2 0x1299 PUSH0 CODECOPY PUSH0 MLOAD SWAP1 PUSH0 MSTORE TSTORE JUMPDEST POP JUMPDEST POP DUP1 DUP6 DUP8 PUSH1 0x1 PUSH1 0x1 PUSH1 0xA0 SHL SUB AND PUSH32 0xA4466AA34AD627877204336E07A065A4DA68FB136D84533A7B17290B86154DE9 PUSH1 0x40 MLOAD PUSH1 0x40 MLOAD DUP1 SWAP2 SUB SWAP1 LOG4 POP POP POP POP POP POP JUMP JUMPDEST PUSH0 PUSH0 MLOAD PUSH1 0x20 PUSH2 0x12B9 PUSH0 CODECOPY PUSH0 MLOAD SWAP1 PUSH0 MSTORE TSTORE PUSH0 PUSH32 0x6136ADCD727E05279D0BEB0B97407672ABC1607384D66AEC4A65A09DAA5BBA68 TSTORE PUSH0 PUSH0 MLOAD PUSH1 0x20 PUSH2 0x1299 PUSH0 CODECOPY PUSH0 MLOAD SWAP1 PUSH0 MSTORE TSTORE PUSH1 0x40 MLOAD PUSH32 0x1992EF760E9F09C8C806016548A62B7FD11268379C371A730A1A06D621F002DC SWAP1 PUSH0 SWAP1 LOG1 JUMP JUMPDEST PUSH0 PUSH1 0x20 DUP3 DUP5 SUB SLT ISZERO PUSH2 0xE14 JUMPI PUSH0 PUSH0 REVERT JUMPDEST DUP2 CALLDATALOAD PUSH1 0x1 PUSH1 0x1 PUSH1 0xE0 SHL SUB NOT DUP2 AND DUP2 EQ PUSH2 0xE2B JUMPI PUSH0 PUSH0 REVERT JUMPDEST SWAP4 SWAP3 POP POP POP JUMP JUMPDEST PUSH0 PUSH1 0x20 DUP3 DUP5 SUB SLT ISZERO PUSH2 0xE42 JUMPI PUSH0 PUSH0 REVERT JUMPDEST POP CALLDATALOAD SWAP2 SWAP1 POP JUMP JUMPDEST PUSH1 0x1 PUSH1 0x1 PUSH1 0xA0 SHL SUB DUP2 AND DUP2 EQ PUSH2 0xE5D JUMPI PUSH0 PUSH0 REVERT JUMPDEST POP JUMP JUMPDEST PUSH4 0x4E487B71 PUSH1 0xE0 SHL PUSH0 MSTORE PUSH1 0x41 PUSH1 0x4 MSTORE PUSH1 0x24 PUSH0 REVERT JUMPDEST PUSH1 0x40 MLOAD PUSH1 0x1F DUP3 ADD PUSH1 0x1F NOT AND DUP2 ADD PUSH8 0xFFFFFFFFFFFFFFFF DUP2 GT DUP3 DUP3 LT OR ISZERO PUSH2 0xE9D JUMPI PUSH2 0xE9D PUSH2 0xE60 JUMP JUMPDEST PUSH1 0x40 MSTORE SWAP2 SWAP1 POP JUMP JUMPDEST PUSH0 DUP3 PUSH1 0x1F DUP4 ADD SLT PUSH2 0xEB4 JUMPI PUSH0 PUSH0 REVERT JUMPDEST DUP2 CALLDATALOAD PUSH8 0xFFFFFFFFFFFFFFFF DUP2 GT ISZERO PUSH2 0xECE JUMPI PUSH2 0xECE PUSH2 0xE60 JUMP JUMPDEST DUP1 PUSH1 0x5 SHL PUSH2 0xEDE PUSH1 0x20 DUP3 ADD PUSH2 0xE74 JUMP JUMPDEST SWAP2 DUP3 MSTORE PUSH1 0x20 DUP2 DUP6 ADD DUP2 ADD SWAP3 SWAP1 DUP2 ADD SWAP1 DUP7 DUP5 GT ISZERO PUSH2 0xEF9 JUMPI PUSH0 PUSH0 REVERT JUMPDEST PUSH1 0x20 DUP7 ADD SWAP3 POP JUMPDEST DUP4 DUP4 LT ISZERO PUSH2 0xF1B JUMPI DUP3 CALLDATALOAD DUP3 MSTORE PUSH1 0x20 SWAP3 DUP4 ADD SWAP3 SWAP1 SWAP2 ADD SWAP1 PUSH2 0xF00 JUMP JUMPDEST SWAP7 SWAP6 POP POP POP POP POP POP JUMP JUMPDEST PUSH0 DUP3 PUSH1 0x1F DUP4 ADD SLT PUSH2 0xF34 JUMPI PUSH0 PUSH0 REVERT JUMPDEST DUP2 CALLDATALOAD PUSH8 0xFFFFFFFFFFFFFFFF DUP2 GT ISZERO PUSH2 0xF4E JUMPI PUSH2 0xF4E PUSH2 0xE60 JUMP JUMPDEST PUSH2 0xF61 PUSH1 0x1F DUP3 ADD PUSH1 0x1F NOT AND PUSH1 0x20 ADD PUSH2 0xE74 JUMP JUMPDEST DUP2 DUP2 MSTORE DUP5 PUSH1 0x20 DUP4 DUP7 ADD ADD GT ISZERO PUSH2 0xF75 JUMPI PUSH0 PUSH0 REVERT JUMPDEST DUP2 PUSH1 0x20 DUP6 ADD PUSH1 0x20 DUP4 ADD CALLDATACOPY PUSH0 SWAP2 DUP2 ADD PUSH1 0x20 ADD SWAP2 SWAP1 SWAP2 MSTORE SWAP4 SWAP3 POP POP POP JUMP JUMPDEST PUSH0 PUSH0 PUSH0 PUSH0 PUSH0 PUSH1 0xA0 DUP7 DUP9 SUB SLT ISZERO PUSH2 0xFA5 JUMPI PUSH0 PUSH0 REVERT JUMPDEST DUP6 CALLDATALOAD PUSH2 0xFB0 DUP2 PUSH2 0xE49 JUMP JUMPDEST SWAP5 POP PUSH1 0x20 DUP7 ADD CALLDATALOAD PUSH2 0xFC0 DUP2 PUSH2 0xE49 JUMP JUMPDEST SWAP4 POP PUSH1 0x40 DUP7 ADD CALLDATALOAD PUSH8 0xFFFFFFFFFFFFFFFF DUP2 GT ISZERO PUSH2 0xFDB JUMPI PUSH0 PUSH0 REVERT JUMPDEST PUSH2 0xFE7 DUP9 DUP3 DUP10 ADD PUSH2 0xEA5 JUMP JUMPDEST SWAP4 POP POP PUSH1 0x60 DUP7 ADD CALLDATALOAD PUSH8 0xFFFFFFFFFFFFFFFF DUP2 GT ISZERO PUSH2 0x1003 JUMPI PUSH0 PUSH0 REVERT JUMPDEST PUSH2 0x100F DUP9 DUP3 DUP10 ADD PUSH2 0xEA5 JUMP JUMPDEST SWAP3 POP POP PUSH1 0x80 DUP7 ADD CALLDATALOAD PUSH8 0xFFFFFFFFFFFFFFFF DUP2 GT ISZERO PUSH2 0x102B JUMPI PUSH0 PUSH0 REVERT JUMPDEST PUSH2 0x1037 DUP9 DUP3 DUP10 ADD PUSH2 0xF25 JUMP JUMPDEST SWAP2 POP POP SWAP3 SWAP6 POP SWAP3 SWAP6 SWAP1 SWAP4 POP JUMP JUMPDEST PUSH0 PUSH0 PUSH1 0x40 DUP4 DUP6 SUB SLT ISZERO PUSH2 0x1055 JUMPI PUSH0 PUSH0 REVERT JUMPDEST DUP3 CALLDATALOAD PUSH2 0x1060 DUP2 PUSH2 0xE49 JUMP JUMPDEST SWAP2 POP PUSH1 0x20 DUP4 ADD CALLDATALOAD PUSH12 0xFFFFFFFFFFFFFFFFFFFFFFFF DUP2 AND DUP2 EQ PUSH2 0x1080 JUMPI PUSH0 PUSH0 REVERT JUMPDEST DUP1 SWAP2 POP POP SWAP3 POP SWAP3 SWAP1 POP JUMP JUMPDEST PUSH0 PUSH0 PUSH0 PUSH0 PUSH0 PUSH1 0xA0 DUP7 DUP9 SUB SLT ISZERO PUSH2 0x109F JUMPI PUSH0 PUSH0 REVERT JUMPDEST DUP6 CALLDATALOAD PUSH2 0x10AA DUP2 PUSH2 0xE49 JUMP JUMPDEST SWAP5 POP PUSH1 0x20 DUP7 ADD CALLDATALOAD PUSH2 0x10BA DUP2 PUSH2 0xE49 JUMP JUMPDEST SWAP4 POP PUSH1 0x40 DUP7 ADD CALLDATALOAD SWAP3 POP PUSH1 0x60 DUP7 ADD CALLDATALOAD SWAP2 POP PUSH1 0x80 DUP7 ADD CALLDATALOAD PUSH8 0xFFFFFFFFFFFFFFFF DUP2 GT ISZERO PUSH2 0x102B JUMPI PUSH0 PUSH0 REVERT JUMPDEST PUSH4 0x4E487B71 PUSH1 0xE0 SHL PUSH0 MSTORE PUSH1 0x32 PUSH1 0x4 MSTORE PUSH1 0x24 PUSH0 REVERT JUMPDEST PUSH4 0x4E487B71 PUSH1 0xE0 SHL PUSH0 MSTORE PUSH1 0x11 PUSH1 0x4 MSTORE PUSH1 0x24 PUSH0 REVERT JUMPDEST DUP1 DUP3 ADD DUP1 DUP3 GT ISZERO PUSH2 0x2EC JUMPI PUSH2 0x2EC PUSH2 0x10F7 JUMP JUMPDEST PUSH0 DUP2 MLOAD DUP1 DUP5 MSTORE DUP1 PUSH1 0x20 DUP5 ADD PUSH1 0x20 DUP7 ADD MCOPY PUSH0 PUSH1 0x20 DUP3 DUP7 ADD ADD MSTORE PUSH1 0x20 PUSH1 0x1F NOT PUSH1 0x1F DUP4 ADD AND DUP6 ADD ADD SWAP2 POP POP SWAP3 SWAP2 POP POP JUMP JUMPDEST PUSH1 0x1 PUSH1 0x1 PUSH1 0xA0 SHL SUB DUP6 AND DUP2 MSTORE PUSH1 0x80 PUSH1 0x20 DUP1 DUP4 ADD DUP3 SWAP1 MSTORE DUP6 MLOAD SWAP2 DUP4 ADD DUP3 SWAP1 MSTORE PUSH0 SWAP2 SWAP1 DUP7 ADD SWAP1 PUSH1 0xA0 DUP5 ADD SWAP1 DUP4 JUMPDEST DUP2 DUP2 LT ISZERO PUSH2 0x119E JUMPI DUP4 MLOAD PUSH1 0x1 PUSH1 0x1 PUSH1 0xA0 SHL SUB AND DUP4 MSTORE PUSH1 0x20 SWAP4 DUP5 ADD SWAP4 SWAP1 SWAP3 ADD SWAP2 PUSH1 0x1 ADD PUSH2 0x1177 JUMP JUMPDEST POP POP DUP4 DUP2 SUB PUSH1 0x40 DUP6 ADD MSTORE DUP6 MLOAD DUP1 DUP3 MSTORE PUSH1 0x20 SWAP2 DUP3 ADD SWAP3 POP SWAP1 DUP7 ADD SWAP1 PUSH0 SWAP1 DUP2 JUMPDEST DUP2 DUP2 LT ISZERO PUSH2 0x11DA JUMPI DUP4 MLOAD DUP6 MSTORE PUSH1 0x20 SWAP5 DUP6 ADD SWAP5 SWAP1 SWAP4 ADD SWAP3 PUSH1 0x1 ADD PUSH2 0x11BC JUMP JUMPDEST POP POP POP POP DUP3 DUP2 SUB PUSH1 0x60 DUP5 ADD MSTORE PUSH2 0x11F0 DUP2 DUP6 PUSH2 0x111E JUMP JUMPDEST SWAP8 SWAP7 POP POP POP POP POP POP POP JUMP JUMPDEST PUSH1 0x1 PUSH1 0x1 PUSH1 0xA0 SHL SUB DUP7 DUP2 AND DUP3 MSTORE DUP6 AND PUSH1 0x20 DUP3 ADD MSTORE PUSH1 0x40 DUP2 ADD DUP5 SWAP1 MSTORE PUSH1 0x60 DUP2 ADD DUP4 SWAP1 MSTORE PUSH1 0xA0 PUSH1 0x80 DUP3 ADD DUP2 SWAP1 MSTORE PUSH0 SWAP1 PUSH2 0x11F0 SWAP1 DUP4 ADD DUP5 PUSH2 0x111E JUMP JUMPDEST PUSH0 PUSH1 0x20 DUP3 DUP5 SUB SLT ISZERO PUSH2 0x1244 JUMPI PUSH0 PUSH0 REVERT JUMPDEST POP MLOAD SWAP2 SWAP1 POP JUMP JUMPDEST DUP2 DUP2 SUB DUP2 DUP2 GT ISZERO PUSH2 0x2EC JUMPI PUSH2 0x2EC PUSH2 0x10F7 JUMP JUMPDEST PUSH0 PUSH1 0x20 DUP3 DUP5 SUB SLT ISZERO PUSH2 0x126E JUMPI PUSH0 PUSH0 REVERT JUMPDEST DUP2 MLOAD PUSH2 0xE2B DUP2 PUSH2 0xE49 JUMP JUMPDEST PUSH0 PUSH1 0x20 DUP3 DUP5 SUB SLT ISZERO PUSH2 0x1289 JUMPI PUSH0 PUSH0 REVERT JUMPDEST DUP2 MLOAD DUP1 ISZERO ISZERO DUP2 EQ PUSH2 0xE2B JUMPI PUSH0 PUSH0 REVERT INVALID 0xCD 0xA7 ISZERO CALLER 0xCD STATICCALL GT 0xDC INVALID DUP7 SAR 0xBF LOG3 DUP12 SWAP6 PUSH13 0x85D855F8E75C6728C650AC844F 0x4F 0xD4 PUSH31 0xFB747A744F99E39F75C6FC4A40AE1E72605F4D4A2AA65E5E3D29E889D7F506 SHL LOG2 PUSH5 0x6970667358 0x22 SLT KECCAK256 0xA6 BYTE 0xB6 ADDMOD 0xBA PUSH16 0x19BD473571CCB14791442C815FF5BE1A 0xFB 0xD2 0x26 SLT 0x2E 0xD9 AND LOG2 LOG2 0xAC PUSH5 0x736F6C6343 STOP ADDMOD SHR STOP CALLER "},"methodIdentifiers":{"DEMURRAGE()":"6604495e","GROUP()":"e532b61d","GROUP_ID()":"4dd9c0b5","HUB()":"a4c52b86","INFLATIONARY()":"f07108a0","NAME_REGISTRY()":"a05c2616","TYPE_DEMURRAGE()":"033f7354","TYPE_INFLATIONARY()":"a855a717","mirrorTrust(address,uint96)":"c878fe95","onERC1155BatchReceived(address,address,uint256[],uint256[],bytes)":"bc197c81","onERC1155Received(address,address,uint256,uint256,bytes)":"f23a6e61","supportsInterface(bytes4)":"01ffc9a7","updateMetadataDigest(bytes32)":"3857d9d7"}}}}}