{"sol/base/Circle.sol":{"Circle":{"abi":[{"inputs":[{"internalType":"address","name":"from","type":"address"},{"internalType":"uint256","name":"amount","type":"uint256"}],"name":"burn","outputs":[],"stateMutability":"nonpayable","type":"function"},{"inputs":[{"internalType":"address","name":"to","type":"address"},{"internalType":"uint256","name":"amount","type":"uint256"}],"name":"mint","outputs":[],"stateMutability":"nonpayable","type":"function"}],"evm":{"bytecode":{"linkReferences":{},"object":"6080604052348015600e575f5ffd5b5060ae80601a5f395ff3fe6080604052348015600e575f5ffd5b50600436106030575f3560e01c806340c10f191460345780639dc29fac146034575b5f5ffd5b6043603f3660046045565b5050565b005b5f5f604083850312156055575f5ffd5b82356001600160a01b0381168114606a575f5ffd5b94602093909301359350505056fea26469706673582212204e55198713e0d45c93f1d7f7632dcb2b4a58f502ddcd772d0f0f56c3925ec9a664736f6c634300081c0033","opcodes":"PUSH1 0x80 PUSH1 0x40 MSTORE CALLVALUE DUP1 ISZERO PUSH1 0xE JUMPI PUSH0 PUSH0 REVERT JUMPDEST POP PUSH1 0xAE DUP1 PUSH1 0x1A PUSH0 CODECOPY PUSH0 RETURN INVALID PUSH1 0x80 PUSH1 0x40 MSTORE CALLVALUE DUP1 ISZERO PUSH1 0xE JUMPI PUSH0 PUSH0 REVERT JUMPDEST POP PUSH1 0x4 CALLDATASIZE LT PUSH1 0x30 JUMPI PUSH0 CALLDATALOAD PUSH1 0xE0 SHR DUP1 PUSH4 0x40C10F19 EQ PUSH1 0x34 JUMPI DUP1 PUSH4 0x9DC29FAC EQ PUSH1 0x34 JUMPI JUMPDEST PUSH0 PUSH0 REVERT JUMPDEST PUSH1 0x43 PUSH1 0x3F CALLDATASIZE PUSH1 0x4 PUSH1 0x45 JUMP JUMPDEST POP POP JUMP JUMPDEST STOP JUMPDEST PUSH0 PUSH0 PUSH1 0x40 DUP4 DUP6 SUB SLT ISZERO PUSH1 0x55 JUMPI PUSH0 PUSH0 REVERT JUMPDEST DUP3 CALLDATALOAD PUSH1 0x1 PUSH1 0x1 PUSH1 0xA0 SHL SUB DUP2 AND DUP2 EQ PUSH1 0x6A JUMPI PUSH0 PUSH0 REVERT JUMPDEST SWAP5 PUSH1 0x20 SWAP4 SWAP1 SWAP4 ADD CALLDATALOAD SWAP4 POP POP POP JUMP INVALID LOG2 PUSH5 0x6970667358 0x22 SLT KECCAK256 0x4E SSTORE NOT DUP8 SGT 0xE0 0xD4 TLOAD SWAP4 CALL 0xD7 0xF7 PUSH4 0x2DCB2B4A PC CREATE2 MUL 0xDD 0xCD PUSH24 0x2D0F0F56C3925EC9A664736F6C634300081C003300000000 "},"methodIdentifiers":{"burn(address,uint256)":"9dc29fac","mint(address,uint256)":"40c10f19"}}}}}